SPHA0932605000000000000000000000000000                                                                                                                                                                                                                                                                                                                                            
SPHB000000256021994360000009326000                                                                                                                                                                                                                                                                                                                                                
SPDP04000000000020000002020101403FOCG7207055J9       FOCG7207055J9FLORES CALDERON GRISELDA                000000000000013700000000000001499999999999999900000                                        9 00000044014001PRESTAMO DE AHORRO SNTE SECC5                                                                                 0000000000000000000000000                      
SPDMJHUERTA@ALGORITMOS.COM.MX                                                                           00000000000000000000000000000000002020110340044DISP0000000038870                                                                                                                                                                                                          
SPDP04000000000003000002020101403YASU8211098D6       YASU8211098D6YAÑEZ SANCHEZ URSULA VIRIDIANA          000000000000016500000000000067429485638288181800000                                        9 00000044674001PRESTAMO DE AHORRO SNTE SECC5                                                                                 0000000000000000000000000                      
SPDMJHUERTA@ALGORITMOS.COM.MX                                                                           00000000000000000000000000000000002020110340044DISP0000000038871                                                                                                                                                                                                          
SPDP04000000000006000002020101403EUMJ820922U98       EUMJ820922U98ESQUIVEL MURILLO JUAN HIRAM             000000000000017100000000000007212387654345679000000                                        9 00000044072001PRESTAMO DE AHORRO SNTE SECC5                                                                                 0000000000000000000000000                      
SPDMJHUERTA@ALGORITMOS.COM.MX                                                                           00000000000000000000000000000000002020110340044DISP0000000038872                                                                                                                                                                                                          
SPDP04000000000003500002020101403VEEC8403189F4       VEEC8403189F4VELOZ ESCOBEDO CLAUDIA LORENA           000000000000018100000000000000276545667546765600000                                        9 00000044002001PRESTAMO DE AHORRO SNTE SECC5                                                                                 0000000000000000000000000                      
SPDMJHUERTA@ALGORITMOS.COM.MX                                                                           00000000000000000000000000000000002020110340044DISP0000000038873                                                                                                                                                                                                          
SPTB000000400000000003250000000000000000000000000000000000000000000000000000000000000000000000000000000000000000000000000000000000000000000000000000000000000000000000000000000000000000000000000000000000000000000000000000000000000000000000000000000                                                                                                                           
SPTA000000400000000003250000000000000000000000000000000000000000000000000000000000000000000000000000000000000000000000000000000000000000000000000000000000000000000000000000000000000000000000000000000000000000000000000000000000000000000000000000000000                                                                                                                        
