SPHA0932601000000000000000000000000000                                                                                                                                                                                                                                                                                                                                            
SPHB000000256021994360000009326000                                                                                                                                                                                                                                                                                                                                                
SPDP04000000000006351732021022203GUOV840830MJ6       GUOV840830MJ6GUEVARA ORDAZ VICTOR MANUEL             000000000000722700000000000001406856587411563600000                                        9 00000044014001PRESTAMO COMPLEMENTARIO SNTE SECC5                                                                            0000000000000000000000000                      
SPDMSNTE5AHORRO@OUTLOOK.COM                                                                             0000000000000000000000000000000000                                                                                                                                                                                                                                        
SPTB000000100000000000635173000000000000000000000000000000000000000000000000000000000000000000000000000000000000000000000000000000000000000000000000000000000000000000000000000000000000000000000000000000000000000000000000000000000000000000000000000                                                                                                                           
SPTA000000100000000000635173000000000000000000000000000000000000000000000000000000000000000000000000000000000000000000000000000000000000000000000000000000000000000000000000000000000000000000000000000000000000000000000000000000000000000000000000000000                                                                                                                        
