SPHA0932601000000000000000000000000000                                                                                                                                                                                                                                                                                                                                            
SPHB000000256021994360000009326000                                                                                                                                                                                                                                                                                                                                                
SPDP04000000000014610162021073103AAAA8501209R0       AAAA8501209R0ALVAREZ AGUIRRE ADRIANA ARACELY         000000000000626700000000000000207890240444649500000                                        9 00000044018001PAGO FONDO DE AHORRO SNTE 5 2020-2021 SNTE SECC5                                                              0000000000000000000000000                      
SPDMSNTE5AHORRO@OUTLOOK.COM                                                                             0000000000000000000000000000000000                                                                                                                                                                                                                                        
SPDP04000000000022874892021073103AAAA850719GI9       AAAA850719GI9ALCALA ARZOLA ALDO EMMANUEL             000000000000626800000000000001207802942838818500000                                        9 00000044029001PAGO FONDO DE AHORRO SNTE 5 2020-2021 SNTE SECC5                                                              0000000000000000000000000                      
SPDMSNTE5AHORRO@OUTLOOK.COM                                                                             0000000000000000000000000000000000                                                                                                                                                                                                                                        
SPDP04000000000021946892021073103AAAA921223G54       AAAA921223G54ARANDA AGUILAR ANALI                    000000000000626900000000000002107806500026823800000                                        9 00000044061001PAGO FONDO DE AHORRO SNTE 5 2020-2021 SNTE SECC5                                                              0000000000000000000000000                      
SPDMSNTE5AHORRO@OUTLOOK.COM                                                                             0000000000000000000000000000000000                                                                                                                                                                                                                                        
SPDP04000000000029585302021073103AAAA9603035K8       AAAA9603035K8ALVARO DANIEL ALVARADO ALVARADO         000000000002086600000000000001407556798108959400000                                        9 00000044093001PAGO FONDO DE AHORRO SNTE 5 2020-2021 SNTE SECC5                                                              0000000000000000000000000                      
SPDMSNTE5AHORRO@OUTLOOK.COM                                                                             0000000000000000000000000000000000                                                                                                                                                                                                                                        
SPDP04000000000016819352021073103AAAA9805318W4       AAAA9805318W4DEL ABRA ARZOLA ABIGAIL                 000000000000627000000000000000206870150879009600000                                        9 00000044018001PAGO FONDO DE AHORRO SNTE 5 2020-2021 SNTE SECC5                                                              0000000000000000000000000                      
SPDMSNTE5AHORRO@OUTLOOK.COM                                                                             0000000000000000000000000000000000                                                                                                                                                                                                                                        
SPDP04000000000022092032021073103AAAB711007E41       AAAB711007E41ALVARADO AGUILAR BERTHA ROSA            000000000000627100000000000001207701176107133300000                                        9 00000044029001PAGO FONDO DE AHORRO SNTE 5 2020-2021 SNTE SECC5                                                              0000000000000000000000000                      
SPDMSNTE5AHORRO@OUTLOOK.COM                                                                             0000000000000000000000000000000000                                                                                                                                                                                                                                        
SPDP04000000000000485422021073103AAAB8509255V3       AAAB8509255V3ARAIZ AGUILAR BIBIANA KORAL             000000000000627200000000000004406219401649582300000                                        9 00000044094001PAGO FONDO DE AHORRO SNTE 5 2020-2021 SNTE SECC5                                                              0000000000000000000000000                      
SPDMSNTE5AHORRO@OUTLOOK.COM                                                                             0000000000000000000000000000000000                                                                                                                                                                                                                                        
SPDP04000000000005475022021073103AAAC9205245M1       AAAC9205245M1AMAYA ALVAREZ CESAR ANTONIO             000000000000627400000000000001206801517953496900000                                        9 00000044029001PAGO FONDO DE AHORRO SNTE 5 2020-2021 SNTE SECC5                                                              0000000000000000000000000                      
SPDMSNTE5AHORRO@OUTLOOK.COM                                                                             0000000000000000000000000000000000                                                                                                                                                                                                                                        
SPDP04000000000017540582021073103AAAD901116CP3       AAAD901116CP3ARANDA ALANIS DIANA ROCIO               000000000000627500000000000007207500459369103700000                                        9 00000044024001PAGO FONDO DE AHORRO SNTE 5 2020-2021 SNTE SECC5                                                              0000000000000000000000000                      
SPDMSNTE5AHORRO@OUTLOOK.COM                                                                             0000000000000000000000000000000000                                                                                                                                                                                                                                        
SPDP04000000000019731862021073103AAAE810303M49       AAAE810303M49ALVAREZ ALCALA ERIKA                    000000000000627600000000000007207800236065370200000                                        9 00000044024001PAGO FONDO DE AHORRO SNTE 5 2020-2021 SNTE SECC5                                                              0000000000000000000000000                      
SPDMSNTE5AHORRO@OUTLOOK.COM                                                                             0000000000000000000000000000000000                                                                                                                                                                                                                                        
SPDP04000000000011148252021073103AAAF900521D91       AAAF900521D91FRANCISCO JAVIER ALVAREZ ALCALA         000000000002121600000000000002107806472617137000000                                        9 00000044061001PAGO FONDO DE AHORRO SNTE 5 2020-2021 SNTE SECC5                                                              0000000000000000000000000                      
SPDMSNTE5AHORRO@OUTLOOK.COM                                                                             0000000000000000000000000000000000                                                                                                                                                                                                                                        
SPDP04000000000022398602021073103AAAG821026FZ4       AAAG821026FZ4AMAYA ARIZPE GENARO                     000000000000627700000000000001207902679936181700000                                        9 00000044029001PAGO FONDO DE AHORRO SNTE 5 2020-2021 SNTE SECC5                                                              0000000000000000000000000                      
SPDMSNTE5AHORRO@OUTLOOK.COM                                                                             0000000000000000000000000000000000                                                                                                                                                                                                                                        
SPDP04000000000022825362021073103AAAG9008034M9       AAAG9008034M9ARANDA ARZOLA GLADYS PAMELA             000000000000627800000000000001207901149225692000000                                        9 00000044029001PAGO FONDO DE AHORRO SNTE 5 2020-2021 SNTE SECC5                                                              0000000000000000000000000                      
SPDMSNTE5AHORRO@OUTLOOK.COM                                                                             0000000000000000000000000000000000                                                                                                                                                                                                                                        
SPDP04000000000014357002021073103AAAG951002TH1       AAAG951002TH1AMAYA ARIZPE GIULIANA NOHEMI            000000000000627900000000000001207901534817850100000                                        9 00000044029001PAGO FONDO DE AHORRO SNTE 5 2020-2021 SNTE SECC5                                                              0000000000000000000000000                      
SPDMSNTE5AHORRO@OUTLOOK.COM                                                                             0000000000000000000000000000000000                                                                                                                                                                                                                                        
SPDP04000000000030939492021073103AAAG960519MF9       AAAG960519MF9ALVARADO APARICIO GUADALUPE SARAI       000000000000628000000000000001207601584726588200000                                        9 00000044029001PAGO FONDO DE AHORRO SNTE 5 2020-2021 SNTE SECC5                                                              0000000000000000000000000                      
SPDMSNTE5AHORRO@OUTLOOK.COM                                                                             0000000000000000000000000000000000                                                                                                                                                                                                                                        
SPDP04000000000012126492021073103AAAJ650425MP9       AAAJ650425MP9AMAYA AGUILLON JOSE                     000000000000628300000000000007207800410459818600000                                        9 00000044024001PAGO FONDO DE AHORRO SNTE 5 2020-2021 SNTE SECC5                                                              0000000000000000000000000                      
SPDMSNTE5AHORRO@OUTLOOK.COM                                                                             0000000000000000000000000000000000                                                                                                                                                                                                                                        
SPDP04000000000016735562021073103AAAJ830902LJ5       AAAJ830902LJ5ALVARADO ALEMAN JESUS ALBERTO           000000000000628400000000000001407556602324009800000                                        9 00000044093001PAGO FONDO DE AHORRO SNTE 5 2020-2021 SNTE SECC5                                                              0000000000000000000000000                      
SPDMSNTE5AHORRO@OUTLOOK.COM                                                                             0000000000000000000000000000000000                                                                                                                                                                                                                                        
SPDP04000000000011253822021073103AAAJ891217KZ2       AAAJ891217KZ2AMADOR ADAME JUANITA GUADALUPE          000000000002155000000000000001207201551145838500000                                        9 00000044029001PAGO FONDO DE AHORRO SNTE 5 2020-2021 SNTE SECC5                                                              0000000000000000000000000                      
SPDMSNTE5AHORRO@OUTLOOK.COM                                                                             0000000000000000000000000000000000                                                                                                                                                                                                                                        
SPDP04000000000016819352021073103AAAJ940807TA9       AAAJ940807TA9ALVARADO ARAIZA JENNIFER                000000000000628500000000000004407818702787261400000                                        9 00000044094001PAGO FONDO DE AHORRO SNTE 5 2020-2021 SNTE SECC5                                                              0000000000000000000000000                      
SPDMSNTE5AHORRO@OUTLOOK.COM                                                                             0000000000000000000000000000000000                                                                                                                                                                                                                                        
SPDP04000000000009200852021073103AAAK9412086Q7       AAAK9412086Q7ARANDA ARZOLA KAREN POLETH              000000000000628600000000000001207901569551321700000                                        9 00000044029001PAGO FONDO DE AHORRO SNTE 5 2020-2021 SNTE SECC5                                                              0000000000000000000000000                      
SPDMSNTE5AHORRO@OUTLOOK.COM                                                                             0000000000000000000000000000000000                                                                                                                                                                                                                                        
SPDP04000000000021946892021073103AAAL840123PT7       AAAL840123PT7ALVARADO ALARCON LUCIA MAGDALENA        000000000000628700000000000001407556603577382500000                                        9 00000044093001PAGO FONDO DE AHORRO SNTE 5 2020-2021 SNTE SECC5                                                              0000000000000000000000000                      
SPDMSNTE5AHORRO@OUTLOOK.COM                                                                             0000000000000000000000000000000000                                                                                                                                                                                                                                        
SPDP04000000000014083352021073103AAAL920111272       AAAL920111272ALMANZA ARANDA LEOBARDO HIRAM ELIASIB   000000000000628800000000000001406860578427298500000                                        9 00000044093001PAGO FONDO DE AHORRO SNTE 5 2020-2021 SNTE SECC5                                                              0000000000000000000000000                      
SPDMSNTE5AHORRO@OUTLOOK.COM                                                                             0000000000000000000000000000000000                                                                                                                                                                                                                                        
SPDP04000000000066987182021073103AAAM5711101R1       AAAM5711101R1ALMARAZ AGUIRRE MIGUEL                  000000000000628900000000000007207800648722548800000                                        9 00000044024001PAGO FONDO DE AHORRO SNTE 5 2020-2021 SNTE SECC5                                                              0000000000000000000000000                      
SPDMSNTE5AHORRO@OUTLOOK.COM                                                                             0000000000000000000000000000000000                                                                                                                                                                                                                                        
SPDP04000000000022335502021073103AAAM600708TV7       AAAM600708TV7ALMANZA ARREAGA MARIO FRANCISCO         000000000000629000000000000007207800635382661000000                                        9 00000044024001PAGO FONDO DE AHORRO SNTE 5 2020-2021 SNTE SECC5                                                              0000000000000000000000000                      
SPDMSNTE5AHORRO@OUTLOOK.COM                                                                             0000000000000000000000000000000000                                                                                                                                                                                                                                        
SPDP04000000000027382072021073103AAAM8312188E8       AAAM8312188E8ALVAREZ ALEMAN MARCO ANTONIO            000000000000629100000000000001207800455744075700000                                        9 00000044029001PAGO FONDO DE AHORRO SNTE 5 2020-2021 SNTE SECC5                                                              0000000000000000000000000                      
SPDMSNTE5AHORRO@OUTLOOK.COM                                                                             0000000000000000000000000000000000                                                                                                                                                                                                                                        
SPDP04000000000014610162021073103AAAM890908GZ5       AAAM890908GZ5AMAYA ALVAREZ MAGDA ALEJANDRA           000000000000629200000000000001418060574699554400000                                        9 00000044093001PAGO FONDO DE AHORRO SNTE 5 2020-2021 SNTE SECC5                                                              0000000000000000000000000                      
SPDMSNTE5AHORRO@OUTLOOK.COM                                                                             0000000000000000000000000000000000                                                                                                                                                                                                                                        
SPDP04000000000000280092021073103AAAP850102D74       AAAP850102D74ANAYA AGUIRRE PATRICIA ZARAHY           000000000000629300000000000001407860562439031500000                                        9 00000044093001PAGO FONDO DE AHORRO SNTE 5 2020-2021 SNTE SECC5                                                              0000000000000000000000000                      
SPDMSNTE5AHORRO@OUTLOOK.COM                                                                             0000000000000000000000000000000000                                                                                                                                                                                                                                        
SPDP04000000000017905752021073103AAAR660411G45       AAAR660411G45ALFARO ACOSTA ROSA IRMA                 000000000000629400000000000001407856614666194600000                                        9 00000044093001PAGO FONDO DE AHORRO SNTE 5 2020-2021 SNTE SECC5                                                              0000000000000000000000000                      
SPDMSNTE5AHORRO@OUTLOOK.COM                                                                             0000000000000000000000000000000000                                                                                                                                                                                                                                        
SPDP04000000000014083352021073103AAAR6909081V5       AAAR6909081V5ALVARADO AMAYA MARIA DEL ROSARIO        000000000000629500000000000007207500698550157100000                                        9 00000044024001PAGO FONDO DE AHORRO SNTE 5 2020-2021 SNTE SECC5                                                              0000000000000000000000000                      
SPDMSNTE5AHORRO@OUTLOOK.COM                                                                             0000000000000000000000000000000000                                                                                                                                                                                                                                        
SPDP04000000000012126492021073103AAAR730111DHA       AAAR730111DHAALMAGUER ALDACO ROSA LAURA              000000000000629600000000000000258090345526284300000                                        9 00000044018001PAGO FONDO DE AHORRO SNTE 5 2020-2021 SNTE SECC5                                                              0000000000000000000000000                      
SPDMSNTE5AHORRO@OUTLOOK.COM                                                                             0000000000000000000000000000000000                                                                                                                                                                                                                                        
SPDP04000000000056656342021073103AAAR820711D66       AAAR820711D66ANDRADE ALFARO ROSA MARGARITA           000000000000629700000000000001406956564050468700000                                        9 00000044093001PAGO FONDO DE AHORRO SNTE 5 2020-2021 SNTE SECC5                                                              0000000000000000000000000                      
SPDMSNTE5AHORRO@OUTLOOK.COM                                                                             0000000000000000000000000000000000                                                                                                                                                                                                                                        
SPDP04000000000082043222021073103AAAS6306016F9       AAAS6306016F9ALFARO ACEVEDO SARA ESTELA              000000000000629800000000000004407019101611666300000                                        9 00000044094001PAGO FONDO DE AHORRO SNTE 5 2020-2021 SNTE SECC5                                                              0000000000000000000000000                      
SPDMSNTE5AHORRO@OUTLOOK.COM                                                                             0000000000000000000000000000000000                                                                                                                                                                                                                                        
SPDP04000000000020994682021073103AAAS710606M27       AAAS710606M27ALVAREZ ARROYO SANTIAGO EDUARDO         000000000000629900000000000001206201194151313400000                                        9 00000044029001PAGO FONDO DE AHORRO SNTE 5 2020-2021 SNTE SECC5                                                              0000000000000000000000000                      
SPDMSNTE5AHORRO@OUTLOOK.COM                                                                             0000000000000000000000000000000000                                                                                                                                                                                                                                        
SPDP04000000000009178362021073103AAAS7705101E1       AAAS7705101E1ALVAREZ AGUIRRE SONIA                   000000000000630000000000000004407818702210622000000                                        9 00000044094001PAGO FONDO DE AHORRO SNTE 5 2020-2021 SNTE SECC5                                                              0000000000000000000000000                      
SPDMSNTE5AHORRO@OUTLOOK.COM                                                                             0000000000000000000000000000000000                                                                                                                                                                                                                                        
SPDP04000000000017439112021073103AAAS881122F82       AAAS881122F82ALVARADO ALVARADO SINDY NALLELY         000000000000630100000000000000206090399968746200000                                        9 00000044018001PAGO FONDO DE AHORRO SNTE 5 2020-2021 SNTE SECC5                                                              0000000000000000000000000                      
SPDMSNTE5AHORRO@OUTLOOK.COM                                                                             0000000000000000000000000000000000                                                                                                                                                                                                                                        
SPDP04000000000095545982021073103AAAV6808026J3       AAAV6808026J3ALMARAZ AGUIRRE VICTOR HUGO             000000000000630200000000000004407818701307517900000                                        9 00000044094001PAGO FONDO DE AHORRO SNTE 5 2020-2021 SNTE SECC5                                                              0000000000000000000000000                      
SPDMSNTE5AHORRO@OUTLOOK.COM                                                                             0000000000000000000000000000000000                                                                                                                                                                                                                                        
SPDP04000000000023276742021073103AAAV831220GR4       AAAV831220GR4AMAYA ARIZPE VIVIANO VLADIMIR           000000000000630300000000000001207702683181812300000                                        9 00000044029001PAGO FONDO DE AHORRO SNTE 5 2020-2021 SNTE SECC5                                                              0000000000000000000000000                      
SPDMSNTE5AHORRO@OUTLOOK.COM                                                                             0000000000000000000000000000000000                                                                                                                                                                                                                                        
SPDP04000000000005649792021073103AAAV9208051I7       AAAV9208051I7AYALA ARELLANO VIANEY LEFRISIDIA        000000000002171400000000000001407860618520943600000                                        9 00000044093001PAGO FONDO DE AHORRO SNTE 5 2020-2021 SNTE SECC5                                                              0000000000000000000000000                      
SPDMSNTE5AHORRO@OUTLOOK.COM                                                                             0000000000000000000000000000000000                                                                                                                                                                                                                                        
SPDP04000000000017118142021073103AAAY800513SG9       AAAY800513SG9ARMAS AGUILAR YUVISELA                  000000000000630400000000000001407256615574173000000                                        9 00000044093001PAGO FONDO DE AHORRO SNTE 5 2020-2021 SNTE SECC5                                                              0000000000000000000000000                      
SPDMSNTE5AHORRO@OUTLOOK.COM                                                                             0000000000000000000000000000000000                                                                                                                                                                                                                                        
SPDP04000000000016819352021073103AABA891220UL2       AABA891220UL2ALVARADO BOCANEGRA ANALI                000000000000630500000000000000207890242895575500000                                        9 00000044018001PAGO FONDO DE AHORRO SNTE 5 2020-2021 SNTE SECC5                                                              0000000000000000000000000                      
SPDMSNTE5AHORRO@OUTLOOK.COM                                                                             0000000000000000000000000000000000                                                                                                                                                                                                                                        
SPDP04000000000056470282021073103AABB730719S85       AABB730719S85ANAYA DEL BOSQUE BARBARA SOFIA          000000000000630600000000000001406256507796885100000                                        9 00000044093001PAGO FONDO DE AHORRO SNTE 5 2020-2021 SNTE SECC5                                                              0000000000000000000000000                      
SPDMSNTE5AHORRO@OUTLOOK.COM                                                                             0000000000000000000000000000000000                                                                                                                                                                                                                                        
SPDP04000000000014987592021073103AABE651231TB4       AABE651231TB4ALFARO BARRERA ELSA LORENA              000000000000630700000000000001206301177216750900000                                        9 00000044029001PAGO FONDO DE AHORRO SNTE 5 2020-2021 SNTE SECC5                                                              0000000000000000000000000                      
SPDMSNTE5AHORRO@OUTLOOK.COM                                                                             0000000000000000000000000000000000                                                                                                                                                                                                                                        
SPDP04000000000019942792021073103AABF590225UJ3       AABF590225UJ3ALVAREZ BRAVO FRANCISCO JAVIER          000000000000630800000000000002107806417916503000000                                        9 00000044061001PAGO FONDO DE AHORRO SNTE 5 2020-2021 SNTE SECC5                                                              0000000000000000000000000                      
SPDMSNTE5AHORRO@OUTLOOK.COM                                                                             0000000000000000000000000000000000                                                                                                                                                                                                                                        
SPDP04000000000015659882021073103AABJ691110PL0       AABJ691110PL0ALVARADO BAEZ JAVIER                    000000000000630900000000000001206801452949822900000                                        9 00000044029001PAGO FONDO DE AHORRO SNTE 5 2020-2021 SNTE SECC5                                                              0000000000000000000000000                      
SPDMSNTE5AHORRO@OUTLOOK.COM                                                                             0000000000000000000000000000000000                                                                                                                                                                                                                                        
SPDP04000000000021715952021073103AABJ701126AG4       AABJ701126AG4ALAMILLO BARCENAS MARIA JUANA           000000000000631000000000000007207800442985588900000                                        9 00000044024001PAGO FONDO DE AHORRO SNTE 5 2020-2021 SNTE SECC5                                                              0000000000000000000000000                      
SPDMSNTE5AHORRO@OUTLOOK.COM                                                                             0000000000000000000000000000000000                                                                                                                                                                                                                                        
SPDP04000000000000563722021073103AABM740507G35       AABM740507G35ALVARADO BAEZ MANUEL GENOVEVO           000000000000631100000000000001207801539284497600000                                        9 00000044029001PAGO FONDO DE AHORRO SNTE 5 2020-2021 SNTE SECC5                                                              0000000000000000000000000                      
SPDMSNTE5AHORRO@OUTLOOK.COM                                                                             0000000000000000000000000000000000                                                                                                                                                                                                                                        
SPDP04000000000005590582021073103AABR710731NB6       AABR710731NB6ALVARADO BERLANGA RUBEN RICARDO         000000000000631200000000000001218001530086897100000                                        9 00000044029001PAGO FONDO DE AHORRO SNTE 5 2020-2021 SNTE SECC5                                                              0000000000000000000000000                      
SPDMSNTE5AHORRO@OUTLOOK.COM                                                                             0000000000000000000000000000000000                                                                                                                                                                                                                                        
SPDP04000000000038801672021073103AABR771005L33       AABR771005L33ARANDA BALDERAS ROSA MARIA DEL PILAR    000000000000631300000000000001206801219359230400000                                        9 00000044029001PAGO FONDO DE AHORRO SNTE 5 2020-2021 SNTE SECC5                                                              0000000000000000000000000                      
SPDMSNTE5AHORRO@OUTLOOK.COM                                                                             0000000000000000000000000000000000                                                                                                                                                                                                                                        
SPDP04000000000026327722021073103AABX8912019B8       AABX8912019B8AMAYA BRISEÑO XIOMARA ELIZABETH         000000000000631400000000000001406356661439480200000                                        9 00000044093001PAGO FONDO DE AHORRO SNTE 5 2020-2021 SNTE SECC5                                                              0000000000000000000000000                      
SPDMSNTE5AHORRO@OUTLOOK.COM                                                                             0000000000000000000000000000000000                                                                                                                                                                                                                                        
SPDP04000000000007013022021073103AABZ840906V2A       AABZ840906V2AALVAREZ BARBOZA ZULEMA                  000000000000631500000000000001406856642873085100000                                        9 00000044093001PAGO FONDO DE AHORRO SNTE 5 2020-2021 SNTE SECC5                                                              0000000000000000000000000                      
SPDMSNTE5AHORRO@OUTLOOK.COM                                                                             0000000000000000000000000000000000                                                                                                                                                                                                                                        
SPDP04000000000014083352021073103AACA650328215       AACA650328215AMAYA CUELLAR ASCENCION                 000000000000631600000000000001407556515519500900000                                        9 00000044093001PAGO FONDO DE AHORRO SNTE 5 2020-2021 SNTE SECC5                                                              0000000000000000000000000                      
SPDMSNTE5AHORRO@OUTLOOK.COM                                                                             0000000000000000000000000000000000                                                                                                                                                                                                                                        
SPDP04000000000027904272021073103AACA6702059W9       AACA6702059W9ALMANZA CASAS ADRIANA DE JESUS          000000000000631700000000000001407856545738213500000                                        9 00000044093001PAGO FONDO DE AHORRO SNTE 5 2020-2021 SNTE SECC5                                                              0000000000000000000000000                      
SPDMSNTE5AHORRO@OUTLOOK.COM                                                                             0000000000000000000000000000000000                                                                                                                                                                                                                                        
SPDP04000000000046395972021073103AACA7201141L5       AACA7201141L5AZA CADENA ANA LAURA                    000000000000631900000000000001406956509267375500000                                        9 00000044093001PAGO FONDO DE AHORRO SNTE 5 2020-2021 SNTE SECC5                                                              0000000000000000000000000                      
SPDMSNTE5AHORRO@OUTLOOK.COM                                                                             0000000000000000000000000000000000                                                                                                                                                                                                                                        
SPDP04000000000022070872021073103AACA731130H87       AACA731130H87ALMANZA CASTILLO ALMA CECILIA           000000000000632000000000000001207801428852502500000                                        9 00000044029001PAGO FONDO DE AHORRO SNTE 5 2020-2021 SNTE SECC5                                                              0000000000000000000000000                      
SPDMSNTE5AHORRO@OUTLOOK.COM                                                                             0000000000000000000000000000000000                                                                                                                                                                                                                                        
SPDP04000000000008789362021073103AACA741002NS7       AACA741002NS7AMAYA CUELLAR ARACELY                   000000000000632100000000000000207890240411384100000                                        9 00000044018001PAGO FONDO DE AHORRO SNTE 5 2020-2021 SNTE SECC5                                                              0000000000000000000000000                      
SPDMSNTE5AHORRO@OUTLOOK.COM                                                                             0000000000000000000000000000000000                                                                                                                                                                                                                                        
SPDP04000000000008465072021073103AACA771216FF2       AACA771216FF2ALBA CARDENAS ARCELIA JUANA MARIA       000000000000632200000000000001206301590468617100000                                        9 00000044029001PAGO FONDO DE AHORRO SNTE 5 2020-2021 SNTE SECC5                                                              0000000000000000000000000                      
SPDMSNTE5AHORRO@OUTLOOK.COM                                                                             0000000000000000000000000000000000                                                                                                                                                                                                                                        
SPDP04000000000059415572021073103AACA790423QY0       AACA790423QY0ALVARADO CANCHE ALEJANDRA               000000000000632300000000000007207800540052468800000                                        9 00000044024001PAGO FONDO DE AHORRO SNTE 5 2020-2021 SNTE SECC5                                                              0000000000000000000000000                      
SPDMSNTE5AHORRO@OUTLOOK.COM                                                                             0000000000000000000000000000000000                                                                                                                                                                                                                                        
SPDP04000000000013019532021073103AACA850222JP4       AACA850222JP4ALVAREZ CHARLES ADA CATALINA            000000000000632400000000000001406556628587112100000                                        9 00000044093001PAGO FONDO DE AHORRO SNTE 5 2020-2021 SNTE SECC5                                                              0000000000000000000000000                      
SPDMSNTE5AHORRO@OUTLOOK.COM                                                                             0000000000000000000000000000000000                                                                                                                                                                                                                                        
SPDP04000000000029946132021073103AACA861231FAA       AACA861231FAAALVAREZ CHAVEZ ANA VICTORIA             000000000000632500000000000001407956631639101600000                                        9 00000044093001PAGO FONDO DE AHORRO SNTE 5 2020-2021 SNTE SECC5                                                              0000000000000000000000000                      
SPDMSNTE5AHORRO@OUTLOOK.COM                                                                             0000000000000000000000000000000000                                                                                                                                                                                                                                        
SPDP04000000000010141792021073103AACB820807UBA       AACB820807UBAALVAREZ CASTRO BRENDA VERONICA          000000000000632600000000000001218001503580021700000                                        9 00000044029001PAGO FONDO DE AHORRO SNTE 5 2020-2021 SNTE SECC5                                                              0000000000000000000000000                      
SPDMSNTE5AHORRO@OUTLOOK.COM                                                                             0000000000000000000000000000000000                                                                                                                                                                                                                                        
SPDP04000000000022874892021073103AACB870819AK2       AACB870819AK2ALVARADO CANCHE BEATRIZ                 000000000000632700000000000001407856644105713200000                                        9 00000044093001PAGO FONDO DE AHORRO SNTE 5 2020-2021 SNTE SECC5                                                              0000000000000000000000000                      
SPDMSNTE5AHORRO@OUTLOOK.COM                                                                             0000000000000000000000000000000000                                                                                                                                                                                                                                        
SPDP04000000000014106152021073103AACC720429QR4       AACC720429QR4ALVARADO CASTRO CARMEN MARGARITA        000000000000632800000000000002107606417892688700000                                        9 00000044061001PAGO FONDO DE AHORRO SNTE 5 2020-2021 SNTE SECC5                                                              0000000000000000000000000                      
SPDMSNTE5AHORRO@OUTLOOK.COM                                                                             0000000000000000000000000000000000                                                                                                                                                                                                                                        
SPDP04000000000035556862021073103AACC760806CZA       AACC760806CZAALVARADO CANTU CLAUDIA ELIZABETH        000000000000632900000000000004407818701420607300000                                        9 00000044094001PAGO FONDO DE AHORRO SNTE 5 2020-2021 SNTE SECC5                                                              0000000000000000000000000                      
SPDMSNTE5AHORRO@OUTLOOK.COM                                                                             0000000000000000000000000000000000                                                                                                                                                                                                                                        
SPDP04000000000022943202021073103AACC800229EJ3       AACC800229EJ3ALVARADO CORTEZ CESAR                   000000000000633000000000000007207800523959115400000                                        9 00000044024001PAGO FONDO DE AHORRO SNTE 5 2020-2021 SNTE SECC5                                                              0000000000000000000000000                      
SPDMSNTE5AHORRO@OUTLOOK.COM                                                                             0000000000000000000000000000000000                                                                                                                                                                                                                                        
SPDP04000000000016819352021073103AACC8511167U9       AACC8511167U9AMARILLAS DE LA CRUZ CARLA PRISCILA     000000000000633100000000000004407818702685337500000                                        9 00000044094001PAGO FONDO DE AHORRO SNTE 5 2020-2021 SNTE SECC5                                                              0000000000000000000000000                      
SPDMSNTE5AHORRO@OUTLOOK.COM                                                                             0000000000000000000000000000000000                                                                                                                                                                                                                                        
SPDP04000000000045523372021073103AACC870702K91       AACC870702K91ALVARADO CHAVARRIA CRISTINA ARACELY     000000000000633200000000000007207800660220363800000                                        9 00000044024001PAGO FONDO DE AHORRO SNTE 5 2020-2021 SNTE SECC5                                                              0000000000000000000000000                      
SPDMSNTE5AHORRO@OUTLOOK.COM                                                                             0000000000000000000000000000000000                                                                                                                                                                                                                                        
SPDP04000000000014952222021073103AACD7912012T1       AACD7912012T1AMAYA CAZARES DUSTIN                    000000000000633300000000000001207802951843133700000                                        9 00000044029001PAGO FONDO DE AHORRO SNTE 5 2020-2021 SNTE SECC5                                                              0000000000000000000000000                      
SPDMSNTE5AHORRO@OUTLOOK.COM                                                                             0000000000000000000000000000000000                                                                                                                                                                                                                                        
SPDP04000000000017299962021073103AACD800918E92       AACD800918E92ALVAREZ CASTILLO DINORAH JENIFFER       000000000000633400000000000001207801135804825700000                                        9 00000044029001PAGO FONDO DE AHORRO SNTE 5 2020-2021 SNTE SECC5                                                              0000000000000000000000000                      
SPDMSNTE5AHORRO@OUTLOOK.COM                                                                             0000000000000000000000000000000000                                                                                                                                                                                                                                        
SPDP04000000000043664892021073103AACD820822HR8       AACD820822HR8ALVAREZ CASTRO DANIEL ELIAZAR           000000000000633500000000000001406556555093143800000                                        9 00000044093001PAGO FONDO DE AHORRO SNTE 5 2020-2021 SNTE SECC5                                                              0000000000000000000000000                      
SPDMSNTE5AHORRO@OUTLOOK.COM                                                                             0000000000000000000000000000000000                                                                                                                                                                                                                                        
SPDP04000000000035556862021073103AACE830105UQ1       AACE830105UQ1ALVARADO CANCHE ELDA MARIA              000000000000633600000000000007207800516007876200000                                        9 00000044024001PAGO FONDO DE AHORRO SNTE 5 2020-2021 SNTE SECC5                                                              0000000000000000000000000                      
SPDMSNTE5AHORRO@OUTLOOK.COM                                                                             0000000000000000000000000000000000                                                                                                                                                                                                                                        
SPDP04000000000023856532021073103AACE830130P5A       AACE830130P5AALFARO CORONADO ESMERALDA               000000000000633700000000000001207402696773699400000                                        9 00000044029001PAGO FONDO DE AHORRO SNTE 5 2020-2021 SNTE SECC5                                                              0000000000000000000000000                      
SPDMSNTE5AHORRO@OUTLOOK.COM                                                                             0000000000000000000000000000000000                                                                                                                                                                                                                                        
SPDP04000000000035378522021073103AACE8405239R9       AACE8405239R9ALFARO CAMPOS EMMA LILIA                000000000000633800000000000001207802671946633700000                                        9 00000044029001PAGO FONDO DE AHORRO SNTE 5 2020-2021 SNTE SECC5                                                              0000000000000000000000000                      
SPDMSNTE5AHORRO@OUTLOOK.COM                                                                             0000000000000000000000000000000000                                                                                                                                                                                                                                        
SPDP04000000000007872322021073103AACE880429TK0       AACE880429TK0ALVARADO CARDENAS ERICK IVAN            000000000000633900000000000000207890255174524300000                                        9 00000044018001PAGO FONDO DE AHORRO SNTE 5 2020-2021 SNTE SECC5                                                              0000000000000000000000000                      
SPDMSNTE5AHORRO@OUTLOOK.COM                                                                             0000000000000000000000000000000000                                                                                                                                                                                                                                        
SPDP04000000000022335502021073103AACF690714CN0       AACF690714CN0ALVARADO CORDERO FRANCISCO              000000000000634000000000000007207800574069584000000                                        9 00000044024001PAGO FONDO DE AHORRO SNTE 5 2020-2021 SNTE SECC5                                                              0000000000000000000000000                      
SPDMSNTE5AHORRO@OUTLOOK.COM                                                                             0000000000000000000000000000000000                                                                                                                                                                                                                                        
SPDP04000000000007137542021073103AACF691004RG6       AACF691004RG6ALVARADO CRUZ FRANCISCA                 000000000000634100000000000007207800523959124800000                                        9 00000044024001PAGO FONDO DE AHORRO SNTE 5 2020-2021 SNTE SECC5                                                              0000000000000000000000000                      
SPDMSNTE5AHORRO@OUTLOOK.COM                                                                             0000000000000000000000000000000000                                                                                                                                                                                                                                        
SPDP04000000000009060582021073103AACG680826BA8       AACG680826BA8ALVARADO CARRIZALES MARIA GABRIELA      000000000000634200000000000001407860612125268300000                                        9 00000044093001PAGO FONDO DE AHORRO SNTE 5 2020-2021 SNTE SECC5                                                              0000000000000000000000000                      
SPDMSNTE5AHORRO@OUTLOOK.COM                                                                             0000000000000000000000000000000000                                                                                                                                                                                                                                        
SPDP04000000000033165472021073103AACG7412088YA       AACG7412088YAALVAREZ CARBAJAL MARIA GUADALUPE        000000000000634300000000000001407856507845487900000                                        9 00000044093001PAGO FONDO DE AHORRO SNTE 5 2020-2021 SNTE SECC5                                                              0000000000000000000000000                      
SPDMSNTE5AHORRO@OUTLOOK.COM                                                                             0000000000000000000000000000000000                                                                                                                                                                                                                                        
SPDP04000000000009190222021073103AACH7308303G5       AACH7308303G5AMAYA CUELLAR HECTOR SANTIAGO           000000000000634400000000000001407960610400982300000                                        9 00000044093001PAGO FONDO DE AHORRO SNTE 5 2020-2021 SNTE SECC5                                                              0000000000000000000000000                      
SPDMSNTE5AHORRO@OUTLOOK.COM                                                                             0000000000000000000000000000000000                                                                                                                                                                                                                                        
SPDP04000000000013121402021073103AACI881013RK1       AACI881013RK1ALFARO CAMPOS ISABEL ALEJANDRA          000000000000634500000000000001207802891172786900000                                        9 00000044029001PAGO FONDO DE AHORRO SNTE 5 2020-2021 SNTE SECC5                                                              0000000000000000000000000                      
SPDMSNTE5AHORRO@OUTLOOK.COM                                                                             0000000000000000000000000000000000                                                                                                                                                                                                                                        
SPDP04000000000016317712021073103AACJ6505301V3       AACJ6505301V3ALVARADO CAMPOS JUAN FERNANDO           000000000000634600000000000001207801507201365800000                                        9 00000044029001PAGO FONDO DE AHORRO SNTE 5 2020-2021 SNTE SECC5                                                              0000000000000000000000000                      
SPDMSNTE5AHORRO@OUTLOOK.COM                                                                             0000000000000000000000000000000000                                                                                                                                                                                                                                        
SPDP04000000000032366222021073103AACJ671008110       AACJ671008110ALCALA CONTRERAS JULIAN JAVIER          000000000000634700000000000001407856515635162900000                                        9 00000044093001PAGO FONDO DE AHORRO SNTE 5 2020-2021 SNTE SECC5                                                              0000000000000000000000000                      
SPDMSNTE5AHORRO@OUTLOOK.COM                                                                             0000000000000000000000000000000000                                                                                                                                                                                                                                        
SPDP04000000000042175232021073103AACJ721110AD1       AACJ721110AD1ALVARADO CANTU JOSE DE JESUS            000000000000634800000000000000207890243683547200000                                        9 00000044018001PAGO FONDO DE AHORRO SNTE 5 2020-2021 SNTE SECC5                                                              0000000000000000000000000                      
SPDMSNTE5AHORRO@OUTLOOK.COM                                                                             0000000000000000000000000000000000                                                                                                                                                                                                                                        
SPDP04000000000021946892021073103AACK890527PVA       AACK890527PVAALVAREZ CASTRO KARINA GUADALUPE         000000000000634900000000000001407956667275015500000                                        9 00000044093001PAGO FONDO DE AHORRO SNTE 5 2020-2021 SNTE SECC5                                                              0000000000000000000000000                      
SPDMSNTE5AHORRO@OUTLOOK.COM                                                                             0000000000000000000000000000000000                                                                                                                                                                                                                                        
SPDP04000000000016819352021073103AACK920423EH2       AACK920423EH2ALTAMIRANO CONTRERAS KERYME YAMILETH    000000000000635000000000000001207802870211028700000                                        9 00000044029001PAGO FONDO DE AHORRO SNTE 5 2020-2021 SNTE SECC5                                                              0000000000000000000000000                      
SPDMSNTE5AHORRO@OUTLOOK.COM                                                                             0000000000000000000000000000000000                                                                                                                                                                                                                                        
SPDP04000000000046395972021073103AACL6201176R6       AACL6201176R6AYALA CARDENAS LUZ MARIA                000000000000635100000000000001407556620319230600000                                        9 00000044093001PAGO FONDO DE AHORRO SNTE 5 2020-2021 SNTE SECC5                                                              0000000000000000000000000                      
SPDMSNTE5AHORRO@OUTLOOK.COM                                                                             0000000000000000000000000000000000                                                                                                                                                                                                                                        
SPDP04000000000110681872021073103AACL761208CB2       AACL761208CB2ALVARADO CANCHE LUCIA DE JESUS          000000000000635300000000000001406856507613678500000                                        9 00000044093001PAGO FONDO DE AHORRO SNTE 5 2020-2021 SNTE SECC5                                                              0000000000000000000000000                      
SPDMSNTE5AHORRO@OUTLOOK.COM                                                                             0000000000000000000000000000000000                                                                                                                                                                                                                                        
SPDP04000000000021946892021073103AACL7804052J7       AACL7804052J7ANAYA CASTAÑEDA LAURA FABIOLA           000000000000635400000000000001206201214071190100000                                        9 00000044029001PAGO FONDO DE AHORRO SNTE 5 2020-2021 SNTE SECC5                                                              0000000000000000000000000                      
SPDMSNTE5AHORRO@OUTLOOK.COM                                                                             0000000000000000000000000000000000                                                                                                                                                                                                                                        
SPDP04000000000035607202021073103AACL850218BA8       AACL850218BA8ALARCON CAZARES LAILA MIREYA            000000000000635500000000000001206301271277294000000                                        9 00000044029001PAGO FONDO DE AHORRO SNTE 5 2020-2021 SNTE SECC5                                                              0000000000000000000000000                      
SPDMSNTE5AHORRO@OUTLOOK.COM                                                                             0000000000000000000000000000000000                                                                                                                                                                                                                                        
SPDP04000000000021946892021073103AACL860420347       AACL860420347AYALA CORREA LAURA PATRICIA             000000000000635600000000000001407556625891360800000                                        9 00000044093001PAGO FONDO DE AHORRO SNTE 5 2020-2021 SNTE SECC5                                                              0000000000000000000000000                      
SPDMSNTE5AHORRO@OUTLOOK.COM                                                                             0000000000000000000000000000000000                                                                                                                                                                                                                                        
SPDP04000000000028567772021073103AACL900914JX7       AACL900914JX7ALVAREZ CAMPOS LUCERO DE FATIMA         000000000000635700000000000001206801555476003100000                                        9 00000044029001PAGO FONDO DE AHORRO SNTE 5 2020-2021 SNTE SECC5                                                              0000000000000000000000000                      
SPDMSNTE5AHORRO@OUTLOOK.COM                                                                             0000000000000000000000000000000000                                                                                                                                                                                                                                        
SPDP04000000000017955902021073103AACL9102064F0       AACL9102064F0ALVAREZ CASTRO MARIA LUISA              000000000000635800000000000004407818702815133400000                                        9 00000044094001PAGO FONDO DE AHORRO SNTE 5 2020-2021 SNTE SECC5                                                              0000000000000000000000000                      
SPDMSNTE5AHORRO@OUTLOOK.COM                                                                             0000000000000000000000000000000000                                                                                                                                                                                                                                        
SPDP04000000000017492132021073103AACM570228V21       AACM570228V21ARANDA CASTILLON MARTHA ESTELA          000000000000635900000000000001407256507618627100000                                        9 00000044093001PAGO FONDO DE AHORRO SNTE 5 2020-2021 SNTE SECC5                                                              0000000000000000000000000                      
SPDMSNTE5AHORRO@OUTLOOK.COM                                                                             0000000000000000000000000000000000                                                                                                                                                                                                                                        
SPDP04000000000013387342021073103AACM721030EB3       AACM721030EB3ALVAREZ CAMPOS MAYRA                    000000000000636000000000000007207800523959151000000                                        9 00000044024001PAGO FONDO DE AHORRO SNTE 5 2020-2021 SNTE SECC5                                                              0000000000000000000000000                      
SPDMSNTE5AHORRO@OUTLOOK.COM                                                                             0000000000000000000000000000000000                                                                                                                                                                                                                                        
SPDP04000000000014321862021073103AACM840313CI1       AACM840313CI1ALMANZA CALZONCIT MIREYA MAGDALENA      000000000000636100000000000007207800538088710200000                                        9 00000044024001PAGO FONDO DE AHORRO SNTE 5 2020-2021 SNTE SECC5                                                              0000000000000000000000000                      
SPDMSNTE5AHORRO@OUTLOOK.COM                                                                             0000000000000000000000000000000000                                                                                                                                                                                                                                        
SPDP04000000000016819352021073103AACM920106DV4       AACM920106DV4ALMAGUER CABRERA MELISSA                000000000000636200000000000007207800267358197200000                                        9 00000044024001PAGO FONDO DE AHORRO SNTE 5 2020-2021 SNTE SECC5                                                              0000000000000000000000000                      
SPDMSNTE5AHORRO@OUTLOOK.COM                                                                             0000000000000000000000000000000000                                                                                                                                                                                                                                        
SPDP04000000000029116272021073103AACM940719MX3       AACM940719MX3ALVARADO CISNEROS MARLEN ELIZABETH      000000000000636300000000000001218001557445485200000                                        9 00000044029001PAGO FONDO DE AHORRO SNTE 5 2020-2021 SNTE SECC5                                                              0000000000000000000000000                      
SPDMSNTE5AHORRO@OUTLOOK.COM                                                                             0000000000000000000000000000000000                                                                                                                                                                                                                                        
SPDP04000000000014083352021073103AACN640103166       AACN640103166ALDANA CANDELAS NARCIZO                 000000000000636400000000000001407556555147063200000                                        9 00000044093001PAGO FONDO DE AHORRO SNTE 5 2020-2021 SNTE SECC5                                                              0000000000000000000000000                      
SPDMSNTE5AHORRO@OUTLOOK.COM                                                                             0000000000000000000000000000000000                                                                                                                                                                                                                                        
SPDP04000000000016149922021073103AACN810928UMA       AACN810928UMANORA LUZ ALEGRIA ALVARADO CARDENAS      000000000002063500000000000001207801506265319600000                                        9 00000044029001PAGO FONDO DE AHORRO SNTE 5 2020-2021 SNTE SECC5                                                              0000000000000000000000000                      
SPDMSNTE5AHORRO@OUTLOOK.COM                                                                             0000000000000000000000000000000000                                                                                                                                                                                                                                        
SPDP04000000000016147862021073103AACN9108229P1       AACN9108229P1NADIA YUVISELA ALVARADO CERDA           000000000002063600000000000004407825602566361700000                                        9 00000044094001PAGO FONDO DE AHORRO SNTE 5 2020-2021 SNTE SECC5                                                              0000000000000000000000000                      
SPDMSNTE5AHORRO@OUTLOOK.COM                                                                             0000000000000000000000000000000000                                                                                                                                                                                                                                        
SPDP04000000000016819352021073103AACO690723FJ8       AACO690723FJ8ALVARADO CASTRO ODALMIRA                000000000000636600000000000001407856610051990800000                                        9 00000044093001PAGO FONDO DE AHORRO SNTE 5 2020-2021 SNTE SECC5                                                              0000000000000000000000000                      
SPDMSNTE5AHORRO@OUTLOOK.COM                                                                             0000000000000000000000000000000000                                                                                                                                                                                                                                        
SPDP04000000000046395972021073103AACO800116513       AACO800116513APARICIO CALDERON OSCAR OTONIEL         000000000000636700000000000001407756669529351000000                                        9 00000044093001PAGO FONDO DE AHORRO SNTE 5 2020-2021 SNTE SECC5                                                              0000000000000000000000000                      
SPDMSNTE5AHORRO@OUTLOOK.COM                                                                             0000000000000000000000000000000000                                                                                                                                                                                                                                        
SPDP04000000000022874892021073103AACP760424HJA       AACP760424HJAAMAYA CARRALES PILAR ALEJANDRINA        000000000000636800000000000001407856548261212600000                                        9 00000044093001PAGO FONDO DE AHORRO SNTE 5 2020-2021 SNTE SECC5                                                              0000000000000000000000000                      
SPDMSNTE5AHORRO@OUTLOOK.COM                                                                             0000000000000000000000000000000000                                                                                                                                                                                                                                        
SPDP04000000000006846992021073103AACR8409058B5       AACR8409058B5ALVARADO COLORADO ROGELIO               000000000000636900000000000001207201573161013600000                                        9 00000044029001PAGO FONDO DE AHORRO SNTE 5 2020-2021 SNTE SECC5                                                              0000000000000000000000000                      
SPDMSNTE5AHORRO@OUTLOOK.COM                                                                             0000000000000000000000000000000000                                                                                                                                                                                                                                        
SPDP04000000000052999132021073103AACS661231G25       AACS661231G25ALVARADO CRUZ SILVIA                    000000000000637000000000000001407856542783747400000                                        9 00000044093001PAGO FONDO DE AHORRO SNTE 5 2020-2021 SNTE SECC5                                                              0000000000000000000000000                      
SPDMSNTE5AHORRO@OUTLOOK.COM                                                                             0000000000000000000000000000000000                                                                                                                                                                                                                                        
SPDP04000000000007592962021073103AACS7901146UA       AACS7901146UAAMAYA CUELLAR SANDRA ELIZABETH          000000000000637100000000000000207890240410728400000                                        9 00000044018001PAGO FONDO DE AHORRO SNTE 5 2020-2021 SNTE SECC5                                                              0000000000000000000000000                      
SPDMSNTE5AHORRO@OUTLOOK.COM                                                                             0000000000000000000000000000000000                                                                                                                                                                                                                                        
SPDP04000000000016819352021073103AACS8806038N9       AACS8806038N9ALVAREZ COSS SANDY LLUVICELA            000000000000637200000000000007207800293233565200000                                        9 00000044024001PAGO FONDO DE AHORRO SNTE 5 2020-2021 SNTE SECC5                                                              0000000000000000000000000                      
SPDMSNTE5AHORRO@OUTLOOK.COM                                                                             0000000000000000000000000000000000                                                                                                                                                                                                                                        
SPDP04000000000021366172021073103AACY9006161H9       AACY9006161H9ALVARADO CAMPOS YOANA RUBI              000000000000637400000000000001206801132449455700000                                        9 00000044029001PAGO FONDO DE AHORRO SNTE 5 2020-2021 SNTE SECC5                                                              0000000000000000000000000                      
SPDMSNTE5AHORRO@OUTLOOK.COM                                                                             0000000000000000000000000000000000                                                                                                                                                                                                                                        
SPDP04000000000021946892021073103AACY9707151Q8       AACY9707151Q8ALVARADO DE LA CRUZ YESENIA             000000000000637500000000000001407220012348974600000                                        9 00000044093001PAGO FONDO DE AHORRO SNTE 5 2020-2021 SNTE SECC5                                                              0000000000000000000000000                      
SPDMSNTE5AHORRO@OUTLOOK.COM                                                                             0000000000000000000000000000000000                                                                                                                                                                                                                                        
SPDP04000000000017229992021073103AACY980502MH8       AACY980502MH8ALVARADO CERDA YAHAIRA LIZETH           000000000000637600000000000002107806500025965800000                                        9 00000044061001PAGO FONDO DE AHORRO SNTE 5 2020-2021 SNTE SECC5                                                              0000000000000000000000000                      
SPDMSNTE5AHORRO@OUTLOOK.COM                                                                             0000000000000000000000000000000000                                                                                                                                                                                                                                        
SPDP04000000000010081452021073103AADA820529J60       AADA820529J60ALFARO DOMINGUEZ MARIA DE LOS ANGELES   000000000000637900000000000001407856596559409100000                                        9 00000044093001PAGO FONDO DE AHORRO SNTE 5 2020-2021 SNTE SECC5                                                              0000000000000000000000000                      
SPDMSNTE5AHORRO@OUTLOOK.COM                                                                             0000000000000000000000000000000000                                                                                                                                                                                                                                        
SPDP04000000000016819352021073103AADC770226UV1       AADC770226UV1APARICIO DUEÑAS CESAR                   000000000000638000000000000001407856515588712300000                                        9 00000044093001PAGO FONDO DE AHORRO SNTE 5 2020-2021 SNTE SECC5                                                              0000000000000000000000000                      
SPDMSNTE5AHORRO@OUTLOOK.COM                                                                             0000000000000000000000000000000000                                                                                                                                                                                                                                        
SPDP04000000000016819352021073103AADD841026PQ3       AADD841026PQ3ALVAREZ DURAN DAENA                     000000000000638100000000000001207802677221827600000                                        9 00000044029001PAGO FONDO DE AHORRO SNTE 5 2020-2021 SNTE SECC5                                                              0000000000000000000000000                      
SPDMSNTE5AHORRO@OUTLOOK.COM                                                                             0000000000000000000000000000000000                                                                                                                                                                                                                                        
SPDP04000000000016577122021073103AADD850821SVA       AADD850821SVAALDACO DURAN DANIELA PRINCESA           000000000000638200000000000000207890240401036800000                                        9 00000044018001PAGO FONDO DE AHORRO SNTE 5 2020-2021 SNTE SECC5                                                              0000000000000000000000000                      
SPDMSNTE5AHORRO@OUTLOOK.COM                                                                             0000000000000000000000000000000000                                                                                                                                                                                                                                        
SPDP04000000000016819352021073103AADE680214MI6       AADE680214MI6DE ANDA DAGUER ESTHER                   000000000000638300000000000002107806417919614800000                                        9 00000044061001PAGO FONDO DE AHORRO SNTE 5 2020-2021 SNTE SECC5                                                              0000000000000000000000000                      
SPDMSNTE5AHORRO@OUTLOOK.COM                                                                             0000000000000000000000000000000000                                                                                                                                                                                                                                        
SPDP04000000000013695432021073103AADE780912UR4       AADE780912UR4ALDACO DOMINGUEZ EDITA CRISTELA         000000000000638400000000000004406818804813073900000                                        9 00000044094001PAGO FONDO DE AHORRO SNTE 5 2020-2021 SNTE SECC5                                                              0000000000000000000000000                      
SPDMSNTE5AHORRO@OUTLOOK.COM                                                                             0000000000000000000000000000000000                                                                                                                                                                                                                                        
SPDP04000000000137063662021073103AADG530925556       AADG530925556ALVARADO DOMINGUEZ MARIA GUADALUPE ZORAY000000000000638500000000000001407256507622131400000                                        9 00000044093001PAGO FONDO DE AHORRO SNTE 5 2020-2021 SNTE SECC5                                                              0000000000000000000000000                      
SPDMSNTE5AHORRO@OUTLOOK.COM                                                                             0000000000000000000000000000000000                                                                                                                                                                                                                                        
SPDP04000000000000673222021073103AADH910202Q22       AADH910202Q22ANDRADE DAVILA HECTOR MANUEL            000000000000638600000000000001206001181060384700000                                        9 00000044029001PAGO FONDO DE AHORRO SNTE 5 2020-2021 SNTE SECC5                                                              0000000000000000000000000                      
SPDMSNTE5AHORRO@OUTLOOK.COM                                                                             0000000000000000000000000000000000                                                                                                                                                                                                                                        
SPDP04000000000036067022021073103AADI950903794       AADI950903794ALVAREZ DELGADO INGRID ANEL             000000000000638700000000000000207890252385524200000                                        9 00000044018001PAGO FONDO DE AHORRO SNTE 5 2020-2021 SNTE SECC5                                                              0000000000000000000000000                      
SPDMSNTE5AHORRO@OUTLOOK.COM                                                                             0000000000000000000000000000000000                                                                                                                                                                                                                                        
SPDP04000000000034328992021073103AADJ741213JWA       AADJ741213JWAALVARADO DIAZ JESUS JAVIER              000000000000638800000000000001406056666154943800000                                        9 00000044093001PAGO FONDO DE AHORRO SNTE 5 2020-2021 SNTE SECC5                                                              0000000000000000000000000                      
SPDMSNTE5AHORRO@OUTLOOK.COM                                                                             0000000000000000000000000000000000                                                                                                                                                                                                                                        
SPDP04000000000021536252021073103AADJ901203TI4       AADJ901203TI4ALVARADO DELGADO JULIETA JIMENA         000000000000638900000000000007207201079997031600000                                        9 00000044024001PAGO FONDO DE AHORRO SNTE 5 2020-2021 SNTE SECC5                                                              0000000000000000000000000                      
SPDMSNTE5AHORRO@OUTLOOK.COM                                                                             0000000000000000000000000000000000                                                                                                                                                                                                                                        
SPDP04000000000010891072021073103AADM710725895       AADM710725895ALARCON DELGADILLO MARIA MAGDALENA      000000000000639000000000000001407856555147080400000                                        9 00000044093001PAGO FONDO DE AHORRO SNTE 5 2020-2021 SNTE SECC5                                                              0000000000000000000000000                      
SPDMSNTE5AHORRO@OUTLOOK.COM                                                                             0000000000000000000000000000000000                                                                                                                                                                                                                                        
SPDP04000000000042169992021073103AADM730123H88       AADM730123H88ALVAREZ DECENA MARIO ANTONIO            000000000000639100000000000007207800610267729800000                                        9 00000044024001PAGO FONDO DE AHORRO SNTE 5 2020-2021 SNTE SECC5                                                              0000000000000000000000000                      
SPDMSNTE5AHORRO@OUTLOOK.COM                                                                             0000000000000000000000000000000000                                                                                                                                                                                                                                        
SPDP04000000000012126492021073103AADM730223STA       AADM730223STAAMADOR DOBALI MARTIN                    000000000000639200000000000001407856550042907100000                                        9 00000044093001PAGO FONDO DE AHORRO SNTE 5 2020-2021 SNTE SECC5                                                              0000000000000000000000000                      
SPDMSNTE5AHORRO@OUTLOOK.COM                                                                             0000000000000000000000000000000000                                                                                                                                                                                                                                        
SPDP04000000000036521872021073103AADN740214Q63       AADN740214Q63ALVAREZ DECENA NEFI ARMANDO             000000000000639300000000000001406256515527278600000                                        9 00000044093001PAGO FONDO DE AHORRO SNTE 5 2020-2021 SNTE SECC5                                                              0000000000000000000000000                      
SPDMSNTE5AHORRO@OUTLOOK.COM                                                                             0000000000000000000000000000000000                                                                                                                                                                                                                                        
SPDP04000000000041085352021073103AADS631014B70       AADS631014B70ALVARADO DELGADO SERGIO                 000000000000639400000000000004406818804735870300000                                        9 00000044094001PAGO FONDO DE AHORRO SNTE 5 2020-2021 SNTE SECC5                                                              0000000000000000000000000                      
SPDMSNTE5AHORRO@OUTLOOK.COM                                                                             0000000000000000000000000000000000                                                                                                                                                                                                                                        
SPDP04000000000012126492021073103AADS890331A75       AADS890331A75ALVARADO DOMINGUEZ SILVIA YAMALI        000000000000639500000000000002107806432902058500000                                        9 00000044061001PAGO FONDO DE AHORRO SNTE 5 2020-2021 SNTE SECC5                                                              0000000000000000000000000                      
SPDMSNTE5AHORRO@OUTLOOK.COM                                                                             0000000000000000000000000000000000                                                                                                                                                                                                                                        
SPDP04000000000025808122021073103AAED840427N79       AAED840427N79AYALA ELIZALDE DULCE ZITA               000000000000639600000000000007207800619453767600000                                        9 00000044024001PAGO FONDO DE AHORRO SNTE 5 2020-2021 SNTE SECC5                                                              0000000000000000000000000                      
SPDMSNTE5AHORRO@OUTLOOK.COM                                                                             0000000000000000000000000000000000                                                                                                                                                                                                                                        
SPDP04000000000035556862021073103AASP7806245W0       AASP7806245W0ALVAREZ ELIZONDO ELIZABETH              000000000000639700000000000001207802870185329900000                                        9 00000044029001PAGO FONDO DE AHORRO SNTE 5 2020-2021 SNTE SECC5                                                              0000000000000000000000000                      
SPDMSNTE5AHORRO@OUTLOOK.COM                                                                             0000000000000000000000000000000000                                                                                                                                                                                                                                        
SPDP04000000000013693972021073103AAEH8511184E5       AAEH8511184E5ALFARO ESCOBEDO HECTOR MANUEL           000000000000639800000000000001407960570044866900000                                        9 00000044093001PAGO FONDO DE AHORRO SNTE 5 2020-2021 SNTE SECC5                                                              0000000000000000000000000                      
SPDMSNTE5AHORRO@OUTLOOK.COM                                                                             0000000000000000000000000000000000                                                                                                                                                                                                                                        
SPDP04000000000052945592021073103AAEJ741216SCA       AAEJ741216SCAAYALA ELIZALDE JUANITA ADELAIDA         000000000000639900000000000001207201236337287400000                                        9 00000044029001PAGO FONDO DE AHORRO SNTE 5 2020-2021 SNTE SECC5                                                              0000000000000000000000000                      
SPDMSNTE5AHORRO@OUTLOOK.COM                                                                             0000000000000000000000000000000000                                                                                                                                                                                                                                        
SPDP04000000000055897402021073103AAEJ8510308Y3       AAEJ8510308Y3ALVAREZ ESQUIVEL JESUS ALBERTO          000000000000640000000000000001407860591561617700000                                        9 00000044093001PAGO FONDO DE AHORRO SNTE 5 2020-2021 SNTE SECC5                                                              0000000000000000000000000                      
SPDMSNTE5AHORRO@OUTLOOK.COM                                                                             0000000000000000000000000000000000                                                                                                                                                                                                                                        
SPDP04000000000021946892021073103AAEJ950319BW7       AAEJ950319BW7ALVAREZ ESTRADA JUAN JOSE               000000000000640100000000000004407019101870343000000                                        9 00000044094001PAGO FONDO DE AHORRO SNTE 5 2020-2021 SNTE SECC5                                                              0000000000000000000000000                      
SPDMSNTE5AHORRO@OUTLOOK.COM                                                                             0000000000000000000000000000000000                                                                                                                                                                                                                                        
SPDP04000000000004405492021073103AAEK780517483       AAEK780517483KARLA MARIA AYMA ESCOBAR                000000000002130800000000000001207401533519272800000                                        9 00000044029001PAGO FONDO DE AHORRO SNTE 5 2020-2021 SNTE SECC5                                                              0000000000000000000000000                      
SPDMSNTE5AHORRO@OUTLOOK.COM                                                                             0000000000000000000000000000000000                                                                                                                                                                                                                                        
SPDP04000000000036739772021073103AAEL801204TV5       AAEL801204TV5ALVAREZ ELIZONDO LORENA GUADALUPE       000000000000640200000000000001207801427295464400000                                        9 00000044029001PAGO FONDO DE AHORRO SNTE 5 2020-2021 SNTE SECC5                                                              0000000000000000000000000                      
