SPHA0932601202102222021022220210222000                                                                                                                                                                                                                                                                                                                                            
SPHB000000256021994360000009326000                                                                                                                                                                                                                                                                                                                                                
SPDP04000000000006351732021022203GUOV840830MJ6       GUOV840830MJ6GUEVARA ORDAZ VICTOR MANUEL             000000000000722700000000000001406856587411563600000                                        9 00000044014001PRESTAMO COMPLEMENTARIO SNTE SECC5                                                                            0000000000000000000000000                      
SPDMSNTE5AHORRO@OUTLOOK.COM                                                                             0000000000000000000000000000000000                                                                                                                                                                                                                                        
SPDP04000000000021023482021022203TOGR7812311X4       TOGR7812311X4TORRES GONZALEZ ROSALIN                 000000000000722900000000000001207801580639944100000                                        9 00000044012001PRESTAMO COMPLEMENTARIO SNTE SECC5                                                                            0000000000000000000000000                      
SPDMSNTE5AHORRO@OUTLOOK.COM                                                                             0000000000000000000000000000000000                                                                                                                                                                                                                                        
SPDP04000000000009000002021022203CARL811003QN3       CARL811003QN3CARMONA RODRIGUEZ LARIZA PAMELA         000000000000723100000000000001406256546711499800000                                        9 00000044014001PRESTAMO COMPLEMENTARIO SNTE SECC5                                                                            0000000000000000000000000                      
SPDMSNTE5AHORRO@OUTLOOK.COM                                                                             0000000000000000000000000000000000                                                                                                                                                                                                                                        
SPTB000000300000000003637521000000000000000000000000000000000000000000000000000000000000000000000000000000000000000000000000000000000000000000000000000000000000000000000000000000000000000000000000000000000000000000000000000000000000000000000000000                                                                                                                           
SPTA000000300000000003637521000000000000000000000000000000000000000000000000000000000000000000000000000000000000000000000000000000000000000000000000000000000000000000000000000000000000000000000000000000000000000000000000000000000000000000000000000000                                                                                                                        
