SPHA0932601202108272021082720210827000                                                                                                                                                                                                                                                                                                                                            
SPHB000000256021994360000008572000                                                                                                                                                                                                                                                                                                                                                
SPDP04000000000029774872021082603GOSS640318TF8       GOSS640318TF8GONSALEZ SILVA SIRILO                   900000000000857200000000000007207800530992905400000                                        9 00000044072001PAGO FONDO DE AHORRO SNTE 5 2020-2021 SNTE SECC5                                                              0000000000000000000000000ISP0000000014034      
SPDMSNTE5AHORRO@OUTLOOK.COM                                                                             00000000000000000720780053099290542021082640044DISP0000000014034                                                                                                                                                                                                          
SPTB000000100000000002977487000000000000000000000000000000000000000000000000000000000000000000000000000000000000000000000000000000000000000000000000000000100000000002977487000000000000000000000000000000000000000000000000000000000000000000000000000                                                                                                                           
SPHB000000256021994360000021045000                                                                                                                                                                                                                                                                                                                                                
SPDP04000000000004611742021082603VIIS680731V88       VIIS680731V88SALVADOR VILLASE#OR IMORMINO            900000000002104500000000000001207801566714397500000                                        9 00000044012001PAGO FONDO DE AHORRO SNTE 5 2020-2021 SNTE SECC5                                                              0000000000000000000000000ISP0000000048948      
SPDMSNTE5AHORRO@OUTLOOK.COM                                                                             00000000000000000120780156671439752021082640044DISP0000000048948                                                                                                                                                                                                          
SPTB000000100000000000461174000000000000000000000000000000000000000000000000000000000000000000000000000000000000000000000000000000000000000000000000000000100000000000461174000000000000000000000000000000000000000000000000000000000000000000000000000                                                                                                                           
SPHB000000256021994360000001143000                                                                                                                                                                                                                                                                                                                                                
SPDP04000000000001882322021082603CASN5608281R0       CASN5608281R0CAMPOS SANCHEZ NIDIA                    900000000000114300000000000001407956597959042000000                                        9 00000044014001PAGO FONDO DE AHORRO SNTE 5 2020-2021 SNTE SECC5                                                              0000000000000000000000000ISP0000000048949      
SPDMSNTE5AHORRO@OUTLOOK.COM                                                                             00000000000000000140795659795904202021082640044DISP0000000048949                                                                                                                                                                                                          
SPTB000000100000000000188232000000000000000000000000000000000000000000000000000000000000000000000000000000000000000000000000000000000000000000000000000000100000000000188232000000000000000000000000000000000000000000000000000000000000000000000000000                                                                                                                           
SPHB000000256021994360000020665000                                                                                                                                                                                                                                                                                                                                                
SPDP04000000000013338932021082603FOGG930405CR6       FOGG930405CR6MARIA GUADALUPE FLORES GARCIA           900000000002066500000000000001207202947707630500000                                        9 00000044012001PAGO FONDO DE AHORRO SNTE 5 2020-2021 SNTE SECC5                                                              0000000000000000000000000ISP0000000048950      
SPDMSNTE5AHORRO@OUTLOOK.COM                                                                             00000000000000000120720294770763052021082640044DISP0000000048950                                                                                                                                                                                                          
SPTB000000100000000001333893000000000000000000000000000000000000000000000000000000000000000000000000000000000000000000000000000000000000000000000000000000100000000001333893000000000000000000000000000000000000000000000000000000000000000000000000000                                                                                                                           
SPTA000000400000000004960786000000000000000000000000000000000000000000000000000000000000000000000000000000000000000000000000000000000000000000000000000000400000000004960786000000000000000000000000000000000000000000000000000000000000000000000000000000                                                                                                                        
