SPHA0932601202108192021081920210819000                                                                                                                                                                                                                                                                                                                                            
SPHB000000256021994360000004915000                                                                                                                                                                                                                                                                                                                                                
SPDP04000000000012126642021081803ROPN640305P55       ROPN640305P55RODRIGUEZ PEREZ NORA ARCELIA            900000000000491500000000000007207801140454283800000                                        9 00000044072001PAGO FONDO DE AHORRO SNTE 5 2020-2021 SNTE SECC5                                                              0000000000000000000000000ISP0000000006245      
SPDMSNTE5AHORRO@OUTLOOK.COM                                                                             00000000000000000720780114045428382021081840044DISP0000000006245                                                                                                                                                                                                          
SPTB000000100000000001212664000000000000000000000000000000000000000000000000000000000000000000000000000000000000000000000000000000000000000000000000000000100000000001212664000000000000000000000000000000000000000000000000000000000000000000000000000                                                                                                                           
SPHB000000256021994360000009336000                                                                                                                                                                                                                                                                                                                                                
SPDP04000000000014183212021081803RICF910116S56       RICF910116S56RIVERA CISNEROS FAUSTINO                900000000000933600000000000001407556721947098500000                                        9 00000044014001PAGO FONDO DE AHORRO SNTE 5 2020-2021 SNTE SECC5                                                              0000000000000000000000000ISP0000000006246      
SPDMSNTE5AHORRO@OUTLOOK.COM                                                                             00000000000000000140755672194709852021081840044DISP0000000006246                                                                                                                                                                                                          
SPTB000000100000000001418321000000000000000000000000000000000000000000000000000000000000000000000000000000000000000000000000000000000000000000000000000000100000000001418321000000000000000000000000000000000000000000000000000000000000000000000000000                                                                                                                           
SPHB000000256021994360000021127000                                                                                                                                                                                                                                                                                                                                                
SPDP04000000000006360462021081803ROAB991010A18       ROAB991010A18BEATRIZ ELENA ROHDE ANGULO              900000000002112700000000000001218001540671056700000                                        9 00000044012001PAGO FONDO DE AHORRO SNTE 5 2020-2021 SNTE SECC5                                                              0000000000000000000000000ISP0000000006247      
SPDMSNTE5AHORRO@OUTLOOK.COM                                                                             00000000000000000121800154067105672021081840044DISP0000000006247                                                                                                                                                                                                          
SPTB000000100000000000636046000000000000000000000000000000000000000000000000000000000000000000000000000000000000000000000000000000000000000000000000000000100000000000636046000000000000000000000000000000000000000000000000000000000000000000000000000                                                                                                                           
SPHB000000256021994360000001556000                                                                                                                                                                                                                                                                                                                                                
SPDP04000000000019614232021081803RAHA630515PM8       RAHA630515PM8RAMOS HUERTA ADRIANA GUADALUPE          900000000000155600000000000007207800256818127000000                                        9 00000044072001PAGO FONDO DE AHORRO SNTE 5 2020-2021 SNTE SECC5                                                              0000000000000000000000000ISP0000000006248      
SPDMSNTE5AHORRO@OUTLOOK.COM                                                                             00000000000000000720780025681812702021081840044DISP0000000006248                                                                                                                                                                                                          
SPTB000000100000000001961423000000000000000000000000000000000000000000000000000000000000000000000000000000000000000000000000000000000000000000000000000000100000000001961423000000000000000000000000000000000000000000000000000000000000000000000000000                                                                                                                           
SPHB000000256021994360123456789000                                                                                                                                                                                                                                                                                                                                                
SPTB000000100000000004514987000000000000000000000000000000000000000000000000000000000000000000000000000000000000000000000000000000000000000000000000000000100000000004514987000000000000000000000000000000000000000000000000000000000000000000000000000                                                                                                                           
SPTA000000500000000009743441000000000000000000000000000000000000000000000000000000000000000000000000000000000000000000000000000000000000000000000000000000500000000009743441000000000000000000000000000000000000000000000000000000000000000000000000000000                                                                                                                        
