SPHA0932601202108252021082520210825000                                                                                                                                                                                                                                                                                                                                            
SPHB000000256021994360000002883000                                                                                                                                                                                                                                                                                                                                                
SPDP04000000000012129622021082403LOMC000424C7A       LOMC000424C7ALOPEZ MENDOZA CELIA ALEJANDRA           900000000000288300000000000000207890448876216400000                                        9 00000044002001PAGO FONDO DE AHORRO SNTE 5 2020-2021 SNTE SECC5                                                              0000000000000000000000000ISP0000000013092      
SPDMSNTE5AHORRO@OUTLOOK.COM                                                                             00000000000000000020789044887621642021082440044DISP0000000013092                                                                                                                                                                                                          
SPTB000000100000000001212962000000000000000000000000000000000000000000000000000000000000000000000000000000000000000000000000000000000000000000000000000000100000000001212962000000000000000000000000000000000000000000000000000000000000000000000000000                                                                                                                           
SPHB000000256021994360000021220000                                                                                                                                                                                                                                                                                                                                                
SPDP04000000000011106922021082403AUHM7604263W2       AUHM7604263W2MANUEL BERNARDO AGUIRRE HERNANDEZ       900000000002122000000000000002107506483248179500000                                        9 00000044021001PAGO FONDO DE AHORRO SNTE 5 2020-2021 SNTE SECC5                                                              0000000000000000000000000ISP0000000013094      
SPDMSNTE5AHORRO@OUTLOOK.COM                                                                             00000000000000000210750648324817952021082440044DISP0000000013094                                                                                                                                                                                                          
SPTB000000100000000001110692000000000000000000000000000000000000000000000000000000000000000000000000000000000000000000000000000000000000000000000000000000100000000001110692000000000000000000000000000000000000000000000000000000000000000000000000000                                                                                                                           
SPHB000000256021994360000021173000                                                                                                                                                                                                                                                                                                                                                
SPDP04000000000013446642021082403LUPD981217KD9       LUPD981217KD9DALILA LUNA PEREZ                       900000000002117300000000000001207801516418535500000                                        9 00000044012001PAGO FONDO DE AHORRO SNTE 5 2020-2021 SNTE SECC5                                                              0000000000000000000000000ISP0000000013095      
SPDMSNTE5AHORRO@OUTLOOK.COM                                                                             00000000000000000120780151641853552021082440044DISP0000000013095                                                                                                                                                                                                          
SPTB000000100000000001344664000000000000000000000000000000000000000000000000000000000000000000000000000000000000000000000000000000000000000000000000000000100000000001344664000000000000000000000000000000000000000000000000000000000000000000000000000                                                                                                                           
SPHB000000256021994360000021692000                                                                                                                                                                                                                                                                                                                                                
SPDP04000000000017597732021082403JERE950722D14       JERE950722D14DE JESUS RAMIREZ EVANGELINA             900000000002169200000000000001206001512722574900000                                        9 00000044012001PAGO FONDO DE AHORRO SNTE 5 2020-2021 SNTE SECC5                                                              0000000000000000000000000ISP0000000013096      
SPDMSNTE5AHORRO@OUTLOOK.COM                                                                             00000000000000000120600151272257492021082440044DISP0000000013096                                                                                                                                                                                                          
SPTB000000100000000001759773000000000000000000000000000000000000000000000000000000000000000000000000000000000000000000000000000000000000000000000000000000100000000001759773000000000000000000000000000000000000000000000000000000000000000000000000000                                                                                                                           
SPHB000000256021994360000000015000                                                                                                                                                                                                                                                                                                                                                
SPDP04000000000001247612021082403RAMJ6906178Z3       RAMJ6906178Z3BRIONES RAMIREZ ROSA NELY               900000000000001500000000000001207802840693502700000                                        9 00000044012001PAGO PENSION ALIMENTICIA SNTE 5 2020-2021 SECC5                                                               0000000000000000000000000ISP0000000013486      
SPDMSNTE5AHORRO@OUTLOOK.COM                                                                             00000000000000000120780284069350272021082440044DISP0000000013486                                                                                                                                                                                                          
SPTB000000100000000000124761000000000000000000000000000000000000000000000000000000000000000000000000000000000000000000000000000000000000000000000000000000100000000000124761000000000000000000000000000000000000000000000000000000000000000000000000000                                                                                                                           
SPHB000000256021994360000000026000                                                                                                                                                                                                                                                                                                                                                
SPDP04000000000005095952021082403AIPN841221KI5       AIPN841221KI5MARTINEZ MONCADA MONICA JANETH          900000000000002600000000000001207801559881924200000                                        9 00000044012001PAGO PENSION ALIMENTICIA SNTE 5 2020-2021 SECC5                                                               0000000000000000000000000ISP0000000013487      
SPDMSNTE5AHORRO@OUTLOOK.COM                                                                             00000000000000000120780155988192422021082440044DISP0000000013487                                                                                                                                                                                                          
SPTB000000100000000000509595000000000000000000000000000000000000000000000000000000000000000000000000000000000000000000000000000000000000000000000000000000100000000000509595000000000000000000000000000000000000000000000000000000000000000000000000000                                                                                                                           
SPHB000000256021994360000000050000                                                                                                                                                                                                                                                                                                                                                
SPDP04000000000008907772021082403LESJ780410DF2       LESJ780410DF2CHAVEZ CAMPOS GABRIELA DE JESUS         900000000000005000000000000001207800472466341900000                                        9 00000044012001PAGO PENSION ALIMENTICIA SNTE 5 2020-2021 SECC5                                                               0000000000000000000000000ISP0000000013488      
SPDMSNTE5AHORRO@OUTLOOK.COM                                                                             00000000000000000120780047246634192021082440044DISP0000000013488                                                                                                                                                                                                          
SPTB000000100000000000890777000000000000000000000000000000000000000000000000000000000000000000000000000000000000000000000000000000000000000000000000000000100000000000890777000000000000000000000000000000000000000000000000000000000000000000000000000                                                                                                                           
SPHB000000256021994360000001053000                                                                                                                                                                                                                                                                                                                                                
SPDP04000000000004920962021082403AAHA850623FK0       AAHA850623FK0ARANDA HERNANDEZ ANGEL ALBERTO          000000000000105300000000000007207801079612334800000                                        9 00000044072001AHORRO 2019 2020 CH1053                           AHORRO 2019 2020 CH1053                                     0000000000000000000000000ISP0000000013490      
SPDMSNTE5AHORRO@OUTLOOK.COM                                                                             00000000000000000720780107961233482021082440044DISP0000000013490                                                                                                                                                                                                          
SPTB000000100000000000492096000000000000000000000000000000000000000000000000000000000000000000000000000000000000000000000000000000000000000000000000000000100000000000492096000000000000000000000000000000000000000000000000000000000000000000000000000                                                                                                                           
SPHB000000256021994360000127578000                                                                                                                                                                                                                                                                                                                                                
SPDP04000000000004999162021082403EAGC890924QC8       EAGC890924QC8ESPARZA GALLEGOS CLAUDIA IRENE          000000000012757800000000000004407019101890360900000                                        9 00191044044001AHORRO 2019 2020 CH127578 2A EMISION              AHORRO 2019 2020 CH127578 2A EMISION                        00000000000000000000000000039000000013491      
SPDMSNTE5AHORRO@OUTLOOK.COM                                                                             0000000000000000044070191018903609000020210824150039000000013491                                                                                                                                                                                                          
SPTB000000100000000000499916000000000000000000000000000000000000000000000000000000000000000000000000000000000000000000000000000000000000000000000000000000100000000000499916000000000000000000000000000000000000000000000000000000000000000000000000000                                                                                                                           
SPHB000000256021994360000240821000                                                                                                                                                                                                                                                                                                                                                
SPDP04000000000000551972021082403MUPR7301057B6       MUPR7301057B6MU#OZ PRADO RUBEN                       000000000024082100000000000007207800540124752400000                                        9 00000044072001DEVOLUCION PENSION ALIM 2020 2021                 DEVOLUCION PENSION ALIM 2020 2021                           0000000000000000000000000ISP0000000013493      
SPDMSNTE5AHORRO@OUTLOOK.COM                                                                             00000000000000000720780054012475242021082440044DISP0000000013493                                                                                                                                                                                                          
SPTB000000100000000000055197000000000000000000000000000000000000000000000000000000000000000000000000000000000000000000000000000000000000000000000000000000100000000000055197000000000000000000000000000000000000000000000000000000000000000000000000000                                                                                                                           
SPHB000000256021994360000001113000                                                                                                                                                                                                                                                                                                                                                
SPDP04000000000054878972021082403GAVV851113S2A       GAVV851113S2AVERONICA MILDRET GARCIA VILLARREAL      000000000000111300000000000007258001114242708800000                                        9 00000044072001PAGO FONDO DE AHORRO SNTE 5 2020-2021 SNTE SECC5  PAGO FONDO DE AHORRO SNTE 5 2020-2021 SNTE SECC5            0000000000000000000000000ISP0000000013489      
SPDMSNTE5AHORRO@OUTLOOK.COM                                                                             00000000000000000725800111424270882021082440044DISP0000000013489                                                                                                                                                                                                          
SPTB000000100000000005487897000000000000000000000000000000000000000000000000000000000000000000000000000000000000000000000000000000000000000000000000000000100000000005487897000000000000000000000000000000000000000000000000000000000000000000000000000                                                                                                                           
SPHB000000256021994360000730105000                                                                                                                                                                                                                                                                                                                                                
SPDP04000000000001281002021082403XAXX010101000       XAXX010101000PE#A AGUIRRE LUZ MARIA                  000000000073010500000000000002107806417901315300000                                        9 00000044021001PENSION ALIMENTICIA 2020 2021 RESTO               PENSION ALIMENTICIA 2020 2021 RESTO                         0000000000000000000000000ISP0000000013492      
SPDMSNTE5AHORRO@OUTLOOK.COM                                                                             00000000000000000210780641790131532021082440044DISP0000000013492                                                                                                                                                                                                          
SPTB000000100000000000128100000000000000000000000000000000000000000000000000000000000000000000000000000000000000000000000000000000000000000000000000000000100000000000128100000000000000000000000000000000000000000000000000000000000000000000000000000                                                                                                                           
SPTA000001200000000013616430000000000000000000000000000000000000000000000000000000000000000000000000000000000000000000000000000000000000000000000000000001200000000013616430000000000000000000000000000000000000000000000000000000000000000000000000000000                                                                                                                        
