SPHA0932601202108182021081820210818000                                                                                                                                                                                                                                                                                                                                            
SPHB000000256021994360000012595000                                                                                                                                                                                                                                                                                                                                                
SPDP04000000000015021482021081703VISJ900715EY7       VISJ900715EY7VILLARREAL SALAZAR JUANITA YAMILETH     900000000001259500000000000004407025603139338000000                                        9 00191044044001PAGO FONDO DE AHORRO SNTE 5 2020-2021 SNTE SECC5                                                              00000000000000000000000001502000000003371      
SPDMSNTE5AHORRO@OUTLOOK.COM                                                                             0000000000000000044070256031393380000020210817091502000000003371                                                                                                                                                                                                          
SPTB000000100000000001502148000000000000000000000000000000000000000000000000000000000000000000000000000000000000000000000000000000000000000000000000000000100000000001502148000000000000000000000000000000000000000000000000000000000000000000000000000                                                                                                                           
SPHB000000256021994360000001210000                                                                                                                                                                                                                                                                                                                                                
SPDP04000000000013695862021081703CAVC7105181A4       CAVC7105181A4CAMPOS VILLASANA CLAUDIA                900000000000121000000000000004406818805173353400000                                        9 00188044044001PAGO FONDO DE AHORRO SNTE 5 2020-2021 SNTE SECC5                                                              00000000000000000000000001502000000003381      
SPDMSNTE5AHORRO@OUTLOOK.COM                                                                             0000000000000000044068188051733534000020210817091502000000003381                                                                                                                                                                                                          
SPTB000000100000000001369586000000000000000000000000000000000000000000000000000000000000000000000000000000000000000000000000000000000000000000000000000000100000000001369586000000000000000000000000000000000000000000000000000000000000000000000000000                                                                                                                           
SPHB000000256021994360000010527000                                                                                                                                                                                                                                                                                                                                                
SPDP04000000000014610342021081703REDE930929NN9       REDE930929NN9REYES DELGADO ELENA ABIGAIL             900000000001052700000000000001207901570145947200000                                        9 00000044012001PAGO FONDO DE AHORRO SNTE 5 2020-2021 SNTE SECC5                                                              0000000000000000000000000ISP0000000003392      
SPDMSNTE5AHORRO@OUTLOOK.COM                                                                             00000000000000000120790157014594722021081740044DISP0000000003392                                                                                                                                                                                                          
SPTB000000100000000001461034000000000000000000000000000000000000000000000000000000000000000000000000000000000000000000000000000000000000000000000000000000100000000001461034000000000000000000000000000000000000000000000000000000000000000000000000000                                                                                                                           
SPHB000000256021994360000019691000                                                                                                                                                                                                                                                                                                                                                
SPDP04000000000021741932021081703TEPA921217MM7       TEPA921217MM7TERAN PONCE AMERICA CASANDRA            900000000001969100000000000001207602990224723600000                                        9 00000044012001PAGO FONDO DE AHORRO SNTE 5 2020-2021 SNTE SECC5                                                              0000000000000000000000000ISP0000000003402      
SPDMSNTE5AHORRO@OUTLOOK.COM                                                                             00000000000000000120760299022472362021081740044DISP0000000003402                                                                                                                                                                                                          
SPTB000000100000000002174193000000000000000000000000000000000000000000000000000000000000000000000000000000000000000000000000000000000000000000000000000000100000000002174193000000000000000000000000000000000000000000000000000000000000000000000000000                                                                                                                           
SPHB000000256021994360000004802000                                                                                                                                                                                                                                                                                                                                                
SPDP04000000000021947172021081703OERH8311294C4       OERH8311294C4ORTEGON RANGEL HECTOR MIGUEL            900000000000480200000000000001207902644175255400000                                        9 00000044012001PAGO FONDO DE AHORRO SNTE 5 2020-2021 SNTE SECC5                                                              0000000000000000000000000ISP0000000003404      
SPDMSNTE5AHORRO@OUTLOOK.COM                                                                             00000000000000000120790264417525542021081740044DISP0000000003404                                                                                                                                                                                                          
SPTB000000100000000002194717000000000000000000000000000000000000000000000000000000000000000000000000000000000000000000000000000000000000000000000000000000100000000002194717000000000000000000000000000000000000000000000000000000000000000000000000000                                                                                                                           
SPHB000000256021994360000016617000                                                                                                                                                                                                                                                                                                                                                
SPDP04000000000016597832021081703SERI900818HY0       SERI900818HY0SEPULVEDA DE LA ROSA ILSE GABRIELA      900000000001661700000000000001206801532206983800000                                        9 00000044012001PAGO FONDO DE AHORRO SNTE 5 2020-2021 SNTE SECC5                                                              0000000000000000000000000ISP0000000003415      
SPDMSNTE5AHORRO@OUTLOOK.COM                                                                             00000000000000000120680153220698382021081740044DISP0000000003415                                                                                                                                                                                                          
SPTB000000100000000001659783000000000000000000000000000000000000000000000000000000000000000000000000000000000000000000000000000000000000000000000000000000100000000001659783000000000000000000000000000000000000000000000000000000000000000000000000000                                                                                                                           
SPHB000000256021994360000020473000                                                                                                                                                                                                                                                                                                                                                
SPDP04000000000016819572021081703NAHF8710242W1       NAHF8710242W1NAVA HINOSTROZA FATIMA JUDITH           900000000002047300000000000001206202932498251000000                                        9 00000044012001PAGO FONDO DE AHORRO SNTE 5 2020-2021 SNTE SECC5                                                              0000000000000000000000000ISP0000000003418      
SPDMSNTE5AHORRO@OUTLOOK.COM                                                                             00000000000000000120620293249825102021081740044DISP0000000003418                                                                                                                                                                                                          
SPTB000000100000000001681957000000000000000000000000000000000000000000000000000000000000000000000000000000000000000000000000000000000000000000000000000000100000000001681957000000000000000000000000000000000000000000000000000000000000000000000000000                                                                                                                           
SPHB000000256021994360000020492000                                                                                                                                                                                                                                                                                                                                                
SPDP04000000000006096262021081703NAML9107315L0       NAML9107315L0NAVA MU#OZ LAURA CRISTINA               900000000002049200000000000004407818701423134900000                                        9 00187044044001PAGO FONDO DE AHORRO SNTE 5 2020-2021 SNTE SECC5                                                              00000000000000000000000001502000000003421      
SPDMSNTE5AHORRO@OUTLOOK.COM                                                                             0000000000000000044078187014231349000020210817091502000000003421                                                                                                                                                                                                          
SPTB000000100000000000609626000000000000000000000000000000000000000000000000000000000000000000000000000000000000000000000000000000000000000000000000000000100000000000609626000000000000000000000000000000000000000000000000000000000000000000000000000                                                                                                                           
SPHB000000256021994360000017380000                                                                                                                                                                                                                                                                                                                                                
SPDP04000000000021947172021081703RABW6003282I9       RABW6003282I9RANGEL BARRIENTOS WILFRIDO              900000000001738000000000000000208090296759324200000                                        9 00000044002001PAGO FONDO DE AHORRO SNTE 5 2020-2021 SNTE SECC5                                                              0000000000000000000000000ISP0000000003423      
SPDMSNTE5AHORRO@OUTLOOK.COM                                                                             00000000000000000020809029675932422021081740044DISP0000000003423                                                                                                                                                                                                          
SPTB000000100000000002194717000000000000000000000000000000000000000000000000000000000000000000000000000000000000000000000000000000000000000000000000000000100000000002194717000000000000000000000000000000000000000000000000000000000000000000000000000                                                                                                                           
SPHB000000256021994360000020162000                                                                                                                                                                                                                                                                                                                                                
SPDP04000000000034236822021081703LAFR861107FV3       LAFR861107FV3LLANAS FLORES RAYMUNDO RUMANNIGE        900000000002016200000000000007218000645899962800000                                        9 00000044072001PAGO FONDO DE AHORRO SNTE 5 2020-2021 SNTE SECC5                                                              0000000000000000000000000ISP0000000003426      
SPDMSNTE5AHORRO@OUTLOOK.COM                                                                             00000000000000000721800064589996282021081740044DISP0000000003426                                                                                                                                                                                                          
SPTB000000100000000003423682000000000000000000000000000000000000000000000000000000000000000000000000000000000000000000000000000000000000000000000000000000100000000003423682000000000000000000000000000000000000000000000000000000000000000000000000000                                                                                                                           
SPHB000000256021994360000007900000                                                                                                                                                                                                                                                                                                                                                
SPDP04000000000014083532021081703DEAS7105207Z5       DEAS7105207Z5DELGADO AGUERO SIMON                    900000000000790000000000000001406256580605933900000                                        9 00000044014001PAGO FONDO DE AHORRO SNTE 5 2020-2021 SNTE SECC5                                                              0000000000000000000000000ISP0000000003432      
SPDMSNTE5AHORRO@OUTLOOK.COM                                                                             00000000000000000140625658060593392021081740044DISP0000000003432                                                                                                                                                                                                          
SPTB000000100000000001408353000000000000000000000000000000000000000000000000000000000000000000000000000000000000000000000000000000000000000000000000000000100000000001408353000000000000000000000000000000000000000000000000000000000000000000000000000                                                                                                                           
SPHB000000256021994360000002219000                                                                                                                                                                                                                                                                                                                                                
SPDP04000000000013640892021081703GABJ850604NE2       GABJ850604NE2GARCIA BOCANEGRA JUANITA MIREYA         900000000000221900000000000001406256595572743100000                                        9 00000044014001PAGO FONDO DE AHORRO SNTE 5 2020-2021 SNTE SECC5                                                              0000000000000000000000000ISP0000000003437      
SPDMSNTE5AHORRO@OUTLOOK.COM                                                                             00000000000000000140625659557274312021081740044DISP0000000003437                                                                                                                                                                                                          
SPTB000000100000000001364089000000000000000000000000000000000000000000000000000000000000000000000000000000000000000000000000000000000000000000000000000000100000000001364089000000000000000000000000000000000000000000000000000000000000000000000000000                                                                                                                           
SPHB000000256021994360000001538000                                                                                                                                                                                                                                                                                                                                                
SPDP04000000000021947172021081703GARC910407FU8       GARC910407FU8GARZA RIVERA CRISTINA                   900000000000153800000000000001406860565684217100000                                        9 00000044014001PAGO FONDO DE AHORRO SNTE 5 2020-2021 SNTE SECC5                                                              0000000000000000000000000ISP0000000003440      
SPDMSNTE5AHORRO@OUTLOOK.COM                                                                             00000000000000000140686056568421712021081740044DISP0000000003440                                                                                                                                                                                                          
SPTB000000100000000002194717000000000000000000000000000000000000000000000000000000000000000000000000000000000000000000000000000000000000000000000000000000100000000002194717000000000000000000000000000000000000000000000000000000000000000000000000000                                                                                                                           
SPHB000000256021994360000006978000                                                                                                                                                                                                                                                                                                                                                
SPDP04000000000000874562021081703MOAR600113CK4       MOAR600113CK4MORALES AYALA RODOLFO                   900000000000697800000000000007207801123922954600000                                        9 00000044072001PAGO FONDO DE AHORRO SNTE 5 2020-2021 SNTE SECC5                                                              0000000000000000000000000ISP0000000003443      
SPDMSNTE5AHORRO@OUTLOOK.COM                                                                             00000000000000000720780112392295462021081740044DISP0000000003443                                                                                                                                                                                                          
SPTB000000100000000000087456000000000000000000000000000000000000000000000000000000000000000000000000000000000000000000000000000000000000000000000000000000100000000000087456000000000000000000000000000000000000000000000000000000000000000000000000000                                                                                                                           
SPHB000000256021994360000005214000                                                                                                                                                                                                                                                                                                                                                
SPDP04000000000000485382021081703UICA8905218U8       UICA8905218U8URBINA CORTES ADRIANA ELIZABETH         900000000000521400000000000001407856507878403100000                                        9 00000044014001PAGO FONDO DE AHORRO SNTE 5 2020-2021 SNTE SECC5                                                              0000000000000000000000000ISP0000000003452      
SPDMSNTE5AHORRO@OUTLOOK.COM                                                                             00000000000000000140785650787840312021081740044DISP0000000003452                                                                                                                                                                                                          
SPTB000000100000000000048538000000000000000000000000000000000000000000000000000000000000000000000000000000000000000000000000000000000000000000000000000000100000000000048538000000000000000000000000000000000000000000000000000000000000000000000000000                                                                                                                           
SPHB000000256021994360000005251000                                                                                                                                                                                                                                                                                                                                                
SPDP04000000000006100792021081703VAAD720505GW4       VAAD720505GW4VAZQUEZ ALVARADO DIANA IDALIA           900000000000525100000000000001207801501438314200000                                        9 00000044012001PAGO FONDO DE AHORRO SNTE 5 2020-2021 SNTE SECC5                                                              0000000000000000000000000ISP0000000003457      
SPDMSNTE5AHORRO@OUTLOOK.COM                                                                             00000000000000000120780150143831422021081740044DISP0000000003457                                                                                                                                                                                                          
SPTB000000100000000000610079000000000000000000000000000000000000000000000000000000000000000000000000000000000000000000000000000000000000000000000000000000100000000000610079000000000000000000000000000000000000000000000000000000000000000000000000000                                                                                                                           
SPHB000000256021994360000017550000                                                                                                                                                                                                                                                                                                                                                
SPDP04000000000014083532021081703BUTJ6801105M9       BUTJ6801105M9BUITRON TREVI#O JESUS                   900000000001755000000000000001406256656450447100000                                        9 00000044014001PAGO FONDO DE AHORRO SNTE 5 2020-2021 SNTE SECC5                                                              0000000000000000000000000ISP0000000003460      
SPDMSNTE5AHORRO@OUTLOOK.COM                                                                             00000000000000000140625665645044712021081740044DISP0000000003460                                                                                                                                                                                                          
SPTB000000100000000001408353000000000000000000000000000000000000000000000000000000000000000000000000000000000000000000000000000000000000000000000000000000100000000001408353000000000000000000000000000000000000000000000000000000000000000000000000000                                                                                                                           
SPHB000000256021994360000014497000                                                                                                                                                                                                                                                                                                                                                
SPDP04000000000004055302021081703COMJ681213747       COMJ681213747CORTEZ MONTALVO JORGE GUADALUPE         900000000001449700000000000001207201409689508200000                                        9 00000044012001PAGO FONDO DE AHORRO SNTE 5 2020-2021 SNTE SECC5                                                              0000000000000000000000000ISP0000000003463      
SPDMSNTE5AHORRO@OUTLOOK.COM                                                                             00000000000000000120720140968950822021081740044DISP0000000003463                                                                                                                                                                                                          
SPTB000000100000000000405530000000000000000000000000000000000000000000000000000000000000000000000000000000000000000000000000000000000000000000000000000000100000000000405530000000000000000000000000000000000000000000000000000000000000000000000000000                                                                                                                           
SPHB000000256021994360000015377000                                                                                                                                                                                                                                                                                                                                                
SPDP04000000000014083532021081703ROCI770513GX7       ROCI770513GX7ROCHA CORONADO ISMAEL                   900000000001537700000000000002107706528926202700000                                        9 00000044021001PAGO FONDO DE AHORRO SNTE 5 2020-2021 SNTE SECC5                                                              0000000000000000000000000ISP0000000003475      
SPDMSNTE5AHORRO@OUTLOOK.COM                                                                             00000000000000000210770652892620272021081740044DISP0000000003475                                                                                                                                                                                                          
SPTB000000100000000001408353000000000000000000000000000000000000000000000000000000000000000000000000000000000000000000000000000000000000000000000000000000100000000001408353000000000000000000000000000000000000000000000000000000000000000000000000000                                                                                                                           
SPHB000000256021994360000015437000                                                                                                                                                                                                                                                                                                                                                
SPDP04000000000012126672021081703ROCS990208JG3       ROCS990208JG3ROMO CORDERO SOFIA GABRIELA             900000000001543700000000000001207801541646063400000                                        9 00000044012001PAGO FONDO DE AHORRO SNTE 5 2020-2021 SNTE SECC5                                                              0000000000000000000000000ISP0000000003477      
SPDMSNTE5AHORRO@OUTLOOK.COM                                                                             00000000000000000120780154164606342021081740044DISP0000000003477                                                                                                                                                                                                          
SPTB000000100000000001212667000000000000000000000000000000000000000000000000000000000000000000000000000000000000000000000000000000000000000000000000000000100000000001212667000000000000000000000000000000000000000000000000000000000000000000000000000                                                                                                                           
SPHB000000256021994360000013012000                                                                                                                                                                                                                                                                                                                                                
SPDP04000000000009727322021081703FELS571101DV6       FELS571101DV6FERNANDEZ LOPEZ SANTOS VICTOR           900000000001301200000000000001206201538636351800000                                        9 00000044012001PAGO FONDO DE AHORRO SNTE 5 2020-2021 SNTE SECC5                                                              0000000000000000000000000ISP0000000003478      
SPDMSNTE5AHORRO@OUTLOOK.COM                                                                             00000000000000000120620153863635182021081740044DISP0000000003478                                                                                                                                                                                                          
SPTB000000100000000000972732000000000000000000000000000000000000000000000000000000000000000000000000000000000000000000000000000000000000000000000000000000100000000000972732000000000000000000000000000000000000000000000000000000000000000000000000000                                                                                                                           
SPHB000000256021994360000006537000                                                                                                                                                                                                                                                                                                                                                
SPDP04000000000021947172021081703AAMA801117DJ5       AAMA801117DJ5ALVAREZ MEDINA ANA LUISA                900000000000653700000000000001406960592929200400000                                        9 00000044014001PAGO FONDO DE AHORRO SNTE 5 2020-2021 SNTE SECC5                                                              0000000000000000000000000ISP0000000003482      
SPDMSNTE5AHORRO@OUTLOOK.COM                                                                             00000000000000000140696059292920042021081740044DISP0000000003482                                                                                                                                                                                                          
SPTB000000100000000002194717000000000000000000000000000000000000000000000000000000000000000000000000000000000000000000000000000000000000000000000000000000100000000002194717000000000000000000000000000000000000000000000000000000000000000000000000000                                                                                                                           
SPHB000000256021994360000006118000                                                                                                                                                                                                                                                                                                                                                
SPDP04000000000021947172021081703MOSN9507071N0       MOSN9507071N0MORENO SALINAS NATALIA                  900000000000611800000000000004407719001792989500000                                        9 00190044044001PAGO FONDO DE AHORRO SNTE 5 2020-2021 SNTE SECC5                                                              00000000000000000000000001502000000003492      
SPDMSNTE5AHORRO@OUTLOOK.COM                                                                             0000000000000000044077190017929895000020210817091502000000003492                                                                                                                                                                                                          
SPTB000000100000000002194717000000000000000000000000000000000000000000000000000000000000000000000000000000000000000000000000000000000000000000000000000000100000000002194717000000000000000000000000000000000000000000000000000000000000000000000000000                                                                                                                           
SPHB000000256021994360000016407000                                                                                                                                                                                                                                                                                                                                                
SPDP04000000000013694142021081703ROGA790824227       ROGA790824227ROMAN GAMEZ ALEJANDRA                   900000000001640700000000000004458014503061159600000                                        9 00145044044001PAGO FONDO DE AHORRO SNTE 5 2020-2021 SNTE SECC5                                                              00000000000000000000000001502000000003494      
SPDMSNTE5AHORRO@OUTLOOK.COM                                                                             0000000000000000044580145030611596000020210817091502000000003494                                                                                                                                                                                                          
SPTB000000100000000001369414000000000000000000000000000000000000000000000000000000000000000000000000000000000000000000000000000000000000000000000000000000100000000001369414000000000000000000000000000000000000000000000000000000000000000000000000000                                                                                                                           
SPHB000000256021994360000008677000                                                                                                                                                                                                                                                                                                                                                
SPDP04000000000007384342021081703GUAC811113EV8       GUAC811113EV8GUTIERREZ ACOSTA CINDY SABRINA          900000000000867700000000000001207801551873833200000                                        9 00000044012001PAGO FONDO DE AHORRO SNTE 5 2020-2021 SNTE SECC5                                                              0000000000000000000000000ISP0000000003498      
SPDMSNTE5AHORRO@OUTLOOK.COM                                                                             00000000000000000120780155187383322021081740044DISP0000000003498                                                                                                                                                                                                          
SPTB000000100000000000738434000000000000000000000000000000000000000000000000000000000000000000000000000000000000000000000000000000000000000000000000000000100000000000738434000000000000000000000000000000000000000000000000000000000000000000000000000                                                                                                                           
SPHB000000256021994360000004834000                                                                                                                                                                                                                                                                                                                                                
SPDP04000000000029848312021081703ROMV841108UP9       ROMV841108UP9RODRIGUEZ MARTINEZ VIRIDIANA ANYELITH   900000000000483400000000000007207201112529861600000                                        9 00000044072001PAGO FONDO DE AHORRO SNTE 5 2020-2021 SNTE SECC5                                                              0000000000000000000000000ISP0000000003499      
SPDMSNTE5AHORRO@OUTLOOK.COM                                                                             00000000000000000720720111252986162021081740044DISP0000000003499                                                                                                                                                                                                          
SPTB000000100000000002984831000000000000000000000000000000000000000000000000000000000000000000000000000000000000000000000000000000000000000000000000000000100000000002984831000000000000000000000000000000000000000000000000000000000000000000000000000                                                                                                                           
SPHB000000256021994360000004844000                                                                                                                                                                                                                                                                                                                                                
SPDP04000000000021947172021081703RONA810925QN1       RONA810925QN1RODRIGUEZ NORIEGA ALEJANDRA SELENE      900000000000484400000000000001206801563809711200000                                        9 00000044012001PAGO FONDO DE AHORRO SNTE 5 2020-2021 SNTE SECC5                                                              0000000000000000000000000ISP0000000003500      
SPDMSNTE5AHORRO@OUTLOOK.COM                                                                             00000000000000000120680156380971122021081740044DISP0000000003500                                                                                                                                                                                                          
SPTB000000100000000002194717000000000000000000000000000000000000000000000000000000000000000000000000000000000000000000000000000000000000000000000000000000100000000002194717000000000000000000000000000000000000000000000000000000000000000000000000000                                                                                                                           
SPHB000000256021994360000001892000                                                                                                                                                                                                                                                                                                                                                
SPDP04000000000072857712021081703SOMY660907T24       SOMY660907T24SOTO MARTINEZ YOLANDA                   900000000000189200000000000007207801097177695000000                                        9 00000044072001PAGO FONDO DE AHORRO SNTE 5 2020-2021 SNTE SECC5                                                              0000000000000000000000000ISP0000000003501      
SPDMSNTE5AHORRO@OUTLOOK.COM                                                                             00000000000000000720780109717769502021081740044DISP0000000003501                                                                                                                                                                                                          
SPTB000000100000000007285771000000000000000000000000000000000000000000000000000000000000000000000000000000000000000000000000000000000000000000000000000000100000000007285771000000000000000000000000000000000000000000000000000000000000000000000000000                                                                                                                           
SPHB000000256021994360000021155000                                                                                                                                                                                                                                                                                                                                                
SPDP04000000000015472592021081703VISN941226LH8       VISN941226LH8NARDA FERNANDA VIGGIANO SANCHEZ         900000000002115500000000000002106006493948495600000                                        9 00000044021001PAGO FONDO DE AHORRO SNTE 5 2020-2021 SNTE SECC5                                                              0000000000000000000000000ISP0000000003502      
SPDMSNTE5AHORRO@OUTLOOK.COM                                                                             00000000000000000210600649394849562021081740044DISP0000000003502                                                                                                                                                                                                          
SPTB000000100000000001547259000000000000000000000000000000000000000000000000000000000000000000000000000000000000000000000000000000000000000000000000000000100000000001547259000000000000000000000000000000000000000000000000000000000000000000000000000                                                                                                                           
SPHB000000256021994360000021227000                                                                                                                                                                                                                                                                                                                                                
SPDP04000000000007070132021081703BACA8308095W3       BACA8308095W3AARON ALEJANDRO BAUTISTA CEPEDA         900000000002122700000000000002106506417907395700000                                        9 00000044021001PAGO FONDO DE AHORRO SNTE 5 2020-2021 SNTE SECC5                                                              0000000000000000000000000ISP0000000003503      
SPDMSNTE5AHORRO@OUTLOOK.COM                                                                             00000000000000000210650641790739572021081740044DISP0000000003503                                                                                                                                                                                                          
SPTB000000100000000000707013000000000000000000000000000000000000000000000000000000000000000000000000000000000000000000000000000000000000000000000000000000100000000000707013000000000000000000000000000000000000000000000000000000000000000000000000000                                                                                                                           
SPHB000000256021994360000020797000                                                                                                                                                                                                                                                                                                                                                
SPDP04000000000016148082021081703EIAE8807068R5       EIAE8807068R5EDNA AGLAE ENRIQUEZ ACEVEDO             900000000002079700000000000001207001545831091500000                                        9 00000044012001PAGO FONDO DE AHORRO SNTE 5 2020-2021 SNTE SECC5                                                              0000000000000000000000000ISP0000000003504      
SPDMSNTE5AHORRO@OUTLOOK.COM                                                                             00000000000000000120700154583109152021081740044DISP0000000003504                                                                                                                                                                                                          
SPTB000000100000000001614808000000000000000000000000000000000000000000000000000000000000000000000000000000000000000000000000000000000000000000000000000000100000000001614808000000000000000000000000000000000000000000000000000000000000000000000000000                                                                                                                           
SPHB000000256021994360000021337000                                                                                                                                                                                                                                                                                                                                                
SPDP04000000000010049142021081703EIRB890525PL4       EIRB890525PL4BRENDA YANETH ESPINOZA RAMIREZ          900000000002133700000000000001407856799760543500000                                        9 00000044014001PAGO FONDO DE AHORRO SNTE 5 2020-2021 SNTE SECC5                                                              0000000000000000000000000ISP0000000003505      
SPDMSNTE5AHORRO@OUTLOOK.COM                                                                             00000000000000000140785679976054352021081740044DISP0000000003505                                                                                                                                                                                                          
SPTB000000100000000001004914000000000000000000000000000000000000000000000000000000000000000000000000000000000000000000000000000000000000000000000000000000100000000001004914000000000000000000000000000000000000000000000000000000000000000000000000000                                                                                                                           
SPHB000000256021994360000004574000                                                                                                                                                                                                                                                                                                                                                
SPDP04000000000006598842021081703EOGM8506211C0       EOGM8506211C0ELORZA GONZALEZ MARISOL                 900000000000457400000000000002107806489946065900000                                        9 00000044021001PAGO FONDO DE AHORRO SNTE 5 2020-2021 SNTE SECC5                                                              0000000000000000000000000ISP0000000003506      
SPDMSNTE5AHORRO@OUTLOOK.COM                                                                             00000000000000000210780648994606592021081740044DISP0000000003506                                                                                                                                                                                                          
SPTB000000100000000000659884000000000000000000000000000000000000000000000000000000000000000000000000000000000000000000000000000000000000000000000000000000100000000000659884000000000000000000000000000000000000000000000000000000000000000000000000000                                                                                                                           
SPHB000000256021994360000021769000                                                                                                                                                                                                                                                                                                                                                
SPDP04000000000002383982021081703LOHY841101IB2       LOHY841101IB2LOPEZ HERNANDEZ YURITZI                 900000000002176900000000000001207802982228785300000                                        9 00000044012001PAGO FONDO DE AHORRO SNTE 5 2020-2021 SNTE SECC5                                                              0000000000000000000000000ISP0000000003507      
SPDMSNTE5AHORRO@OUTLOOK.COM                                                                             00000000000000000120780298222878532021081740044DISP0000000003507                                                                                                                                                                                                          
SPTB000000100000000000238398000000000000000000000000000000000000000000000000000000000000000000000000000000000000000000000000000000000000000000000000000000100000000000238398000000000000000000000000000000000000000000000000000000000000000000000000000                                                                                                                           
SPHB000000256021994360000020973000                                                                                                                                                                                                                                                                                                                                                
SPDP04000000000016150362021081703LOJG800405MF1       LOJG800405MF1GLORIA MARGARITA LOPEZ JIMENEZ          900000000002097300000000000001207801529351330600000                                        9 00000044012001PAGO FONDO DE AHORRO SNTE 5 2020-2021 SNTE SECC5                                                              0000000000000000000000000ISP0000000003508      
SPDMSNTE5AHORRO@OUTLOOK.COM                                                                             00000000000000000120780152935133062021081740044DISP0000000003508                                                                                                                                                                                                          
SPTB000000100000000001615036000000000000000000000000000000000000000000000000000000000000000000000000000000000000000000000000000000000000000000000000000000100000000001615036000000000000000000000000000000000000000000000000000000000000000000000000000                                                                                                                           
SPHB000000256021994360000021683000                                                                                                                                                                                                                                                                                                                                                
SPDP04000000000005559112021081703MEGF000622LG6       MEGF000622LG6MENCHACA GALINDO FRANCISCO              900000000002168300000000000001206801537248455700000                                        9 00000044012001PAGO FONDO DE AHORRO SNTE 5 2020-2021 SNTE SECC5                                                              0000000000000000000000000ISP0000000003509      
SPDMSNTE5AHORRO@OUTLOOK.COM                                                                             00000000000000000120680153724845572021081740044DISP0000000003509                                                                                                                                                                                                          
SPTB000000100000000000555911000000000000000000000000000000000000000000000000000000000000000000000000000000000000000000000000000000000000000000000000000000100000000000555911000000000000000000000000000000000000000000000000000000000000000000000000000                                                                                                                           
SPHB000000256021994360000021174000                                                                                                                                                                                                                                                                                                                                                
SPDP04000000000013446642021081703OIVL891119PI4       OIVL891119PI4LUCIA ALEJANDRA OLIVO VERA              900000000002117400000000000001207802942453924200000                                        9 00000044012001PAGO FONDO DE AHORRO SNTE 5 2020-2021 SNTE SECC5                                                              0000000000000000000000000ISP0000000003510      
SPDMSNTE5AHORRO@OUTLOOK.COM                                                                             00000000000000000120780294245392422021081740044DISP0000000003510                                                                                                                                                                                                          
SPTB000000100000000001344664000000000000000000000000000000000000000000000000000000000000000000000000000000000000000000000000000000000000000000000000000000100000000001344664000000000000000000000000000000000000000000000000000000000000000000000000000                                                                                                                           
SPHB000000256021994360000021445000                                                                                                                                                                                                                                                                                                                                                
SPDP04000000000006732722021081703OOFJ880413491       OOFJ880413491JUAN ANGEL OROZCO FLORES                900000000002144500000000000001206801520910834600000                                        9 00000044012001PAGO FONDO DE AHORRO SNTE 5 2020-2021 SNTE SECC5                                                              0000000000000000000000000ISP0000000003511      
SPDMSNTE5AHORRO@OUTLOOK.COM                                                                             00000000000000000120680152091083462021081740044DISP0000000003511                                                                                                                                                                                                          
SPTB000000100000000000673272000000000000000000000000000000000000000000000000000000000000000000000000000000000000000000000000000000000000000000000000000000100000000000673272000000000000000000000000000000000000000000000000000000000000000000000000000                                                                                                                           
SPHB000000256021994360000021608000                                                                                                                                                                                                                                                                                                                                                
SPDP04000000000008253322021081703OUEG791119L10       OUEG791119L10OLGUIN ESCOBEDO MARIA GUADALUPE         900000000002160800000000000001242001525745159900000                                        9 00000044012001PAGO FONDO DE AHORRO SNTE 5 2020-2021 SNTE SECC5                                                              0000000000000000000000000ISP0000000003512      
SPDMSNTE5AHORRO@OUTLOOK.COM                                                                             00000000000000000124200152574515992021081740044DISP0000000003512                                                                                                                                                                                                          
SPTB000000100000000000825332000000000000000000000000000000000000000000000000000000000000000000000000000000000000000000000000000000000000000000000000000000100000000000825332000000000000000000000000000000000000000000000000000000000000000000000000000                                                                                                                           
SPHB000000256021994360000010680000                                                                                                                                                                                                                                                                                                                                                
SPDP04000000000022892972021081703REMJ870616KJA       REMJ870616KJAREYES MORENO JULISSA EDITH              900000000001068000000000000001207801181888218600000                                        9 00000044012001PAGO FONDO DE AHORRO SNTE 5 2020-2021 SNTE SECC5                                                              0000000000000000000000000ISP0000000003513      
SPDMSNTE5AHORRO@OUTLOOK.COM                                                                             00000000000000000120780118188821862021081740044DISP0000000003513                                                                                                                                                                                                          
SPTB000000100000000002289297000000000000000000000000000000000000000000000000000000000000000000000000000000000000000000000000000000000000000000000000000000100000000002289297000000000000000000000000000000000000000000000000000000000000000000000000000                                                                                                                           
SPHB000000256021994360000012894000                                                                                                                                                                                                                                                                                                                                                
SPDP04000000000024493952021081703ZUEF651028TR8       ZUEF651028TR8ZURITA ELIZALDE FRANCISCO JAVIER        900000000001289400000000000001207801279290656900000                                        9 00000044012001PAGO FONDO DE AHORRO SNTE 5 2020-2021 SNTE SECC5                                                              0000000000000000000000000ISP0000000003514      
SPDMSNTE5AHORRO@OUTLOOK.COM                                                                             00000000000000000120780127929065692021081740044DISP0000000003514                                                                                                                                                                                                          
SPTB000000100000000002449395000000000000000000000000000000000000000000000000000000000000000000000000000000000000000000000000000000000000000000000000000000100000000002449395000000000000000000000000000000000000000000000000000000000000000000000000000                                                                                                                           
SPHB000000256021994360000010447000                                                                                                                                                                                                                                                                                                                                                
SPDP04000000000022955422021081703RAVA851027R94       RAVA851027R94RAMIREZ VIERA ADRIANA                   900000000001044700000000000004407818702082632400000                                        9 00187044044001PAGO FONDO DE AHORRO SNTE 5 2020-2021 SNTE SECC5                                                              00000000000000000000000001532000000003515      
SPDMSNTE5AHORRO@OUTLOOK.COM                                                                             0000000000000000044078187020826324000020210817091532000000003515                                                                                                                                                                                                          
SPTB000000100000000002295542000000000000000000000000000000000000000000000000000000000000000000000000000000000000000000000000000000000000000000000000000000100000000002295542000000000000000000000000000000000000000000000000000000000000000000000000000                                                                                                                           
SPHB000000256021994360000019622000                                                                                                                                                                                                                                                                                                                                                
SPDP04000000000023966712021081703TEEL680114D13       TEEL680114D13TREVI#O ESTRADA LUIS ENRIQUE            900000000001962200000000000004407818701547321600000                                        9 00187044044001PAGO FONDO DE AHORRO SNTE 5 2020-2021 SNTE SECC5                                                              00000000000000000000000001532000000003516      
SPDMSNTE5AHORRO@OUTLOOK.COM                                                                             0000000000000000044078187015473216000020210817091532000000003516                                                                                                                                                                                                          
SPTB000000100000000002396671000000000000000000000000000000000000000000000000000000000000000000000000000000000000000000000000000000000000000000000000000000100000000002396671000000000000000000000000000000000000000000000000000000000000000000000000000                                                                                                                           
SPHB000000256021994360000021607000                                                                                                                                                                                                                                                                                                                                                
SPDP04000000000007820582021081703CEAA890113PU6       CEAA890113PU6CERECERO ALVAREZ ABIMAEL                900000000002160700000000000007207800401874615000000                                        9 00000044072001PAGO FONDO DE AHORRO SNTE 5 2020-2021 SNTE SECC5                                                              0000000000000000000000000ISP0000000003517      
SPDMSNTE5AHORRO@OUTLOOK.COM                                                                             00000000000000000720780040187461502021081740044DISP0000000003517                                                                                                                                                                                                          
SPTB000000100000000000782058000000000000000000000000000000000000000000000000000000000000000000000000000000000000000000000000000000000000000000000000000000100000000000782058000000000000000000000000000000000000000000000000000000000000000000000000000                                                                                                                           
SPHB000000256021994360000009880000                                                                                                                                                                                                                                                                                                                                                
SPDP04000000000020258882021081703OIHK890812G15       OIHK890812G15ORTIZ HUITRON KARLA ALEJANDRA           900000000000988000000000000007207800331458309200000                                        9 00000044072001PAGO FONDO DE AHORRO SNTE 5 2020-2021 SNTE SECC5                                                              0000000000000000000000000ISP0000000003518      
SPDMSNTE5AHORRO@OUTLOOK.COM                                                                             00000000000000000720780033145830922021081740044DISP0000000003518                                                                                                                                                                                                          
SPTB000000100000000002025888000000000000000000000000000000000000000000000000000000000000000000000000000000000000000000000000000000000000000000000000000000100000000002025888000000000000000000000000000000000000000000000000000000000000000000000000000                                                                                                                           
SPHB000000256021994360000021540000                                                                                                                                                                                                                                                                                                                                                
SPDP04000000000006218302021081703RAPJ940922C23       RAPJ940922C23RAMIREZ PEREZ JAZMIN RUBI               900000000002154000000000000000207890373404372900000                                        9 00000044002001PAGO FONDO DE AHORRO SNTE 5 2020-2021 SNTE SECC5                                                              0000000000000000000000000ISP0000000003519      
SPDMSNTE5AHORRO@OUTLOOK.COM                                                                             00000000000000000020789037340437292021081740044DISP0000000003519                                                                                                                                                                                                          
SPTB000000100000000000621830000000000000000000000000000000000000000000000000000000000000000000000000000000000000000000000000000000000000000000000000000000100000000000621830000000000000000000000000000000000000000000000000000000000000000000000000000                                                                                                                           
SPHB000000256021994360000021331000                                                                                                                                                                                                                                                                                                                                                
SPDP04000000000010049142021081703LOFA890202NL9       LOFA890202NL9ANAIS BERENICE LOPEZ DE LA FUENTE       900000000002133100000000000001207802973253295700000                                        9 00000044012001PAGO FONDO DE AHORRO SNTE 5 2020-2021 SNTE SECC5                                                              0000000000000000000000000ISP0000000003520      
SPDMSNTE5AHORRO@OUTLOOK.COM                                                                             00000000000000000120780297325329572021081740044DISP0000000003520                                                                                                                                                                                                          
SPTB000000100000000001004914000000000000000000000000000000000000000000000000000000000000000000000000000000000000000000000000000000000000000000000000000000100000000001004914000000000000000000000000000000000000000000000000000000000000000000000000000                                                                                                                           
SPHB000000256021994360000021443000                                                                                                                                                                                                                                                                                                                                                
SPDP04000000000007519312021081703MECE720506S6A       MECE720506S6AERIKA VALERIA MENDOZA CORREA            900000000002144300000000000004407825602888912600000                                        9 00187044044001PAGO FONDO DE AHORRO SNTE 5 2020-2021 SNTE SECC5                                                              00000000000000000000000001532000000003521      
SPDMSNTE5AHORRO@OUTLOOK.COM                                                                             0000000000000000044078256028889126000020210817091532000000003521                                                                                                                                                                                                          
SPTB000000100000000000751931000000000000000000000000000000000000000000000000000000000000000000000000000000000000000000000000000000000000000000000000000000100000000000751931000000000000000000000000000000000000000000000000000000000000000000000000000                                                                                                                           
SPHB000000256021994360000016021000                                                                                                                                                                                                                                                                                                                                                
SPDP04000000000020143082021081703MECY941014HEA       MECY941014HEAMENDEZ DE LA CRUZ YAJAIRA ANAHI         900000000001602100000000000001418056702928654200000                                        9 00000044014001PAGO FONDO DE AHORRO SNTE 5 2020-2021 SNTE SECC5                                                              0000000000000000000000000ISP0000000003522      
SPDMSNTE5AHORRO@OUTLOOK.COM                                                                             00000000000000000141805670292865422021081740044DISP0000000003522                                                                                                                                                                                                          
SPTB000000100000000002014308000000000000000000000000000000000000000000000000000000000000000000000000000000000000000000000000000000000000000000000000000000100000000002014308000000000000000000000000000000000000000000000000000000000000000000000000000                                                                                                                           
SPHB000000256021994360000021768000                                                                                                                                                                                                                                                                                                                                                
SPDP04000000000002872142021081703GUSH7401066N7       GUSH7401066N7GUTIERREZ SUBEALDEA HORTENSIA MARGARITA 900000000002176800000000000004407519304708695600000                                        9 00193044044001PAGO FONDO DE AHORRO SNTE 5 2020-2021 SNTE SECC5                                                              00000000000000000000000001532000000003523      
SPDMSNTE5AHORRO@OUTLOOK.COM                                                                             0000000000000000044075193047086956000020210817091532000000003523                                                                                                                                                                                                          
SPTB000000100000000000287214000000000000000000000000000000000000000000000000000000000000000000000000000000000000000000000000000000000000000000000000000000100000000000287214000000000000000000000000000000000000000000000000000000000000000000000000000                                                                                                                           
SPHB000000256021994360000021289000                                                                                                                                                                                                                                                                                                                                                
SPDP04000000000015784542021081703DUGC971028KZ0       DUGC971028KZ0CLARISSA DUARTE GOMEZ                   900000000002128900000000000001408160617736429500000                                        9 00000044014001PAGO FONDO DE AHORRO SNTE 5 2020-2021 SNTE SECC5                                                              0000000000000000000000000ISP0000000003524      
SPDMSNTE5AHORRO@OUTLOOK.COM                                                                             00000000000000000140816061773642952021081740044DISP0000000003524                                                                                                                                                                                                          
SPTB000000100000000001578454000000000000000000000000000000000000000000000000000000000000000000000000000000000000000000000000000000000000000000000000000000100000000001578454000000000000000000000000000000000000000000000000000000000000000000000000000                                                                                                                           
SPHB000000256021994360000021721000                                                                                                                                                                                                                                                                                                                                                
SPDP04000000000004702892021081703EARD890819UD8       EARD890819UD8ESTRADA ROBLES DANIEL                   900000000002172100000000000001207402757199147000000                                        9 00000044012001PAGO FONDO DE AHORRO SNTE 5 2020-2021 SNTE SECC5                                                              0000000000000000000000000ISP0000000003525      
SPDMSNTE5AHORRO@OUTLOOK.COM                                                                             00000000000000000120740275719914702021081740044DISP0000000003525                                                                                                                                                                                                          
SPTB000000100000000000470289000000000000000000000000000000000000000000000000000000000000000000000000000000000000000000000000000000000000000000000000000000100000000000470289000000000000000000000000000000000000000000000000000000000000000000000000000                                                                                                                           
SPHB000000256021994360000021666000                                                                                                                                                                                                                                                                                                                                                
SPDP04000000000003638782021081703AUME860403GJ7       AUME860403GJ7AGUILERA MARTINEZ MARIA EUGENIA         900000000002166600000000000001207801515657153700000                                        9 00000044012001PAGO FONDO DE AHORRO SNTE 5 2020-2021 SNTE SECC5                                                              0000000000000000000000000ISP0000000003526      
SPDMSNTE5AHORRO@OUTLOOK.COM                                                                             00000000000000000120780151565715372021081740044DISP0000000003526                                                                                                                                                                                                          
SPTB000000100000000000363878000000000000000000000000000000000000000000000000000000000000000000000000000000000000000000000000000000000000000000000000000000100000000000363878000000000000000000000000000000000000000000000000000000000000000000000000000                                                                                                                           
SPHB000000256021994360000020777000                                                                                                                                                                                                                                                                                                                                                
SPDP04000000000016148082021081703CAPM960227DNA       CAPM960227DNAMARITZA ELIZET CHARLES PRESAS           900000000002077700000000000001207801511578666400000                                        9 00000044012001PAGO FONDO DE AHORRO SNTE 5 2020-2021 SNTE SECC5                                                              0000000000000000000000000ISP0000000003527      
SPDMSNTE5AHORRO@OUTLOOK.COM                                                                             00000000000000000120780151157866642021081740044DISP0000000003527                                                                                                                                                                                                          
SPTB000000100000000001614808000000000000000000000000000000000000000000000000000000000000000000000000000000000000000000000000000000000000000000000000000000100000000001614808000000000000000000000000000000000000000000000000000000000000000000000000000                                                                                                                           
SPHB000000256021994360000021130000                                                                                                                                                                                                                                                                                                                                                
SPDP04000000000004749812021081703ROMA960422EP5       ROMA960422EP5ANA KAREN RODRIGUEZ MARTINEZ            900000000002113000000000000001207801514306802400000                                        9 00000044012001PAGO FONDO DE AHORRO SNTE 5 2020-2021 SNTE SECC5                                                              0000000000000000000000000ISP0000000003528      
SPDMSNTE5AHORRO@OUTLOOK.COM                                                                             00000000000000000120780151430680242021081740044DISP0000000003528                                                                                                                                                                                                          
SPTB000000100000000000474981000000000000000000000000000000000000000000000000000000000000000000000000000000000000000000000000000000000000000000000000000000100000000000474981000000000000000000000000000000000000000000000000000000000000000000000000000                                                                                                                           
SPHB000000256021994360000020881000                                                                                                                                                                                                                                                                                                                                                
SPDP04000000000011147472021081703ROMG740407RZ6       ROMG740407RZ6GENARO ALBERTO RODRIGUEZ MARTINEZ       900000000002088100000000000007207801100528544200000                                        9 00000044072001PAGO FONDO DE AHORRO SNTE 5 2020-2021 SNTE SECC5                                                              0000000000000000000000000ISP0000000003529      
SPDMSNTE5AHORRO@OUTLOOK.COM                                                                             00000000000000000720780110052854422021081740044DISP0000000003529                                                                                                                                                                                                          
SPTB000000100000000001114747000000000000000000000000000000000000000000000000000000000000000000000000000000000000000000000000000000000000000000000000000000100000000001114747000000000000000000000000000000000000000000000000000000000000000000000000000                                                                                                                           
SPHB000000256021994360000003318000                                                                                                                                                                                                                                                                                                                                                
SPDP04000000000009767602021081703ROMM9705124P5       ROMM9705124P5ROMO MADERA MARIO ALBERTO               900000000000331800000000000001406860570877748200000                                        9 00000044014001PAGO FONDO DE AHORRO SNTE 5 2020-2021 SNTE SECC5                                                              0000000000000000000000000ISP0000000003530      
SPDMSNTE5AHORRO@OUTLOOK.COM                                                                             00000000000000000140686057087774822021081740044DISP0000000003530                                                                                                                                                                                                          
SPTB000000100000000000976760000000000000000000000000000000000000000000000000000000000000000000000000000000000000000000000000000000000000000000000000000000100000000000976760000000000000000000000000000000000000000000000000000000000000000000000000000                                                                                                                           
SPHB000000256021994360000021282000                                                                                                                                                                                                                                                                                                                                                
SPDP04000000000003835712021081703JURF9308134I3       JURF9308134I3FRIDA PAOLA JUAREZ REYES                900000000002128200000000000001207801568783446800000                                        9 00000044012001PAGO FONDO DE AHORRO SNTE 5 2020-2021 SNTE SECC5                                                              0000000000000000000000000ISP0000000003531      
SPDMSNTE5AHORRO@OUTLOOK.COM                                                                             00000000000000000120780156878344682021081740044DISP0000000003531                                                                                                                                                                                                          
SPTB000000100000000000383571000000000000000000000000000000000000000000000000000000000000000000000000000000000000000000000000000000000000000000000000000000100000000000383571000000000000000000000000000000000000000000000000000000000000000000000000000                                                                                                                           
SPHB000000256021994360000020142000                                                                                                                                                                                                                                                                                                                                                
SPDP04000000000017540812021081703LABE841030FU4       LABE841030FU4LARA BRIONES ELISA ELENA                900000000002014200000000000004407818702787504800000                                        9 00187044044001PAGO FONDO DE AHORRO SNTE 5 2020-2021 SNTE SECC5                                                              00000000000000000000000001532000000003532      
SPDMSNTE5AHORRO@OUTLOOK.COM                                                                             0000000000000000044078187027875048000020210817091532000000003532                                                                                                                                                                                                          
SPTB000000100000000001754081000000000000000000000000000000000000000000000000000000000000000000000000000000000000000000000000000000000000000000000000000000100000000001754081000000000000000000000000000000000000000000000000000000000000000000000000000                                                                                                                           
SPHB000000256021994360000021577000                                                                                                                                                                                                                                                                                                                                                
SPDP04000000000006924972021081703GORF580221UP8       GORF580221UP8GONZALEZ RODRIGUEZ FERNANDO             900000000002157700000000000000207890364411463800000                                        9 00000044002001PAGO FONDO DE AHORRO SNTE 5 2020-2021 SNTE SECC5                                                              0000000000000000000000000ISP0000000003533      
SPDMSNTE5AHORRO@OUTLOOK.COM                                                                             00000000000000000020789036441146382021081740044DISP0000000003533                                                                                                                                                                                                          
SPTB000000100000000000692497000000000000000000000000000000000000000000000000000000000000000000000000000000000000000000000000000000000000000000000000000000100000000000692497000000000000000000000000000000000000000000000000000000000000000000000000000                                                                                                                           
SPHB000000256021994360000021751000                                                                                                                                                                                                                                                                                                                                                
SPDP04000000000001812182021081703JIMR720401PK0       JIMR720401PK0JIMENEZ MARTINEZ RICARDO                900000000002175100000000000004407825603767942400000                                        9 00187044044001PAGO FONDO DE AHORRO SNTE 5 2020-2021 SNTE SECC5                                                              00000000000000000000000001532000000003534      
SPDMSNTE5AHORRO@OUTLOOK.COM                                                                             0000000000000000044078256037679424000020210817091532000000003534                                                                                                                                                                                                          
SPTB000000100000000000181218000000000000000000000000000000000000000000000000000000000000000000000000000000000000000000000000000000000000000000000000000000100000000000181218000000000000000000000000000000000000000000000000000000000000000000000000000                                                                                                                           
SPHB000000256021994360000021292000                                                                                                                                                                                                                                                                                                                                                
SPDP04000000000013571552021081703MUPR730105AQ4       MUPR730105AQ4RUBEN MU#OZ PRADO                       900000000002129200000000000007207800540124752400000                                        9 00000044072001PAGO FONDO DE AHORRO SNTE 5 2020-2021 SNTE SECC5                                                              0000000000000000000000000ISP0000000003535      
SPDMSNTE5AHORRO@OUTLOOK.COM                                                                             00000000000000000720780054012475242021081740044DISP0000000003535                                                                                                                                                                                                          
SPTB000000100000000001357155000000000000000000000000000000000000000000000000000000000000000000000000000000000000000000000000000000000000000000000000000000100000000001357155000000000000000000000000000000000000000000000000000000000000000000000000000                                                                                                                           
SPHB000000256021994360000020972000                                                                                                                                                                                                                                                                                                                                                
SPDP04000000000019290642021081703JISA9909147SA       JISA9909147SAALMA GRACIELA JIMENEZ SANCHEZ           900000000002097200000000000001218001511655504100000                                        9 00000044012001PAGO FONDO DE AHORRO SNTE 5 2020-2021 SNTE SECC5                                                              0000000000000000000000000ISP0000000003536      
SPDMSNTE5AHORRO@OUTLOOK.COM                                                                             00000000000000000121800151165550412021081740044DISP0000000003536                                                                                                                                                                                                          
SPTB000000100000000001929064000000000000000000000000000000000000000000000000000000000000000000000000000000000000000000000000000000000000000000000000000000100000000001929064000000000000000000000000000000000000000000000000000000000000000000000000000                                                                                                                           
SPHB000000256021994360000021198000                                                                                                                                                                                                                                                                                                                                                
SPDP04000000000014123432021081703DEGG980806PC9       DEGG980806PC9GLORIA JANETH DENA GUERRERO             900000000002119800000000000001207801510230251400000                                        9 00000044012001PAGO FONDO DE AHORRO SNTE 5 2020-2021 SNTE SECC5                                                              0000000000000000000000000ISP0000000003537      
SPDMSNTE5AHORRO@OUTLOOK.COM                                                                             00000000000000000120780151023025142021081740044DISP0000000003537                                                                                                                                                                                                          
SPTB000000100000000001412343000000000000000000000000000000000000000000000000000000000000000000000000000000000000000000000000000000000000000000000000000000100000000001412343000000000000000000000000000000000000000000000000000000000000000000000000000                                                                                                                           
SPHB000000256021994360000020935000                                                                                                                                                                                                                                                                                                                                                
SPDP04000000000016148082021081703GABD920315996       GABD920315996DALMA DEYANIRA GARCIA BARBOZA           900000000002093500000000000001206001511596281000000                                        9 00000044012001PAGO FONDO DE AHORRO SNTE 5 2020-2021 SNTE SECC5                                                              0000000000000000000000000ISP0000000003538      
SPDMSNTE5AHORRO@OUTLOOK.COM                                                                             00000000000000000120600151159628102021081740044DISP0000000003538                                                                                                                                                                                                          
SPTB000000100000000001614808000000000000000000000000000000000000000000000000000000000000000000000000000000000000000000000000000000000000000000000000000000100000000001614808000000000000000000000000000000000000000000000000000000000000000000000000000                                                                                                                           
SPHB000000256021994360000021207000                                                                                                                                                                                                                                                                                                                                                
SPDP04000000000014123432021081703LOSA960103I65       LOSA960103I65ALEJANDRA HAYDEE LOPEZ SECA             900000000002120700000000000007207801085921411000000                                        9 00000044072001PAGO FONDO DE AHORRO SNTE 5 2020-2021 SNTE SECC5                                                              0000000000000000000000000ISP0000000003539      
SPDMSNTE5AHORRO@OUTLOOK.COM                                                                             00000000000000000720780108592141102021081740044DISP0000000003539                                                                                                                                                                                                          
SPTB000000100000000001412343000000000000000000000000000000000000000000000000000000000000000000000000000000000000000000000000000000000000000000000000000000100000000001412343000000000000000000000000000000000000000000000000000000000000000000000000000                                                                                                                           
SPHB000000256021994360000006783000                                                                                                                                                                                                                                                                                                                                                
SPDP04000000000017230212021081703MERR9301312X8       MERR9301312X8MENDOZA RODRIGUEZ RUBI VALERIA          900000000000678300000000000001207802918341095800000                                        9 00000044012001PAGO FONDO DE AHORRO SNTE 5 2020-2021 SNTE SECC5                                                              0000000000000000000000000ISP0000000003540      
SPDMSNTE5AHORRO@OUTLOOK.COM                                                                             00000000000000000120780291834109582021081740044DISP0000000003540                                                                                                                                                                                                          
SPTB000000100000000001723021000000000000000000000000000000000000000000000000000000000000000000000000000000000000000000000000000000000000000000000000000000100000000001723021000000000000000000000000000000000000000000000000000000000000000000000000000                                                                                                                           
