SPHA0932601202108262021082620210826000                                                                                                                                                                                                                                                                                                                                            
SPHB000000256021994360000005807000                                                                                                                                                                                                                                                                                                                                                
SPDP04000000000027391712021082503HEAV9702141L0       HEAV9702141L0HERNANDEZ ALBA VANESSA                  900000000000580700000000000001206001551097523700000                                        9 00000044012001PAGO FONDO DE AHORRO SNTE 5 2020-2021 SNTE SECC5                                                              0000000000000000000000000ISP0000000025749      
SPDMSNTE5AHORRO@OUTLOOK.COM                                                                             00000000000000000120600155109752372021082540044DISP0000000025749                                                                                                                                                                                                          
SPTB000000100000000002739171000000000000000000000000000000000000000000000000000000000000000000000000000000000000000000000000000000000000000000000000000000100000000002739171000000000000000000000000000000000000000000000000000000000000000000000000000                                                                                                                           
SPHB000000256021994360000021176000                                                                                                                                                                                                                                                                                                                                                
SPDP04000000000008294202021082503REFJ890429P92       REFJ890429P92JUAN SAMUEL RENDON FUENTES              900000000002117600000000000004406825602731636700000                                        9 00188044044001PAGO FONDO DE AHORRO SNTE 5 2020-2021 SNTE SECC5                                                              00000000000000000000000004503000000025750      
SPDMSNTE5AHORRO@OUTLOOK.COM                                                                             0000000000000000044068256027316367000020210825144503000000025750                                                                                                                                                                                                          
SPTB000000100000000000829420000000000000000000000000000000000000000000000000000000000000000000000000000000000000000000000000000000000000000000000000000000100000000000829420000000000000000000000000000000000000000000000000000000000000000000000000000                                                                                                                           
SPHB000000256021994360000021361000                                                                                                                                                                                                                                                                                                                                                
SPDP04000000000013112712021082503LOFS910826GH6       LOFS910826GH6SARAHI ADRIANA LOZANO FLORES            900000000002136100000000000001207801542780216800000                                        9 00000044012001PAGO FONDO DE AHORRO SNTE 5 2020-2021 SNTE SECC5                                                              0000000000000000000000000ISP0000000025751      
SPDMSNTE5AHORRO@OUTLOOK.COM                                                                             00000000000000000120780154278021682021082540044DISP0000000025751                                                                                                                                                                                                          
SPTB000000100000000001311271000000000000000000000000000000000000000000000000000000000000000000000000000000000000000000000000000000000000000000000000000000100000000001311271000000000000000000000000000000000000000000000000000000000000000000000000000                                                                                                                           
SPHB000000256021994360000021668000                                                                                                                                                                                                                                                                                                                                                
SPDP04000000000004225952021082503ROJP9201273M4       ROJP9201273M4RODRIGUEZ JARAMILLO JOSE PABLO          900000000002166800000000000001207201546402719300000                                        9 00000044012001PAGO FONDO DE AHORRO SNTE 5 2020-2021 SNTE SECC5                                                              0000000000000000000000000ISP0000000025752      
SPDMSNTE5AHORRO@OUTLOOK.COM                                                                             00000000000000000120720154640271932021082540044DISP0000000025752                                                                                                                                                                                                          
SPTB000000100000000000422595000000000000000000000000000000000000000000000000000000000000000000000000000000000000000000000000000000000000000000000000000000100000000000422595000000000000000000000000000000000000000000000000000000000000000000000000000                                                                                                                           
SPHB000000256021994360000021196000                                                                                                                                                                                                                                                                                                                                                
SPDP04000000000014705932021082503ROMR791216US9       ROMR791216US9REBECA ROMO MEDRANO                     900000000002119600000000000004406818804992024900000                                        9 00188044044001PAGO FONDO DE AHORRO SNTE 5 2020-2021 SNTE SECC5                                                              00000000000000000000000004503000000025753      
SPDMSNTE5AHORRO@OUTLOOK.COM                                                                             0000000000000000044068188049920249000020210825144503000000025753                                                                                                                                                                                                          
SPTB000000100000000001470593000000000000000000000000000000000000000000000000000000000000000000000000000000000000000000000000000000000000000000000000000000100000000001470593000000000000000000000000000000000000000000000000000000000000000000000000000                                                                                                                           
SPHB000000256021994360000021530000                                                                                                                                                                                                                                                                                                                                                
SPDP04000000000007221702021082503SAVM860804A55       SAVM860804A55SALAZAR VALDEZ MIRIAM                   900000000002153000000000000001207901507217580900000                                        9 00000044012001PAGO FONDO DE AHORRO SNTE 5 2020-2021 SNTE SECC5                                                              0000000000000000000000000ISP0000000025754      
SPDMSNTE5AHORRO@OUTLOOK.COM                                                                             00000000000000000120790150721758092021082540044DISP0000000025754                                                                                                                                                                                                          
SPTB000000100000000000722170000000000000000000000000000000000000000000000000000000000000000000000000000000000000000000000000000000000000000000000000000000100000000000722170000000000000000000000000000000000000000000000000000000000000000000000000000                                                                                                                           
SPHB000000256021994360000000129000                                                                                                                                                                                                                                                                                                                                                
SPDP04000000000001729482021082503LERF8609139N3       LERF8609139N3GUZMAN ANTONIO DENISSE                  900000000000012900000000000001207801541813134300000                                        9 00000044012001PAGO PENSION ALIMENTICIA SNTE 5 2020-2021 SECC5                                                               0000000000000000000000000ISP0000000026624      
SPDMSNTE5AHORRO@OUTLOOK.COM                                                                             00000000000000000120780154181313432021082540044DISP0000000026624                                                                                                                                                                                                          
SPTB000000100000000000172948000000000000000000000000000000000000000000000000000000000000000000000000000000000000000000000000000000000000000000000000000000100000000000172948000000000000000000000000000000000000000000000000000000000000000000000000000                                                                                                                           
SPTA000000700000000007668168000000000000000000000000000000000000000000000000000000000000000000000000000000000000000000000000000000000000000000000000000000700000000007668168000000000000000000000000000000000000000000000000000000000000000000000000000000                                                                                                                        
