SPHA0932601202108242021082420210824000                                                                                                                                                                                                                                                                                                                                            
SPHB000000256021994360000000019000                                                                                                                                                                                                                                                                                                                                                
SPDP04000000000001608352021082303MAVE660408N75       MAVE660408N75SANCHEZ ESQUIVEL MARTHA GUADALUPE       900000000000001900000000000001207801534403800200000                                        9 00000044012001PAGO PENSION ALIMENTICIA SNTE 5 2020-2021 SECC5                                                               0000000000000000000000000ISP0000000010312      
SPDMSNTE5AHORRO@OUTLOOK.COM                                                                             00000000000000000120780153440380022021082340044DISP0000000010312                                                                                                                                                                                                          
SPTB000000100000000000160835000000000000000000000000000000000000000000000000000000000000000000000000000000000000000000000000000000000000000000000000000000100000000000160835000000000000000000000000000000000000000000000000000000000000000000000000000                                                                                                                           
SPHB000000256021994360000000021000                                                                                                                                                                                                                                                                                                                                                
SPDP04000000000009353042021082303MAVJ810818T82       MAVJ810818T82BORREGO MARTINEZ ROCIO                  900000000000002100000000000001206801556732755500000                                        9 00000044012001PAGO PENSION ALIMENTICIA SNTE 5 2020-2021 SECC5                                                               0000000000000000000000000ISP0000000010313      
SPDMSNTE5AHORRO@OUTLOOK.COM                                                                             00000000000000000120680155673275552021082340044DISP0000000010313                                                                                                                                                                                                          
SPTB000000100000000000935304000000000000000000000000000000000000000000000000000000000000000000000000000000000000000000000000000000000000000000000000000000100000000000935304000000000000000000000000000000000000000000000000000000000000000000000000000                                                                                                                           
SPHB000000256021994360000000037000                                                                                                                                                                                                                                                                                                                                                
SPDP04000000000000070362021082303VASE831127P87       VASE831127P87PEA GARZA MELISSA                       900000000000003700000000000001207801598595324500000                                        9 00000044012001PAGO PENSION ALIMENTICIA SNTE 5 2020-2021 SECC5                                                               0000000000000000000000000ISP0000000010314      
SPDMSNTE5AHORRO@OUTLOOK.COM                                                                             00000000000000000120780159859532452021082340044DISP0000000010314                                                                                                                                                                                                          
SPTB000000100000000000007036000000000000000000000000000000000000000000000000000000000000000000000000000000000000000000000000000000000000000000000000000000100000000000007036000000000000000000000000000000000000000000000000000000000000000000000000000                                                                                                                           
SPHB000000256021994360000000046000                                                                                                                                                                                                                                                                                                                                                
SPDP04000000000001111882021082303HEFB711230AQ5       HEFB711230AQ5RUIS VALDES MARIA DEL ROSARIO           900000000000004600000000000001207801503592037700000                                        9 00000044012001PAGO PENSION ALIMENTICIA SNTE 5 2020-2021 SECC5                                                               0000000000000000000000000ISP0000000010315      
SPDMSNTE5AHORRO@OUTLOOK.COM                                                                             00000000000000000120780150359203772021082340044DISP0000000010315                                                                                                                                                                                                          
SPTB000000100000000000111188000000000000000000000000000000000000000000000000000000000000000000000000000000000000000000000000000000000000000000000000000000100000000000111188000000000000000000000000000000000000000000000000000000000000000000000000000                                                                                                                           
SPHB000000256021994360000000080000                                                                                                                                                                                                                                                                                                                                                
SPDP04000000000001161672021082303BASA790803666       BASA790803666GARZA GUTIERREZ VERONICA ENITH          900000000000008000000000000002107806492355031200000                                        9 00000044021001PAGO PENSION ALIMENTICIA SNTE 5 2020-2021 SECC5                                                               0000000000000000000000000ISP0000000010316      
SPDMSNTE5AHORRO@OUTLOOK.COM                                                                             00000000000000000210780649235503122021082340044DISP0000000010316                                                                                                                                                                                                          
SPTB000000100000000000116167000000000000000000000000000000000000000000000000000000000000000000000000000000000000000000000000000000000000000000000000000000100000000000116167000000000000000000000000000000000000000000000000000000000000000000000000000                                                                                                                           
SPHB000000256021994360000000077000                                                                                                                                                                                                                                                                                                                                                
SPDP04000000000006316392021082303RISJ7008196D2       RISJ7008196D2SANCHEZ VAZQUEZ BEATRIZ                 900000000000007700000000000004407818701447726800000                                        9 00187044044001PAGO PENSION ALIMENTICIA SNTE 5 2020-2021 SECC5                                                               00000000000000000000000001502000000010317      
SPDMSNTE5AHORRO@OUTLOOK.COM                                                                             0000000000000000044078187014477268000020210823151502000000010317                                                                                                                                                                                                          
SPTB000000100000000000631639000000000000000000000000000000000000000000000000000000000000000000000000000000000000000000000000000000000000000000000000000000100000000000631639000000000000000000000000000000000000000000000000000000000000000000000000000                                                                                                                           
SPHB000000256021994360000000121000                                                                                                                                                                                                                                                                                                                                                
SPDP04000000000001833762021082303MUPR7301057B6       MUPR7301057B6LUZ MARIA PEREZ AGUIRRE                 900000000000012100000000000002107806417901315300000                                        9 00000044021001PAGO PENSION ALIMENTICIA SNTE 5 2020-2021 SECC5                                                               0000000000000000000000000ISP0000000010318      
SPDMSNTE5AHORRO@OUTLOOK.COM                                                                             00000000000000000210780641790131532021082340044DISP0000000010318                                                                                                                                                                                                          
SPTB000000100000000000183376000000000000000000000000000000000000000000000000000000000000000000000000000000000000000000000000000000000000000000000000000000100000000000183376000000000000000000000000000000000000000000000000000000000000000000000000000                                                                                                                           
SPHB000000256021994360000020725000                                                                                                                                                                                                                                                                                                                                                
SPDP04000000000012955982021082303OUMM821107AM2       OUMM821107AM2MONICA VIOLETA ORZUA MARINES            900000000002072500000000000000206870164363056100000                                        9 00000044002001PAGO FONDO DE AHORRO SNTE 5 2020-2021 SNTE SECC5                                                              0000000000000000000000000ISP0000000010552      
SPDMSNTE5AHORRO@OUTLOOK.COM                                                                             00000000000000000020687016436305612021082340044DISP0000000010552                                                                                                                                                                                                          
SPTB000000100000000001295598000000000000000000000000000000000000000000000000000000000000000000000000000000000000000000000000000000000000000000000000000000100000000001295598000000000000000000000000000000000000000000000000000000000000000000000000000                                                                                                                           
SPHB000000256021994360000006831000                                                                                                                                                                                                                                                                                                                                                
SPDP04000000000015621032021082303META600212I65       META600212I65MEDINA TORRES ALFREDO                   900000000000683100000000000001242001184083709000000                                        9 00000044012001PAGO FONDO DE AHORRO SNTE 5 2020-2021 SNTE SECC5                                                              0000000000000000000000000ISP0000000010557      
SPDMSNTE5AHORRO@OUTLOOK.COM                                                                             00000000000000000124200118408370902021082340044DISP0000000010557                                                                                                                                                                                                          
SPTB000000100000000001562103000000000000000000000000000000000000000000000000000000000000000000000000000000000000000000000000000000000000000000000000000000100000000001562103000000000000000000000000000000000000000000000000000000000000000000000000000                                                                                                                           
SPHB000000256021994360000021348000                                                                                                                                                                                                                                                                                                                                                
SPDP04000000000010049142021082303CESM990704SQ6       CESM990704SQ6MELISSA DANIELA CERVANTES SANCHEZ       900000000002134800000000000001207801516659575200000                                        9 00000044012001PAGO FONDO DE AHORRO SNTE 5 2020-2021 SNTE SECC5                                                              0000000000000000000000000ISP0000000010559      
SPDMSNTE5AHORRO@OUTLOOK.COM                                                                             00000000000000000120780151665957522021082340044DISP0000000010559                                                                                                                                                                                                          
SPTB000000100000000001004914000000000000000000000000000000000000000000000000000000000000000000000000000000000000000000000000000000000000000000000000000000100000000001004914000000000000000000000000000000000000000000000000000000000000000000000000000                                                                                                                           
SPHB000000256021994360000021713000                                                                                                                                                                                                                                                                                                                                                
SPDP04000000000003299292021082303VAGI841011JY5       VAGI841011JY5VAZQUEZ GUILLEN ISRAEL                  900000000002171300000000000007207801152067734400000                                        9 00000044072001PAGO FONDO DE AHORRO SNTE 5 2020-2021 SNTE SECC5                                                              0000000000000000000000000ISP0000000010562      
SPDMSNTE5AHORRO@OUTLOOK.COM                                                                             00000000000000000720780115206773442021082340044DISP0000000010562                                                                                                                                                                                                          
SPTB000000100000000000329929000000000000000000000000000000000000000000000000000000000000000000000000000000000000000000000000000000000000000000000000000000100000000000329929000000000000000000000000000000000000000000000000000000000000000000000000000                                                                                                                           
SPHB000000256021994360000021514000                                                                                                                                                                                                                                                                                                                                                
SPDP04000000000005789932021082303AALJ0004045N9       AALJ0004045N9JUAN CARLOS ALVAREZ LOPEZ               900000000002151400000000000013706410416754557200000                                        9 00000044137001PAGO FONDO DE AHORRO SNTE 5 2020-2021 SNTE SECC5                                                              0000000000000000000000000ISP0000000010566      
SPDMSNTE5AHORRO@OUTLOOK.COM                                                                             00000000000000001370641041675455722021082340044DISP0000000010566                                                                                                                                                                                                          
SPTB000000100000000000578993000000000000000000000000000000000000000000000000000000000000000000000000000000000000000000000000000000000000000000000000000000100000000000578993000000000000000000000000000000000000000000000000000000000000000000000000000                                                                                                                           
SPTA000001200000000006917082000000000000000000000000000000000000000000000000000000000000000000000000000000000000000000000000000000000000000000000000000001200000000006917082000000000000000000000000000000000000000000000000000000000000000000000000000000                                                                                                                        
