SPHA0932601202108232021082320210823000                                                                                                                                                                                                                                                                                                                                            
SPHB000000256021994360000000002000                                                                                                                                                                                                                                                                                                                                                
SPDP04000000000003366052021082003CEOS850601Q86       CEOS850601Q86NAJERA MARTINEZ ADRIANA MELISSA         900000000000000200000000000002158006464299696500000                                        9 00000044021001PAGO PENSION ALIMENTICIA SNTE 5 2020-2021 SECC5                                                               0000000000000000000000000ISP0000000005037      
SPDMSNTE5AHORRO@OUTLOOK.COM                                                                             00000000000000000215800646429969652021082040044DISP0000000005037                                                                                                                                                                                                          
SPTB000000100000000000336605000000000000000000000000000000000000000000000000000000000000000000000000000000000000000000000000000000000000000000000000000000100000000000336605000000000000000000000000000000000000000000000000000000000000000000000000000                                                                                                                           
SPHB000000256021994360000000004000                                                                                                                                                                                                                                                                                                                                                
SPDP04000000000003072042021082003ROHF680417Q40       ROHF680417Q40CRUZ LOPEZ MARTHA ALICIA                900000000000000400000000000001207801550688614400000                                        9 00000044012001PAGO PENSION ALIMENTICIA SNTE 5 2020-2021 SECC5                                                               0000000000000000000000000ISP0000000005038      
SPDMSNTE5AHORRO@OUTLOOK.COM                                                                             00000000000000000120780155068861442021082040044DISP0000000005038                                                                                                                                                                                                          
SPTB000000100000000000307204000000000000000000000000000000000000000000000000000000000000000000000000000000000000000000000000000000000000000000000000000000100000000000307204000000000000000000000000000000000000000000000000000000000000000000000000000                                                                                                                           
SPHB000000256021994360000000005000                                                                                                                                                                                                                                                                                                                                                
SPDP04000000000003130072021082003BEGJ800719NA3       BEGJ800719NA3DE LA CERDA HERNANDEZ FABIOLA           900000000000000500000000000007206801112965254700000                                        9 00000044072001PAGO PENSION ALIMENTICIA SNTE 5 2020-2021 SECC5                                                               0000000000000000000000000ISP0000000005039      
SPDMSNTE5AHORRO@OUTLOOK.COM                                                                             00000000000000000720680111296525472021082040044DISP0000000005039                                                                                                                                                                                                          
SPTB000000100000000000313007000000000000000000000000000000000000000000000000000000000000000000000000000000000000000000000000000000000000000000000000000000100000000000313007000000000000000000000000000000000000000000000000000000000000000000000000000                                                                                                                           
SPHB000000256021994360000000006000                                                                                                                                                                                                                                                                                                                                                
SPDP04000000000001465992021082003UAMC820629FW0       UAMC820629FW0MORENO HERNANDEZ CLAUDIA ARACELI        900000000000000600000000000007207800501185903000000                                        9 00000044072001PAGO PENSION ALIMENTICIA SNTE 5 2020-2021 SECC5                                                               0000000000000000000000000ISP0000000005040      
SPDMSNTE5AHORRO@OUTLOOK.COM                                                                             00000000000000000720780050118590302021082040044DISP0000000005040                                                                                                                                                                                                          
SPTB000000100000000000146599000000000000000000000000000000000000000000000000000000000000000000000000000000000000000000000000000000000000000000000000000000100000000000146599000000000000000000000000000000000000000000000000000000000000000000000000000                                                                                                                           
SPHB000000256021994360000000010000                                                                                                                                                                                                                                                                                                                                                
SPDP04000000000004411332021082003FURN8510249C8       FURN8510249C8GUERRERO GARZA NITZIA OLIVE             900000000000001000000000000007206800363474814500000                                        9 00000044072001PAGO PENSION ALIMENTICIA SNTE 5 2020-2021 SECC5                                                               0000000000000000000000000ISP0000000005041      
SPDMSNTE5AHORRO@OUTLOOK.COM                                                                             00000000000000000720680036347481452021082040044DISP0000000005041                                                                                                                                                                                                          
SPTB000000100000000000441133000000000000000000000000000000000000000000000000000000000000000000000000000000000000000000000000000000000000000000000000000000100000000000441133000000000000000000000000000000000000000000000000000000000000000000000000000                                                                                                                           
SPHB000000256021994360000000012000                                                                                                                                                                                                                                                                                                                                                
SPDP04000000000000379332021082003MOPL890927E12       MOPL890927E12GARCIA GONZALEZ ANA GABRIELA            900000000000001200000000000001207802869532749100000                                        9 00000044012001PAGO PENSION ALIMENTICIA SNTE 5 2020-2021 SECC5                                                               0000000000000000000000000ISP0000000005042      
SPDMSNTE5AHORRO@OUTLOOK.COM                                                                             00000000000000000120780286953274912021082040044DISP0000000005042                                                                                                                                                                                                          
SPTB000000100000000000037933000000000000000000000000000000000000000000000000000000000000000000000000000000000000000000000000000000000000000000000000000000100000000000037933000000000000000000000000000000000000000000000000000000000000000000000000000                                                                                                                           
SPHB000000256021994360000000013000                                                                                                                                                                                                                                                                                                                                                
SPDP04000000000014971772021082003GOSO741112FD7       GOSO741112FD7GUADALUPE ANTUNEZ KARLA CONCEPCION      900000000000001300000000000001207801537770030700000                                        9 00000044012001PAGO PENSION ALIMENTICIA SNTE 5 2020-2021 SECC5                                                               0000000000000000000000000ISP0000000005043      
SPDMSNTE5AHORRO@OUTLOOK.COM                                                                             00000000000000000120780153777003072021082040044DISP0000000005043                                                                                                                                                                                                          
SPTB000000100000000001497177000000000000000000000000000000000000000000000000000000000000000000000000000000000000000000000000000000000000000000000000000000100000000001497177000000000000000000000000000000000000000000000000000000000000000000000000000                                                                                                                           
SPHB000000256021994360000000014000                                                                                                                                                                                                                                                                                                                                                
SPDP04000000000004683552021082003RAHR811025DS1       RAHR811025DS1REYES MUIZ MARIA TRINIDAD               900000000000001400000000000002107306509837394900000                                        9 00000044021001PAGO PENSION ALIMENTICIA SNTE 5 2020-2021 SECC5                                                               0000000000000000000000000ISP0000000005044      
SPDMSNTE5AHORRO@OUTLOOK.COM                                                                             00000000000000000210730650983739492021082040044DISP0000000005044                                                                                                                                                                                                          
SPTB000000100000000000468355000000000000000000000000000000000000000000000000000000000000000000000000000000000000000000000000000000000000000000000000000000100000000000468355000000000000000000000000000000000000000000000000000000000000000000000000000                                                                                                                           
SPHB000000256021994360000000019000                                                                                                                                                                                                                                                                                                                                                
SPDP04000000000001667762021082003MAVE660408N75       MAVE660408N75SANCHEZ ESQUIVEL MARTHA GUADALUPE       900000000000001900000000000001207801534403800200000                                        9 00000044012001PAGO PENSION ALIMENTICIA SNTE 5 2020-2021 SECC5                                                               0000000000000000000000000ISP0000000005045      
SPDMSNTE5AHORRO@OUTLOOK.COM                                                                             00000000000000000120780153440380022021082040044DISP0000000005045                                                                                                                                                                                                          
SPTB000000100000000000166776000000000000000000000000000000000000000000000000000000000000000000000000000000000000000000000000000000000000000000000000000000100000000000166776000000000000000000000000000000000000000000000000000000000000000000000000000                                                                                                                           
SPHB000000256021994360000000020000                                                                                                                                                                                                                                                                                                                                                
SPDP04000000000001729482021082003HEPH790728437       HEPH790728437HERNANDEZ RIOS CRUZ MARIA               900000000000002000000000000002107806472742075800000                                        9 00000044021001PAGO PENSION ALIMENTICIA SNTE 5 2020-2021 SECC5                                                               0000000000000000000000000ISP0000000005046      
SPDMSNTE5AHORRO@OUTLOOK.COM                                                                             00000000000000000210780647274207582021082040044DISP0000000005046                                                                                                                                                                                                          
SPTB000000100000000000172948000000000000000000000000000000000000000000000000000000000000000000000000000000000000000000000000000000000000000000000000000000100000000000172948000000000000000000000000000000000000000000000000000000000000000000000000000                                                                                                                           
SPHB000000256021994360000000021000                                                                                                                                                                                                                                                                                                                                                
SPDP04000000000009698662021082003MAVJ810818T82       MAVJ810818T82BORREGO MARTINEZ ROCIO                  900000000000002100000000000001206801556732755500000                                        9 00000044012001PAGO PENSION ALIMENTICIA SNTE 5 2020-2021 SECC5                                                               0000000000000000000000000ISP0000000005047      
SPDMSNTE5AHORRO@OUTLOOK.COM                                                                             00000000000000000120680155673275552021082040044DISP0000000005047                                                                                                                                                                                                          
SPTB000000100000000000969866000000000000000000000000000000000000000000000000000000000000000000000000000000000000000000000000000000000000000000000000000000100000000000969866000000000000000000000000000000000000000000000000000000000000000000000000000                                                                                                                           
SPHB000000256021994360000000024000                                                                                                                                                                                                                                                                                                                                                
SPDP04000000000003318992021082003MOCG821230HB5       MOCG821230HB5GARZA DE LA PE#A ALIDA GUADALUPE        900000000000002400000000000001207402753037886900000                                        9 00000044012001PAGO PENSION ALIMENTICIA SNTE 5 2020-2021 SECC5                                                               0000000000000000000000000ISP0000000005048      
SPDMSNTE5AHORRO@OUTLOOK.COM                                                                             00000000000000000120740275303788692021082040044DISP0000000005048                                                                                                                                                                                                          
SPTB000000100000000000331899000000000000000000000000000000000000000000000000000000000000000000000000000000000000000000000000000000000000000000000000000000100000000000331899000000000000000000000000000000000000000000000000000000000000000000000000000                                                                                                                           
SPHB000000256021994360000000029000                                                                                                                                                                                                                                                                                                                                                
SPDP04000000000002903232021082003DERA630403NT2       DERA630403NT2TORRES BELMARES ISABEL DEL CARMEN       900000000000002900000000000001207801500603713400000                                        9 00000044012001PAGO PENSION ALIMENTICIA SNTE 5 2020-2021 SECC5                                                               0000000000000000000000000ISP0000000005049      
SPDMSNTE5AHORRO@OUTLOOK.COM                                                                             00000000000000000120780150060371342021082040044DISP0000000005049                                                                                                                                                                                                          
SPTB000000100000000000290323000000000000000000000000000000000000000000000000000000000000000000000000000000000000000000000000000000000000000000000000000000100000000000290323000000000000000000000000000000000000000000000000000000000000000000000000000                                                                                                                           
SPHB000000256021994360000000031000                                                                                                                                                                                                                                                                                                                                                
SPDP04000000000009375582021082003GOVR6202274E9       GOVR6202274E9RAMOS AGUIRRE YOLANDA                   900000000000003100000000000001207801582408767000000                                        9 00000044012001PAGO PENSION ALIMENTICIA SNTE 5 2020-2021 SECC5                                                               0000000000000000000000000ISP0000000005050      
SPDMSNTE5AHORRO@OUTLOOK.COM                                                                             00000000000000000120780158240876702021082040044DISP0000000005050                                                                                                                                                                                                          
SPTB000000100000000000937558000000000000000000000000000000000000000000000000000000000000000000000000000000000000000000000000000000000000000000000000000000100000000000937558000000000000000000000000000000000000000000000000000000000000000000000000000                                                                                                                           
SPHB000000256021994360000000032000                                                                                                                                                                                                                                                                                                                                                
SPDP04000000000001565032021082003VAGJ791022RT4       VAGJ791022RT4MEDRANO OVALLE MYRIAM LAURA             900000000000003200000000000001207802870211613900000                                        9 00000044012001PAGO PENSION ALIMENTICIA SNTE 5 2020-2021 SECC5                                                               0000000000000000000000000ISP0000000005051      
SPDMSNTE5AHORRO@OUTLOOK.COM                                                                             00000000000000000120780287021161392021082040044DISP0000000005051                                                                                                                                                                                                          
SPTB000000100000000000156503000000000000000000000000000000000000000000000000000000000000000000000000000000000000000000000000000000000000000000000000000000100000000000156503000000000000000000000000000000000000000000000000000000000000000000000000000                                                                                                                           
SPHB000000256021994360000000033000                                                                                                                                                                                                                                                                                                                                                
SPDP04000000000005401592021082003VAHD760330KL1       VAHD760330KL1ELIZONDO TORRALBA MARTHA LAURA          900000000000003300000000000001207801530891754100000                                        9 00000044012001PAGO PENSION ALIMENTICIA SNTE 5 2020-2021 SECC5                                                               0000000000000000000000000ISP0000000005052      
SPDMSNTE5AHORRO@OUTLOOK.COM                                                                             00000000000000000120780153089175412021082040044DISP0000000005052                                                                                                                                                                                                          
SPTB000000100000000000540159000000000000000000000000000000000000000000000000000000000000000000000000000000000000000000000000000000000000000000000000000000100000000000540159000000000000000000000000000000000000000000000000000000000000000000000000000                                                                                                                           
SPHB000000256021994360000000036000                                                                                                                                                                                                                                                                                                                                                
SPDP04000000000004342542021082003VANG771017FT8       VANG771017FT8HERRERA LOPEZ PERLA CECILIA             900000000000003600000000000002107806492355247500000                                        9 00000044021001PAGO PENSION ALIMENTICIA SNTE 5 2020-2021 SECC5                                                               0000000000000000000000000ISP0000000005053      
SPDMSNTE5AHORRO@OUTLOOK.COM                                                                             00000000000000000210780649235524752021082040044DISP0000000005053                                                                                                                                                                                                          
SPTB000000100000000000434254000000000000000000000000000000000000000000000000000000000000000000000000000000000000000000000000000000000000000000000000000000100000000000434254000000000000000000000000000000000000000000000000000000000000000000000000000                                                                                                                           
SPHB000000256021994360000000037000                                                                                                                                                                                                                                                                                                                                                
SPDP04000000000000935202021082003VASE831127P87       VASE831127P87PEA GARZA MELISSA                       900000000000003700000000000001207801598595324500000                                        9 00000044012001PAGO PENSION ALIMENTICIA SNTE 5 2020-2021 SECC5                                                               0000000000000000000000000ISP0000000005054      
SPDMSNTE5AHORRO@OUTLOOK.COM                                                                             00000000000000000120780159859532452021082040044DISP0000000005054                                                                                                                                                                                                          
SPTB000000100000000000093520000000000000000000000000000000000000000000000000000000000000000000000000000000000000000000000000000000000000000000000000000000100000000000093520000000000000000000000000000000000000000000000000000000000000000000000000000                                                                                                                           
SPHB000000256021994360000000039000                                                                                                                                                                                                                                                                                                                                                
SPDP04000000000002083702021082003OOBJ730625TL0       OOBJ730625TL0MOLINA CASTILLO DIANA MIREYA            900000000000003900000000000001207801477965907300000                                        9 00000044012001PAGO PENSION ALIMENTICIA SNTE 5 2020-2021 SECC5                                                               0000000000000000000000000ISP0000000005055      
SPDMSNTE5AHORRO@OUTLOOK.COM                                                                             00000000000000000120780147796590732021082040044DISP0000000005055                                                                                                                                                                                                          
SPTB000000100000000000208370000000000000000000000000000000000000000000000000000000000000000000000000000000000000000000000000000000000000000000000000000000100000000000208370000000000000000000000000000000000000000000000000000000000000000000000000000                                                                                                                           
SPHB000000256021994360000000040000                                                                                                                                                                                                                                                                                                                                                
SPDP04000000000005425102021082003REOL750405NV1       REOL750405NV1GOMEZ CRUZ TERESA GUADALUPE             900000000000004000000000000001207801549277592900000                                        9 00000044012001PAGO PENSION ALIMENTICIA SNTE 5 2020-2021 SECC5                                                               0000000000000000000000000ISP0000000005056      
SPDMSNTE5AHORRO@OUTLOOK.COM                                                                             00000000000000000120780154927759292021082040044DISP0000000005056                                                                                                                                                                                                          
SPTB000000100000000000542510000000000000000000000000000000000000000000000000000000000000000000000000000000000000000000000000000000000000000000000000000000100000000000542510000000000000000000000000000000000000000000000000000000000000000000000000000                                                                                                                           
SPHB000000256021994360000000041000                                                                                                                                                                                                                                                                                                                                                
SPDP04000000000002594222021082003SABD810427SH1       SABD810427SH1IRACHETA GONZALEZ ANA LAURA             900000000000004100000000000002107806463125397200000                                        9 00000044021001PAGO PENSION ALIMENTICIA SNTE 5 2020-2021 SECC5                                                               0000000000000000000000000ISP0000000005057      
SPDMSNTE5AHORRO@OUTLOOK.COM                                                                             00000000000000000210780646312539722021082040044DISP0000000005057                                                                                                                                                                                                          
SPTB000000100000000000259422000000000000000000000000000000000000000000000000000000000000000000000000000000000000000000000000000000000000000000000000000000100000000000259422000000000000000000000000000000000000000000000000000000000000000000000000000                                                                                                                           
SPHB000000256021994360000000043000                                                                                                                                                                                                                                                                                                                                                
SPDP04000000000001729482021082003SAFV791130PH8       SAFV791130PH8RODRIGUEZ LARA CLAUDIA LIZETH           900000000000004300000000000002107806492356070000000                                        9 00000044021001PAGO PENSION ALIMENTICIA SNTE 5 2020-2021 SECC5                                                               0000000000000000000000000ISP0000000005058      
SPDMSNTE5AHORRO@OUTLOOK.COM                                                                             00000000000000000210780649235607002021082040044DISP0000000005058                                                                                                                                                                                                          
SPTB000000100000000000172948000000000000000000000000000000000000000000000000000000000000000000000000000000000000000000000000000000000000000000000000000000100000000000172948000000000000000000000000000000000000000000000000000000000000000000000000000                                                                                                                           
SPHB000000256021994360000000044000                                                                                                                                                                                                                                                                                                                                                
SPDP04000000000002770502021082003PELM6205191V1       PELM6205191V1RIVERA HERNADEZ ARACELI                 900000000000004400000000000002107806492356047000000                                        9 00000044021001PAGO PENSION ALIMENTICIA SNTE 5 2020-2021 SECC5                                                               0000000000000000000000000ISP0000000005059      
SPDMSNTE5AHORRO@OUTLOOK.COM                                                                             00000000000000000210780649235604702021082040044DISP0000000005059                                                                                                                                                                                                          
SPTB000000100000000000277050000000000000000000000000000000000000000000000000000000000000000000000000000000000000000000000000000000000000000000000000000000100000000000277050000000000000000000000000000000000000000000000000000000000000000000000000000                                                                                                                           
SPHB000000256021994360000000045000                                                                                                                                                                                                                                                                                                                                                
SPDP04000000000005540992021082003PELM6205191V1       PELM6205191V1BOLIVAR AMOR MARTHA ADRIANA             900000000000004500000000000001207802870186678100000                                        9 00000044012001PAGO PENSION ALIMENTICIA SNTE 5 2020-2021 SECC5                                                               0000000000000000000000000ISP0000000005060      
SPDMSNTE5AHORRO@OUTLOOK.COM                                                                             00000000000000000120780287018667812021082040044DISP0000000005060                                                                                                                                                                                                          
SPTB000000100000000000554099000000000000000000000000000000000000000000000000000000000000000000000000000000000000000000000000000000000000000000000000000000100000000000554099000000000000000000000000000000000000000000000000000000000000000000000000000                                                                                                                           
SPHB000000256021994360000000046000                                                                                                                                                                                                                                                                                                                                                
SPDP04000000000001152992021082003HEFB711230AQ5       HEFB711230AQ5RUIS VALDES MARIA DEL ROSARIO           900000000000004600000000000001207801503592037700000                                        9 00000044012001PAGO PENSION ALIMENTICIA SNTE 5 2020-2021 SECC5                                                               0000000000000000000000000ISP0000000005061      
SPDMSNTE5AHORRO@OUTLOOK.COM                                                                             00000000000000000120780150359203772021082040044DISP0000000005061                                                                                                                                                                                                          
SPTB000000100000000000115299000000000000000000000000000000000000000000000000000000000000000000000000000000000000000000000000000000000000000000000000000000100000000000115299000000000000000000000000000000000000000000000000000000000000000000000000000                                                                                                                           
SPHB000000256021994360000000047000                                                                                                                                                                                                                                                                                                                                                
SPDP04000000000003992282021082003ROVJ690802394       ROVJ690802394MENDOZA FRIAS ANA MARGARITA             900000000000004700000000000001407856507925572100000                                        9 00000044014001PAGO PENSION ALIMENTICIA SNTE 5 2020-2021 SECC5                                                               0000000000000000000000000ISP0000000005062      
SPDMSNTE5AHORRO@OUTLOOK.COM                                                                             00000000000000000140785650792557212021082040044DISP0000000005062                                                                                                                                                                                                          
SPTB000000100000000000399228000000000000000000000000000000000000000000000000000000000000000000000000000000000000000000000000000000000000000000000000000000100000000000399228000000000000000000000000000000000000000000000000000000000000000000000000000                                                                                                                           
SPHB000000256021994360000000049000                                                                                                                                                                                                                                                                                                                                                
SPDP04000000000001806912021082003FAMR700821JG5       FAMR700821JG5PE#A RAMIREZ DORA ELVA                  900000000000004900000000000001207801542109999300000                                        9 00000044012001PAGO PENSION ALIMENTICIA SNTE 5 2020-2021 SECC5                                                               0000000000000000000000000ISP0000000005063      
SPDMSNTE5AHORRO@OUTLOOK.COM                                                                             00000000000000000120780154210999932021082040044DISP0000000005063                                                                                                                                                                                                          
SPTB000000100000000000180691000000000000000000000000000000000000000000000000000000000000000000000000000000000000000000000000000000000000000000000000000000100000000000180691000000000000000000000000000000000000000000000000000000000000000000000000000                                                                                                                           
SPHB000000256021994360000000051000                                                                                                                                                                                                                                                                                                                                                
SPDP04000000000001599182021082003CAGI760329TN3       CAGI760329TN3GONZALEZ PEREZ MONICA ALEJANDRA         900000000000005100000000000001207801509647136000000                                        9 00000044012001PAGO PENSION ALIMENTICIA SNTE 5 2020-2021 SECC5                                                               0000000000000000000000000ISP0000000005064      
SPDMSNTE5AHORRO@OUTLOOK.COM                                                                             00000000000000000120780150964713602021082040044DISP0000000005064                                                                                                                                                                                                          
SPTB000000100000000000159918000000000000000000000000000000000000000000000000000000000000000000000000000000000000000000000000000000000000000000000000000000100000000000159918000000000000000000000000000000000000000000000000000000000000000000000000000                                                                                                                           
SPHB000000256021994360000000054000                                                                                                                                                                                                                                                                                                                                                
SPDP04000000000007213332021082003IELV720809QJ8       IELV720809QJ8VALERO COSS NELSON                      900000000000005400000000000001207801522000990600000                                        9 00000044012001PAGO PENSION ALIMENTICIA SNTE 5 2020-2021 SECC5                                                               0000000000000000000000000ISP0000000005065      
SPDMSNTE5AHORRO@OUTLOOK.COM                                                                             00000000000000000120780152200099062021082040044DISP0000000005065                                                                                                                                                                                                          
SPTB000000100000000000721333000000000000000000000000000000000000000000000000000000000000000000000000000000000000000000000000000000000000000000000000000000100000000000721333000000000000000000000000000000000000000000000000000000000000000000000000000                                                                                                                           
SPHB000000256021994360000000055000                                                                                                                                                                                                                                                                                                                                                
SPDP04000000000004519222021082003CUIJ630801CE1       CUIJ630801CE1GARCIA MARTINEZ ESPERANZA               900000000000005500000000000001406560617252761300000                                        9 00000044014001PAGO PENSION ALIMENTICIA SNTE 5 2020-2021 SECC5                                                               0000000000000000000000000ISP0000000005066      
SPDMSNTE5AHORRO@OUTLOOK.COM                                                                             00000000000000000140656061725276132021082040044DISP0000000005066                                                                                                                                                                                                          
SPTB000000100000000000451922000000000000000000000000000000000000000000000000000000000000000000000000000000000000000000000000000000000000000000000000000000100000000000451922000000000000000000000000000000000000000000000000000000000000000000000000000                                                                                                                           
SPHB000000256021994360000000059000                                                                                                                                                                                                                                                                                                                                                
SPDP04000000000002501642021082003MANY720403AJ7       MANY720403AJ7TAVITAS SENA NORBERTO                   900000000000005900000000000002107806492356344800000                                        9 00000044021001PAGO PENSION ALIMENTICIA SNTE 5 2020-2021 SECC5                                                               0000000000000000000000000ISP0000000005067      
SPDMSNTE5AHORRO@OUTLOOK.COM                                                                             00000000000000000210780649235634482021082040044DISP0000000005067                                                                                                                                                                                                          
SPTB000000100000000000250164000000000000000000000000000000000000000000000000000000000000000000000000000000000000000000000000000000000000000000000000000000100000000000250164000000000000000000000000000000000000000000000000000000000000000000000000000                                                                                                                           
SPHB000000256021994360000000060000                                                                                                                                                                                                                                                                                                                                                
SPDP04000000000001339042021082003MARG850304QJ5       MARG850304QJ5LEDEZMA DE LA PAZ FLOR ELBA             900000000000006000000000000007206801112965021900000                                        9 00000044072001PAGO PENSION ALIMENTICIA SNTE 5 2020-2021 SECC5                                                               0000000000000000000000000ISP0000000005068      
SPDMSNTE5AHORRO@OUTLOOK.COM                                                                             00000000000000000720680111296502192021082040044DISP0000000005068                                                                                                                                                                                                          
SPTB000000100000000000133904000000000000000000000000000000000000000000000000000000000000000000000000000000000000000000000000000000000000000000000000000000100000000000133904000000000000000000000000000000000000000000000000000000000000000000000000000                                                                                                                           
SPHB000000256021994360000000061000                                                                                                                                                                                                                                                                                                                                                
SPDP04000000000002295382021082003MASD850304KR5       MASD850304KR5GUZMAN MORALES MAYRA YUDITH             900000000000006100000000000001206801232117045900000                                        9 00000044012001PAGO PENSION ALIMENTICIA SNTE 5 2020-2021 SECC5                                                               0000000000000000000000000ISP0000000005069      
SPDMSNTE5AHORRO@OUTLOOK.COM                                                                             00000000000000000120680123211704592021082040044DISP0000000005069                                                                                                                                                                                                          
SPTB000000100000000000229538000000000000000000000000000000000000000000000000000000000000000000000000000000000000000000000000000000000000000000000000000000100000000000229538000000000000000000000000000000000000000000000000000000000000000000000000000                                                                                                                           
SPHB000000256021994360000000062000                                                                                                                                                                                                                                                                                                                                                
SPDP04000000000001806912021082003RACR7011196L5       RACR7011196L5AGUILAR FARIAS YOLANDA ALMA             900000000000006200000000000004407818702702606200000                                        9 00187044044001PAGO PENSION ALIMENTICIA SNTE 5 2020-2021 SECC5                                                               00000000000000000000000004507000000005070      
SPDMSNTE5AHORRO@OUTLOOK.COM                                                                             0000000000000000044078187027026062000020210820094507000000005070                                                                                                                                                                                                          
SPTB000000100000000000180691000000000000000000000000000000000000000000000000000000000000000000000000000000000000000000000000000000000000000000000000000000100000000000180691000000000000000000000000000000000000000000000000000000000000000000000000000                                                                                                                           
SPHB000000256021994360000000063000                                                                                                                                                                                                                                                                                                                                                
SPDP04000000000023062082021082003GAEC631016J91       GAEC631016J91OLIVO BARCENAS MARIA GUADALUPE          900000000000006300000000000001207801538048584200000                                        9 00000044012001PAGO PENSION ALIMENTICIA SNTE 5 2020-2021 SECC5                                                               0000000000000000000000000ISP0000000005071      
SPDMSNTE5AHORRO@OUTLOOK.COM                                                                             00000000000000000120780153804858422021082040044DISP0000000005071                                                                                                                                                                                                          
SPTB000000100000000002306208000000000000000000000000000000000000000000000000000000000000000000000000000000000000000000000000000000000000000000000000000000100000000002306208000000000000000000000000000000000000000000000000000000000000000000000000000                                                                                                                           
SPHB000000256021994360000000064000                                                                                                                                                                                                                                                                                                                                                
SPDP04000000000004977772021082003GAGM6610132F5       GAGM6610132F5BALTIERREZ GONZALEZ PATRICIA            900000000000006400000000000001218001539271856300000                                        9 00000044012001PAGO PENSION ALIMENTICIA SNTE 5 2020-2021 SECC5                                                               0000000000000000000000000ISP0000000005072      
SPDMSNTE5AHORRO@OUTLOOK.COM                                                                             00000000000000000121800153927185632021082040044DISP0000000005072                                                                                                                                                                                                          
SPTB000000100000000000497777000000000000000000000000000000000000000000000000000000000000000000000000000000000000000000000000000000000000000000000000000000100000000000497777000000000000000000000000000000000000000000000000000000000000000000000000000                                                                                                                           
SPHB000000256021994360000000067000                                                                                                                                                                                                                                                                                                                                                
SPDP04000000000004632742021082003LUHE760914KH2       LUHE760914KH2CALAMACO SANDOVAL WENDY PAULINA         900000000000006700000000000001407856592611648900000                                        9 00000044014001PAGO PENSION ALIMENTICIA SNTE 5 2020-2021 SECC5                                                               0000000000000000000000000ISP0000000005073      
SPDMSNTE5AHORRO@OUTLOOK.COM                                                                             00000000000000000140785659261164892021082040044DISP0000000005073                                                                                                                                                                                                          
SPTB000000100000000000463274000000000000000000000000000000000000000000000000000000000000000000000000000000000000000000000000000000000000000000000000000000100000000000463274000000000000000000000000000000000000000000000000000000000000000000000000000                                                                                                                           
SPHB000000256021994360000000068000                                                                                                                                                                                                                                                                                                                                                
SPDP04000000000005942242021082003TEMJ830108KM4       TEMJ830108KM4RAMIREZ PINALES JUANA MARIA             900000000000006800000000000001407856607069366600000                                        9 00000044014001PAGO PENSION ALIMENTICIA SNTE 5 2020-2021 SECC5                                                               0000000000000000000000000ISP0000000005074      
SPDMSNTE5AHORRO@OUTLOOK.COM                                                                             00000000000000000140785660706936662021082040044DISP0000000005074                                                                                                                                                                                                          
SPTB000000100000000000594224000000000000000000000000000000000000000000000000000000000000000000000000000000000000000000000000000000000000000000000000000000100000000000594224000000000000000000000000000000000000000000000000000000000000000000000000000                                                                                                                           
SPHB000000256021994360000000070000                                                                                                                                                                                                                                                                                                                                                
SPDP04000000000006510882021082003MUTV760301C75       MUTV760301C75SANCHEZ SANCHEZ THELMA GABRIELA         900000000000007000000000000002107606417894288700000                                        9 00000044021001PAGO PENSION ALIMENTICIA SNTE 5 2020-2021 SECC5                                                               0000000000000000000000000ISP0000000005075      
SPDMSNTE5AHORRO@OUTLOOK.COM                                                                             00000000000000000210760641789428872021082040044DISP0000000005075                                                                                                                                                                                                          
SPTB000000100000000000651088000000000000000000000000000000000000000000000000000000000000000000000000000000000000000000000000000000000000000000000000000000100000000000651088000000000000000000000000000000000000000000000000000000000000000000000000000                                                                                                                           
SPHB000000256021994360000000071000                                                                                                                                                                                                                                                                                                                                                
SPDP04000000000001806912021082003PEBE7611248B5       PEBE7611248B5GOMEZ MORENO HADA GRISELIDA             900000000000007100000000000001407856507893579600000                                        9 00000044014001PAGO PENSION ALIMENTICIA SNTE 5 2020-2021 SECC5                                                               0000000000000000000000000ISP0000000005076      
SPDMSNTE5AHORRO@OUTLOOK.COM                                                                             00000000000000000140785650789357962021082040044DISP0000000005076                                                                                                                                                                                                          
SPTB000000100000000000180691000000000000000000000000000000000000000000000000000000000000000000000000000000000000000000000000000000000000000000000000000000100000000000180691000000000000000000000000000000000000000000000000000000000000000000000000000                                                                                                                           
SPHB000000256021994360000000076000                                                                                                                                                                                                                                                                                                                                                
SPDP04000000000005661192021082003VIRA770929I4A       VIRA770929I4ALOPEZ JUAREZ MARIA GUADALUPE            900000000000007600000000000004407825601500573500000                                        9 00187044044001PAGO PENSION ALIMENTICIA SNTE 5 2020-2021 SECC5                                                               00000000000000000000000004507000000005077      
SPDMSNTE5AHORRO@OUTLOOK.COM                                                                             0000000000000000044078256015005735000020210820094507000000005077                                                                                                                                                                                                          
SPTB000000100000000000566119000000000000000000000000000000000000000000000000000000000000000000000000000000000000000000000000000000000000000000000000000000100000000000566119000000000000000000000000000000000000000000000000000000000000000000000000000                                                                                                                           
SPHB000000256021994360000000078000                                                                                                                                                                                                                                                                                                                                                
SPDP04000000000006425312021082003MUGA680506M3A       MUGA680506M3APUENTE UCHIYAMA DORA ELBA               900000000000007800000000000001207801562991394900000                                        9 00000044012001PAGO PENSION ALIMENTICIA SNTE 5 2020-2021 SECC5                                                               0000000000000000000000000ISP0000000005078      
SPDMSNTE5AHORRO@OUTLOOK.COM                                                                             00000000000000000120780156299139492021082040044DISP0000000005078                                                                                                                                                                                                          
SPTB000000100000000000642531000000000000000000000000000000000000000000000000000000000000000000000000000000000000000000000000000000000000000000000000000000100000000000642531000000000000000000000000000000000000000000000000000000000000000000000000000                                                                                                                           
SPHB000000256021994360000000079000                                                                                                                                                                                                                                                                                                                                                
SPDP04000000000000867672021082003BALG6311158X7       BALG6311158X7MA ELSA SIERRA REYES                    900000000000007900000000000001207801531285130500000                                        9 00000044012001PAGO PENSION ALIMENTICIA SNTE 5 2020-2021 SECC5                                                               0000000000000000000000000ISP0000000005079      
SPDMSNTE5AHORRO@OUTLOOK.COM                                                                             00000000000000000120780153128513052021082040044DISP0000000005079                                                                                                                                                                                                          
SPTB000000100000000000086767000000000000000000000000000000000000000000000000000000000000000000000000000000000000000000000000000000000000000000000000000000100000000000086767000000000000000000000000000000000000000000000000000000000000000000000000000                                                                                                                           
SPHB000000256021994360000000080000                                                                                                                                                                                                                                                                                                                                                
SPDP04000000000001204612021082003BASA790803666       BASA790803666GARZA GUTIERREZ VERONICA ENITH          900000000000008000000000000002107806492355031200000                                        9 00000044021001PAGO PENSION ALIMENTICIA SNTE 5 2020-2021 SECC5                                                               0000000000000000000000000ISP0000000005080      
SPDMSNTE5AHORRO@OUTLOOK.COM                                                                             00000000000000000210780649235503122021082040044DISP0000000005080                                                                                                                                                                                                          
SPTB000000100000000000120461000000000000000000000000000000000000000000000000000000000000000000000000000000000000000000000000000000000000000000000000000000100000000000120461000000000000000000000000000000000000000000000000000000000000000000000000000                                                                                                                           
SPHB000000256021994360000000072000                                                                                                                                                                                                                                                                                                                                                
SPDP04000000000001551442021082003CAAD8801103K3       CAAD8801103K3TORRES RODRIGUEZ NANCY ELIZABETH        900000000000007200000000000001206001541169491800000                                        9 00000044012001PAGO PENSION ALIMENTICIA SNTE 5 2020-2021 SECC5                                                               0000000000000000000000000ISP0000000005082      
SPDMSNTE5AHORRO@OUTLOOK.COM                                                                             00000000000000000120600154116949182021082040044DISP0000000005082                                                                                                                                                                                                          
SPTB000000100000000000155144000000000000000000000000000000000000000000000000000000000000000000000000000000000000000000000000000000000000000000000000000000100000000000155144000000000000000000000000000000000000000000000000000000000000000000000000000                                                                                                                           
SPHB000000256021994360000000077000                                                                                                                                                                                                                                                                                                                                                
SPDP04000000000004395732021082003RISJ7008196D2       RISJ7008196D2SANCHEZ VAZQUEZ BEATRIZ                 900000000000007700000000000004407818701447726800000                                        9 00187044044001PAGO PENSION ALIMENTICIA SNTE 5 2020-2021 SECC5                                                               00000000000000000000000004507000000005084      
SPDMSNTE5AHORRO@OUTLOOK.COM                                                                             0000000000000000044078187014477268000020210820094507000000005084                                                                                                                                                                                                          
SPTB000000100000000000439573000000000000000000000000000000000000000000000000000000000000000000000000000000000000000000000000000000000000000000000000000000100000000000439573000000000000000000000000000000000000000000000000000000000000000000000000000                                                                                                                           
SPHB000000256021994360000000081000                                                                                                                                                                                                                                                                                                                                                
SPDP04000000000001599182021082003GAVP860502BY9       GAVP860502BY9GEORGINA JANETH BRIONES DAVILA          900000000000008100000000000001207802634537211200000                                        9 00000044012001PAGO PENSION ALIMENTICIA SNTE 5 2020-2021 SECC5                                                               0000000000000000000000000ISP0000000005085      
SPDMSNTE5AHORRO@OUTLOOK.COM                                                                             00000000000000000120780263453721122021082040044DISP0000000005085                                                                                                                                                                                                          
SPTB000000100000000000159918000000000000000000000000000000000000000000000000000000000000000000000000000000000000000000000000000000000000000000000000000000100000000000159918000000000000000000000000000000000000000000000000000000000000000000000000000                                                                                                                           
SPHB000000256021994360000000083000                                                                                                                                                                                                                                                                                                                                                
SPDP04000000000002356512021082003YEFG6712228R2       YEFG6712228R2MARTINEZ CARRAZCO PALOMA                900000000000008300000000000001407860547282827500000                                        9 00000044014001PAGO PENSION ALIMENTICIA SNTE 5 2020-2021 SECC5                                                               0000000000000000000000000ISP0000000005086      
SPDMSNTE5AHORRO@OUTLOOK.COM                                                                             00000000000000000140786054728282752021082040044DISP0000000005086                                                                                                                                                                                                          
SPTB000000100000000000235651000000000000000000000000000000000000000000000000000000000000000000000000000000000000000000000000000000000000000000000000000000100000000000235651000000000000000000000000000000000000000000000000000000000000000000000000000                                                                                                                           
SPHB000000256021994360000000084000                                                                                                                                                                                                                                                                                                                                                
SPDP04000000000001169682021082003OAER770524NL1       OAER770524NL1OVALLE SANCHEZ YAZMIN MARICELA          900000000000008400000000000001218001517506403600000                                        9 00000044012001PAGO PENSION ALIMENTICIA SNTE 5 2020-2021 SECC5                                                               0000000000000000000000000ISP0000000005087      
SPDMSNTE5AHORRO@OUTLOOK.COM                                                                             00000000000000000121800151750640362021082040044DISP0000000005087                                                                                                                                                                                                          
SPTB000000100000000000116968000000000000000000000000000000000000000000000000000000000000000000000000000000000000000000000000000000000000000000000000000000100000000000116968000000000000000000000000000000000000000000000000000000000000000000000000000                                                                                                                           
SPHB000000256021994360000000085000                                                                                                                                                                                                                                                                                                                                                
SPDP04000000000001247612021082003CACJ930630F12       CACJ930630F12OBREGON MARTINEZ ELVA MELISSA           900000000000008500000000000002107806475178368100000                                        9 00000044021001PAGO PENSION ALIMENTICIA SNTE 5 2020-2021 SECC5                                                               0000000000000000000000000ISP0000000005088      
SPDMSNTE5AHORRO@OUTLOOK.COM                                                                             00000000000000000210780647517836812021082040044DISP0000000005088                                                                                                                                                                                                          
SPTB000000100000000000124761000000000000000000000000000000000000000000000000000000000000000000000000000000000000000000000000000000000000000000000000000000100000000000124761000000000000000000000000000000000000000000000000000000000000000000000000000                                                                                                                           
SPHB000000256021994360000000087000                                                                                                                                                                                                                                                                                                                                                
SPDP04000000000006138962021082003GUGJ830614H48       GUGJ830614H48VAZQUEZ RODRIGUEZ SAMYRA EDITH          900000000000008700000000000002107506492356500900000                                        9 00000044021001PAGO PENSION ALIMENTICIA SNTE 5 2020-2021 SECC5                                                               0000000000000000000000000ISP0000000005089      
SPDMSNTE5AHORRO@OUTLOOK.COM                                                                             00000000000000000210750649235650092021082040044DISP0000000005089                                                                                                                                                                                                          
SPTB000000100000000000613896000000000000000000000000000000000000000000000000000000000000000000000000000000000000000000000000000000000000000000000000000000100000000000613896000000000000000000000000000000000000000000000000000000000000000000000000000                                                                                                                           
SPHB000000256021994360000000088000                                                                                                                                                                                                                                                                                                                                                
SPDP04000000000003122362021082003PAMI750202LNA       PAMI750202LNAESCARCEGA NEVAREZ ANA LUCIA             900000000000008800000000000001207801529441321400000                                        9 00000044012001PAGO PENSION ALIMENTICIA SNTE 5 2020-2021 SECC5                                                               0000000000000000000000000ISP0000000005090      
SPDMSNTE5AHORRO@OUTLOOK.COM                                                                             00000000000000000120780152944132142021082040044DISP0000000005090                                                                                                                                                                                                          
SPTB000000100000000000312236000000000000000000000000000000000000000000000000000000000000000000000000000000000000000000000000000000000000000000000000000000100000000000312236000000000000000000000000000000000000000000000000000000000000000000000000000                                                                                                                           
SPHB000000256021994360000000082000                                                                                                                                                                                                                                                                                                                                                
SPDP04000000000003592802021082003MASE6607245F9       MASE6607245F9LOPEZ MAGALLAN MARIA LEONOR             900000000000008200000000000001207802906359582500000                                        9 00000044012001PAGO PENSION ALIMENTICIA SNTE 5 2020-2021 SECC5                                                               0000000000000000000000000ISP0000000005091      
SPDMSNTE5AHORRO@OUTLOOK.COM                                                                             00000000000000000120780290635958252021082040044DISP0000000005091                                                                                                                                                                                                          
SPTB000000100000000000359280000000000000000000000000000000000000000000000000000000000000000000000000000000000000000000000000000000000000000000000000000000100000000000359280000000000000000000000000000000000000000000000000000000000000000000000000000                                                                                                                           
SPHB000000256021994360000000086000                                                                                                                                                                                                                                                                                                                                                
SPDP04000000000005794672021082003FUFD800831TR8       FUFD800831TR8MARIA DEL JESUS CARREON VALADEZ         900000000000008600000000000007207800287412097000000                                        9 00000044072001PAGO PENSION ALIMENTICIA SNTE 5 2020-2021 SECC5                                                               0000000000000000000000000ISP0000000005092      
SPDMSNTE5AHORRO@OUTLOOK.COM                                                                             00000000000000000720780028741209702021082040044DISP0000000005092                                                                                                                                                                                                          
SPTB000000100000000000579467000000000000000000000000000000000000000000000000000000000000000000000000000000000000000000000000000000000000000000000000000000100000000000579467000000000000000000000000000000000000000000000000000000000000000000000000000                                                                                                                           
SPHB000000256021994360000000092000                                                                                                                                                                                                                                                                                                                                                
SPDP04000000000002604372021082003EAVM920119R68       EAVM920119R68PRUNEDA OBREDON CECILIA ESMERALDA       900000000000009200000000000001218001554173640600000                                        9 00000044012001PAGO PENSION ALIMENTICIA SNTE 5 2020-2021 SECC5                                                               0000000000000000000000000ISP0000000005093      
SPDMSNTE5AHORRO@OUTLOOK.COM                                                                             00000000000000000121800155417364062021082040044DISP0000000005093                                                                                                                                                                                                          
SPTB000000100000000000260437000000000000000000000000000000000000000000000000000000000000000000000000000000000000000000000000000000000000000000000000000000100000000000260437000000000000000000000000000000000000000000000000000000000000000000000000000                                                                                                                           
SPHB000000256021994360000000094000                                                                                                                                                                                                                                                                                                                                                
SPDP04000000000006260132021082003CECV810921M78       CECV810921M78TREVINO BARRON MAYRA EDITH              900000000000009400000000000007207800522126189000000                                        9 00000044072001PAGO PENSION ALIMENTICIA SNTE 5 2020-2021 SECC5                                                               0000000000000000000000000ISP0000000005094      
SPDMSNTE5AHORRO@OUTLOOK.COM                                                                             00000000000000000720780052212618902021082040044DISP0000000005094                                                                                                                                                                                                          
SPTB000000100000000000626013000000000000000000000000000000000000000000000000000000000000000000000000000000000000000000000000000000000000000000000000000000100000000000626013000000000000000000000000000000000000000000000000000000000000000000000000000                                                                                                                           
SPHB000000256021994360000000097000                                                                                                                                                                                                                                                                                                                                                
SPDP04000000000001247412021082003MAMF790305865       MAMF790305865FLORES GARZA GRISELDA                   900000000000009700000000000001407860617664049900000                                        9 00000044014001PAGO PENSION ALIMENTICIA SNTE 5 2020-2021 SECC5                                                               0000000000000000000000000ISP0000000005095      
SPDMSNTE5AHORRO@OUTLOOK.COM                                                                             00000000000000000140786061766404992021082040044DISP0000000005095                                                                                                                                                                                                          
SPTB000000100000000000124741000000000000000000000000000000000000000000000000000000000000000000000000000000000000000000000000000000000000000000000000000000100000000000124741000000000000000000000000000000000000000000000000000000000000000000000000000                                                                                                                           
SPHB000000256021994360000000096000                                                                                                                                                                                                                                                                                                                                                
SPDP04000000000001004282021082003FORJ660927IA4       FORJ660927IA4MORENO NAJERA SERA ELIZABETH            900000000000009600000000000007207201151861533000000                                        9 00000044072001PAGO PENSION ALIMENTICIA SNTE 5 2020-2021 SECC5                                                               0000000000000000000000000ISP0000000005096      
SPDMSNTE5AHORRO@OUTLOOK.COM                                                                             00000000000000000720720115186153302021082040044DISP0000000005096                                                                                                                                                                                                          
SPTB000000100000000000100428000000000000000000000000000000000000000000000000000000000000000000000000000000000000000000000000000000000000000000000000000000100000000000100428000000000000000000000000000000000000000000000000000000000000000000000000000                                                                                                                           
SPHB000000256021994360000000098000                                                                                                                                                                                                                                                                                                                                                
SPDP04000000000003992382021082003GOPI880121V49       GOPI880121V49HERNADEZ RAMIREZ MARTHA DE JESUS        900000000000009800000000000001407860560257856000000                                        9 00000044014001PAGO PENSION ALIMENTICIA SNTE 5 2020-2021 SECC5                                                               0000000000000000000000000ISP0000000005097      
SPDMSNTE5AHORRO@OUTLOOK.COM                                                                             00000000000000000140786056025785602021082040044DISP0000000005097                                                                                                                                                                                                          
SPTB000000100000000000399238000000000000000000000000000000000000000000000000000000000000000000000000000000000000000000000000000000000000000000000000000000100000000000399238000000000000000000000000000000000000000000000000000000000000000000000000000                                                                                                                           
SPHB000000256021994360000000107000                                                                                                                                                                                                                                                                                                                                                
SPDP04000000000004557632021082003GALS660920LE5       GALS660920LE5GARDU#O LOZOYA AURELIA CONSUELO GUADALUP900000000000010700000000000002106806500101550000000                                        9 00000044021001PAGO PENSION ALIMENTICIA SNTE 5 2020-2021 SECC5                                                               0000000000000000000000000ISP0000000005098      
SPDMSNTE5AHORRO@OUTLOOK.COM                                                                             00000000000000000210680650010155002021082040044DISP0000000005098                                                                                                                                                                                                          
SPTB000000100000000000455763000000000000000000000000000000000000000000000000000000000000000000000000000000000000000000000000000000000000000000000000000000100000000000455763000000000000000000000000000000000000000000000000000000000000000000000000000                                                                                                                           
SPHB000000256021994360000000109000                                                                                                                                                                                                                                                                                                                                                
SPDP04000000000001257922021082003COVO730427IQ5       COVO730427IQ5SANCHEZ GONZALEZ SANDRA EDITH           900000000000010900000000000002158006464299654100000                                        9 00000044021001PAGO PENSION ALIMENTICIA SNTE 5 2020-2021 SECC5                                                               0000000000000000000000000ISP0000000005099      
SPDMSNTE5AHORRO@OUTLOOK.COM                                                                             00000000000000000215800646429965412021082040044DISP0000000005099                                                                                                                                                                                                          
SPTB000000100000000000125792000000000000000000000000000000000000000000000000000000000000000000000000000000000000000000000000000000000000000000000000000000100000000000125792000000000000000000000000000000000000000000000000000000000000000000000000000                                                                                                                           
SPHB000000256021994360000000110000                                                                                                                                                                                                                                                                                                                                                
SPDP04000000000002575802021082003ZUAF621005PS9       ZUAF621005PS9MARTINEZ PEREZ JUANA ALICIA             900000000000011000000000000001207401206654495200000                                        9 00000044012001PAGO PENSION ALIMENTICIA SNTE 5 2020-2021 SECC5                                                               0000000000000000000000000ISP0000000005100      
SPDMSNTE5AHORRO@OUTLOOK.COM                                                                             00000000000000000120740120665449522021082040044DISP0000000005100                                                                                                                                                                                                          
SPTB000000100000000000257580000000000000000000000000000000000000000000000000000000000000000000000000000000000000000000000000000000000000000000000000000000100000000000257580000000000000000000000000000000000000000000000000000000000000000000000000000                                                                                                                           
SPHB000000256021994360000000111000                                                                                                                                                                                                                                                                                                                                                
SPDP04000000000001773702021082003GURL8604029K3       GURL8604029K3REYES MARTINEZ ERIKA YASMIN             900000000000011100000000000007207801088385313600000                                        9 00000044072001PAGO PENSION ALIMENTICIA SNTE 5 2020-2021 SECC5                                                               0000000000000000000000000ISP0000000005101      
SPDMSNTE5AHORRO@OUTLOOK.COM                                                                             00000000000000000720780108838531362021082040044DISP0000000005101                                                                                                                                                                                                          
SPTB000000100000000000177370000000000000000000000000000000000000000000000000000000000000000000000000000000000000000000000000000000000000000000000000000000100000000000177370000000000000000000000000000000000000000000000000000000000000000000000000000                                                                                                                           
SPHB000000256021994360000000112000                                                                                                                                                                                                                                                                                                                                                
SPDP04000000000002305972021082003MOHH810824H82       MOHH810824H82VELAZQUEZ TREJO GUADALUPE               900000000000011200000000000007207800460886482400000                                        9 00000044072001PAGO PENSION ALIMENTICIA SNTE 5 2020-2021 SECC5                                                               0000000000000000000000000ISP0000000005102      
SPDMSNTE5AHORRO@OUTLOOK.COM                                                                             00000000000000000720780046088648242021082040044DISP0000000005102                                                                                                                                                                                                          
SPTB000000100000000000230597000000000000000000000000000000000000000000000000000000000000000000000000000000000000000000000000000000000000000000000000000000100000000000230597000000000000000000000000000000000000000000000000000000000000000000000000000                                                                                                                           
SPHB000000256021994360000000089000                                                                                                                                                                                                                                                                                                                                                
SPDP04000000000001441232021082003DEFE650822BB1       DEFE650822BB1OLIVIA ROSALBA TIJERINA SEGURA          900000000000008900000000000001207402897766203000000                                        9 00000044012001PAGO PENSION ALIMENTICIA SNTE 5 2020-2021 SECC5                                                               0000000000000000000000000ISP0000000005103      
SPDMSNTE5AHORRO@OUTLOOK.COM                                                                             00000000000000000120740289776620302021082040044DISP0000000005103                                                                                                                                                                                                          
SPTB000000100000000000144123000000000000000000000000000000000000000000000000000000000000000000000000000000000000000000000000000000000000000000000000000000100000000000144123000000000000000000000000000000000000000000000000000000000000000000000000000                                                                                                                           
SPHB000000256021994360000000090000                                                                                                                                                                                                                                                                                                                                                
SPDP04000000000001152992021082003HEPE8010106Z1       HEPE8010106Z1SUANA HITANDEGUI PEDRAZA TOVAR          900000000000009000000000000001218001549045218700000                                        9 00000044012001PAGO PENSION ALIMENTICIA SNTE 5 2020-2021 SECC5                                                               0000000000000000000000000ISP0000000005104      
SPDMSNTE5AHORRO@OUTLOOK.COM                                                                             00000000000000000121800154904521872021082040044DISP0000000005104                                                                                                                                                                                                          
SPTB000000100000000000115299000000000000000000000000000000000000000000000000000000000000000000000000000000000000000000000000000000000000000000000000000000100000000000115299000000000000000000000000000000000000000000000000000000000000000000000000000                                                                                                                           
SPHB000000256021994360000000093000                                                                                                                                                                                                                                                                                                                                                
SPDP04000000000000976412021082003MEGE720710ED4       MEGE720710ED4MARTINEZ HERNANDEZ MONICA ELIZABETH     900000000000009300000000000001407556507793736100000                                        9 00000044014001PAGO PENSION ALIMENTICIA SNTE 5 2020-2021 SECC5                                                               0000000000000000000000000ISP0000000005105      
SPDMSNTE5AHORRO@OUTLOOK.COM                                                                             00000000000000000140755650779373612021082040044DISP0000000005105                                                                                                                                                                                                          
SPTB000000100000000000097641000000000000000000000000000000000000000000000000000000000000000000000000000000000000000000000000000000000000000000000000000000100000000000097641000000000000000000000000000000000000000000000000000000000000000000000000000                                                                                                                           
