SPHA0932601202108302021083020210830000                                                                                                                                                                                                                                                                                                                                            
SPHB000000256021994360000013500000                                                                                                                                                                                                                                                                                                                                                
SPDP04000000000000673222021082703CAGM831203SQ6       CAGM831203SQ6CHAVARRIA GUERRA MARTHA ELENA           900000000001350000000000000004407025603929659900000                                        9 00191044044001PAGO FONDO DE AHORRO SNTE 5 2020-2021 SNTE SECC5                                                              00000000000000000000000001513000000068396      
SPDMSNTE5AHORRO@OUTLOOK.COM                                                                             0000000000000000044070256039296599000020210827141513000000068396                                                                                                                                                                                                          
SPTB000000100000000000067322000000000000000000000000000000000000000000000000000000000000000000000000000000000000000000000000000000000000000000000000000000100000000000067322000000000000000000000000000000000000000000000000000000000000000000000000000                                                                                                                           
SPHB000000256021994360000020394000                                                                                                                                                                                                                                                                                                                                                
SPDP04000000000050813992021082703MURR5201194L0       MURR5201194L0MU#OZ ROBLES ROBERTO                    900000000002039400000000000004406225603785137100000                                        9 00194044044001PAGO FONDO DE AHORRO SNTE 5 2020-2021 SNTE SECC5                                                              00000000000000000000000001513000000068397      
SPDMSNTE5AHORRO@OUTLOOK.COM                                                                             0000000000000000044062256037851371000020210827141513000000068397                                                                                                                                                                                                          
SPTB000000100000000005081399000000000000000000000000000000000000000000000000000000000000000000000000000000000000000000000000000000000000000000000000000000100000000005081399000000000000000000000000000000000000000000000000000000000000000000000000000                                                                                                                           
SPHB000000256021994360000001528000                                                                                                                                                                                                                                                                                                                                                
SPDP04000000000000471272021082703GAGA850514AE0       GAGA850514AE0GARCIA GONZALEZ ANA GABRIELA            000000000000152800000000000001207802869532749100000                                        9 00000044012001CH1528 PENSION 2019 2020 FONDO AHORRO             CH1528 PENSION 2019 2020 FONDO AHORRO                       0000000000000000000000000ISP0000000068636      
SPDMSNTE5FONDOAHORRO@GMAIL.COM                                                                          00000000000000000120780286953274912021082740044DISP0000000068636                                                                                                                                                                                                          
SPTB000000100000000000047127000000000000000000000000000000000000000000000000000000000000000000000000000000000000000000000000000000000000000000000000000000100000000000047127000000000000000000000000000000000000000000000000000000000000000000000000000                                                                                                                           
SPHB000000256021994360000001531000                                                                                                                                                                                                                                                                                                                                                
SPDP04000000000003521532021082703RIRC750724JX5       RIRC750724JX5RIOS ROSALES CYNTHIA LUCIA              000000000000153100000000000001206201537575378600000                                        9 00000044012001CH1531 PENSION 2019 2020 FONDO AHORRO             CH1531 PENSION 2019 2020 FONDO AHORRO                       0000000000000000000000000ISP0000000068637      
SPDMSNTE5FONDOAHORRO@GMAIL.COM                                                                          00000000000000000120620153757537862021082740044DISP0000000068637                                                                                                                                                                                                          
SPTB000000100000000000352153000000000000000000000000000000000000000000000000000000000000000000000000000000000000000000000000000000000000000000000000000000100000000000352153000000000000000000000000000000000000000000000000000000000000000000000000000                                                                                                                           
SPHB000000256021994360000001543000                                                                                                                                                                                                                                                                                                                                                
SPDP04000000000003850032021082703MEFA7105039WA       MEFA7105039WAMENDOZA FRIAS ANA MARGARITA             000000000000154300000000000001407856507925572100000                                        9 00000044014001CH1543 PENSION 2019 2020 FONDO AHORRO             CH1543 PENSION 2019 2020 FONDO AHORRO                       0000000000000000000000000ISP0000000068638      
SPDMSNTE5FONDOAHORRO@GMAIL.COM                                                                          00000000000000000140785650792557212021082740044DISP0000000068638                                                                                                                                                                                                          
SPTB000000100000000000385003000000000000000000000000000000000000000000000000000000000000000000000000000000000000000000000000000000000000000000000000000000100000000000385003000000000000000000000000000000000000000000000000000000000000000000000000000                                                                                                                           
SPTA000000500000000005933004000000000000000000000000000000000000000000000000000000000000000000000000000000000000000000000000000000000000000000000000000000500000000005933004000000000000000000000000000000000000000000000000000000000000000000000000000000                                                                                                                        
