SPHA0932601202108202021082020210820000                                                                                                                                                                                                                                                                                                                                            
SPHB000000256021994360000010175000                                                                                                                                                                                                                                                                                                                                                
SPDP04000000000015924412021081903PACA820803EG1       PACA820803EG1DE LA PARRA CERVANTES ALEJANDRO         900000000001017500000000000001407860620160519200000                                        9 00000044014001PAGO FONDO DE AHORRO SNTE 5 2020-2021 SNTE SECC5                                                              0000000000000000000000000ISP0000000009117      
SPDMSNTE5AHORRO@OUTLOOK.COM                                                                             00000000000000000140786062016051922021081940044DISP0000000009117                                                                                                                                                                                                          
SPTB000000100000000001592441000000000000000000000000000000000000000000000000000000000000000000000000000000000000000000000000000000000000000000000000000000100000000001592441000000000000000000000000000000000000000000000000000000000000000000000000000                                                                                                                           
SPHB000000256021994360000019821000                                                                                                                                                                                                                                                                                                                                                
SPDP04000000000009266462021081903TOCL690207QJ3       TOCL690207QJ3TOBIAS CANIZALES JOSE LUIS              900000000001982100000000000007258001148138226600000                                        9 00000044072001PAGO FONDO DE AHORRO SNTE 5 2020-2021 SNTE SECC5                                                              0000000000000000000000000ISP0000000009118      
SPDMSNTE5AHORRO@OUTLOOK.COM                                                                             00000000000000000725800114813822662021081940044DISP0000000009118                                                                                                                                                                                                          
SPTB000000100000000000926646000000000000000000000000000000000000000000000000000000000000000000000000000000000000000000000000000000000000000000000000000000100000000000926646000000000000000000000000000000000000000000000000000000000000000000000000000                                                                                                                           
SPHB000000256021994360000000254000                                                                                                                                                                                                                                                                                                                                                
SPDP04000000000005284312021081903AEON760301AP5       AEON760301AP5ALEMAN OBREGON NORMA YOLANDA            900000000000025400000000000001206302883654842600000                                        9 00000044012001PAGO FONDO DE AHORRO SNTE 5 2020-2021 SNTE SECC5                                                              0000000000000000000000000ISP0000000009119      
SPDMSNTE5AHORRO@OUTLOOK.COM                                                                             00000000000000000120630288365484262021081940044DISP0000000009119                                                                                                                                                                                                          
SPTB000000100000000000528431000000000000000000000000000000000000000000000000000000000000000000000000000000000000000000000000000000000000000000000000000000100000000000528431000000000000000000000000000000000000000000000000000000000000000000000000000                                                                                                                           
SPHB000000256021994360000001307000                                                                                                                                                                                                                                                                                                                                                
SPDP04000000000006689752021081903CEAR6801308X1       CEAR6801308X1CERVANTES ALVARADO RICARDO              900000000000130700000000000001207401295847427900000                                        9 00000044012001PAGO FONDO DE AHORRO SNTE 5 2020-2021 SNTE SECC5                                                              0000000000000000000000000ISP0000000009120      
SPDMSNTE5AHORRO@OUTLOOK.COM                                                                             00000000000000000120740129584742792021081940044DISP0000000009120                                                                                                                                                                                                          
SPTB000000100000000000668975000000000000000000000000000000000000000000000000000000000000000000000000000000000000000000000000000000000000000000000000000000100000000000668975000000000000000000000000000000000000000000000000000000000000000000000000000                                                                                                                           
SPHB000000256021994360000019053000                                                                                                                                                                                                                                                                                                                                                
SPDP04000000000004526682021081903GURJ690606LH3       GURJ690606LH3GUTIERREZ REYES JUAN FERNANDO           900000000001905300000000000001206801528706082000000                                        9 00000044012001PAGO FONDO DE AHORRO SNTE 5 2020-2021 SNTE SECC5                                                              0000000000000000000000000ISP0000000009121      
SPDMSNTE5AHORRO@OUTLOOK.COM                                                                             00000000000000000120680152870608202021081940044DISP0000000009121                                                                                                                                                                                                          
SPTB000000100000000000452668000000000000000000000000000000000000000000000000000000000000000000000000000000000000000000000000000000000000000000000000000000100000000000452668000000000000000000000000000000000000000000000000000000000000000000000000000                                                                                                                           
SPHB000000256021994360000009641000                                                                                                                                                                                                                                                                                                                                                
SPDP04000000000009438262021081903VICJ6402138J2       VICJ6402138J2VILLARREAL CARREON JESUS MA             900000000000964100000000000006206800811569372400000                                        9 00000044062001PAGO FONDO DE AHORRO SNTE 5 2020-2021 SNTE SECC5                                                              0000000000000000000000000ISP0000000009122      
SPDMSNTE5AHORRO@OUTLOOK.COM                                                                             00000000000000000620680081156937242021081940044DISP0000000009122                                                                                                                                                                                                          
SPTB000000100000000000943826000000000000000000000000000000000000000000000000000000000000000000000000000000000000000000000000000000000000000000000000000000100000000000943826000000000000000000000000000000000000000000000000000000000000000000000000000                                                                                                                           
SPHB000000256021994360000019865000                                                                                                                                                                                                                                                                                                                                                
SPDP04000000000000822292021081903AOPE720301N75       AOPE720301N75ACOSTA PEREZ EDGAR ADOLFO               900000000001986500000000000001207502852932032100000                                        9 00000044012001PAGO FONDO DE AHORRO SNTE 5 2020-2021 SNTE SECC5                                                              0000000000000000000000000ISP0000000009123      
SPDMSNTE5AHORRO@OUTLOOK.COM                                                                             00000000000000000120750285293203212021081940044DISP0000000009123                                                                                                                                                                                                          
SPTB000000100000000000082229000000000000000000000000000000000000000000000000000000000000000000000000000000000000000000000000000000000000000000000000000000100000000000082229000000000000000000000000000000000000000000000000000000000000000000000000000                                                                                                                           
SPHB000000256021994360000020449000                                                                                                                                                                                                                                                                                                                                                
SPDP04000000000014793922021081903NADN460512BI2       NADN460512BI2NAHUAT DZIB NEREO AQUILEO               900000000002044900000000000001206801565740960000000                                        9 00000044012001PAGO FONDO DE AHORRO SNTE 5 2020-2021 SNTE SECC5                                                              0000000000000000000000000ISP0000000009124      
SPDMSNTE5AHORRO@OUTLOOK.COM                                                                             00000000000000000120680156574096002021081940044DISP0000000009124                                                                                                                                                                                                          
SPTB000000100000000001479392000000000000000000000000000000000000000000000000000000000000000000000000000000000000000000000000000000000000000000000000000000100000000001479392000000000000000000000000000000000000000000000000000000000000000000000000000                                                                                                                           
SPHB000000256021994360000020466000                                                                                                                                                                                                                                                                                                                                                
SPDP04000000000024350632021081903NAGR661123744       NAGR661123744NAVARRO GARCIA ROBERTO                  900000000002046600000000000001406860620615035100000                                        9 00000044014001PAGO FONDO DE AHORRO SNTE 5 2020-2021 SNTE SECC5                                                              0000000000000000000000000ISP0000000009125      
SPDMSNTE5AHORRO@OUTLOOK.COM                                                                             00000000000000000140686062061503512021081940044DISP0000000009125                                                                                                                                                                                                          
SPTB000000100000000002435063000000000000000000000000000000000000000000000000000000000000000000000000000000000000000000000000000000000000000000000000000000100000000002435063000000000000000000000000000000000000000000000000000000000000000000000000000                                                                                                                           
SPHB000000256021994360000002302000                                                                                                                                                                                                                                                                                                                                                
SPDP04000000000028945122021081903GACJ660203J54       GACJ660203J54GARCIA CASTRO JUAN OCTAVIO              900000000000230200000000000001406860614582876000000                                        9 00000044014001PAGO FONDO DE AHORRO SNTE 5 2020-2021 SNTE SECC5                                                              0000000000000000000000000ISP0000000009126      
SPDMSNTE5AHORRO@OUTLOOK.COM                                                                             00000000000000000140686061458287602021081940044DISP0000000009126                                                                                                                                                                                                          
SPTB000000100000000002894512000000000000000000000000000000000000000000000000000000000000000000000000000000000000000000000000000000000000000000000000000000100000000002894512000000000000000000000000000000000000000000000000000000000000000000000000000                                                                                                                           
SPHB000000256021994360000019531000                                                                                                                                                                                                                                                                                                                                                
SPDP04000000000002946782021081903LUEO600420LWA       LUEO600420LWALUCIO ESCALANTE MARIA OFELIA            900000000001953100000000000000206090160763743400000                                        9 00000044002001PAGO FONDO DE AHORRO SNTE 5 2020-2021 SNTE SECC5                                                              0000000000000000000000000ISP0000000009127      
SPDMSNTE5AHORRO@OUTLOOK.COM                                                                             00000000000000000020609016076374342021081940044DISP0000000009127                                                                                                                                                                                                          
SPTB000000100000000000294678000000000000000000000000000000000000000000000000000000000000000000000000000000000000000000000000000000000000000000000000000000100000000000294678000000000000000000000000000000000000000000000000000000000000000000000000000                                                                                                                           
SPHB000000256021994360000006888000                                                                                                                                                                                                                                                                                                                                                
SPDP04000000000012140272021081903MIBS670410DI6       MIBS670410DI6MIRANDA BRUNO SILVIA CATALINA           900000000000688800000000000001207501534006981600000                                        9 00000044012001PAGO FONDO DE AHORRO SNTE 5 2020-2021 SNTE SECC5                                                              0000000000000000000000000ISP0000000009128      
SPDMSNTE5AHORRO@OUTLOOK.COM                                                                             00000000000000000120750153400698162021081940044DISP0000000009128                                                                                                                                                                                                          
SPTB000000100000000001214027000000000000000000000000000000000000000000000000000000000000000000000000000000000000000000000000000000000000000000000000000000100000000001214027000000000000000000000000000000000000000000000000000000000000000000000000000                                                                                                                           
SPHB000000256021994360000015979000                                                                                                                                                                                                                                                                                                                                                
SPDP04000000000012414422021081903TORM871113EY8       TORM871113EY8TOBIAS RODRIGUEZ MARIBEL ALEJANDRA      900000000001597900000000000001207901549036098200000                                        9 00000044012001PAGO FONDO DE AHORRO SNTE 5 2020-2021 SNTE SECC5                                                              0000000000000000000000000ISP0000000009129      
SPDMSNTE5AHORRO@OUTLOOK.COM                                                                             00000000000000000120790154903609822021081940044DISP0000000009129                                                                                                                                                                                                          
SPTB000000100000000001241442000000000000000000000000000000000000000000000000000000000000000000000000000000000000000000000000000000000000000000000000000000100000000001241442000000000000000000000000000000000000000000000000000000000000000000000000000                                                                                                                           
SPHB000000256021994360000013234000                                                                                                                                                                                                                                                                                                                                                
SPDP04000000000072734282021081903FOIC6805267Y3       FOIC6805267Y3FLORES IBARRA CLAUDIA                   900000000001323400000000000007258000323882517500000                                        9 00000044072001PAGO FONDO DE AHORRO SNTE 5 2020-2021 SNTE SECC5                                                              0000000000000000000000000ISP0000000009130      
SPDMSNTE5AHORRO@OUTLOOK.COM                                                                             00000000000000000725800032388251752021081940044DISP0000000009130                                                                                                                                                                                                          
SPTB000000100000000007273428000000000000000000000000000000000000000000000000000000000000000000000000000000000000000000000000000000000000000000000000000000100000000007273428000000000000000000000000000000000000000000000000000000000000000000000000000                                                                                                                           
SPHB000000256021994360000000672000                                                                                                                                                                                                                                                                                                                                                
SPDP04000000000014669292021081903GOCJ761230U69       GOCJ761230U69GONZALEZ CASTILLO JULIAN                900000000000067200000000000002107706513018312900000                                        9 00000044021001PAGO FONDO DE AHORRO SNTE 5 2020-2021 SNTE SECC5                                                              0000000000000000000000000ISP0000000009131      
SPDMSNTE5AHORRO@OUTLOOK.COM                                                                             00000000000000000210770651301831292021081940044DISP0000000009131                                                                                                                                                                                                          
SPTB000000100000000001466929000000000000000000000000000000000000000000000000000000000000000000000000000000000000000000000000000000000000000000000000000000100000000001466929000000000000000000000000000000000000000000000000000000000000000000000000000                                                                                                                           
SPTB000000100000000004186808000000000000000000000000000000000000000000000000000000000000000000000000000000000000000000000000000000000000000000000000000000100000000004186808000000000000000000000000000000000000000000000000000000000000000000000000000                                                                                                                           
SPHB000000256021994360000013073000                                                                                                                                                                                                                                                                                                                                                
SPDP04000000000002112752021081903FOAL7907176C0       FOAL7907176C0FLORES ANGUIANO LUIS JAIME              900000000001307300000000000001407860586418414500000                                        9 00000044014001PAGO FONDO DE AHORRO SNTE 5 2020-2021 SNTE SECC5                                                              0000000000000000000000000ISP0000000009134      
SPDMSNTE5AHORRO@OUTLOOK.COM                                                                             00000000000000000140786058641841452021081940044DISP0000000009134                                                                                                                                                                                                          
SPTB000000100000000000211275000000000000000000000000000000000000000000000000000000000000000000000000000000000000000000000000000000000000000000000000000000100000000000211275000000000000000000000000000000000000000000000000000000000000000000000000000                                                                                                                           
SPHB000000256021994360000003965000                                                                                                                                                                                                                                                                                                                                                
SPDP04000000000010893982021081903PEBA620825FI1       PEBA620825FI1PEREZ BRAVO ALMA ROSA                   900000000000396500000000000007207801065331124800000                                        9 00000044072001PAGO FONDO DE AHORRO SNTE 5 2020-2021 SNTE SECC5                                                              0000000000000000000000000ISP0000000009135      
SPDMSNTE5AHORRO@OUTLOOK.COM                                                                             00000000000000000720780106533112482021081940044DISP0000000009135                                                                                                                                                                                                          
SPTB000000100000000001089398000000000000000000000000000000000000000000000000000000000000000000000000000000000000000000000000000000000000000000000000000000100000000001089398000000000000000000000000000000000000000000000000000000000000000000000000000                                                                                                                           
SPHB000000256021994360000015049000                                                                                                                                                                                                                                                                                                                                                
SPDP04000000000048859652021081903RIGR730727KU6       RIGR730727KU6RIOS GARCIA ROSA LINDA                  900000000001504900000000000007207501156979563300000                                        9 00000044072001PAGO FONDO DE AHORRO SNTE 5 2020-2021 SNTE SECC5                                                              0000000000000000000000000ISP0000000009136      
SPDMSNTE5AHORRO@OUTLOOK.COM                                                                             00000000000000000720750115697956332021081940044DISP0000000009136                                                                                                                                                                                                          
SPTB000000100000000004885965000000000000000000000000000000000000000000000000000000000000000000000000000000000000000000000000000000000000000000000000000000100000000004885965000000000000000000000000000000000000000000000000000000000000000000000000000                                                                                                                           
SPHB000000256021994360000006628000                                                                                                                                                                                                                                                                                                                                                
SPDP04000000000077552072021081903AAPL550430JD4       AAPL550430JD4ALCALA DE LA PE#A JOSE LUIS             900000000000662800000000000001207801549618810100000                                        9 00000044012001PAGO FONDO DE AHORRO SNTE 5 2020-2021 SNTE SECC5                                                              0000000000000000000000000ISP0000000009137      
SPDMSNTE5AHORRO@OUTLOOK.COM                                                                             00000000000000000120780154961881012021081940044DISP0000000009137                                                                                                                                                                                                          
SPTB000000100000000007755207000000000000000000000000000000000000000000000000000000000000000000000000000000000000000000000000000000000000000000000000000000100000000007755207000000000000000000000000000000000000000000000000000000000000000000000000000                                                                                                                           
SPHB000000256021994360000014593000                                                                                                                                                                                                                                                                                                                                                
SPDP04000000000007587702021081903CORU600529KP4       CORU600529KP4COLUNGA ROJAS URIEL JOSE                900000000001459300000000000001207801547755535500000                                        9 00000044012001PAGO FONDO DE AHORRO SNTE 5 2020-2021 SNTE SECC5                                                              0000000000000000000000000ISP0000000009138      
SPDMSNTE5AHORRO@OUTLOOK.COM                                                                             00000000000000000120780154775553552021081940044DISP0000000009138                                                                                                                                                                                                          
SPTB000000100000000000758770000000000000000000000000000000000000000000000000000000000000000000000000000000000000000000000000000000000000000000000000000000100000000000758770000000000000000000000000000000000000000000000000000000000000000000000000000                                                                                                                           
SPHB000000256021994360000007702000                                                                                                                                                                                                                                                                                                                                                
SPDP04000000000012646162021081903MAGR7510102N5       MAGR7510102N5MARTELET GARCIA ROSA VELIA              900000000000770200000000000001406260513934962100000                                        9 00000044014001PAGO FONDO DE AHORRO SNTE 5 2020-2021 SNTE SECC5                                                              0000000000000000000000000ISP0000000009139      
SPDMSNTE5AHORRO@OUTLOOK.COM                                                                             00000000000000000140626051393496212021081940044DISP0000000009139                                                                                                                                                                                                          
SPTB000000100000000001264616000000000000000000000000000000000000000000000000000000000000000000000000000000000000000000000000000000000000000000000000000000100000000001264616000000000000000000000000000000000000000000000000000000000000000000000000000                                                                                                                           
SPHB000000256021994360000007779000                                                                                                                                                                                                                                                                                                                                                
SPDP04000000000008352802021081903MALC521206SN7       MALC521206SN7MARTINEZ LEDEZMA MARIA CONCEPCION       900000000000777900000000000001207801406570232000000                                        9 00000044012001PAGO FONDO DE AHORRO SNTE 5 2020-2021 SNTE SECC5                                                              0000000000000000000000000ISP0000000009140      
SPDMSNTE5AHORRO@OUTLOOK.COM                                                                             00000000000000000120780140657023202021081940044DISP0000000009140                                                                                                                                                                                                          
SPTB000000100000000000835280000000000000000000000000000000000000000000000000000000000000000000000000000000000000000000000000000000000000000000000000000000100000000000835280000000000000000000000000000000000000000000000000000000000000000000000000000                                                                                                                           
SPHB000000256021994360000003083000                                                                                                                                                                                                                                                                                                                                                
SPDP04000000000005374702021081903PINJ680823KF1       PINJ680823KF1PICAZO NI#O JUAN DE DIOS                900000000000308300000000000007207800429625238500000                                        9 00000044072001PAGO FONDO DE AHORRO SNTE 5 2020-2021 SNTE SECC5                                                              0000000000000000000000000ISP0000000009141      
SPDMSNTE5AHORRO@OUTLOOK.COM                                                                             00000000000000000720780042962523852021081940044DISP0000000009141                                                                                                                                                                                                          
SPTB000000100000000000537470000000000000000000000000000000000000000000000000000000000000000000000000000000000000000000000000000000000000000000000000000000100000000000537470000000000000000000000000000000000000000000000000000000000000000000000000000                                                                                                                           
SPHB000000256021994360000015648000                                                                                                                                                                                                                                                                                                                                                
SPDP04000000000009207992021081903QUCJ660922IQ4       QUCJ660922IQ4QUISTIAN CARRILLO JUAN JESUS            900000000001564800000000000001207801533317886300000                                        9 00000044012001PAGO FONDO DE AHORRO SNTE 5 2020-2021 SNTE SECC5                                                              0000000000000000000000000ISP0000000009142      
SPDMSNTE5AHORRO@OUTLOOK.COM                                                                             00000000000000000120780153331788632021081940044DISP0000000009142                                                                                                                                                                                                          
SPTB000000100000000000920799000000000000000000000000000000000000000000000000000000000000000000000000000000000000000000000000000000000000000000000000000000100000000000920799000000000000000000000000000000000000000000000000000000000000000000000000000                                                                                                                           
SPHB000000256021994360000000290000                                                                                                                                                                                                                                                                                                                                                
SPDP04000000000019670692021081903AERJ771205194       AERJ771205194ARMENDARIZ RODRIGUEZ JUAN ESTEBAN       900000000000029000000000000001407560604126053800000                                        9 00000044014001PAGO FONDO DE AHORRO SNTE 5 2020-2021 SNTE SECC5                                                              0000000000000000000000000ISP0000000009143      
SPDMSNTE5AHORRO@OUTLOOK.COM                                                                             00000000000000000140756060412605382021081940044DISP0000000009143                                                                                                                                                                                                          
SPTB000000100000000001967069000000000000000000000000000000000000000000000000000000000000000000000000000000000000000000000000000000000000000000000000000000100000000001967069000000000000000000000000000000000000000000000000000000000000000000000000000                                                                                                                           
SPHB000000256021994360000013602000                                                                                                                                                                                                                                                                                                                                                
SPDP04000000000007391642021081903CAHU670601PF3       CAHU670601PF3CANALES HERNANDEZ ULISES                900000000001360200000000000001407556786663268400000                                        9 00000044014001PAGO FONDO DE AHORRO SNTE 5 2020-2021 SNTE SECC5                                                              0000000000000000000000000ISP0000000009144      
SPDMSNTE5AHORRO@OUTLOOK.COM                                                                             00000000000000000140755678666326842021081940044DISP0000000009144                                                                                                                                                                                                          
SPTB000000100000000000739164000000000000000000000000000000000000000000000000000000000000000000000000000000000000000000000000000000000000000000000000000000100000000000739164000000000000000000000000000000000000000000000000000000000000000000000000000                                                                                                                           
SPHB000000256021994360000013604000                                                                                                                                                                                                                                                                                                                                                
SPDP04000000000001374232021081903CAHV620728955       CAHV620728955CASTRO HERNANDEZ VICTOR                 900000000001360400000000000001207400475547865100000                                        9 00000044012001PAGO FONDO DE AHORRO SNTE 5 2020-2021 SNTE SECC5                                                              0000000000000000000000000ISP0000000009145      
SPDMSNTE5AHORRO@OUTLOOK.COM                                                                             00000000000000000120740047554786512021081940044DISP0000000009145                                                                                                                                                                                                          
SPTB000000100000000000137423000000000000000000000000000000000000000000000000000000000000000000000000000000000000000000000000000000000000000000000000000000100000000000137423000000000000000000000000000000000000000000000000000000000000000000000000000                                                                                                                           
SPHB000000256021994360000013608000                                                                                                                                                                                                                                                                                                                                                
SPDP04000000000006910392021081903CAID630701JV9       CAID630701JV9CASILLAS IBARRA DIANA                   900000000001360800000000000001207201532767119400000                                        9 00000044012001PAGO FONDO DE AHORRO SNTE 5 2020-2021 SNTE SECC5                                                              0000000000000000000000000ISP0000000009146      
SPDMSNTE5AHORRO@OUTLOOK.COM                                                                             00000000000000000120720153276711942021081940044DISP0000000009146                                                                                                                                                                                                          
SPTB000000100000000000691039000000000000000000000000000000000000000000000000000000000000000000000000000000000000000000000000000000000000000000000000000000100000000000691039000000000000000000000000000000000000000000000000000000000000000000000000000                                                                                                                           
SPHB000000256021994360000007965000                                                                                                                                                                                                                                                                                                                                                
SPDP04000000000010171332021081903DERA630403NT2       DERA630403NT2DENA DE LA ROSA ALEJANDRO HUMBERTO      900000000000796500000000000001207801554666338500000                                        9 00000044012001PAGO FONDO DE AHORRO SNTE 5 2020-2021 SNTE SECC5                                                              0000000000000000000000000ISP0000000009147      
SPDMSNTE5AHORRO@OUTLOOK.COM                                                                             00000000000000000120780155466633852021081940044DISP0000000009147                                                                                                                                                                                                          
SPTB000000100000000001017133000000000000000000000000000000000000000000000000000000000000000000000000000000000000000000000000000000000000000000000000000000100000000001017133000000000000000000000000000000000000000000000000000000000000000000000000000                                                                                                                           
SPHB000000256021994360000017212000                                                                                                                                                                                                                                                                                                                                                
SPDP04000000000002258102021081903MARM720217HX0       MARM720217HX0MARTINEZ RIVERA MARIO                   900000000001721200000000000007207800175961423000000                                        9 00000044072001PAGO FONDO DE AHORRO SNTE 5 2020-2021 SNTE SECC5                                                              0000000000000000000000000ISP0000000009148      
SPDMSNTE5AHORRO@OUTLOOK.COM                                                                             00000000000000000720780017596142302021081940044DISP0000000009148                                                                                                                                                                                                          
SPTB000000100000000000225810000000000000000000000000000000000000000000000000000000000000000000000000000000000000000000000000000000000000000000000000000000100000000000225810000000000000000000000000000000000000000000000000000000000000000000000000000                                                                                                                           
SPHB000000256021994360000021302000                                                                                                                                                                                                                                                                                                                                                
SPDP04000000000016721582021081903EILL911027AQA       EILL911027AQALIBIA MELISSA ESPINOZA LLANAS           900000000002130200000000000001207801489092277300000                                        9 00000044012001PAGO FONDO DE AHORRO SNTE 5 2020-2021 SNTE SECC5                                                              0000000000000000000000000ISP0000000009519      
SPDMSNTE5AHORRO@OUTLOOK.COM                                                                             00000000000000000120780148909227732021081940044DISP0000000009519                                                                                                                                                                                                          
SPTB000000100000000001672158000000000000000000000000000000000000000000000000000000000000000000000000000000000000000000000000000000000000000000000000000000100000000001672158000000000000000000000000000000000000000000000000000000000000000000000000000                                                                                                                           
SPHB000000256021994360000021697000                                                                                                                                                                                                                                                                                                                                                
SPDP04000000000012365482021081903HEAN8011045N0       HEAN8011045N0HERRERA ALARCON NIGHTINGALY             900000000002169700000000000000206090354765216600000                                        9 00000044002001PAGO FONDO DE AHORRO SNTE 5 2020-2021 SNTE SECC5                                                              0000000000000000000000000ISP0000000009520      
SPDMSNTE5AHORRO@OUTLOOK.COM                                                                             00000000000000000020609035476521662021081940044DISP0000000009520                                                                                                                                                                                                          
SPTB000000100000000001236548000000000000000000000000000000000000000000000000000000000000000000000000000000000000000000000000000000000000000000000000000000100000000001236548000000000000000000000000000000000000000000000000000000000000000000000000000                                                                                                                           
SPHB000000256021994360000011197000                                                                                                                                                                                                                                                                                                                                                
SPDP04000000000010326602021081903SACD9001312C7       SACD9001312C7SANCHEZ CHAVEZ DAISY MARGARITA          900000000001119700000000000001407856678642621100000                                        9 00000044014001PAGO FONDO DE AHORRO SNTE 5 2020-2021 SNTE SECC5                                                              0000000000000000000000000ISP0000000009521      
SPDMSNTE5AHORRO@OUTLOOK.COM                                                                             00000000000000000140785667864262112021081940044DISP0000000009521                                                                                                                                                                                                          
SPTB000000100000000001032660000000000000000000000000000000000000000000000000000000000000000000000000000000000000000000000000000000000000000000000000000000100000000001032660000000000000000000000000000000000000000000000000000000000000000000000000000                                                                                                                           
SPHB000000256021994360000021771000                                                                                                                                                                                                                                                                                                                                                
SPDP04000000000013112732021081903TOCR860521MK3       TOCR860521MK3TOVAR CERME#O REYES BENJAMIN            900000000002177100000000000001207501568409964900000                                        9 00000044012001PAGO FONDO DE AHORRO SNTE 5 2020-2021 SNTE SECC5                                                              0000000000000000000000000ISP0000000009522      
SPDMSNTE5AHORRO@OUTLOOK.COM                                                                             00000000000000000120750156840996492021081940044DISP0000000009522                                                                                                                                                                                                          
SPTB000000100000000001311273000000000000000000000000000000000000000000000000000000000000000000000000000000000000000000000000000000000000000000000000000000100000000001311273000000000000000000000000000000000000000000000000000000000000000000000000000                                                                                                                           
SPHB000000256021994360000021186000                                                                                                                                                                                                                                                                                                                                                
SPDP04000000000010163512021081903GORA760517NV9       GORA760517NV9ABIEZER GADIEL GOMEZ REYNA              900000000002118600000000000001407825002431481200000                                        9 00000044014001PAGO FONDO DE AHORRO SNTE 5 2020-2021 SNTE SECC5                                                              0000000000000000000000000ISP0000000009523      
SPDMSNTE5AHORRO@OUTLOOK.COM                                                                             00000000000000000140782500243148122021081940044DISP0000000009523                                                                                                                                                                                                          
SPTB000000100000000001016351000000000000000000000000000000000000000000000000000000000000000000000000000000000000000000000000000000000000000000000000000000100000000001016351000000000000000000000000000000000000000000000000000000000000000000000000000                                                                                                                           
SPHB000000256021994360000020915000                                                                                                                                                                                                                                                                                                                                                
SPDP04000000000012381722021081903BARM881223AL5       BARM881223AL5MONICA GUADALUPE BARRON RIVERA          900000000002091500000000000007219001079510690100000                                        9 00000044072001PAGO FONDO DE AHORRO SNTE 5 2020-2021 SNTE SECC5                                                              0000000000000000000000000ISP0000000009525      
SPDMSNTE5AHORRO@OUTLOOK.COM                                                                             00000000000000000721900107951069012021081940044DISP0000000009525                                                                                                                                                                                                          
SPTB000000100000000001238172000000000000000000000000000000000000000000000000000000000000000000000000000000000000000000000000000000000000000000000000000000100000000001238172000000000000000000000000000000000000000000000000000000000000000000000000000                                                                                                                           
SPHB000000256021994360000002587000                                                                                                                                                                                                                                                                                                                                                
SPDP04000000000000878462021081903LIMB9808151Q6       LIMB9808151Q6LIMON MORENO BIANCA                     900000000000258700000000000004406219401961659900000                                        9 00194044044001PAGO FONDO DE AHORRO SNTE 5 2020-2021 SNTE SECC5                                                              00000000000000000000000001535000000009526      
SPDMSNTE5AHORRO@OUTLOOK.COM                                                                             0000000000000000044062194019616599000020210819101535000000009526                                                                                                                                                                                                          
SPTB000000100000000000087846000000000000000000000000000000000000000000000000000000000000000000000000000000000000000000000000000000000000000000000000000000100000000000087846000000000000000000000000000000000000000000000000000000000000000000000000000                                                                                                                           
SPHB000000256021994360000021210000                                                                                                                                                                                                                                                                                                                                                
SPDP04000000000012959352021081903GAMA92112556A       GAMA92112556AANA LAURA GARZA MARTINEZ                900000000002121000000000000001406360618182315100000                                        9 00000044014001PAGO FONDO DE AHORRO SNTE 5 2020-2021 SNTE SECC5                                                              0000000000000000000000000ISP0000000009527      
SPDMSNTE5AHORRO@OUTLOOK.COM                                                                             00000000000000000140636061818231512021081940044DISP0000000009527                                                                                                                                                                                                          
SPTB000000100000000001295935000000000000000000000000000000000000000000000000000000000000000000000000000000000000000000000000000000000000000000000000000000100000000001295935000000000000000000000000000000000000000000000000000000000000000000000000000                                                                                                                           
SPHB000000256021994360000021572000                                                                                                                                                                                                                                                                                                                                                
SPDP04000000000011260672021081903CARD860719RM0       CARD860719RM0CHAVEZ ROBLES DIANA                     900000000002157200000000000000208090239910067200000                                        9 00000044002001PAGO FONDO DE AHORRO SNTE 5 2020-2021 SNTE SECC5                                                              0000000000000000000000000ISP0000000009528      
SPDMSNTE5AHORRO@OUTLOOK.COM                                                                             00000000000000000020809023991006722021081940044DISP0000000009528                                                                                                                                                                                                          
SPTB000000100000000001126067000000000000000000000000000000000000000000000000000000000000000000000000000000000000000000000000000000000000000000000000000000100000000001126067000000000000000000000000000000000000000000000000000000000000000000000000000                                                                                                                           
SPHB000000256021994360000008248000                                                                                                                                                                                                                                                                                                                                                
SPDP04000000000014083532021081903EACA900131RT8       EACA900131RT8ESTRADA CHAIRES ADRIANA BERENISE        900000000000824800000000000002107806417920760000000                                        9 00000044021001PAGO FONDO DE AHORRO SNTE 5 2020-2021 SNTE SECC5                                                              0000000000000000000000000ISP0000000009529      
SPDMSNTE5AHORRO@OUTLOOK.COM                                                                             00000000000000000210780641792076002021081940044DISP0000000009529                                                                                                                                                                                                          
SPTB000000100000000001408353000000000000000000000000000000000000000000000000000000000000000000000000000000000000000000000000000000000000000000000000000000100000000001408353000000000000000000000000000000000000000000000000000000000000000000000000000                                                                                                                           
SPHB000000256021994360000021067000                                                                                                                                                                                                                                                                                                                                                
SPDP04000000000019578282021081903EEGE990803419       EEGE990803419ELENA DEL ROCIO ESTRELLA GUTIERREZ      900000000002106700000000000001207401558179794800000                                        9 00000044012001PAGO FONDO DE AHORRO SNTE 5 2020-2021 SNTE SECC5                                                              0000000000000000000000000ISP0000000009530      
SPDMSNTE5AHORRO@OUTLOOK.COM                                                                             00000000000000000120740155817979482021081940044DISP0000000009530                                                                                                                                                                                                          
SPTB000000100000000001957828000000000000000000000000000000000000000000000000000000000000000000000000000000000000000000000000000000000000000000000000000000100000000001957828000000000000000000000000000000000000000000000000000000000000000000000000000                                                                                                                           
SPHB000000256021994360000020922000                                                                                                                                                                                                                                                                                                                                                
SPDP04000000000017270362021081903CAOS871106RY6       CAOS871106RY6SANDRA LILIA CARREON ORTIZ              900000000002092200000000000001206001511588842800000                                        9 00000044012001PAGO FONDO DE AHORRO SNTE 5 2020-2021 SNTE SECC5                                                              0000000000000000000000000ISP0000000009531      
SPDMSNTE5AHORRO@OUTLOOK.COM                                                                             00000000000000000120600151158884282021081940044DISP0000000009531                                                                                                                                                                                                          
SPTB000000100000000001727036000000000000000000000000000000000000000000000000000000000000000000000000000000000000000000000000000000000000000000000000000000100000000001727036000000000000000000000000000000000000000000000000000000000000000000000000000                                                                                                                           
SPHB000000256021994360000021044000                                                                                                                                                                                                                                                                                                                                                
SPDP04000000000007958262021081903VIGE881101G81       VIGE881101G81ELIDA ALEJANDRA VILLARREAL GARCIA       900000000002104400000000000001407856649200441900000                                        9 00000044014001PAGO FONDO DE AHORRO SNTE 5 2020-2021 SNTE SECC5                                                              0000000000000000000000000ISP0000000009532      
SPDMSNTE5AHORRO@OUTLOOK.COM                                                                             00000000000000000140785664920044192021081940044DISP0000000009532                                                                                                                                                                                                          
SPTB000000100000000000795826000000000000000000000000000000000000000000000000000000000000000000000000000000000000000000000000000000000000000000000000000000100000000000795826000000000000000000000000000000000000000000000000000000000000000000000000000                                                                                                                           
SPHB000000256021994360000020882000                                                                                                                                                                                                                                                                                                                                                
SPDP04000000000012414282021081903ROMJ6406148U6       ROMJ6406148U6JUAN ROBLEDO MACIAS                     900000000002088200000000000007258001141758942800000                                        9 00000044072001PAGO FONDO DE AHORRO SNTE 5 2020-2021 SNTE SECC5                                                              0000000000000000000000000ISP0000000009533      
SPDMSNTE5AHORRO@OUTLOOK.COM                                                                             00000000000000000725800114175894282021081940044DISP0000000009533                                                                                                                                                                                                          
SPTB000000100000000001241428000000000000000000000000000000000000000000000000000000000000000000000000000000000000000000000000000000000000000000000000000000100000000001241428000000000000000000000000000000000000000000000000000000000000000000000000000                                                                                                                           
SPHB000000256021994360000008744000                                                                                                                                                                                                                                                                                                                                                
SPDP04000000000021947172021081903MAML910109QI5       MAML910109QI5MANZANO MARTINEZ LIZBETH                900000000000874400000000000001206301559712405300000                                        9 00000044012001PAGO FONDO DE AHORRO SNTE 5 2020-2021 SNTE SECC5                                                              0000000000000000000000000ISP0000000009534      
SPDMSNTE5AHORRO@OUTLOOK.COM                                                                             00000000000000000120630155971240532021081940044DISP0000000009534                                                                                                                                                                                                          
SPTB000000100000000002194717000000000000000000000000000000000000000000000000000000000000000000000000000000000000000000000000000000000000000000000000000000100000000002194717000000000000000000000000000000000000000000000000000000000000000000000000000                                                                                                                           
SPHB000000256021994360000021739000                                                                                                                                                                                                                                                                                                                                                
SPDP04000000000003526082021081903GACE630415441       GACE630415441GARANZUAY CORONADO ELSA                 900000000002173900000000000004406818805021413500000                                        9 00188044044001PAGO FONDO DE AHORRO SNTE 5 2020-2021 SNTE SECC5                                                              00000000000000000000000001535000000009535      
SPDMSNTE5AHORRO@OUTLOOK.COM                                                                             0000000000000000044068188050214135000020210819101535000000009535                                                                                                                                                                                                          
SPTB000000100000000000352608000000000000000000000000000000000000000000000000000000000000000000000000000000000000000000000000000000000000000000000000000000100000000000352608000000000000000000000000000000000000000000000000000000000000000000000000000                                                                                                                           
SPHB000000256021994360000021272000                                                                                                                                                                                                                                                                                                                                                
SPDP04000000000010128922021081903CAHJ720719UH4       CAHJ720719UH4JUVENTINO CASTILLO HERNANDEZ            900000000002127200000000000001206201522325299900000                                        9 00000044012001PAGO FONDO DE AHORRO SNTE 5 2020-2021 SNTE SECC5                                                              0000000000000000000000000ISP0000000009536      
SPDMSNTE5AHORRO@OUTLOOK.COM                                                                             00000000000000000120620152232529992021081940044DISP0000000009536                                                                                                                                                                                                          
SPTB000000100000000001012892000000000000000000000000000000000000000000000000000000000000000000000000000000000000000000000000000000000000000000000000000000100000000001012892000000000000000000000000000000000000000000000000000000000000000000000000000                                                                                                                           
SPHB000000256021994360000020930000                                                                                                                                                                                                                                                                                                                                                
SPDP04000000000012597692021081903EULG8401023M6       EULG8401023M6GREGORIA ESQUIVEL LOPEZ                 900000000002093000000000000004407818702676478100000                                        9 00187044044001PAGO FONDO DE AHORRO SNTE 5 2020-2021 SNTE SECC5                                                              00000000000000000000000001535000000009537      
SPDMSNTE5AHORRO@OUTLOOK.COM                                                                             0000000000000000044078187026764781000020210819101535000000009537                                                                                                                                                                                                          
SPTB000000100000000001259769000000000000000000000000000000000000000000000000000000000000000000000000000000000000000000000000000000000000000000000000000000100000000001259769000000000000000000000000000000000000000000000000000000000000000000000000000                                                                                                                           
SPHB000000256021994360000021755000                                                                                                                                                                                                                                                                                                                                                
SPDP04000000000001785602021081903GARM6805171N3       GARM6805171N3GARCIA DEL RIO MARCELA                  900000000002175500000000000002107806493632024100000                                        9 00000044021001PAGO FONDO DE AHORRO SNTE 5 2020-2021 SNTE SECC5                                                              0000000000000000000000000ISP0000000009538      
SPDMSNTE5AHORRO@OUTLOOK.COM                                                                             00000000000000000210780649363202412021081940044DISP0000000009538                                                                                                                                                                                                          
SPTB000000100000000000178560000000000000000000000000000000000000000000000000000000000000000000000000000000000000000000000000000000000000000000000000000000100000000000178560000000000000000000000000000000000000000000000000000000000000000000000000000                                                                                                                           
SPHB000000256021994360000021682000                                                                                                                                                                                                                                                                                                                                                
SPDP04000000000007100952021081903PAGS9706045T0       PAGS9706045T0PADILLA GAONA SULEMA CITHLALLY          900000000002168200000000000001207801509605824600000                                        9 00000044012001PAGO FONDO DE AHORRO SNTE 5 2020-2021 SNTE SECC5                                                              0000000000000000000000000ISP0000000009539      
SPDMSNTE5AHORRO@OUTLOOK.COM                                                                             00000000000000000120780150960582462021081940044DISP0000000009539                                                                                                                                                                                                          
SPTB000000100000000000710095000000000000000000000000000000000000000000000000000000000000000000000000000000000000000000000000000000000000000000000000000000100000000000710095000000000000000000000000000000000000000000000000000000000000000000000000000                                                                                                                           
SPHB000000256021994360000021571000                                                                                                                                                                                                                                                                                                                                                
SPDP04000000000008253322021081903RERC9710115W5       RERC9710115W5REYES RESENDIZ CECILIA MONSERRAT        900000000002157100000000000001207801546265472400000                                        9 00000044012001PAGO FONDO DE AHORRO SNTE 5 2020-2021 SNTE SECC5                                                              0000000000000000000000000ISP0000000009540      
SPDMSNTE5AHORRO@OUTLOOK.COM                                                                             00000000000000000120780154626547242021081940044DISP0000000009540                                                                                                                                                                                                          
SPTB000000100000000000825332000000000000000000000000000000000000000000000000000000000000000000000000000000000000000000000000000000000000000000000000000000100000000000825332000000000000000000000000000000000000000000000000000000000000000000000000000                                                                                                                           
SPHB000000256021994360000021686000                                                                                                                                                                                                                                                                                                                                                
SPDP04000000000006485942021081903PESJ840401G47       PESJ840401G47PEREZ SANCHEZ JESIKA NOHEMI             900000000002168600000000000007207801029285210000000                                        9 00000044072001PAGO FONDO DE AHORRO SNTE 5 2020-2021 SNTE SECC5                                                              0000000000000000000000000ISP0000000009542      
SPDMSNTE5AHORRO@OUTLOOK.COM                                                                             00000000000000000720780102928521002021081940044DISP0000000009542                                                                                                                                                                                                          
SPTB000000100000000000648594000000000000000000000000000000000000000000000000000000000000000000000000000000000000000000000000000000000000000000000000000000100000000000648594000000000000000000000000000000000000000000000000000000000000000000000000000                                                                                                                           
SPHB000000256021994360000011872000                                                                                                                                                                                                                                                                                                                                                
SPDP04000000000013228032021081903SARG661024523       SARG661024523SANCHEZ RANGEL JOSE GUADALUPE           900000000001187200000000000004407818702710137200000                                        9 00187044044001PAGO FONDO DE AHORRO SNTE 5 2020-2021 SNTE SECC5                                                              00000000000000000000000001535000000009543      
SPDMSNTE5AHORRO@OUTLOOK.COM                                                                             0000000000000000044078187027101372000020210819101535000000009543                                                                                                                                                                                                          
SPTB000000100000000001322803000000000000000000000000000000000000000000000000000000000000000000000000000000000000000000000000000000000000000000000000000000100000000001322803000000000000000000000000000000000000000000000000000000000000000000000000000                                                                                                                           
SPHB000000256021994360000021710000                                                                                                                                                                                                                                                                                                                                                
SPDP04000000000002601302021081903FOAM990523PN1       FOAM990523PN1FLORES ALVARADO MIGUEL ALBERTO          900000000002171000000000000001218001560648310200000                                        9 00000044012001PAGO FONDO DE AHORRO SNTE 5 2020-2021 SNTE SECC5                                                              0000000000000000000000000ISP0000000009544      
SPDMSNTE5AHORRO@OUTLOOK.COM                                                                             00000000000000000121800156064831022021081940044DISP0000000009544                                                                                                                                                                                                          
SPTB000000100000000000260130000000000000000000000000000000000000000000000000000000000000000000000000000000000000000000000000000000000000000000000000000000100000000000260130000000000000000000000000000000000000000000000000000000000000000000000000000                                                                                                                           
SPHB000000256021994360000020931000                                                                                                                                                                                                                                                                                                                                                
SPDP04000000000016148082021081903FODD870511310       FODD870511310DANIEL ARMANDO FLORES DAVILA            900000000002093100000000000001218001512505688700000                                        9 00000044012001PAGO FONDO DE AHORRO SNTE 5 2020-2021 SNTE SECC5                                                              0000000000000000000000000ISP0000000009545      
SPDMSNTE5AHORRO@OUTLOOK.COM                                                                             00000000000000000121800151250568872021081940044DISP0000000009545                                                                                                                                                                                                          
SPTB000000100000000001614808000000000000000000000000000000000000000000000000000000000000000000000000000000000000000000000000000000000000000000000000000000100000000001614808000000000000000000000000000000000000000000000000000000000000000000000000000                                                                                                                           
SPHB000000256021994360000013886000                                                                                                                                                                                                                                                                                                                                                
SPDP04000000000017540812021081903GAVG890716753       GAVG890716753GARZA VALDES GEORGINA IVONNE            900000000001388600000000000004407818702656612500000                                        9 00187044044001PAGO FONDO DE AHORRO SNTE 5 2020-2021 SNTE SECC5                                                              00000000000000000000000001535000000009547      
SPDMSNTE5AHORRO@OUTLOOK.COM                                                                             0000000000000000044078187026566125000020210819101535000000009547                                                                                                                                                                                                          
SPTB000000100000000001754081000000000000000000000000000000000000000000000000000000000000000000000000000000000000000000000000000000000000000000000000000000100000000001754081000000000000000000000000000000000000000000000000000000000000000000000000000                                                                                                                           
SPHB000000256021994360000021286000                                                                                                                                                                                                                                                                                                                                                
SPDP04000000000016443692021081903RIRL900919PR0       RIRL900919PR0LAURA LIZETH RIVERA DE LOS REYES        900000000002128600000000000004406818805260078900000                                        9 00188044044001PAGO FONDO DE AHORRO SNTE 5 2020-2021 SNTE SECC5                                                              00000000000000000000000001535000000009548      
SPDMSNTE5AHORRO@OUTLOOK.COM                                                                             0000000000000000044068188052600789000020210819101535000000009548                                                                                                                                                                                                          
SPTB000000100000000001644369000000000000000000000000000000000000000000000000000000000000000000000000000000000000000000000000000000000000000000000000000000100000000001644369000000000000000000000000000000000000000000000000000000000000000000000000000                                                                                                                           
SPHB000000256021994360000020949000                                                                                                                                                                                                                                                                                                                                                
SPDP04000000000017833592021081903FOVJ660717A85       FOVJ660717A85JUAN JOSE FLORES VALADEZ                900000000002094900000000000001406856507600692500000                                        9 00000044014001PAGO FONDO DE AHORRO SNTE 5 2020-2021 SNTE SECC5                                                              0000000000000000000000000ISP0000000009549      
SPDMSNTE5AHORRO@OUTLOOK.COM                                                                             00000000000000000140685650760069252021081940044DISP0000000009549                                                                                                                                                                                                          
SPTB000000100000000001783359000000000000000000000000000000000000000000000000000000000000000000000000000000000000000000000000000000000000000000000000000000100000000001783359000000000000000000000000000000000000000000000000000000000000000000000000000                                                                                                                           
SPHB000000256021994360000021509000                                                                                                                                                                                                                                                                                                                                                
SPDP04000000000012963662021081903MOTM670224UV0       MOTM670224UV0MARCO ANTONIO MONSIVAIZ TOVAR           900000000002150900000000000007207800983195792700000                                        9 00000044072001PAGO FONDO DE AHORRO SNTE 5 2020-2021 SNTE SECC5                                                              0000000000000000000000000ISP0000000009550      
SPDMSNTE5AHORRO@OUTLOOK.COM                                                                             00000000000000000720780098319579272021081940044DISP0000000009550                                                                                                                                                                                                          
SPTB000000100000000001296366000000000000000000000000000000000000000000000000000000000000000000000000000000000000000000000000000000000000000000000000000000100000000001296366000000000000000000000000000000000000000000000000000000000000000000000000000                                                                                                                           
SPHB000000256021994360000021678000                                                                                                                                                                                                                                                                                                                                                
SPDP04000000000004899352021081903VAZN80091065A       VAZN80091065AVAZQUEZ ZU#IGA NIDIA CELINA             900000000002167800000000000001207902715255279600000                                        9 00000044012001PAGO FONDO DE AHORRO SNTE 5 2020-2021 SNTE SECC5                                                              0000000000000000000000000ISP0000000009551      
SPDMSNTE5AHORRO@OUTLOOK.COM                                                                             00000000000000000120790271525527962021081940044DISP0000000009551                                                                                                                                                                                                          
SPTB000000100000000000489935000000000000000000000000000000000000000000000000000000000000000000000000000000000000000000000000000000000000000000000000000000100000000000489935000000000000000000000000000000000000000000000000000000000000000000000000000                                                                                                                           
SPHB000000256021994360000018828000                                                                                                                                                                                                                                                                                                                                                
SPDP04000000000022586412021081903GUCS931027CM0       GUCS931027CM0GUTIERREZ CONTRERAS SHAIRA SAMANTHA     900000000001882800000000000001206002888028605400000                                        9 00000044012001PAGO FONDO DE AHORRO SNTE 5 2020-2021 SNTE SECC5                                                              0000000000000000000000000ISP0000000009552      
SPDMSNTE5AHORRO@OUTLOOK.COM                                                                             00000000000000000120600288802860542021081940044DISP0000000009552                                                                                                                                                                                                          
SPTB000000100000000002258641000000000000000000000000000000000000000000000000000000000000000000000000000000000000000000000000000000000000000000000000000000100000000002258641000000000000000000000000000000000000000000000000000000000000000000000000000                                                                                                                           
SPHB000000256021994360000021415000                                                                                                                                                                                                                                                                                                                                                
SPDP04000000000007571282021081903LASP001119JT1       LASP001119JT1PEDRO ALBERTO LAUREANO SALAZAR          900000000002141500000000000001218001590590111000000                                        9 00000044012001PAGO FONDO DE AHORRO SNTE 5 2020-2021 SNTE SECC5                                                              0000000000000000000000000ISP0000000009553      
SPDMSNTE5AHORRO@OUTLOOK.COM                                                                             00000000000000000121800159059011102021081940044DISP0000000009553                                                                                                                                                                                                          
SPTB000000100000000000757128000000000000000000000000000000000000000000000000000000000000000000000000000000000000000000000000000000000000000000000000000000100000000000757128000000000000000000000000000000000000000000000000000000000000000000000000000                                                                                                                           
SPHB000000256021994360000021585000                                                                                                                                                                                                                                                                                                                                                
SPDP04000000000002560012021081903RAMV890105FV6       RAMV890105FV6RAMOS MARTINEZ VERONICA DE JESUS        900000000002158500000000000007219001123549847900000                                        9 00000044072001PAGO FONDO DE AHORRO SNTE 5 2020-2021 SNTE SECC5                                                              0000000000000000000000000ISP0000000009554      
SPDMSNTE5AHORRO@OUTLOOK.COM                                                                             00000000000000000721900112354984792021081940044DISP0000000009554                                                                                                                                                                                                          
SPTB000000100000000000256001000000000000000000000000000000000000000000000000000000000000000000000000000000000000000000000000000000000000000000000000000000100000000000256001000000000000000000000000000000000000000000000000000000000000000000000000000                                                                                                                           
SPHB000000256021994360000089735000                                                                                                                                                                                                                                                                                                                                                
SPDP04000000000041547522021081903PESC670805Q73       PESC670805Q73PEREZ SAINZ MARIA CRISTINA              900000000008973500000000000007258001114242708800000                                        9 00000044072001PAGO FONDO DE AHORRO SNTE 5 2020-2021 SNTE SECC5                                                              0000000000000000000000000ISP0000000009555      
SPDMSNTE5AHORRO@OUTLOOK.COM                                                                             00000000000000000725800111424270882021081940044DISP0000000009555                                                                                                                                                                                                          
SPTB000000100000000004154752000000000000000000000000000000000000000000000000000000000000000000000000000000000000000000000000000000000000000000000000000000100000000004154752000000000000000000000000000000000000000000000000000000000000000000000000000                                                                                                                           
SPHB000000256021994360000021689000                                                                                                                                                                                                                                                                                                                                                
SPDP04000000000004225952021081903CATA7810254Y5       CATA7810254Y5CASAS TOBIAS JOSE ANTONIO               900000000002168900000000000004407825603538390300000                                        9 00187044044001PAGO FONDO DE AHORRO SNTE 5 2020-2021 SNTE SECC5                                                              00000000000000000000000001504000000045442      
SPDMSNTE5AHORRO@OUTLOOK.COM                                                                             0000000000000000044078256035383903000020210819151504000000045442                                                                                                                                                                                                          
SPTB000000100000000000422595000000000000000000000000000000000000000000000000000000000000000000000000000000000000000000000000000000000000000000000000000000100000000000422595000000000000000000000000000000000000000000000000000000000000000000000000000                                                                                                                           
SPHB000000256021994360000021334000                                                                                                                                                                                                                                                                                                                                                
SPDP04000000000005583582021081903RAAN981113LEA       RAAN981113LEANORMA CECILIA RANGEL ALDAY              900000000002133400000000000001207801562828637600000                                        9 00000044012001PAGO FONDO DE AHORRO SNTE 5 2020-2021 SNTE SECC5                                                              0000000000000000000000000ISP0000000045443      
SPDMSNTE5AHORRO@OUTLOOK.COM                                                                             00000000000000000120780156282863762021081940044DISP0000000045443                                                                                                                                                                                                          
SPTB000000100000000000558358000000000000000000000000000000000000000000000000000000000000000000000000000000000000000000000000000000000000000000000000000000100000000000558358000000000000000000000000000000000000000000000000000000000000000000000000000                                                                                                                           
SPHB000000256021994360000021759000                                                                                                                                                                                                                                                                                                                                                
SPDP04000000000001873922021081903EUAE940816IM8       EUAE940816IM8ESQUIVEL ALARCON JOSE EDGARDO           900000000002175900000000000007206801084423039700000                                        9 00000044072001PAGO FONDO DE AHORRO SNTE 5 2020-2021 SNTE SECC5                                                              0000000000000000000000000ISP0000000045444      
SPDMSNTE5AHORRO@OUTLOOK.COM                                                                             00000000000000000720680108442303972021081940044DISP0000000045444                                                                                                                                                                                                          
