SPHA0932601202207082022070820220708000                                                                                                                                                                                                                                                                                                                                            
SPHB000000256021994360000006457000                                                                                                                                                                                                                                                                                                                                                
SPDP04000000000023894572022070803AAGM660604886       AAGM660604886ALVARADO GAMEZ MARICELA                 900000000000645700000000000000207890474492981600000                                        9 00000044002001PAGO FONDO DE AHORRO SNTE 5 2021-2022 SNTE SECC5                                                              0000000000000000000000000ISP0000000007775      
SPDMSNTE5AHORRO@OUTLOOK.COM                                                                             00000000000000000020789047449298162022070840044DISP0000000007775                                                                                                                                                                                                          
SPTB000000100000000002389457000000000000000000000000000000000000000000000000000000000000000000000000000000000000000000000000000000000000000000000000000000100000000002389457000000000000000000000000000000000000000000000000000000000000000000000000000                                                                                                                           
SPHB000000256021994360000001038000                                                                                                                                                                                                                                                                                                                                                
SPDP04000000000004586952022070803CARL6206057L7       CARL6206057L7CASTILLO ROMERO JOSE LUIS               900000000000103800000000000000207870051168486300000                                        9 00000044002001PAGO FONDO DE AHORRO SNTE 5 2021-2022 SNTE SECC5                                                              0000000000000000000000000ISP0000000007776      
SPDMSNTE5AHORRO@OUTLOOK.COM                                                                             00000000000000000020787005116848632022070840044DISP0000000007776                                                                                                                                                                                                          
SPTB000000100000000000458695000000000000000000000000000000000000000000000000000000000000000000000000000000000000000000000000000000000000000000000000000000100000000000458695000000000000000000000000000000000000000000000000000000000000000000000000000                                                                                                                           
SPHB000000256021994360000004415000                                                                                                                                                                                                                                                                                                                                                
SPDP04000000000000590312022070803EICJ570712T96       EICJ570712T96EXIGA CARRETERO JUAN ANTONIO            900000000000441500000000000001407556663875735800000                                        9 00000044014001PAGO FONDO DE AHORRO SNTE 5 2021-2022 SNTE SECC5                                                              0000000000000000000000000ISP0000000007777      
SPDMSNTE5AHORRO@OUTLOOK.COM                                                                             00000000000000000140755666387573582022070840044DISP0000000007777                                                                                                                                                                                                          
SPTB000000100000000000059031000000000000000000000000000000000000000000000000000000000000000000000000000000000000000000000000000000000000000000000000000000100000000000059031000000000000000000000000000000000000000000000000000000000000000000000000000                                                                                                                           
SPHB000000256021994360000019162000                                                                                                                                                                                                                                                                                                                                                
SPDP04000000000038623312022070803GARR630910BR2       GARR630910BR2GARCIA RODRIGUEZ MARIA DEL ROSARIO      900000000001916200000000000004407818701448595900000                                        9 00187044044001PAGO FONDO DE AHORRO SNTE 5 2021-2022 SNTE SECC5                                                              00000000000000000000000004510000000007778      
SPDMSNTE5AHORRO@OUTLOOK.COM                                                                             0000000000000000044078187014485959000020220708104510000000007778                                                                                                                                                                                                          
SPTB000000100000000003862331000000000000000000000000000000000000000000000000000000000000000000000000000000000000000000000000000000000000000000000000000000100000000003862331000000000000000000000000000000000000000000000000000000000000000000000000000                                                                                                                           
SPHB000000256021994360000000630000                                                                                                                                                                                                                                                                                                                                                
SPDP04000000000029132472022070803GOBH641221FU9       GOBH641221FU9GONZALEZ BAENA HORTENSIA                900000000000063000000000000001407856513090299700000                                        9 00000044014001PAGO FONDO DE AHORRO SNTE 5 2021-2022 SNTE SECC5                                                              0000000000000000000000000ISP0000000007779      
SPDMSNTE5AHORRO@OUTLOOK.COM                                                                             00000000000000000140785651309029972022070840044DISP0000000007779                                                                                                                                                                                                          
SPTB000000100000000002913247000000000000000000000000000000000000000000000000000000000000000000000000000000000000000000000000000000000000000000000000000000100000000002913247000000000000000000000000000000000000000000000000000000000000000000000000000                                                                                                                           
SPHB000000256021994360000014108000                                                                                                                                                                                                                                                                                                                                                
SPDP04000000000007464752022070803HEVS600428QL2       HEVS600428QL2HERNANDEZ VALLES SILVIA                 900000000001410800000000000007207800603788909600000                                        9 00000044072001PAGO FONDO DE AHORRO SNTE 5 2021-2022 SNTE SECC5                                                              0000000000000000000000000ISP0000000007780      
SPDMSNTE5AHORRO@OUTLOOK.COM                                                                             00000000000000000720780060378890962022070840044DISP0000000007780                                                                                                                                                                                                          
SPTB000000100000000000746475000000000000000000000000000000000000000000000000000000000000000000000000000000000000000000000000000000000000000000000000000000100000000000746475000000000000000000000000000000000000000000000000000000000000000000000000000                                                                                                                           
SPHB000000256021994360000002547000                                                                                                                                                                                                                                                                                                                                                
SPDP04000000000030156832022070803JUEE610101412       JUEE610101412JUAREZ ESPINOSA EDUARDO JESUS           900000000000254700000000000001407856507915332800000                                        9 00000044014001PAGO FONDO DE AHORRO SNTE 5 2021-2022 SNTE SECC5                                                              0000000000000000000000000ISP0000000007781      
SPDMSNTE5AHORRO@OUTLOOK.COM                                                                             00000000000000000140785650791533282022070840044DISP0000000007781                                                                                                                                                                                                          
SPTB000000100000000003015683000000000000000000000000000000000000000000000000000000000000000000000000000000000000000000000000000000000000000000000000000000100000000003015683000000000000000000000000000000000000000000000000000000000000000000000000000                                                                                                                           
SPHB000000256021994360000006113000                                                                                                                                                                                                                                                                                                                                                
SPDP04000000000005587872022070803MOSM660904ISA       MOSM660904ISAMORENO SANCHEZ MARIO                    900000000000611300000000000007207500511722138700000                                        9 00000044072001PAGO FONDO DE AHORRO SNTE 5 2021-2022 SNTE SECC5                                                              0000000000000000000000000ISP0000000007782      
SPDMSNTE5AHORRO@OUTLOOK.COM                                                                             00000000000000000720750051172213872022070840044DISP0000000007782                                                                                                                                                                                                          
SPTB000000100000000000558787000000000000000000000000000000000000000000000000000000000000000000000000000000000000000000000000000000000000000000000000000000100000000000558787000000000000000000000000000000000000000000000000000000000000000000000000000                                                                                                                           
SPHB000000256021994360000009906000                                                                                                                                                                                                                                                                                                                                                
SPDP04000000000001579342022070803OILS651009868       OILS651009868ORTIZ LOPEZ SALVADOR                    900000000000990600000000000000207890242864459000000                                        9 00000044002001PAGO FONDO DE AHORRO SNTE 5 2021-2022 SNTE SECC5                                                              0000000000000000000000000ISP0000000007783      
SPDMSNTE5AHORRO@OUTLOOK.COM                                                                             00000000000000000020789024286445902022070840044DISP0000000007783                                                                                                                                                                                                          
SPTB000000100000000000157934000000000000000000000000000000000000000000000000000000000000000000000000000000000000000000000000000000000000000000000000000000100000000000157934000000000000000000000000000000000000000000000000000000000000000000000000000                                                                                                                           
SPHB000000256021994360000015281000                                                                                                                                                                                                                                                                                                                                                
SPDP04000000000022109652022070803ROAS671103HK8       ROAS671103HK8RODRIGUEZ ALONSO SILVIA OFELIA          900000000001528100000000000001218001589456267300000                                        9 00000044012001PAGO FONDO DE AHORRO SNTE 5 2021-2022 SNTE SECC5                                                              0000000000000000000000000ISP0000000007785      
SPDMSNTE5AHORRO@OUTLOOK.COM                                                                             00000000000000000121800158945626732022070840044DISP0000000007785                                                                                                                                                                                                          
SPTB000000100000000002210965000000000000000000000000000000000000000000000000000000000000000000000000000000000000000000000000000000000000000000000000000000100000000002210965000000000000000000000000000000000000000000000000000000000000000000000000000                                                                                                                           
SPHB000000256021994360000011269000                                                                                                                                                                                                                                                                                                                                                
SPDP04000000000007043612022070803SADA660526SM8       SADA660526SM8SANCHEZ DAVILA ANA JULIA                900000000001126900000000000001207801244954807600000                                        9 00000044012001PAGO FONDO DE AHORRO SNTE 5 2021-2022 SNTE SECC5                                                              0000000000000000000000000ISP0000000007786      
SPDMSNTE5AHORRO@OUTLOOK.COM                                                                             00000000000000000120780124495480762022070840044DISP0000000007786                                                                                                                                                                                                          
SPTB000000100000000000704361000000000000000000000000000000000000000000000000000000000000000000000000000000000000000000000000000000000000000000000000000000100000000000704361000000000000000000000000000000000000000000000000000000000000000000000000000                                                                                                                           
SPHB000000256021994360000011890000                                                                                                                                                                                                                                                                                                                                                
SPDP04000000000012021512022070803SARL720520GZ0       SARL720520GZ0SANCHEZ RODRIGUEZ LUIS LAURO            900000000001189000000000000001207801549705705300000                                        9 00000044012001PAGO FONDO DE AHORRO SNTE 5 2021-2022 SNTE SECC5                                                              0000000000000000000000000ISP0000000007787      
SPDMSNTE5AHORRO@OUTLOOK.COM                                                                             00000000000000000120780154970570532022070840044DISP0000000007787                                                                                                                                                                                                          
SPTB000000100000000001202151000000000000000000000000000000000000000000000000000000000000000000000000000000000000000000000000000000000000000000000000000000100000000001202151000000000000000000000000000000000000000000000000000000000000000000000000000                                                                                                                           
SPHB000000256021994360000005156000                                                                                                                                                                                                                                                                                                                                                
SPDP04000000000040090032022070803TOVL510819CM0       TOVL510819CM0TORRES VILLEGAS LUIS JESUS              900000000000515600000000000001406860505799156600000                                        9 00000044014001PAGO FONDO DE AHORRO SNTE 5 2021-2022 SNTE SECC5                                                              0000000000000000000000000ISP0000000007788      
SPDMSNTE5AHORRO@OUTLOOK.COM                                                                             00000000000000000140686050579915662022070840044DISP0000000007788                                                                                                                                                                                                          
SPTB000000100000000004009003000000000000000000000000000000000000000000000000000000000000000000000000000000000000000000000000000000000000000000000000000000100000000004009003000000000000000000000000000000000000000000000000000000000000000000000000000                                                                                                                           
SPTA000001300000000022288120000000000000000000000000000000000000000000000000000000000000000000000000000000000000000000000000000000000000000000000000000001300000000022288120000000000000000000000000000000000000000000000000000000000000000000000000000000                                                                                                                        
