SPHA0932601202206172022061720220617000                                                                                                                                                                                                                                                                                                                                            
SPHB000000256021994360000006571000                                                                                                                                                                                                                                                                                                                                                
SPDP04000000000011367292022061603AAMJ610916MGA       AAMJ610916MGAALVAREZ MU#OZ JACINTO                   900000000000657100000000000007207800564878170400000                                        9 00000044072001PAGO FONDO DE AHORRO SNTE 5 2021-2022 SNTE SECC5                                                              0000000000000000000000000ISP0000000045124      
SPDMSNTE5AHORRO@OUTLOOK.COM                                                                             00000000000000000720780056487817042022061640044DISP0000000045124                                                                                                                                                                                                          
SPTB000000100000000001136729000000000000000000000000000000000000000000000000000000000000000000000000000000000000000000000000000000000000000000000000000000100000000001136729000000000000000000000000000000000000000000000000000000000000000000000000000                                                                                                                           
SPHB000000256021994360000000023000                                                                                                                                                                                                                                                                                                                                                
SPDP04000000000019429702022061603AARS620702GW7       AARS620702GW7ALFARO REYES SARA SONIA                 900000000000002300000000000007206800219653060100000                                        9 00000044072001PAGO FONDO DE AHORRO SNTE 5 2021-2022 SNTE SECC5                                                              0000000000000000000000000ISP0000000045125      
SPDMSNTE5AHORRO@OUTLOOK.COM                                                                             00000000000000000720680021965306012022061640044DISP0000000045125                                                                                                                                                                                                          
SPTB000000100000000001942970000000000000000000000000000000000000000000000000000000000000000000000000000000000000000000000000000000000000000000000000000000100000000001942970000000000000000000000000000000000000000000000000000000000000000000000000000                                                                                                                           
SPHB000000256021994360000000130000                                                                                                                                                                                                                                                                                                                                                
SPDP04000000000019429702022061603AEAI610424KH9       AEAI610424KH9ALMENDARIZ AYALA IRASEMA BELINDA        900000000000013000000000000007207800512812072000000                                        9 00000044072001PAGO FONDO DE AHORRO SNTE 5 2021-2022 SNTE SECC5                                                              0000000000000000000000000ISP0000000045126      
SPDMSNTE5AHORRO@OUTLOOK.COM                                                                             00000000000000000720780051281207202022061640044DISP0000000045126                                                                                                                                                                                                          
SPTB000000100000000001942970000000000000000000000000000000000000000000000000000000000000000000000000000000000000000000000000000000000000000000000000000000100000000001942970000000000000000000000000000000000000000000000000000000000000000000000000000                                                                                                                           
SPHB000000256021994360000000445000                                                                                                                                                                                                                                                                                                                                                
SPDP04000000000005152712022061603AOAC670119HY8       AOAC670119HY8ACOSTA AUCES CLAUDIA PATRICIA           900000000000044500000000000001207001592628284700000                                        9 00000044012001PAGO FONDO DE AHORRO SNTE 5 2021-2022 SNTE SECC5                                                              0000000000000000000000000ISP0000000045127      
SPDMSNTE5AHORRO@OUTLOOK.COM                                                                             00000000000000000120700159262828472022061640044DISP0000000045127                                                                                                                                                                                                          
SPTB000000100000000000515271000000000000000000000000000000000000000000000000000000000000000000000000000000000000000000000000000000000000000000000000000000100000000000515271000000000000000000000000000000000000000000000000000000000000000000000000000                                                                                                                           
SPHB000000256021994360000004161000                                                                                                                                                                                                                                                                                                                                                
SPDP04000000000008953592022061603AUVC680317176       AUVC680317176AGUILAR VALLE MARIA DEL CARMEN          900000000000416100000000000001207801585407709000000                                        9 00000044012001PAGO FONDO DE AHORRO SNTE 5 2021-2022 SNTE SECC5                                                              0000000000000000000000000ISP0000000045128      
SPDMSNTE5AHORRO@OUTLOOK.COM                                                                             00000000000000000120780158540770902022061640044DISP0000000045128                                                                                                                                                                                                          
SPTB000000100000000000895359000000000000000000000000000000000000000000000000000000000000000000000000000000000000000000000000000000000000000000000000000000100000000000895359000000000000000000000000000000000000000000000000000000000000000000000000000                                                                                                                           
SPHB000000256021994360000021767000                                                                                                                                                                                                                                                                                                                                                
SPDP04000000000013038522022061603CACM6702287W1       CACM6702287W1CANTU CHAVEZ MARISELA                   900000000002176700000000000001407556785284528100000                                        9 00000044014001PAGO FONDO DE AHORRO SNTE 5 2021-2022 SNTE SECC5                                                              0000000000000000000000000ISP0000000045129      
SPDMSNTE5AHORRO@OUTLOOK.COM                                                                             00000000000000000140755678528452812022061640044DISP0000000045129                                                                                                                                                                                                          
SPTB000000100000000001303852000000000000000000000000000000000000000000000000000000000000000000000000000000000000000000000000000000000000000000000000000000100000000001303852000000000000000000000000000000000000000000000000000000000000000000000000000                                                                                                                           
SPHB000000256021994360000001205000                                                                                                                                                                                                                                                                                                                                                
SPDP04000000000019429702022061603CAVB670728879       CAVB670728879CASTRO VILLARREAL BLANCA IMELDA         900000000000120500000000000001207901430156752900000                                        9 00000044012001PAGO FONDO DE AHORRO SNTE 5 2021-2022 SNTE SECC5                                                              0000000000000000000000000ISP0000000045130      
SPDMSNTE5AHORRO@OUTLOOK.COM                                                                             00000000000000000120790143015675292022061640044DISP0000000045130                                                                                                                                                                                                          
SPTB000000100000000001942970000000000000000000000000000000000000000000000000000000000000000000000000000000000000000000000000000000000000000000000000000000100000000001942970000000000000000000000000000000000000000000000000000000000000000000000000000                                                                                                                           
SPHB000000256021994360000003471000                                                                                                                                                                                                                                                                                                                                                
SPDP04000000000024469982022061603CEMG670728527       CEMG670728527CERDA MONTES GLORIA IRMA                900000000000347100000000000001407856507581077500000                                        9 00000044014001PAGO FONDO DE AHORRO SNTE 5 2021-2022 SNTE SECC5                                                              0000000000000000000000000ISP0000000045131      
SPDMSNTE5AHORRO@OUTLOOK.COM                                                                             00000000000000000140785650758107752022061640044DISP0000000045131                                                                                                                                                                                                          
SPTB000000100000000002446998000000000000000000000000000000000000000000000000000000000000000000000000000000000000000000000000000000000000000000000000000000100000000002446998000000000000000000000000000000000000000000000000000000000000000000000000000                                                                                                                           
SPHB000000256021994360000014674000                                                                                                                                                                                                                                                                                                                                                
SPDP04000000000011762202022061603CUAS6212118E0       CUAS6212118E0DE LA CRUZ ARZOLA SANDRA GUADALUPE      900000000001467400000000000001207001511295093800000                                        9 00000044012001PAGO FONDO DE AHORRO SNTE 5 2021-2022 SNTE SECC5                                                              0000000000000000000000000ISP0000000045132      
SPDMSNTE5AHORRO@OUTLOOK.COM                                                                             00000000000000000120700151129509382022061640044DISP0000000045132                                                                                                                                                                                                          
SPTB000000100000000001176220000000000000000000000000000000000000000000000000000000000000000000000000000000000000000000000000000000000000000000000000000000100000000001176220000000000000000000000000000000000000000000000000000000000000000000000000000                                                                                                                           
SPHB000000256021994360000007890000                                                                                                                                                                                                                                                                                                                                                
SPDP04000000000028300432022061603DAVR670908P8A       DAVR670908P8ADAVALOS VILLASANA ROSA IDALIA           900000000000789000000000000001206801259854193400000                                        9 00000044012001PAGO FONDO DE AHORRO SNTE 5 2021-2022 SNTE SECC5                                                              0000000000000000000000000ISP0000000045133      
SPDMSNTE5AHORRO@OUTLOOK.COM                                                                             00000000000000000120680125985419342022061640044DISP0000000045133                                                                                                                                                                                                          
SPTB000000100000000002830043000000000000000000000000000000000000000000000000000000000000000000000000000000000000000000000000000000000000000000000000000000100000000002830043000000000000000000000000000000000000000000000000000000000000000000000000000                                                                                                                           
SPHB000000256021994360000008209000                                                                                                                                                                                                                                                                                                                                                
SPDP04000000000005078332022061603DUMJ651209RA6       DUMJ651209RA6DURAN MANDUJANO JESUS                   900000000000820900000000000001407856555937952500000                                        9 00000044014001PAGO FONDO DE AHORRO SNTE 5 2021-2022 SNTE SECC5                                                              0000000000000000000000000ISP0000000045134      
SPDMSNTE5AHORRO@OUTLOOK.COM                                                                             00000000000000000140785655593795252022061640044DISP0000000045134                                                                                                                                                                                                          
SPTB000000100000000000507833000000000000000000000000000000000000000000000000000000000000000000000000000000000000000000000000000000000000000000000000000000100000000000507833000000000000000000000000000000000000000000000000000000000000000000000000000                                                                                                                           
SPHB000000256021994360000004365000                                                                                                                                                                                                                                                                                                                                                
SPDP04000000000003829662022061603EAVC651201GV9       EAVC651201GV9ESPARZA VENEGAS CASIANO                 900000000000436500000000000001242001589608785800000                                        9 00000044012001PAGO FONDO DE AHORRO SNTE 5 2021-2022 SNTE SECC5                                                              0000000000000000000000000ISP0000000045135      
SPDMSNTE5AHORRO@OUTLOOK.COM                                                                             00000000000000000124200158960878582022061640044DISP0000000045135                                                                                                                                                                                                          
SPTB000000100000000000382966000000000000000000000000000000000000000000000000000000000000000000000000000000000000000000000000000000000000000000000000000000100000000000382966000000000000000000000000000000000000000000000000000000000000000000000000000                                                                                                                           
SPHB000000256021994360000004458000                                                                                                                                                                                                                                                                                                                                                
SPDP04000000000036224342022061603EIIM670705RF9       EIIM670705RF9ESPINOZA IBARRA MA ANTONIETA            900000000000445800000000000001206801439935479700000                                        9 00000044012001PAGO FONDO DE AHORRO SNTE 5 2021-2022 SNTE SECC5                                                              0000000000000000000000000ISP0000000045136      
SPDMSNTE5AHORRO@OUTLOOK.COM                                                                             00000000000000000120680143993547972022061640044DISP0000000045136                                                                                                                                                                                                          
SPTB000000100000000003622434000000000000000000000000000000000000000000000000000000000000000000000000000000000000000000000000000000000000000000000000000000100000000003622434000000000000000000000000000000000000000000000000000000000000000000000000000                                                                                                                           
SPHB000000256021994360000011948000                                                                                                                                                                                                                                                                                                                                                
SPDP04000000000022109632022061603EULP670718KX2       EULP670718KX2ESQUIVEL LUNA PATRICIA ELIZABETH        900000000001194800000000000007207800983670563700000                                        9 00000044072001PAGO FONDO DE AHORRO SNTE 5 2021-2022 SNTE SECC5                                                              0000000000000000000000000ISP0000000045137      
SPDMSNTE5AHORRO@OUTLOOK.COM                                                                             00000000000000000720780098367056372022061640044DISP0000000045137                                                                                                                                                                                                          
SPTB000000100000000002210963000000000000000000000000000000000000000000000000000000000000000000000000000000000000000000000000000000000000000000000000000000100000000002210963000000000000000000000000000000000000000000000000000000000000000000000000000                                                                                                                           
SPHB000000256021994360000012011000                                                                                                                                                                                                                                                                                                                                                
SPDP04000000000019705972022061603FABC670413AW0       FABC670413AW0FARIAS BARAJAS CLAUDIA                  900000000001201100000000000007207800323251789400000                                        9 00000044072001PAGO FONDO DE AHORRO SNTE 5 2021-2022 SNTE SECC5                                                              0000000000000000000000000ISP0000000045138      
SPDMSNTE5AHORRO@OUTLOOK.COM                                                                             00000000000000000720780032325178942022061640044DISP0000000045138                                                                                                                                                                                                          
SPTB000000100000000001970597000000000000000000000000000000000000000000000000000000000000000000000000000000000000000000000000000000000000000000000000000000100000000001970597000000000000000000000000000000000000000000000000000000000000000000000000000                                                                                                                           
SPHB000000256021994360000000496000                                                                                                                                                                                                                                                                                                                                                
SPDP04000000000028479792022061603FAIL671223P13       FAIL671223P13FARIAS IZQUIERDO LINDA GUADALUPE        900000000000049600000000000001207801590369281800000                                        9 00000044012001PAGO FONDO DE AHORRO SNTE 5 2021-2022 SNTE SECC5                                                              0000000000000000000000000ISP0000000045139      
SPDMSNTE5AHORRO@OUTLOOK.COM                                                                             00000000000000000120780159036928182022061640044DISP0000000045139                                                                                                                                                                                                          
SPTB000000100000000002847979000000000000000000000000000000000000000000000000000000000000000000000000000000000000000000000000000000000000000000000000000000100000000002847979000000000000000000000000000000000000000000000000000000000000000000000000000                                                                                                                           
SPHB000000256021994360000000506000                                                                                                                                                                                                                                                                                                                                                
SPDP04000000000028300432022061603FALM670228LP0       FALM670228LP0FALCON LOPEZ MIREYA NOHEMI              900000000000050600000000000001207901409222898600000                                        9 00000044012001PAGO FONDO DE AHORRO SNTE 5 2021-2022 SNTE SECC5                                                              0000000000000000000000000ISP0000000045140      
SPDMSNTE5AHORRO@OUTLOOK.COM                                                                             00000000000000000120790140922289862022061640044DISP0000000045140                                                                                                                                                                                                          
SPTB000000100000000002830043000000000000000000000000000000000000000000000000000000000000000000000000000000000000000000000000000000000000000000000000000000100000000002830043000000000000000000000000000000000000000000000000000000000000000000000000000                                                                                                                           
SPHB000000256021994360000013121000                                                                                                                                                                                                                                                                                                                                                
SPDP04000000000019429702022061603FOCR670911N65       FOCR670911N65FLORES CANTU MA DEL ROCIO               900000000001312100000000000004406818804716876000000                                        9 00188044044001PAGO FONDO DE AHORRO SNTE 5 2021-2022 SNTE SECC5                                                              00000000000000000000000001505000000045141      
SPDMSNTE5AHORRO@OUTLOOK.COM                                                                             0000000000000000044068188047168760000020220616151505000000045141                                                                                                                                                                                                          
SPTB000000100000000001942970000000000000000000000000000000000000000000000000000000000000000000000000000000000000000000000000000000000000000000000000000000100000000001942970000000000000000000000000000000000000000000000000000000000000000000000000000                                                                                                                           
SPHB000000256021994360000013277000                                                                                                                                                                                                                                                                                                                                                
SPDP04000000000005897952022061603FOMJ4907056X5       FOMJ4907056X5FLORES MARTINEZ JUAN JOSE               900000000001327700000000000001206802931050346000000                                        9 00000044012001PAGO FONDO DE AHORRO SNTE 5 2021-2022 SNTE SECC5                                                              0000000000000000000000000ISP0000000045142      
SPDMSNTE5AHORRO@OUTLOOK.COM                                                                             00000000000000000120680293105034602022061640044DISP0000000045142                                                                                                                                                                                                          
SPTB000000100000000000589795000000000000000000000000000000000000000000000000000000000000000000000000000000000000000000000000000000000000000000000000000000100000000000589795000000000000000000000000000000000000000000000000000000000000000000000000000                                                                                                                           
SPHB000000256021994360000013293000                                                                                                                                                                                                                                                                                                                                                
SPDP04000000000028461872022061603FOMR6711201Z7       FOMR6711201Z7FLORES MEDELLIN REBECA ELIZABETH        900000000001329300000000000001406860623852519000000                                        9 00000044014001PAGO FONDO DE AHORRO SNTE 5 2021-2022 SNTE SECC5                                                              0000000000000000000000000ISP0000000045143      
SPDMSNTE5AHORRO@OUTLOOK.COM                                                                             00000000000000000140686062385251902022061640044DISP0000000045143                                                                                                                                                                                                          
SPTB000000100000000002846187000000000000000000000000000000000000000000000000000000000000000000000000000000000000000000000000000000000000000000000000000000100000000002846187000000000000000000000000000000000000000000000000000000000000000000000000000                                                                                                                           
SPHB000000256021994360000002064000                                                                                                                                                                                                                                                                                                                                                
SPDP04000000000005593202022061603FUGO590505DA2       FUGO590505DA2FUENTES GALINDO OSBALDO                 900000000000206400000000000001407860610963278800000                                        9 00000044014001PAGO FONDO DE AHORRO SNTE 5 2021-2022 SNTE SECC5                                                              0000000000000000000000000ISP0000000045144      
SPDMSNTE5AHORRO@OUTLOOK.COM                                                                             00000000000000000140786061096327882022061640044DISP0000000045144                                                                                                                                                                                                          
SPTB000000100000000000559320000000000000000000000000000000000000000000000000000000000000000000000000000000000000000000000000000000000000000000000000000000100000000000559320000000000000000000000000000000000000000000000000000000000000000000000000000                                                                                                                           
SPHB000000256021994360000002132000                                                                                                                                                                                                                                                                                                                                                
SPDP04000000000023062702022061603GAAA6704299K7       GAAA6704299K7GARCIA ARREOLA ALMA DELIA               900000000000213200000000000007207800442986126800000                                        9 00000044072001PAGO FONDO DE AHORRO SNTE 5 2021-2022 SNTE SECC5                                                              0000000000000000000000000ISP0000000045145      
SPDMSNTE5AHORRO@OUTLOOK.COM                                                                             00000000000000000720780044298612682022061640044DISP0000000045145                                                                                                                                                                                                          
SPTB000000100000000002306270000000000000000000000000000000000000000000000000000000000000000000000000000000000000000000000000000000000000000000000000000000100000000002306270000000000000000000000000000000000000000000000000000000000000000000000000000                                                                                                                           
SPHB000000256021994360000002248000                                                                                                                                                                                                                                                                                                                                                
SPDP04000000000017471842022061603GACB670614LL5       GACB670614LL5GARCIA CADENA BELMA IVONETT             900000000000224800000000000007207800787399401800000                                        9 00000044072001PAGO FONDO DE AHORRO SNTE 5 2021-2022 SNTE SECC5                                                              0000000000000000000000000ISP0000000045146      
SPDMSNTE5AHORRO@OUTLOOK.COM                                                                             00000000000000000720780078739940182022061640044DISP0000000045146                                                                                                                                                                                                          
SPTB000000100000000001747184000000000000000000000000000000000000000000000000000000000000000000000000000000000000000000000000000000000000000000000000000000100000000001747184000000000000000000000000000000000000000000000000000000000000000000000000000                                                                                                                           
SPHB000000256021994360000001358000                                                                                                                                                                                                                                                                                                                                                
SPDP04000000000006992152022061603GAMM550809TFA       GAMM550809TFAGARCIA MUJICA MARILU                    900000000000135800000000000001407856673056443300000                                        9 00000044014001PAGO FONDO DE AHORRO SNTE 5 2021-2022 SNTE SECC5                                                              0000000000000000000000000ISP0000000045147      
SPDMSNTE5AHORRO@OUTLOOK.COM                                                                             00000000000000000140785667305644332022061640044DISP0000000045147                                                                                                                                                                                                          
SPTB000000100000000000699215000000000000000000000000000000000000000000000000000000000000000000000000000000000000000000000000000000000000000000000000000000100000000000699215000000000000000000000000000000000000000000000000000000000000000000000000000                                                                                                                           
SPHB000000256021994360000001425000                                                                                                                                                                                                                                                                                                                                                
SPDP04000000000019429702022061603GAOF6708201W0       GAOF6708201W0GARZA ORONA MA FELICITAS                900000000000142500000000000004406818804709608100000                                        9 00188044044001PAGO FONDO DE AHORRO SNTE 5 2021-2022 SNTE SECC5                                                              00000000000000000000000001505000000045148      
SPDMSNTE5AHORRO@OUTLOOK.COM                                                                             0000000000000000044068188047096081000020220616151505000000045148                                                                                                                                                                                                          
SPTB000000100000000001942970000000000000000000000000000000000000000000000000000000000000000000000000000000000000000000000000000000000000000000000000000000100000000001942970000000000000000000000000000000000000000000000000000000000000000000000000000                                                                                                                           
SPHB000000256021994360000013904000                                                                                                                                                                                                                                                                                                                                                
SPDP04000000000033785452022061603GAVM621022Q37       GAVM621022Q37GARAY VIELMA MARTHA ELVIA               900000000001390400000000000001206801499507507200000                                        9 00000044012001PAGO FONDO DE AHORRO SNTE 5 2021-2022 SNTE SECC5                                                              0000000000000000000000000ISP0000000045149      
SPDMSNTE5AHORRO@OUTLOOK.COM                                                                             00000000000000000120680149950750722022061640044DISP0000000045149                                                                                                                                                                                                          
SPTB000000100000000003378545000000000000000000000000000000000000000000000000000000000000000000000000000000000000000000000000000000000000000000000000000000100000000003378545000000000000000000000000000000000000000000000000000000000000000000000000000                                                                                                                           
SPHB000000256021994360000013939000                                                                                                                                                                                                                                                                                                                                                
SPDP04000000000010572302022061603GAZA620912HW0       GAZA620912HW0GARANZUAY ZAMORA ALMA ROSA              900000000001393900000000000007207800340603290100000                                        9 00000044072001PAGO FONDO DE AHORRO SNTE 5 2021-2022 SNTE SECC5                                                              0000000000000000000000000ISP0000000045150      
SPDMSNTE5AHORRO@OUTLOOK.COM                                                                             00000000000000000720780034060329012022061640044DISP0000000045150                                                                                                                                                                                                          
SPTB000000100000000001057230000000000000000000000000000000000000000000000000000000000000000000000000000000000000000000000000000000000000000000000000000000100000000001057230000000000000000000000000000000000000000000000000000000000000000000000000000                                                                                                                           
SPHB000000256021994360000000561000                                                                                                                                                                                                                                                                                                                                                
SPDP04000000000030012642022061603GIRR65020574A       GIRR65020574AGIL RUIZ RUBEN                          900000000000056100000000000001206801414113934800000                                        9 00000044012001PAGO FONDO DE AHORRO SNTE 5 2021-2022 SNTE SECC5                                                              0000000000000000000000000ISP0000000045151      
SPDMSNTE5AHORRO@OUTLOOK.COM                                                                             00000000000000000120680141411393482022061640044DISP0000000045151                                                                                                                                                                                                          
SPTB000000100000000003001264000000000000000000000000000000000000000000000000000000000000000000000000000000000000000000000000000000000000000000000000000000100000000003001264000000000000000000000000000000000000000000000000000000000000000000000000000                                                                                                                           
SPHB000000256021994360000000808000                                                                                                                                                                                                                                                                                                                                                
SPDP04000000000028300432022061603GOGM671107FS8       GOGM671107FS8GONZALEZ GOMEZ MALINALLI                900000000000080800000000000001207902996357156600000                                        9 00000044012001PAGO FONDO DE AHORRO SNTE 5 2021-2022 SNTE SECC5                                                              0000000000000000000000000ISP0000000045152      
SPDMSNTE5AHORRO@OUTLOOK.COM                                                                             00000000000000000120790299635715662022061640044DISP0000000045152                                                                                                                                                                                                          
SPTB000000100000000002830043000000000000000000000000000000000000000000000000000000000000000000000000000000000000000000000000000000000000000000000000000000100000000002830043000000000000000000000000000000000000000000000000000000000000000000000000000                                                                                                                           
SPHB000000256021994360000005749000                                                                                                                                                                                                                                                                                                                                                
SPDP04000000000012634292022061603HARE570107566       HARE570107566HARO RODRIGUEZ ELIZABETH                900000000000574900000000000001206801593031834000000                                        9 00000044012001PAGO FONDO DE AHORRO SNTE 5 2021-2022 SNTE SECC5                                                              0000000000000000000000000ISP0000000045153      
SPDMSNTE5AHORRO@OUTLOOK.COM                                                                             00000000000000000120680159303183402022061640044DISP0000000045153                                                                                                                                                                                                          
SPTB000000100000000001263429000000000000000000000000000000000000000000000000000000000000000000000000000000000000000000000000000000000000000000000000000000100000000001263429000000000000000000000000000000000000000000000000000000000000000000000000000                                                                                                                           
SPHB000000256021994360000014207000                                                                                                                                                                                                                                                                                                                                                
SPDP04000000000017550082022061603HURR6401307M0       HURR6401307M0HUITRON RAMIREZ RICARDO                 900000000001420700000000000001206301195096871100000                                        9 00000044012001PAGO FONDO DE AHORRO SNTE 5 2021-2022 SNTE SECC5                                                              0000000000000000000000000ISP0000000045154      
SPDMSNTE5AHORRO@OUTLOOK.COM                                                                             00000000000000000120630119509687112022061640044DISP0000000045154                                                                                                                                                                                                          
SPTB000000100000000001755008000000000000000000000000000000000000000000000000000000000000000000000000000000000000000000000000000000000000000000000000000000100000000001755008000000000000000000000000000000000000000000000000000000000000000000000000000                                                                                                                           
SPHB000000256021994360000002525000                                                                                                                                                                                                                                                                                                                                                
SPDP04000000000005897952022061603JIVR671014328       JIVR671014328JIMENEZ VILLARREAL ROSA ISELA           900000000000252500000000000001206801435074894400000                                        9 00000044012001PAGO FONDO DE AHORRO SNTE 5 2021-2022 SNTE SECC5                                                              0000000000000000000000000ISP0000000045155      
SPDMSNTE5AHORRO@OUTLOOK.COM                                                                             00000000000000000120680143507489442022061640044DISP0000000045155                                                                                                                                                                                                          
SPTB000000100000000000589795000000000000000000000000000000000000000000000000000000000000000000000000000000000000000000000000000000000000000000000000000000100000000000589795000000000000000000000000000000000000000000000000000000000000000000000000000                                                                                                                           
SPHB000000256021994360000013398000                                                                                                                                                                                                                                                                                                                                                
SPDP04000000000023821832022061603LESR6705314H9       LESR6705314H9LEYVA SANDOVAL ROSANTINA                900000000001339800000000000001407956507614963500000                                        9 00000044014001PAGO FONDO DE AHORRO SNTE 5 2021-2022 SNTE SECC5                                                              0000000000000000000000000ISP0000000045157      
SPDMSNTE5AHORRO@OUTLOOK.COM                                                                             00000000000000000140795650761496352022061640044DISP0000000045157                                                                                                                                                                                                          
SPTB000000100000000002382183000000000000000000000000000000000000000000000000000000000000000000000000000000000000000000000000000000000000000000000000000000100000000002382183000000000000000000000000000000000000000000000000000000000000000000000000000                                                                                                                           
SPHB000000256021994360000002787000                                                                                                                                                                                                                                                                                                                                                
SPDP04000000000035452002022061603LOGH400413E58       LOGH400413E58LOPEZ GONZALEZ HECTOR                   900000000000278700000000000007207500225936513300000                                        9 00000044072001PAGO FONDO DE AHORRO SNTE 5 2021-2022 SNTE SECC5                                                              0000000000000000000000000ISP0000000045158      
SPDMSNTE5AHORRO@OUTLOOK.COM                                                                             00000000000000000720750022593651332022061640044DISP0000000045158                                                                                                                                                                                                          
SPTB000000100000000003545200000000000000000000000000000000000000000000000000000000000000000000000000000000000000000000000000000000000000000000000000000000100000000003545200000000000000000000000000000000000000000000000000000000000000000000000000000                                                                                                                           
SPHB000000256021994360000002871000                                                                                                                                                                                                                                                                                                                                                
SPDP04000000000029032952022061603LOLS650422K67       LOLS650422K67LOPEZ LOPEZ SALOMON                     900000000000287100000000000001407856507842281400000                                        9 00000044014001PAGO FONDO DE AHORRO SNTE 5 2021-2022 SNTE SECC5                                                              0000000000000000000000000ISP0000000045160      
SPDMSNTE5AHORRO@OUTLOOK.COM                                                                             00000000000000000140785650784228142022061640044DISP0000000045160                                                                                                                                                                                                          
SPTB000000100000000002903295000000000000000000000000000000000000000000000000000000000000000000000000000000000000000000000000000000000000000000000000000000100000000002903295000000000000000000000000000000000000000000000000000000000000000000000000000                                                                                                                           
SPHB000000256021994360000019396000                                                                                                                                                                                                                                                                                                                                                
SPDP04000000000009190902022061603LORN6705303M1       LORN6705303M1LOPEZ RAMOS NORMA ALICIA                900000000001939600000000000007207800562540636100000                                        9 00000044072001PAGO FONDO DE AHORRO SNTE 5 2021-2022 SNTE SECC5                                                              0000000000000000000000000ISP0000000045162      
SPDMSNTE5AHORRO@OUTLOOK.COM                                                                             00000000000000000720780056254063612022061640044DISP0000000045162                                                                                                                                                                                                          
SPTB000000100000000000919090000000000000000000000000000000000000000000000000000000000000000000000000000000000000000000000000000000000000000000000000000000100000000000919090000000000000000000000000000000000000000000000000000000000000000000000000000                                                                                                                           
SPHB000000256021994360000019440000                                                                                                                                                                                                                                                                                                                                                
SPDP04000000000020800102022061603LOSR6512246J8       LOSR6512246J8LOMAS SALINAS ROGELIO                   900000000001944000000000000001408156507809466600000                                        9 00000044014001PAGO FONDO DE AHORRO SNTE 5 2021-2022 SNTE SECC5                                                              0000000000000000000000000ISP0000000045164      
SPDMSNTE5AHORRO@OUTLOOK.COM                                                                             00000000000000000140815650780946662022061640044DISP0000000045164                                                                                                                                                                                                          
SPTB000000100000000002080010000000000000000000000000000000000000000000000000000000000000000000000000000000000000000000000000000000000000000000000000000000100000000002080010000000000000000000000000000000000000000000000000000000000000000000000000000                                                                                                                           
SPHB000000256021994360000017037000                                                                                                                                                                                                                                                                                                                                                
SPDP04000000000018619852022061603MANO640427NA9       MANO640427NA9MARTINEZ NEIRA OTILIO MARTIN            900000000001703700000000000001206801519427241300000                                        9 00000044012001PAGO FONDO DE AHORRO SNTE 5 2021-2022 SNTE SECC5                                                              0000000000000000000000000ISP0000000045166      
SPDMSNTE5AHORRO@OUTLOOK.COM                                                                             00000000000000000120680151942724132022061640044DISP0000000045166                                                                                                                                                                                                          
SPTB000000100000000001861985000000000000000000000000000000000000000000000000000000000000000000000000000000000000000000000000000000000000000000000000000000100000000001861985000000000000000000000000000000000000000000000000000000000000000000000000000                                                                                                                           
SPHB000000256021994360000017095000                                                                                                                                                                                                                                                                                                                                                
SPDP04000000000009464242022061603MAPJ6309199H6       MAPJ6309199H6MARTINEZ PEREZ JORGE                    900000000001709500000000000001406856546216671200000                                        9 00000044014001PAGO FONDO DE AHORRO SNTE 5 2021-2022 SNTE SECC5                                                              0000000000000000000000000ISP0000000045169      
SPDMSNTE5AHORRO@OUTLOOK.COM                                                                             00000000000000000140685654621667122022061640044DISP0000000045169                                                                                                                                                                                                          
SPTB000000100000000000946424000000000000000000000000000000000000000000000000000000000000000000000000000000000000000000000000000000000000000000000000000000100000000000946424000000000000000000000000000000000000000000000000000000000000000000000000000                                                                                                                           
SPHB000000256021994360000016047000                                                                                                                                                                                                                                                                                                                                                
SPDP04000000000022307662022061603MEEM660503H6A       MEEM660503H6AMELCHOR ESCAMILLA MARICRUZ              900000000001604700000000000001206801245236924900000                                        9 00000044012001PAGO FONDO DE AHORRO SNTE 5 2021-2022 SNTE SECC5                                                              0000000000000000000000000ISP0000000045170      
SPDMSNTE5AHORRO@OUTLOOK.COM                                                                             00000000000000000120680124523692492022061640044DISP0000000045170                                                                                                                                                                                                          
SPTB000000100000000002230766000000000000000000000000000000000000000000000000000000000000000000000000000000000000000000000000000000000000000000000000000000100000000002230766000000000000000000000000000000000000000000000000000000000000000000000000000                                                                                                                           
SPHB000000256021994360000016232000                                                                                                                                                                                                                                                                                                                                                
SPDP04000000000007621742022061603MENF5303305U9       MENF5303305U9MENDOZA NUNCIO FIDENCIO                 900000000001623200000000000001407856673091287800000                                        9 00000044014001PAGO FONDO DE AHORRO SNTE 5 2021-2022 SNTE SECC5                                                              0000000000000000000000000ISP0000000045171      
SPDMSNTE5AHORRO@OUTLOOK.COM                                                                             00000000000000000140785667309128782022061640044DISP0000000045171                                                                                                                                                                                                          
SPTB000000100000000000762174000000000000000000000000000000000000000000000000000000000000000000000000000000000000000000000000000000000000000000000000000000100000000000762174000000000000000000000000000000000000000000000000000000000000000000000000000                                                                                                                           
SPHB000000256021994360000006936000                                                                                                                                                                                                                                                                                                                                                
SPDP04000000000019429702022061603MISL671213S52       MISL671213S52MIRANDA SANCHEZ LINA ROSA               900000000000693600000000000007207800323429154500000                                        9 00000044072001PAGO FONDO DE AHORRO SNTE 5 2021-2022 SNTE SECC5                                                              0000000000000000000000000ISP0000000045172      
SPDMSNTE5AHORRO@OUTLOOK.COM                                                                             00000000000000000720780032342915452022061640044DISP0000000045172                                                                                                                                                                                                          
SPTB000000100000000001942970000000000000000000000000000000000000000000000000000000000000000000000000000000000000000000000000000000000000000000000000000000100000000001942970000000000000000000000000000000000000000000000000000000000000000000000000000                                                                                                                           
SPHB000000256021994360000006095000                                                                                                                                                                                                                                                                                                                                                
SPDP04000000000022109632022061603MOSD671127G85       MOSD671127G85MONSIVAIS SAAVEDRA MARIA DELIA          900000000000609500000000000001206801469213880100000                                        9 00000044012001PAGO FONDO DE AHORRO SNTE 5 2021-2022 SNTE SECC5                                                              0000000000000000000000000ISP0000000045173      
SPDMSNTE5AHORRO@OUTLOOK.COM                                                                             00000000000000000120680146921388012022061640044DISP0000000045173                                                                                                                                                                                                          
SPTB000000100000000002210963000000000000000000000000000000000000000000000000000000000000000000000000000000000000000000000000000000000000000000000000000000100000000002210963000000000000000000000000000000000000000000000000000000000000000000000000000                                                                                                                           
SPHB000000256021994360000010905000                                                                                                                                                                                                                                                                                                                                                
SPDP04000000000025274002022061603MUAJ6512197M0       MUAJ6512197M0MU#IZ AGUILAR JESUS DARIO               900000000001090500000000000007207500681155282700000                                        9 00000044072001PAGO FONDO DE AHORRO SNTE 5 2021-2022 SNTE SECC5                                                              0000000000000000000000000ISP0000000045174      
SPDMSNTE5AHORRO@OUTLOOK.COM                                                                             00000000000000000720750068115528272022061640044DISP0000000045174                                                                                                                                                                                                          
SPTB000000100000000002527400000000000000000000000000000000000000000000000000000000000000000000000000000000000000000000000000000000000000000000000000000000100000000002527400000000000000000000000000000000000000000000000000000000000000000000000000000                                                                                                                           
SPHB000000256021994360000010923000                                                                                                                                                                                                                                                                                                                                                
SPDP04000000000004113852022061603MUCH600618GD5       MUCH600618GD5MU#OZ CAMPOS JOSE HUMBERTO              900000000001092300000000000001406856515494248000000                                        9 00000044014001PAGO FONDO DE AHORRO SNTE 5 2021-2022 SNTE SECC5                                                              0000000000000000000000000ISP0000000045175      
SPDMSNTE5AHORRO@OUTLOOK.COM                                                                             00000000000000000140685651549424802022061640044DISP0000000045175                                                                                                                                                                                                          
SPTB000000100000000000411385000000000000000000000000000000000000000000000000000000000000000000000000000000000000000000000000000000000000000000000000000000100000000000411385000000000000000000000000000000000000000000000000000000000000000000000000000                                                                                                                           
SPHB000000256021994360000009933000                                                                                                                                                                                                                                                                                                                                                
SPDP04000000000000287052022061603OIMR610513VC6       OIMR610513VC6ORTIZ MEDINA ROLANDO                    900000000000993300000000000001406356507792147300000                                        9 00000044014001PAGO FONDO DE AHORRO SNTE 5 2021-2022 SNTE SECC5                                                              0000000000000000000000000ISP0000000045176      
SPDMSNTE5AHORRO@OUTLOOK.COM                                                                             00000000000000000140635650779214732022061640044DISP0000000045176                                                                                                                                                                                                          
SPTB000000100000000000028705000000000000000000000000000000000000000000000000000000000000000000000000000000000000000000000000000000000000000000000000000000100000000000028705000000000000000000000000000000000000000000000000000000000000000000000000000                                                                                                                           
SPHB000000256021994360000010181000                                                                                                                                                                                                                                                                                                                                                
SPDP04000000000019429702022061603PACE670303AJ8       PACE670303AJ8PADILLA COSTILLA MARIA EUGENIA          900000000001018100000000000001408156507810108300000                                        9 00000044014001PAGO FONDO DE AHORRO SNTE 5 2021-2022 SNTE SECC5                                                              0000000000000000000000000ISP0000000045177      
SPDMSNTE5AHORRO@OUTLOOK.COM                                                                             00000000000000000140815650781010832022061640044DISP0000000045177                                                                                                                                                                                                          
SPTB000000100000000001942970000000000000000000000000000000000000000000000000000000000000000000000000000000000000000000000000000000000000000000000000000000100000000001942970000000000000000000000000000000000000000000000000000000000000000000000000000                                                                                                                           
SPHB000000256021994360000003878000                                                                                                                                                                                                                                                                                                                                                
SPDP04000000000028620602022061603PARM670923NU6       PARM670923NU6PARGAS ROMERO MIRNA AMERICA             900000000000387800000000000007207800540612722500000                                        9 00000044072001PAGO FONDO DE AHORRO SNTE 5 2021-2022 SNTE SECC5                                                              0000000000000000000000000ISP0000000045178      
SPDMSNTE5AHORRO@OUTLOOK.COM                                                                             00000000000000000720780054061272252022061640044DISP0000000045178                                                                                                                                                                                                          
SPTB000000100000000002862060000000000000000000000000000000000000000000000000000000000000000000000000000000000000000000000000000000000000000000000000000000100000000002862060000000000000000000000000000000000000000000000000000000000000000000000000000                                                                                                                           
SPHB000000256021994360000015614000                                                                                                                                                                                                                                                                                                                                                
SPDP04000000000019429702022061603PUMR670729QQ8       PUMR670729QQ8PUENTE MARTINEZ RUTH BEATRIZ            900000000001561400000000000001406860622665644000000                                        9 00000044014001PAGO FONDO DE AHORRO SNTE 5 2021-2022 SNTE SECC5                                                              0000000000000000000000000ISP0000000045179      
SPDMSNTE5AHORRO@OUTLOOK.COM                                                                             00000000000000000140686062266564402022061640044DISP0000000045179                                                                                                                                                                                                          
SPTB000000100000000001942970000000000000000000000000000000000000000000000000000000000000000000000000000000000000000000000000000000000000000000000000000000100000000001942970000000000000000000000000000000000000000000000000000000000000000000000000000                                                                                                                           
SPHB000000256021994360000015633000                                                                                                                                                                                                                                                                                                                                                
SPDP04000000000056758592022061603PUVI6010041N7       PUVI6010041N7PUENTE VILLARREAL IMELDA                900000000001563300000000000001406856507581518800000                                        9 00000044014001PAGO FONDO DE AHORRO SNTE 5 2021-2022 SNTE SECC5                                                              0000000000000000000000000ISP0000000045180      
SPDMSNTE5AHORRO@OUTLOOK.COM                                                                             00000000000000000140685650758151882022061640044DISP0000000045180                                                                                                                                                                                                          
SPTB000000100000000005675859000000000000000000000000000000000000000000000000000000000000000000000000000000000000000000000000000000000000000000000000000000100000000005675859000000000000000000000000000000000000000000000000000000000000000000000000000                                                                                                                           
SPHB000000256021994360000001607000                                                                                                                                                                                                                                                                                                                                                
SPDP04000000000011287472022061603RALJ650404KF4       RALJ650404KF4RAMOS LEDEZMA JUAN DE DIOS              900000000000160700000000000002107506417912957400000                                        9 00000044021001PAGO FONDO DE AHORRO SNTE 5 2021-2022 SNTE SECC5                                                              0000000000000000000000000ISP0000000045181      
SPDMSNTE5AHORRO@OUTLOOK.COM                                                                             00000000000000000210750641791295742022061640044DISP0000000045181                                                                                                                                                                                                          
SPTB000000100000000001128747000000000000000000000000000000000000000000000000000000000000000000000000000000000000000000000000000000000000000000000000000000100000000001128747000000000000000000000000000000000000000000000000000000000000000000000000000                                                                                                                           
SPHB000000256021994360000001674000                                                                                                                                                                                                                                                                                                                                                
SPDP04000000000022109632022061603RAMS670520CI5       RAMS670520CI5RAMIREZ MARTINEZ SANDRA MARIA           900000000000167400000000000001406856591060673700000                                        9 00000044014001PAGO FONDO DE AHORRO SNTE 5 2021-2022 SNTE SECC5                                                              0000000000000000000000000ISP0000000045182      
SPDMSNTE5AHORRO@OUTLOOK.COM                                                                             00000000000000000140685659106067372022061640044DISP0000000045182                                                                                                                                                                                                          
SPTB000000100000000002210963000000000000000000000000000000000000000000000000000000000000000000000000000000000000000000000000000000000000000000000000000000100000000002210963000000000000000000000000000000000000000000000000000000000000000000000000000                                                                                                                           
SPHB000000256021994360000010446000                                                                                                                                                                                                                                                                                                                                                
SPDP04000000000011526032022061603RAVA760116PF9       RAVA760116PF9RAMON VALDEZ ANA LILIA                  900000000001044600000000000001407856659824673100000                                        9 00000044014001PAGO FONDO DE AHORRO SNTE 5 2021-2022 SNTE SECC5                                                              0000000000000000000000000ISP0000000045183      
SPDMSNTE5AHORRO@OUTLOOK.COM                                                                             00000000000000000140785665982467312022061640044DISP0000000045183                                                                                                                                                                                                          
SPTB000000100000000001152603000000000000000000000000000000000000000000000000000000000000000000000000000000000000000000000000000000000000000000000000000000100000000001152603000000000000000000000000000000000000000000000000000000000000000000000000000                                                                                                                           
SPHB000000256021994360000010682000                                                                                                                                                                                                                                                                                                                                                
SPDP04000000000020267272022061603REML660211G35       REML660211G35RENDON MERCADO LOURDES ELIZABETH        900000000001068200000000000001206801231714368100000                                        9 00000044012001PAGO FONDO DE AHORRO SNTE 5 2021-2022 SNTE SECC5                                                              0000000000000000000000000ISP0000000045184      
SPDMSNTE5AHORRO@OUTLOOK.COM                                                                             00000000000000000120680123171436812022061640044DISP0000000045184                                                                                                                                                                                                          
SPTB000000100000000002026727000000000000000000000000000000000000000000000000000000000000000000000000000000000000000000000000000000000000000000000000000000100000000002026727000000000000000000000000000000000000000000000000000000000000000000000000000                                                                                                                           
SPHB000000256021994360000009340000                                                                                                                                                                                                                                                                                                                                                
SPDP04000000000009340212022061603RICJ671008BC3       RICJ671008BC3RIVERA CEDILLO MARIA DE JESUS           900000000000934000000000000001407860623883683700000                                        9 00000044014001PAGO FONDO DE AHORRO SNTE 5 2021-2022 SNTE SECC5                                                              0000000000000000000000000ISP0000000045185      
SPDMSNTE5AHORRO@OUTLOOK.COM                                                                             00000000000000000140786062388368372022061640044DISP0000000045185                                                                                                                                                                                                          
SPTB000000100000000000934021000000000000000000000000000000000000000000000000000000000000000000000000000000000000000000000000000000000000000000000000000000100000000000934021000000000000000000000000000000000000000000000000000000000000000000000000000                                                                                                                           
SPHB000000256021994360000015103000                                                                                                                                                                                                                                                                                                                                                
SPDP04000000000042366612022061603RIMF630915128       RIMF630915128RIVERA MARTINEZ FERNANDO                900000000001510300000000000001407256515503944300000                                        9 00000044014001PAGO FONDO DE AHORRO SNTE 5 2021-2022 SNTE SECC5                                                              0000000000000000000000000ISP0000000045186      
SPDMSNTE5AHORRO@OUTLOOK.COM                                                                             00000000000000000140725651550394432022061640044DISP0000000045186                                                                                                                                                                                                          
SPTB000000100000000004236661000000000000000000000000000000000000000000000000000000000000000000000000000000000000000000000000000000000000000000000000000000100000000004236661000000000000000000000000000000000000000000000000000000000000000000000000000                                                                                                                           
SPHB000000256021994360000015380000                                                                                                                                                                                                                                                                                                                                                
SPDP04000000000010993102022061603ROCJ670311PR8       ROCJ670311PR8RODRIGUEZ DE LA CERDA JUANA ISELA       900000000001538000000000000004406818804718704200000                                        9 00188044044001PAGO FONDO DE AHORRO SNTE 5 2021-2022 SNTE SECC5                                                              00000000000000000000000001505000000045188      
SPDMSNTE5AHORRO@OUTLOOK.COM                                                                             0000000000000000044068188047187042000020220616151505000000045188                                                                                                                                                                                                          
SPTB000000100000000001099310000000000000000000000000000000000000000000000000000000000000000000000000000000000000000000000000000000000000000000000000000000100000000001099310000000000000000000000000000000000000000000000000000000000000000000000000000                                                                                                                           
SPHB000000256021994360000016398000                                                                                                                                                                                                                                                                                                                                                
SPDP04000000000009586962022061603ROFY6605107U9       ROFY6605107U9RODRIGUEZ FLORES YULISA                 900000000001639800000000000001207501546125260900000                                        9 00000044012001PAGO FONDO DE AHORRO SNTE 5 2021-2022 SNTE SECC5                                                              0000000000000000000000000ISP0000000045189      
SPDMSNTE5AHORRO@OUTLOOK.COM                                                                             00000000000000000120750154612526092022061640044DISP0000000045189                                                                                                                                                                                                          
SPTB000000100000000000958696000000000000000000000000000000000000000000000000000000000000000000000000000000000000000000000000000000000000000000000000000000100000000000958696000000000000000000000000000000000000000000000000000000000000000000000000000                                                                                                                           
SPHB000000256021994360000003131000                                                                                                                                                                                                                                                                                                                                                
SPDP04000000000019118702022061603ROHJ620813UE1       ROHJ620813UE1RODRIGUEZ HUERTA JAVIER                 900000000000313100000000000001406856555177781800000                                        9 00000044014001PAGO FONDO DE AHORRO SNTE 5 2021-2022 SNTE SECC5                                                              0000000000000000000000000ISP0000000045190      
SPDMSNTE5AHORRO@OUTLOOK.COM                                                                             00000000000000000140685655517778182022061640044DISP0000000045190                                                                                                                                                                                                          
SPTB000000100000000001911870000000000000000000000000000000000000000000000000000000000000000000000000000000000000000000000000000000000000000000000000000000100000000001911870000000000000000000000000000000000000000000000000000000000000000000000000000                                                                                                                           
SPHB000000256021994360000003249000                                                                                                                                                                                                                                                                                                                                                
SPDP04000000000010514472022061603ROMC6109121C6       ROMC6109121C6ROSALES MONTOY MARIA DEL CARMEN         900000000000324900000000000001407660623992067600000                                        9 00000044014001PAGO FONDO DE AHORRO SNTE 5 2021-2022 SNTE SECC5                                                              0000000000000000000000000ISP0000000045191      
SPDMSNTE5AHORRO@OUTLOOK.COM                                                                             00000000000000000140766062399206762022061640044DISP0000000045191                                                                                                                                                                                                          
SPTB000000100000000001051447000000000000000000000000000000000000000000000000000000000000000000000000000000000000000000000000000000000000000000000000000000100000000001051447000000000000000000000000000000000000000000000000000000000000000000000000000                                                                                                                           
SPHB000000256021994360000003273000                                                                                                                                                                                                                                                                                                                                                
SPDP04000000000009559252022061603ROMH610304D85       ROMH610304D85RODRIGUEZ MU#OZ HILDA                   900000000000327300000000000004406818804735447700000                                        9 00188044044001PAGO FONDO DE AHORRO SNTE 5 2021-2022 SNTE SECC5                                                              00000000000000000000000001505000000045192      
SPDMSNTE5AHORRO@OUTLOOK.COM                                                                             0000000000000000044068188047354477000020220616151505000000045192                                                                                                                                                                                                          
SPTB000000100000000000955925000000000000000000000000000000000000000000000000000000000000000000000000000000000000000000000000000000000000000000000000000000100000000000955925000000000000000000000000000000000000000000000000000000000000000000000000000                                                                                                                           
SPHB000000256021994360000005042000                                                                                                                                                                                                                                                                                                                                                
SPDP04000000000005897952022061603RORR6210129G7       RORR6210129G7ROSAS ROBLEDO RAMONA                    900000000000504200000000000001406356507790973800000                                        9 00000044014001PAGO FONDO DE AHORRO SNTE 5 2021-2022 SNTE SECC5                                                              0000000000000000000000000ISP0000000045193      
SPDMSNTE5AHORRO@OUTLOOK.COM                                                                             00000000000000000140635650779097382022061640044DISP0000000045193                                                                                                                                                                                                          
SPTB000000100000000000589795000000000000000000000000000000000000000000000000000000000000000000000000000000000000000000000000000000000000000000000000000000100000000000589795000000000000000000000000000000000000000000000000000000000000000000000000000                                                                                                                           
SPHB000000256021994360000011362000                                                                                                                                                                                                                                                                                                                                                
SPDP04000000000019429702022061603SAGB6712016L3       SAGB6712016L3SAUCEDO GARCIA BLANCA CECILIA           900000000001136200000000000001406856515490462200000                                        9 00000044014001PAGO FONDO DE AHORRO SNTE 5 2021-2022 SNTE SECC5                                                              0000000000000000000000000ISP0000000045194      
SPDMSNTE5AHORRO@OUTLOOK.COM                                                                             00000000000000000140685651549046222022061640044DISP0000000045194                                                                                                                                                                                                          
SPTB000000100000000001942970000000000000000000000000000000000000000000000000000000000000000000000000000000000000000000000000000000000000000000000000000000100000000001942970000000000000000000000000000000000000000000000000000000000000000000000000000                                                                                                                           
SPHB000000256021994360000007803000                                                                                                                                                                                                                                                                                                                                                
SPDP04000000000010993062022061603SAGH6708177G2       SAGH6708177G2SANDOVAL GUAJARDO HAYDE                 900000000000780300000000000001407956509335156100000                                        9 00000044014001PAGO FONDO DE AHORRO SNTE 5 2021-2022 SNTE SECC5                                                              0000000000000000000000000ISP0000000045195      
SPDMSNTE5AHORRO@OUTLOOK.COM                                                                             00000000000000000140795650933515612022061640044DISP0000000045195                                                                                                                                                                                                          
SPTB000000100000000001099306000000000000000000000000000000000000000000000000000000000000000000000000000000000000000000000000000000000000000000000000000000100000000001099306000000000000000000000000000000000000000000000000000000000000000000000000000                                                                                                                           
SPHB000000256021994360000016716000                                                                                                                                                                                                                                                                                                                                                
SPDP04000000000025513802022061603SILH670401KY3       SILH670401KY3SIERRA LUMBRERA HILDA LILIANA           900000000001671600000000000001406856507601178700000                                        9 00000044014001PAGO FONDO DE AHORRO SNTE 5 2021-2022 SNTE SECC5                                                              0000000000000000000000000ISP0000000045196      
SPDMSNTE5AHORRO@OUTLOOK.COM                                                                             00000000000000000140685650760117872022061640044DISP0000000045196                                                                                                                                                                                                          
SPTB000000100000000002551380000000000000000000000000000000000000000000000000000000000000000000000000000000000000000000000000000000000000000000000000000000100000000002551380000000000000000000000000000000000000000000000000000000000000000000000000000                                                                                                                           
SPHB000000256021994360000016842000                                                                                                                                                                                                                                                                                                                                                
SPDP04000000000028300432022061603SOEB640818KK9       SOEB640818KK9SOTO ESTRADA BEATRIZ OLIVIA             900000000001684200000000000001406860577406610100000                                        9 00000044014001PAGO FONDO DE AHORRO SNTE 5 2021-2022 SNTE SECC5                                                              0000000000000000000000000ISP0000000045197      
SPDMSNTE5AHORRO@OUTLOOK.COM                                                                             00000000000000000140686057740661012022061640044DISP0000000045197                                                                                                                                                                                                          
SPTB000000100000000002830043000000000000000000000000000000000000000000000000000000000000000000000000000000000000000000000000000000000000000000000000000000100000000002830043000000000000000000000000000000000000000000000000000000000000000000000000000                                                                                                                           
SPHB000000256021994360000001846000                                                                                                                                                                                                                                                                                                                                                
SPDP04000000000029032952022061603SOGP661130JD5       SOGP661130JD5SONORA GARCIA PATRICIA                  900000000000184600000000000001407260623820891100000                                        9 00000044014001PAGO FONDO DE AHORRO SNTE 5 2021-2022 SNTE SECC5                                                              0000000000000000000000000ISP0000000045198      
SPDMSNTE5AHORRO@OUTLOOK.COM                                                                             00000000000000000140726062382089112022061640044DISP0000000045198                                                                                                                                                                                                          
SPTB000000100000000002903295000000000000000000000000000000000000000000000000000000000000000000000000000000000000000000000000000000000000000000000000000000100000000002903295000000000000000000000000000000000000000000000000000000000000000000000000000                                                                                                                           
