SPHA0932601202206292022062920220629000                                                                                                                                                                                                                                                                                                                                            
SPHB000000256021994360000013658000                                                                                                                                                                                                                                                                                                                                                
SPDP04000000000000287802022062803CALF621103CQ5       CALF621103CQ5CAZARES LARA FRANCISCO                  900000000001365800000000000001207802862234939000000                                        9 00000044012001PAGO FONDO DE AHORRO SNTE 5 2021-2022 SNTE SECC5                                                              0000000000000000000000000ISP0000000012666      
SPDMSNTE5AHORRO@OUTLOOK.COM                                                                             00000000000000000120780286223493902022062840044DISP0000000012666                                                                                                                                                                                                          
SPTB000000100000000000028780000000000000000000000000000000000000000000000000000000000000000000000000000000000000000000000000000000000000000000000000000000100000000000028780000000000000000000000000000000000000000000000000000000000000000000000000000                                                                                                                           
SPHB000000256021994360000007230000                                                                                                                                                                                                                                                                                                                                                
SPDP04000000000003999112022062803CAME830607FF9       CAME830607FF9CASTELLANOS MORA ELEAZAR                900000000000723000000000000001207700478773165100000                                        9 00000044012001PAGO FONDO DE AHORRO SNTE 5 2021-2022 SNTE SECC5                                                              0000000000000000000000000ISP0000000012667      
SPDMSNTE5AHORRO@OUTLOOK.COM                                                                             00000000000000000120770047877316512022062840044DISP0000000012667                                                                                                                                                                                                          
SPTB000000100000000000399911000000000000000000000000000000000000000000000000000000000000000000000000000000000000000000000000000000000000000000000000000000100000000000399911000000000000000000000000000000000000000000000000000000000000000000000000000                                                                                                                           
SPHB000000256021994360000016883000                                                                                                                                                                                                                                                                                                                                                
SPDP04000000000002849252022062803CAOM730521HE9       CAOM730521HE9CARDONA OBREGON MA. DE JESUS            900000000001688300000000000004407825603934589500000                                        9 00187044044001PAGO FONDO DE AHORRO SNTE 5 2021-2022 SNTE SECC5                                                              00000000000000000000000001507000000012668      
SPDMSNTE5AHORRO@OUTLOOK.COM                                                                             0000000000000000044078256039345895000020220628131507000000012668                                                                                                                                                                                                          
SPTB000000100000000000284925000000000000000000000000000000000000000000000000000000000000000000000000000000000000000000000000000000000000000000000000000000100000000000284925000000000000000000000000000000000000000000000000000000000000000000000000000                                                                                                                           
SPHB000000256021994360000014487000                                                                                                                                                                                                                                                                                                                                                
SPDP04000000000008474802022062803COME810715986       COME810715986COVARRUBIAS MARTINEZ ERIKA ALEJANDRA    900000000001448700000000000002107804066474446900000                                        9 00000044021001PAGO FONDO DE AHORRO SNTE 5 2021-2022 SNTE SECC5                                                              0000000000000000000000000ISP0000000012669      
SPDMSNTE5AHORRO@OUTLOOK.COM                                                                             00000000000000000210780406647444692022062840044DISP0000000012669                                                                                                                                                                                                          
SPTB000000100000000000847480000000000000000000000000000000000000000000000000000000000000000000000000000000000000000000000000000000000000000000000000000000100000000000847480000000000000000000000000000000000000000000000000000000000000000000000000000                                                                                                                           
SPHB000000256021994360000008300000                                                                                                                                                                                                                                                                                                                                                
SPDP04000000000034378362022062803EALL6709297W5       EALL6709297W5ESTRADA LOZANO MARIA DE LA LUZ          900000000000830000000000000001218001583139406600000                                        9 00000044012001PAGO FONDO DE AHORRO SNTE 5 2021-2022 SNTE SECC5                                                              0000000000000000000000000ISP0000000012670      
SPDMSNTE5AHORRO@OUTLOOK.COM                                                                             00000000000000000121800158313940662022062840044DISP0000000012670                                                                                                                                                                                                          
SPTB000000100000000003437836000000000000000000000000000000000000000000000000000000000000000000000000000000000000000000000000000000000000000000000000000000100000000003437836000000000000000000000000000000000000000000000000000000000000000000000000000                                                                                                                           
SPHB000000256021994360000002237000                                                                                                                                                                                                                                                                                                                                                
SPDP04000000000005897952022062803GACA5802275U7       GACA5802275U7GARCIA CARRIZALES MA. ANTONIETA         900000000000223700000000000007207800323090637100000                                        9 00000044072001PAGO FONDO DE AHORRO SNTE 5 2021-2022 SNTE SECC5                                                              0000000000000000000000000ISP0000000012671      
SPDMSNTE5AHORRO@OUTLOOK.COM                                                                             00000000000000000720780032309063712022062840044DISP0000000012671                                                                                                                                                                                                          
SPTB000000100000000000589795000000000000000000000000000000000000000000000000000000000000000000000000000000000000000000000000000000000000000000000000000000100000000000589795000000000000000000000000000000000000000000000000000000000000000000000000000                                                                                                                           
SPHB000000256021994360000007320000                                                                                                                                                                                                                                                                                                                                                
SPDP04000000000057015792022062803GALM680806HR2       GALM680806HR2GARZA LUNA MARIO JESUS                  900000000000732000000000000001206801533992678600000                                        9 00000044012001PAGO FONDO DE AHORRO SNTE 5 2021-2022 SNTE SECC5                                                              0000000000000000000000000ISP0000000012673      
SPDMSNTE5AHORRO@OUTLOOK.COM                                                                             00000000000000000120680153399267862022062840044DISP0000000012673                                                                                                                                                                                                          
SPTB000000100000000005701579000000000000000000000000000000000000000000000000000000000000000000000000000000000000000000000000000000000000000000000000000000100000000005701579000000000000000000000000000000000000000000000000000000000000000000000000000                                                                                                                           
SPHB000000256021994360000001449000                                                                                                                                                                                                                                                                                                                                                
SPDP04000000000005794642022062803GAPA720309PMA       GAPA720309PMAGARZA PEREZ JOSE ANGEL                  900000000000144900000000000001207701599137848800000                                        9 00000044012001PAGO FONDO DE AHORRO SNTE 5 2021-2022 SNTE SECC5                                                              0000000000000000000000000ISP0000000012678      
SPDMSNTE5AHORRO@OUTLOOK.COM                                                                             00000000000000000120770159913784882022062840044DISP0000000012678                                                                                                                                                                                                          
SPTB000000100000000000579464000000000000000000000000000000000000000000000000000000000000000000000000000000000000000000000000000000000000000000000000000000100000000000579464000000000000000000000000000000000000000000000000000000000000000000000000000                                                                                                                           
SPHB000000256021994360000019073000                                                                                                                                                                                                                                                                                                                                                
SPDP04000000000040105612022062803GURP610205ID9       GURP610205ID9GUTIERREZ RODRIGUEZ MA. DEL PILAR       900000000001907300000000000001406860623587180500000                                        9 00000044014001PAGO FONDO DE AHORRO SNTE 5 2021-2022 SNTE SECC5                                                              0000000000000000000000000ISP0000000012682      
SPDMSNTE5AHORRO@OUTLOOK.COM                                                                             00000000000000000140686062358718052022062840044DISP0000000012682                                                                                                                                                                                                          
SPTB000000100000000004010561000000000000000000000000000000000000000000000000000000000000000000000000000000000000000000000000000000000000000000000000000000100000000004010561000000000000000000000000000000000000000000000000000000000000000000000000000                                                                                                                           
SPHB000000256021994360000022263000                                                                                                                                                                                                                                                                                                                                                
SPDP04000000000004092052022062803NABE8404253M0       NABE8404253M0NAVARRO BOONE EDGAR ELOY                900000000002226300000000000001206801533381870600000                                        9 00000044012001PAGO FONDO DE AHORRO SNTE 5 2021-2022 SNTE SECC5                                                              0000000000000000000000000ISP0000000012683      
SPDMSNTE5AHORRO@OUTLOOK.COM                                                                             00000000000000000120680153338187062022062840044DISP0000000012683                                                                                                                                                                                                          
SPTB000000100000000000409205000000000000000000000000000000000000000000000000000000000000000000000000000000000000000000000000000000000000000000000000000000100000000000409205000000000000000000000000000000000000000000000000000000000000000000000000000                                                                                                                           
SPHB000000256021994360000004714000                                                                                                                                                                                                                                                                                                                                                
SPDP04000000000005897952022062803OEBR6406291D9       OEBR6406291D9OXTE BEZA ROCIO                         900000000000471400000000000006206800828656902000000                                        9 00000044062001PAGO FONDO DE AHORRO SNTE 5 2021-2022 SNTE SECC5                                                              0000000000000000000000000ISP0000000012684      
SPDMSNTE5AHORRO@OUTLOOK.COM                                                                             00000000000000000620680082865690202022062840044DISP0000000012684                                                                                                                                                                                                          
SPTB000000100000000000589795000000000000000000000000000000000000000000000000000000000000000000000000000000000000000000000000000000000000000000000000000000100000000000589795000000000000000000000000000000000000000000000000000000000000000000000000000                                                                                                                           
SPHB000000256021994360000010055000                                                                                                                                                                                                                                                                                                                                                
SPDP04000000000027366992022062803OODF620417MQ1       OODF620417MQ1OROZCO DIAZ JOSE FRANCISCO              900000000001005500000000000007207800514701679200000                                        9 00000044072001PAGO FONDO DE AHORRO SNTE 5 2021-2022 SNTE SECC5                                                              0000000000000000000000000ISP0000000012685      
SPDMSNTE5AHORRO@OUTLOOK.COM                                                                             00000000000000000720780051470167922022062840044DISP0000000012685                                                                                                                                                                                                          
SPTB000000100000000002736699000000000000000000000000000000000000000000000000000000000000000000000000000000000000000000000000000000000000000000000000000000100000000002736699000000000000000000000000000000000000000000000000000000000000000000000000000                                                                                                                           
SPHB000000256021994360000010144000                                                                                                                                                                                                                                                                                                                                                
SPDP04000000000014663212022062803OURK761118PN6       OURK761118PN6OSUNA RODRIGUEZ KARLA TOMASA            900000000001014400000000000001407856753735690800000                                        9 00000044014001PAGO FONDO DE AHORRO SNTE 5 2021-2022 SNTE SECC5                                                              0000000000000000000000000ISP0000000012686      
SPDMSNTE5AHORRO@OUTLOOK.COM                                                                             00000000000000000140785675373569082022062840044DISP0000000012686                                                                                                                                                                                                          
SPTB000000100000000001466321000000000000000000000000000000000000000000000000000000000000000000000000000000000000000000000000000000000000000000000000000000100000000001466321000000000000000000000000000000000000000000000000000000000000000000000000000                                                                                                                           
SPHB000000256021994360000003877000                                                                                                                                                                                                                                                                                                                                                
SPDP04000000000005811332022062803PARM640528FJ5       PARM640528FJ5PALACIOS RODRIGUEZ MANUEL HUMBERTO      900000000000387700000000000001207801587826416400000                                        9 00000044012001PAGO FONDO DE AHORRO SNTE 5 2021-2022 SNTE SECC5                                                              0000000000000000000000000ISP0000000012687      
SPDMSNTE5AHORRO@OUTLOOK.COM                                                                             00000000000000000120780158782641642022062840044DISP0000000012687                                                                                                                                                                                                          
SPTB000000100000000000581133000000000000000000000000000000000000000000000000000000000000000000000000000000000000000000000000000000000000000000000000000000100000000000581133000000000000000000000000000000000000000000000000000000000000000000000000000                                                                                                                           
SPHB000000256021994360000017380000                                                                                                                                                                                                                                                                                                                                                
SPDP04000000000015764542022062803RABW6003282I9       RABW6003282I9RANGEL BARRIENTOS WILFRIDO              900000000001738000000000000000208090296759324200000                                        9 00000044002001PAGO FONDO DE AHORRO SNTE 5 2021-2022 SNTE SECC5                                                              0000000000000000000000000ISP0000000012688      
SPDMSNTE5AHORRO@OUTLOOK.COM                                                                             00000000000000000020809029675932422022062840044DISP0000000012688                                                                                                                                                                                                          
SPTB000000100000000001576454000000000000000000000000000000000000000000000000000000000000000000000000000000000000000000000000000000000000000000000000000000100000000001576454000000000000000000000000000000000000000000000000000000000000000000000000000                                                                                                                           
SPHB000000256021994360000001669000                                                                                                                                                                                                                                                                                                                                                
SPDP04000000000004029652022062803RAMR631211RC1       RAMR631211RC1RAMOS MALDONADO ROSA MARIA              900000000000166900000000000001207800478848033700000                                        9 00000044012001PAGO FONDO DE AHORRO SNTE 5 2021-2022 SNTE SECC5                                                              0000000000000000000000000ISP0000000012689      
SPDMSNTE5AHORRO@OUTLOOK.COM                                                                             00000000000000000120780047884803372022062840044DISP0000000012689                                                                                                                                                                                                          
SPTB000000100000000000402965000000000000000000000000000000000000000000000000000000000000000000000000000000000000000000000000000000000000000000000000000000100000000000402965000000000000000000000000000000000000000000000000000000000000000000000000000                                                                                                                           
SPHB000000256021994360000010566000                                                                                                                                                                                                                                                                                                                                                
SPDP04000000000019943532022062803REGC8008189G1       REGC8008189G1REYES GONZALEZ CLAUDIA CITLALLI         900000000001056600000000000002107806417907296100000                                        9 00000044021001PAGO FONDO DE AHORRO SNTE 5 2021-2022 SNTE SECC5                                                              0000000000000000000000000ISP0000000012690      
SPDMSNTE5AHORRO@OUTLOOK.COM                                                                             00000000000000000210780641790729612022062840044DISP0000000012690                                                                                                                                                                                                          
SPTB000000100000000001994353000000000000000000000000000000000000000000000000000000000000000000000000000000000000000000000000000000000000000000000000000000100000000001994353000000000000000000000000000000000000000000000000000000000000000000000000000                                                                                                                           
SPHB000000256021994360000003304000                                                                                                                                                                                                                                                                                                                                                
SPDP04000000000006025712022062803ROML8302265F6       ROML8302265F6RODRIGUEZ MENDOZA LORENA ALEJANDRA      900000000000330400000000000004407818702674769800000                                        9 00187044044001PAGO FONDO DE AHORRO SNTE 5 2021-2022 SNTE SECC5                                                              00000000000000000000000001507000000012691      
SPDMSNTE5AHORRO@OUTLOOK.COM                                                                             0000000000000000044078187026747698000020220628131507000000012691                                                                                                                                                                                                          
SPTB000000100000000000602571000000000000000000000000000000000000000000000000000000000000000000000000000000000000000000000000000000000000000000000000000000100000000000602571000000000000000000000000000000000000000000000000000000000000000000000000000                                                                                                                           
SPHB000000256021994360000005139000                                                                                                                                                                                                                                                                                                                                                
SPDP04000000000037162292022062803ROTJ650520IU7       ROTJ650520IU7ROSALES TELLO JOSE                      900000000000513900000000000001207801586758212900000                                        9 00000044012001PAGO FONDO DE AHORRO SNTE 5 2021-2022 SNTE SECC5                                                              0000000000000000000000000ISP0000000012692      
SPDMSNTE5AHORRO@OUTLOOK.COM                                                                             00000000000000000120780158675821292022062840044DISP0000000012692                                                                                                                                                                                                          
SPTB000000100000000003716229000000000000000000000000000000000000000000000000000000000000000000000000000000000000000000000000000000000000000000000000000000100000000003716229000000000000000000000000000000000000000000000000000000000000000000000000000                                                                                                                           
SPHB000000256021994360000011290000                                                                                                                                                                                                                                                                                                                                                
SPDP04000000000049661942022062803SAEA650723PA5       SAEA650723PA5SANCHEZ ESQUIVEL ANGEL MARIO            900000000001129000000000000001206801521851147400000                                        9 00000044012001PAGO FONDO DE AHORRO SNTE 5 2021-2022 SNTE SECC5                                                              0000000000000000000000000ISP0000000012693      
SPDMSNTE5AHORRO@OUTLOOK.COM                                                                             00000000000000000120680152185114742022062840044DISP0000000012693                                                                                                                                                                                                          
SPTB000000100000000004966194000000000000000000000000000000000000000000000000000000000000000000000000000000000000000000000000000000000000000000000000000000100000000004966194000000000000000000000000000000000000000000000000000000000000000000000000000                                                                                                                           
SPHB000000256021994360000006192000                                                                                                                                                                                                                                                                                                                                                
SPDP04000000000009190902022062803SARR770419BG8       SARR770419BG8SANDOVAL REVELES ROBERTO CARLOS         900000000000619200000000000001207001594881768500000                                        9 00000044012001PAGO FONDO DE AHORRO SNTE 5 2021-2022 SNTE SECC5                                                              0000000000000000000000000ISP0000000012694      
SPDMSNTE5AHORRO@OUTLOOK.COM                                                                             00000000000000000120700159488176852022062840044DISP0000000012694                                                                                                                                                                                                          
SPTB000000100000000000919090000000000000000000000000000000000000000000000000000000000000000000000000000000000000000000000000000000000000000000000000000000100000000000919090000000000000000000000000000000000000000000000000000000000000000000000000000                                                                                                                           
SPHB000000256021994360000010313000                                                                                                                                                                                                                                                                                                                                                
SPDP04000000000018718502022062803SAVA6109053Y2       SAVA6109053Y2SANCHEZ VILLARREAL ABELARDO             900000000001031300000000000001206801211221167900000                                        9 00000044012001PAGO FONDO DE AHORRO SNTE 5 2021-2022 SNTE SECC5                                                              0000000000000000000000000ISP0000000012695      
SPDMSNTE5AHORRO@OUTLOOK.COM                                                                             00000000000000000120680121122116792022062840044DISP0000000012695                                                                                                                                                                                                          
SPTB000000100000000001871850000000000000000000000000000000000000000000000000000000000000000000000000000000000000000000000000000000000000000000000000000000100000000001871850000000000000000000000000000000000000000000000000000000000000000000000000000                                                                                                                           
SPHB000000256021994360000002041000                                                                                                                                                                                                                                                                                                                                                
SPDP04000000000020423402022062803TAMA650404L4A       TAMA650404L4ATAVASCI MIRANDA AMELIA                  900000000000204100000000000007207800570786052400000                                        9 00000044072001PAGO FONDO DE AHORRO SNTE 5 2021-2022 SNTE SECC5                                                              0000000000000000000000000ISP0000000012696      
SPDMSNTE5AHORRO@OUTLOOK.COM                                                                             00000000000000000720780057078605242022062840044DISP0000000012696                                                                                                                                                                                                          
SPTB000000100000000002042340000000000000000000000000000000000000000000000000000000000000000000000000000000000000000000000000000000000000000000000000000000100000000002042340000000000000000000000000000000000000000000000000000000000000000000000000000                                                                                                                           
SPHB000000256021994360000005295000                                                                                                                                                                                                                                                                                                                                                
SPDP04000000000008524332022062803VACA631013RU7       VACA631013RU7VAZQUEZ CARRIZALES ARTURO               900000000000529500000000000001207801506423765900000                                        9 00000044012001PAGO FONDO DE AHORRO SNTE 5 2021-2022 SNTE SECC5                                                              0000000000000000000000000ISP0000000012697      
SPDMSNTE5AHORRO@OUTLOOK.COM                                                                             00000000000000000120780150642376592022062840044DISP0000000012697                                                                                                                                                                                                          
SPTB000000100000000000852433000000000000000000000000000000000000000000000000000000000000000000000000000000000000000000000000000000000000000000000000000000100000000000852433000000000000000000000000000000000000000000000000000000000000000000000000000                                                                                                                           
SPHB000000256021994360000021671000                                                                                                                                                                                                                                                                                                                                                
SPDP04000000000001961872022062803ZUAB710614ET8       ZUAB710614ET8ZU#IGA ARENAS BLANCA LIDIA              900000000002167100000000000001207901575984447900000                                        9 00000044012001PAGO FONDO DE AHORRO SNTE 5 2021-2022 SNTE SECC5                                                              0000000000000000000000000ISP0000000012698      
SPDMSNTE5AHORRO@OUTLOOK.COM                                                                             00000000000000000120790157598444792022062840044DISP0000000012698                                                                                                                                                                                                          
SPTB000000100000000000196187000000000000000000000000000000000000000000000000000000000000000000000000000000000000000000000000000000000000000000000000000000100000000000196187000000000000000000000000000000000000000000000000000000000000000000000000000                                                                                                                           
SPHB000000256021994360000013726000                                                                                                                                                                                                                                                                                                                                                
SPDP04000000000002381502022062803CAME830607FF9       CAME830607FF9CASTELLANOS MORA ELEAZAR                900000000001372600000000000001207700478773165100000                                        9 00000044012001PAGO FONDO DE AHORRO SNTE 5 2021-2022 SNTE SECC5                                                              0000000000000000000000000ISP0000000013784      
SPDMSNTE5AHORRO@OUTLOOK.COM                                                                             00000000000000000120770047877316512022062840044DISP0000000013784                                                                                                                                                                                                          
SPTB000000100000000000238150000000000000000000000000000000000000000000000000000000000000000000000000000000000000000000000000000000000000000000000000000000100000000000238150000000000000000000000000000000000000000000000000000000000000000000000000000                                                                                                                           
SPTA000002600000000041042300000000000000000000000000000000000000000000000000000000000000000000000000000000000000000000000000000000000000000000000000000002600000000041042300000000000000000000000000000000000000000000000000000000000000000000000000000000                                                                                                                        
