SRHA0932601202208162022081620220816000                                                                                                                                                                                                                                                                                                                                            
SRHB000000256021994360000019907000                                                                                                                                                                                                                                                                                                                                                
SRDR04000000000000436572022081503AUAE940311MC8       AUAE940311MC8AGUIRRE ALCALA EDGAR ARIEL              900000000001990700000000000002107806489945364000000                                        9 00000044021001PAGO FONDO DE AHORRO SNTE 5 2021-2022 SNTE SECC5                                                              0620000000000000000000000ISP0000000011254      
SRDMSNTE5AHORRO@OUTLOOK.COM                                                                             0000000000000000021078064899453640                                                                                                                                                                                                                                        
SRTB000000100000000000043657000000000000000000000000000000000000000000000000000000000000000000000000000000000000000000000000000000000000000000000000000000000000000000000000000000000000000000000000000000100000000000043657000000000000000000000000000                                                                                                                           
SRHB000000256021994360000022480000                                                                                                                                                                                                                                                                                                                                                
SRDR04000000000003426612022081503AAAM961113Q3A       AAAM961113Q3AALVAREZ ADAME MARICRUZ                  900000000002248000000000000001207201562543268200000                                        9 00000044012001PAGO FONDO DE AHORRO SNTE 5 2021-2022 SNTE SECC5                                                              0620000000000000000000000ISP0000000011354      
SRDMSNTE5AHORRO@OUTLOOK.COM                                                                             0000000000000000012072015625432682                                                                                                                                                                                                                                        
SRTB000000100000000000342661000000000000000000000000000000000000000000000000000000000000000000000000000000000000000000000000000000000000000000000000000000000000000000000000000000000000000000000000000000100000000000342661000000000000000000000000000                                                                                                                           
SRHB000000256021994360000022442000                                                                                                                                                                                                                                                                                                                                                
SRDR04000000000013874032022081503AEML930720TR3       AEML930720TR3ARMENDARIZ MORENO LEANDRA IZAMAR        900000000002244200000000000001407860565083786800000                                        9 00000044014001PAGO FONDO DE AHORRO SNTE 5 2021-2022 SNTE SECC5                                                              0620000000000000000000000ISP0000000012016      
SRDMSNTE5AHORRO@OUTLOOK.COM                                                                             0000000000000000014078605650837868                                                                                                                                                                                                                                        
SRTB000000100000000001387403000000000000000000000000000000000000000000000000000000000000000000000000000000000000000000000000000000000000000000000000000000000000000000000000000000000000000000000000000000100000000001387403000000000000000000000000000                                                                                                                           
SRHB000000256021994360000004164000                                                                                                                                                                                                                                                                                                                                                
SRDR04000000000001009022022081503AUVF980310KQ1       AUVF980310KQ1AGUILAR VIERA FRANCO ALEJANDRO          900000000000416400000000000002107306489744478200000                                        9 00000044021001PAGO FONDO DE AHORRO SNTE 5 2021-2022 SNTE SECC5                                                              0620000000000000000000000ISP0000000012852      
SRDMSNTE5AHORRO@OUTLOOK.COM                                                                             0000000000000000021073064897444782                                                                                                                                                                                                                                        
SRTB000000100000000000100902000000000000000000000000000000000000000000000000000000000000000000000000000000000000000000000000000000000000000000000000000000000000000000000000000000000000000000000000000000100000000000100902000000000000000000000000000                                                                                                                           
SRHB000000256021994360000018060000                                                                                                                                                                                                                                                                                                                                                
SRDR04000000000027102752022081503BEQS701109RD2       BEQS701109RD2BELTRAN QUIROZ SUSANA ARACELI           900000000001806000000000000001218001589917443500000                                        9 00000044012001PAGO FONDO DE AHORRO SNTE 5 2021-2022 SNTE SECC5                                                              0620000000000000000000000ISP0000000013054      
SRDMSNTE5AHORRO@OUTLOOK.COM                                                                             0000000000000000012180015899174435                                                                                                                                                                                                                                        
SRTB000000100000000002710275000000000000000000000000000000000000000000000000000000000000000000000000000000000000000000000000000000000000000000000000000000000000000000000000000000000000000000000000000000100000000002710275000000000000000000000000000                                                                                                                           
SRHB000000256021994360000018092000                                                                                                                                                                                                                                                                                                                                                
SRDR04000000000016044732022081503BESJ890328ASA       BESJ890328ASABENITEZ SANCHEZ JULIO CESAR             900000000001809200000000000001407960609636091300000                                        9 00000044014001PAGO FONDO DE AHORRO SNTE 5 2021-2022 SNTE SECC5                                                              0620000000000000000000000ISP0000000013089      
SRDMSNTE5AHORRO@OUTLOOK.COM                                                                             0000000000000000014079606096360913                                                                                                                                                                                                                                        
SRTB000000100000000001604473000000000000000000000000000000000000000000000000000000000000000000000000000000000000000000000000000000000000000000000000000000000000000000000000000000000000000000000000000000100000000001604473000000000000000000000000000                                                                                                                           
SRHB000000256021994360000018130000                                                                                                                                                                                                                                                                                                                                                
SRDR04000000000065597242022081503BIGR400515HG1       BIGR400515HG1BRICE#O GUERRERO RUTH                   900000000001813000000000000007207200463597761200000                                        9 00000044072001PAGO FONDO DE AHORRO SNTE 5 2021-2022 SNTE SECC5                                                              0620000000000000000000000ISP0000000013125      
SRDMSNTE5AHORRO@OUTLOOK.COM                                                                             0000000000000000072072004635977612                                                                                                                                                                                                                                        
SRTB000000100000000006559724000000000000000000000000000000000000000000000000000000000000000000000000000000000000000000000000000000000000000000000000000000000000000000000000000000000000000000000000000000100000000006559724000000000000000000000000000                                                                                                                           
SRHB000000256021994360000019970000                                                                                                                                                                                                                                                                                                                                                
SRDR04000000000015669512022081503AUGA660421ST2       AUGA660421ST2ARGUELLES GRANDE ALEJANDRO              900000000001997000000000000007229600279605885000000                                        9 00000044072001PAGO FONDO DE AHORRO SNTE 5 2021-2022 SNTE SECC5                                                              0620000000000000000000000ISP0000000013180      
SRDMSNTE5AHORRO@OUTLOOK.COM                                                                             0000000000000000072296002796058850                                                                                                                                                                                                                                        
SRTB000000100000000001566951000000000000000000000000000000000000000000000000000000000000000000000000000000000000000000000000000000000000000000000000000000000000000000000000000000000000000000000000000000100000000001566951000000000000000000000000000                                                                                                                           
SRHB000000256021994360000021309000                                                                                                                                                                                                                                                                                                                                                
SRDR04000000000000608392022081503AUGC900716BPA       AUGC900716BPACLAUDIA YANETH ARGUIJO GONZALEZ         900000000002130900000000000007206200250311783300000                                        9 00000044072001PAGO FONDO DE AHORRO SNTE 5 2021-2022 SNTE SECC5                                                              0620000000000000000000000ISP0000000013184      
SRDMSNTE5AHORRO@OUTLOOK.COM                                                                             0000000000000000072062002503117833                                                                                                                                                                                                                                        
SRTB000000100000000000060839000000000000000000000000000000000000000000000000000000000000000000000000000000000000000000000000000000000000000000000000000000000000000000000000000000000000000000000000000000100000000000060839000000000000000000000000000                                                                                                                           
SRHB000000256021994360000004279000                                                                                                                                                                                                                                                                                                                                                
SRDR04000000000007405572022081503BAHC800507NA3       BAHC800507NA3BANDA HERNANDEZ CAROLINA                900000000000427900000000000012707801391425022000000                                        9 00000044127001PAGO FONDO DE AHORRO SNTE 5 2021-2022 SNTE SECC5                                                              0620000000000000000000000ISP0000000013260      
SRDMSNTE5AHORRO@OUTLOOK.COM                                                                             0000000000000000127078013914250220                                                                                                                                                                                                                                        
SRTB000000100000000000740557000000000000000000000000000000000000000000000000000000000000000000000000000000000000000000000000000000000000000000000000000000000000000000000000000000000000000000000000000000100000000000740557000000000000000000000000000                                                                                                                           
SRHB000000256021994360000004281000                                                                                                                                                                                                                                                                                                                                                
SRDR04000000000053600872022081503BAHE630110MI0       BAHE630110MI0BRAVO HERNANDEZ ESPERANZA               900000000000428100000000000007207800449783894800000                                        9 00000044072001PAGO FONDO DE AHORRO SNTE 5 2021-2022 SNTE SECC5                                                              0620000000000000000000000ISP0000000013262      
SRDMSNTE5AHORRO@OUTLOOK.COM                                                                             0000000000000000072078004497838948                                                                                                                                                                                                                                        
SRTB000000100000000005360087000000000000000000000000000000000000000000000000000000000000000000000000000000000000000000000000000000000000000000000000000000000000000000000000000000000000000000000000000000100000000005360087000000000000000000000000000                                                                                                                           
SRHB000000256021994360000017773000                                                                                                                                                                                                                                                                                                                                                
SRDR04000000000001825492022081503CACR670522MI9       CACR670522MI9CABRERA CAMACHO RITA ARACELI            900000000001777300000000000001407856515630009400000                                        9 00000044014001PAGO FONDO DE AHORRO SNTE 5 2021-2022 SNTE SECC5                                                              0620000000000000000000000ISP0000000013737      
SRDMSNTE5AHORRO@OUTLOOK.COM                                                                             0000000000000000014078565156300094                                                                                                                                                                                                                                        
SRTB000000100000000000182549000000000000000000000000000000000000000000000000000000000000000000000000000000000000000000000000000000000000000000000000000000000000000000000000000000000000000000000000000000100000000000182549000000000000000000000000000                                                                                                                           
SRHB000000256021994360000013670000                                                                                                                                                                                                                                                                                                                                                
SRDR04000000000012983802022081503CALL6806271R0       CALL6806271R0CASTILLO LEZA LETICIA                   900000000001367000000000000007207800278425059000000                                        9 00000044072001PAGO FONDO DE AHORRO SNTE 5 2021-2022 SNTE SECC5                                                              0620000000000000000000000ISP0000000013922      
SRDMSNTE5AHORRO@OUTLOOK.COM                                                                             0000000000000000072078002784250590                                                                                                                                                                                                                                        
SRTB000000100000000001298380000000000000000000000000000000000000000000000000000000000000000000000000000000000000000000000000000000000000000000000000000000000000000000000000000000000000000000000000000000100000000001298380000000000000000000000000000                                                                                                                           
SRHB000000256021994360000001120000                                                                                                                                                                                                                                                                                                                                                
SRDR04000000000017556822022081503CASG701016F89       CASG701016F89CASTILLO SANTA MARIA JOSE GUADALUPE     900000000000112000000000000001406056588768671000000                                        9 00000044014001PAGO FONDO DE AHORRO SNTE 5 2021-2022 SNTE SECC5                                                              0620000000000000000000000ISP0000000014158      
SRDMSNTE5AHORRO@OUTLOOK.COM                                                                             0000000000000000014060565887686710                                                                                                                                                                                                                                        
SRTB000000100000000001755682000000000000000000000000000000000000000000000000000000000000000000000000000000000000000000000000000000000000000000000000000000000000000000000000000000000000000000000000000000100000000001755682000000000000000000000000000                                                                                                                           
SRHB000000256021994360000013798000                                                                                                                                                                                                                                                                                                                                                
SRDR04000000000000699502022081503CAMR8309281D4       CAMR8309281D4CAMARA MORALES RUTH ARELY               900000000001379800000000000000280090380837713300000                                        9 00000044002001PAGO FONDO DE AHORRO SNTE 5 2021-2022 SNTE SECC5                                                              0620000000000000000000000ISP0000000014320      
SRDMSNTE5AHORRO@OUTLOOK.COM                                                                             0000000000000000002800903808377133                                                                                                                                                                                                                                        
SRTB000000100000000000069950000000000000000000000000000000000000000000000000000000000000000000000000000000000000000000000000000000000000000000000000000000000000000000000000000000000000000000000000000000100000000000069950000000000000000000000000000                                                                                                                           
SRHB000000256021994360000021058000                                                                                                                                                                                                                                                                                                                                                
SRDR04000000000000949312022081503CEVI950513DA6       CEVI950513DA6IMELDA XIOMARA CEDILLO VIELMA           900000000002105800000000000001207801560475109000000                                        9 00000044012001PAGO FONDO DE AHORRO SNTE 5 2021-2022 SNTE SECC5                                                              0620000000000000000000000ISP0000000015045      
SRDMSNTE5AHORRO@OUTLOOK.COM                                                                             0000000000000000012078015604751090                                                                                                                                                                                                                                        
SRTB000000100000000000094931000000000000000000000000000000000000000000000000000000000000000000000000000000000000000000000000000000000000000000000000000000000000000000000000000000000000000000000000000000100000000000094931000000000000000000000000000                                                                                                                           
SRHB000000256021994360000003387000                                                                                                                                                                                                                                                                                                                                                
SRDR04000000000022491762022081503CEDJ780514BV3       CEDJ780514BV3DE LA CERDA DOMINGUEZ JESUS ANTONIO     900000000000338700000000000001407060616928845500000                                        9 00000044014001PAGO FONDO DE AHORRO SNTE 5 2021-2022 SNTE SECC5                                                              0620000000000000000000000ISP0000000015210      
SRDMSNTE5AHORRO@OUTLOOK.COM                                                                             0000000000000000014070606169288455                                                                                                                                                                                                                                        
SRTB000000100000000002249176000000000000000000000000000000000000000000000000000000000000000000000000000000000000000000000000000000000000000000000000000000000000000000000000000000000000000000000000000000100000000002249176000000000000000000000000000                                                                                                                           
SRHB000000256021994360000014492000                                                                                                                                                                                                                                                                                                                                                
SRDR04000000000010249412022081503COMI690416V96       COMI690416V96CORRAL MORIEL IRMA PATRICIA             900000000001449200000000000007207800248482656700000                                        9 00000044072001PAGO FONDO DE AHORRO SNTE 5 2021-2022 SNTE SECC5                                                              0620000000000000000000000ISP0000000015455      
SRDMSNTE5AHORRO@OUTLOOK.COM                                                                             0000000000000000072078002484826567                                                                                                                                                                                                                                        
SRTB000000100000000001024941000000000000000000000000000000000000000000000000000000000000000000000000000000000000000000000000000000000000000000000000000000000000000000000000000000000000000000000000000000100000000001024941000000000000000000000000000                                                                                                                           
SRHB000000256021994360000012964000                                                                                                                                                                                                                                                                                                                                                
SRDR04000000000006330742022081503FATM910113NQ0       FATM910113NQ0FARIAS TREVI#O MAYRA IRENE              900000000001296400000000000007207800413526195800000                                        9 00000044072001PAGO FONDO DE AHORRO SNTE 5 2021-2022 SNTE SECC5                                                              0620000000000000000000000ISP0000000015802      
SRDMSNTE5AHORRO@OUTLOOK.COM                                                                             0000000000000000072078004135261958                                                                                                                                                                                                                                        
SRTB000000100000000000633074000000000000000000000000000000000000000000000000000000000000000000000000000000000000000000000000000000000000000000000000000000000000000000000000000000000000000000000000000000100000000000633074000000000000000000000000000                                                                                                                           
SRHB000000256021994360000011952000                                                                                                                                                                                                                                                                                                                                                
SRDR04000000000029569572022081503EUMF870714U61       EUMF870714U61ESQUIVEL MARTINEZ MARIA FERNANDA        900000000001195200000000000001207801246260683000000                                        9 00000044012001PAGO FONDO DE AHORRO SNTE 5 2021-2022 SNTE SECC5                                                              0620000000000000000000000ISP0000000016229      
SRDMSNTE5AHORRO@OUTLOOK.COM                                                                             0000000000000000012078012462606830                                                                                                                                                                                                                                        
SRTB000000100000000002956957000000000000000000000000000000000000000000000000000000000000000000000000000000000000000000000000000000000000000000000000000000000000000000000000000000000000000000000000000000100000000002956957000000000000000000000000000                                                                                                                           
SRHB000000256021994360000018421000                                                                                                                                                                                                                                                                                                                                                
SRDR04000000000017236942022081503GAGL870624JFA       GAGL870624JFAGARCIA GUAJARDO LINDA MARGARITA         900000000001842100000000000001407856595554465300000                                        9 00000044014001PAGO FONDO DE AHORRO SNTE 5 2021-2022 SNTE SECC5                                                              0620000000000000000000000ISP0000000016803      
SRDMSNTE5AHORRO@OUTLOOK.COM                                                                             0000000000000000014078565955544653                                                                                                                                                                                                                                        
SRTB000000100000000001723694000000000000000000000000000000000000000000000000000000000000000000000000000000000000000000000000000000000000000000000000000000000000000000000000000000000000000000000000000000100000000001723694000000000000000000000000000                                                                                                                           
SRHB000000256021994360000013057000                                                                                                                                                                                                                                                                                                                                                
SRDR04000000000023442842022081503FIOP790311UQA       FIOP790311UQAFIGUEROA ORTIZ PATRICIA                 900000000001305700000000000001407556546722804600000                                        9 00000044014001PAGO FONDO DE AHORRO SNTE 5 2021-2022 SNTE SECC5                                                              0620000000000000000000000ISP0000000016861      
SRDMSNTE5AHORRO@OUTLOOK.COM                                                                             0000000000000000014075565467228046                                                                                                                                                                                                                                        
SRTB000000100000000002344284000000000000000000000000000000000000000000000000000000000000000000000000000000000000000000000000000000000000000000000000000000000000000000000000000000000000000000000000000000100000000002344284000000000000000000000000000                                                                                                                           
SRHB000000256021994360000013145000                                                                                                                                                                                                                                                                                                                                                
SRDR04000000000018287342022081503FOEC820719F99       FOEC820719F99FLORES ESCOBEDO CARLOS                  900000000001314500000000000007207801101252583600000                                        9 00000044072001PAGO FONDO DE AHORRO SNTE 5 2021-2022 SNTE SECC5                                                              0620000000000000000000000ISP0000000016947      
SRDMSNTE5AHORRO@OUTLOOK.COM                                                                             0000000000000000072078011012525836                                                                                                                                                                                                                                        
SRTB000000100000000001828734000000000000000000000000000000000000000000000000000000000000000000000000000000000000000000000000000000000000000000000000000000000000000000000000000000000000000000000000000000100000000001828734000000000000000000000000000                                                                                                                           
SRHB000000256021994360000021448000                                                                                                                                                                                                                                                                                                                                                
SRDR04000000000012427572022081503FOSJ920205Q82       FOSJ920205Q82JUAN FELIPE FLORES SOLIS                900000000002144800000000000001407856769824623200000                                        9 00000044014001PAGO FONDO DE AHORRO SNTE 5 2021-2022 SNTE SECC5                                                              0620000000000000000000000ISP0000000017337      
SRDMSNTE5AHORRO@OUTLOOK.COM                                                                             0000000000000000014078567698246232                                                                                                                                                                                                                                        
SRTB000000100000000001242757000000000000000000000000000000000000000000000000000000000000000000000000000000000000000000000000000000000000000000000000000000000000000000000000000000000000000000000000000000100000000001242757000000000000000000000000000                                                                                                                           
SRHB000000256021994360000019174000                                                                                                                                                                                                                                                                                                                                                
SRDR04000000000000854382022081503GARV751115R31       GARV751115R31GARCIA REYES VERONICA PATRICIA          900000000001917400000000000001207801212824485300000                                        9 00000044012001PAGO FONDO DE AHORRO SNTE 5 2021-2022 SNTE SECC5                                                              0620000000000000000000000ISP0000000018457      
SRDMSNTE5AHORRO@OUTLOOK.COM                                                                             0000000000000000012078012128244853                                                                                                                                                                                                                                        
SRTB000000100000000000085438000000000000000000000000000000000000000000000000000000000000000000000000000000000000000000000000000000000000000000000000000000000000000000000000000000000000000000000000000000100000000000085438000000000000000000000000000                                                                                                                           
SRHB000000256021994360000018515000                                                                                                                                                                                                                                                                                                                                                
SRDR04000000000014433342022081503GAHM691116BZ4       GAHM691116BZ4GALLEGOS HUERTA MARCO ARIEL             900000000001851500000000000002107206417914730000000                                        9 00000044021001PAGO FONDO DE AHORRO SNTE 5 2021-2022 SNTE SECC5                                                              0620000000000000000000000ISP0000000018786      
SRDMSNTE5AHORRO@OUTLOOK.COM                                                                             0000000000000000021072064179147300                                                                                                                                                                                                                                        
SRTB000000100000000001443334000000000000000000000000000000000000000000000000000000000000000000000000000000000000000000000000000000000000000000000000000000000000000000000000000000000000000000000000000000100000000001443334000000000000000000000000000                                                                                                                           
SRHB000000256021994360000020806000                                                                                                                                                                                                                                                                                                                                                
SRDR04000000000012427572022081503GAUL760815I3A       GAUL760815I3AMARIA LUISA GARCIA URIBE                900000000002080600000000000007207801109948387800000                                        9 00000044072001PAGO FONDO DE AHORRO SNTE 5 2021-2022 SNTE SECC5                                                              0620000000000000000000000ISP0000000019135      
SRDMSNTE5AHORRO@OUTLOOK.COM                                                                             0000000000000000072078011099483878                                                                                                                                                                                                                                        
SRTB000000100000000001242757000000000000000000000000000000000000000000000000000000000000000000000000000000000000000000000000000000000000000000000000000000000000000000000000000000000000000000000000000000100000000001242757000000000000000000000000000                                                                                                                           
SRHB000000256021994360000005676000                                                                                                                                                                                                                                                                                                                                                
SRDR04000000000012983802022081503GUSJ840512BS4       GUSJ840512BS4GUTIERREZ SANTANA JUAN PABLO            900000000000567600000000000002107806417923210900000                                        9 00000044021001PAGO FONDO DE AHORRO SNTE 5 2021-2022 SNTE SECC5                                                              0620000000000000000000000ISP0000000021888      
SRDMSNTE5AHORRO@OUTLOOK.COM                                                                             0000000000000000021078064179232109                                                                                                                                                                                                                                        
SRTB000000100000000001298380000000000000000000000000000000000000000000000000000000000000000000000000000000000000000000000000000000000000000000000000000000000000000000000000000000000000000000000000000000100000000001298380000000000000000000000000000                                                                                                                           
SRHB000000256021994360000014200000                                                                                                                                                                                                                                                                                                                                                
SRDR04000000000017236942022081503HUQL851127EB4       HUQL851127EB4HUERTA QUIROZ LIDIA LORENA              900000000001420000000000000000258090269045603300000                                        9 00000044002001PAGO FONDO DE AHORRO SNTE 5 2021-2022 SNTE SECC5                                                              0620000000000000000000000ISP0000000022542      
SRDMSNTE5AHORRO@OUTLOOK.COM                                                                             0000000000000000002580902690456033                                                                                                                                                                                                                                        
SRTB000000100000000001723694000000000000000000000000000000000000000000000000000000000000000000000000000000000000000000000000000000000000000000000000000000000000000000000000000000000000000000000000000000100000000001723694000000000000000000000000000                                                                                                                           
SRHB000000256021994360000020211000                                                                                                                                                                                                                                                                                                                                                
SRDR04000000000000912742022081503LARC720719CM4       LARC720719CM4LARA RODRIGUEZ CLAUDIA MIROSLABA        900000000002021100000000000007206801112756667700000                                        9 00000044072001PAGO FONDO DE AHORRO SNTE 5 2021-2022 SNTE SECC5                                                              0620000000000000000000000ISP0000000023041      
SRDMSNTE5AHORRO@OUTLOOK.COM                                                                             0000000000000000072068011127566677                                                                                                                                                                                                                                        
SRTB000000100000000000091274000000000000000000000000000000000000000000000000000000000000000000000000000000000000000000000000000000000000000000000000000000000000000000000000000000000000000000000000000000100000000000091274000000000000000000000000000                                                                                                                           
SRHB000000256021994360000022251000                                                                                                                                                                                                                                                                                                                                                
SRDR04000000000029735382022081503LEDG831219436       LEDG831219436LEDEZMA DUQUE GILBERTO                  900000000002225100000000000007207800553671339200000                                        9 00000044072001PAGO FONDO DE AHORRO SNTE 5 2021-2022 SNTE SECC5                                                              0620000000000000000000000ISP0000000023106      
SRDMSNTE5AHORRO@OUTLOOK.COM                                                                             0000000000000000072078005536713392                                                                                                                                                                                                                                        
SRTB000000100000000002973538000000000000000000000000000000000000000000000000000000000000000000000000000000000000000000000000000000000000000000000000000000000000000000000000000000000000000000000000000000100000000002973538000000000000000000000000000                                                                                                                           
SRHB000000256021994360000019345000                                                                                                                                                                                                                                                                                                                                                
SRDR04000000000119618882022081503LOPN390809S48       LOPN390809S48LOPEZ PAEZ JOSE NIEVES                  900000000001934500000000000001408156524899910600000                                        9 00000044014001PAGO FONDO DE AHORRO SNTE 5 2021-2022 SNTE SECC5                                                              0620000000000000000000000ISP0000000023845      
SRDMSNTE5AHORRO@OUTLOOK.COM                                                                             0000000000000000014081565248999106                                                                                                                                                                                                                                        
SRTB000000100000000011961888000000000000000000000000000000000000000000000000000000000000000000000000000000000000000000000000000000000000000000000000000000000000000000000000000000000000000000000000000000100000000011961888000000000000000000000000000                                                                                                                           
SRHB000000256021994360000019403000                                                                                                                                                                                                                                                                                                                                                
SRDR04000000000019429702022081503LORS670907MY8       LORS670907MY8LOPEZ RIVERA MARIA DEL SOCORRO          900000000001940300000000000000207890240411414100000                                        9 00000044002001PAGO FONDO DE AHORRO SNTE 5 2021-2022 SNTE SECC5                                                              0620000000000000000000000ISP0000000023903      
SRDMSNTE5AHORRO@OUTLOOK.COM                                                                             0000000000000000002078902404114141                                                                                                                                                                                                                                        
SRTB000000100000000001942970000000000000000000000000000000000000000000000000000000000000000000000000000000000000000000000000000000000000000000000000000000000000000000000000000000000000000000000000000000100000000001942970000000000000000000000000000                                                                                                                           
SRHB000000256021994360000007514000                                                                                                                                                                                                                                                                                                                                                
SRDR04000000000011653622022081503MADA630708MW2       MADA630708MW2MARINES DURON ARACELY                   900000000000751400000000000000207870144816577100000                                        9 00000044002001PAGO FONDO DE AHORRO SNTE 5 2021-2022 SNTE SECC5                                                              0620000000000000000000000ISP0000000024502      
SRDMSNTE5AHORRO@OUTLOOK.COM                                                                             0000000000000000002078701448165771                                                                                                                                                                                                                                        
SRTB000000100000000001165362000000000000000000000000000000000000000000000000000000000000000000000000000000000000000000000000000000000000000000000000000000000000000000000000000000000000000000000000000000100000000001165362000000000000000000000000000                                                                                                                           
SRHB000000256021994360000010419000                                                                                                                                                                                                                                                                                                                                                
SRDR04000000000012427522022081503MAMF571004QZ3       MAMF571004QZ3MAGALLANES MORALES FRANCISCA            900000000001041900000000000001407856596877035900000                                        9 00000044014001PAGO FONDO DE AHORRO SNTE 5 2021-2022 SNTE SECC5                                                              0620000000000000000000000ISP0000000024622      
SRDMSNTE5AHORRO@OUTLOOK.COM                                                                             0000000000000000014078565968770359                                                                                                                                                                                                                                        
SRTB000000100000000001242752000000000000000000000000000000000000000000000000000000000000000000000000000000000000000000000000000000000000000000000000000000000000000000000000000000000000000000000000000000100000000001242752000000000000000000000000000                                                                                                                           
SRHB000000256021994360000008794000                                                                                                                                                                                                                                                                                                                                                
SRDR04000000000023850032022081503MAMX800406FP5       MAMX800406FP5MARTINEZ MARTINEZ OCTAVIO ALEJANDRO     900000000000879400000000000002107606417893694500000                                        9 00000044021001PAGO FONDO DE AHORRO SNTE 5 2021-2022 SNTE SECC5                                                              0620000000000000000000000ISP0000000024711      
SRDMSNTE5AHORRO@OUTLOOK.COM                                                                             0000000000000000021076064178936945                                                                                                                                                                                                                                        
SRTB000000100000000002385003000000000000000000000000000000000000000000000000000000000000000000000000000000000000000000000000000000000000000000000000000000000000000000000000000000000000000000000000000000100000000002385003000000000000000000000000000                                                                                                                           
SRHB000000256021994360000007134000                                                                                                                                                                                                                                                                                                                                                
SRDR04000000000025233572022081503MOGE790523I44       MOGE790523I44MORENO GUERRERO EDGAR ALBERTO           900000000000713400000000000001218001593865358700000                                        9 00000044012001PAGO FONDO DE AHORRO SNTE 5 2021-2022 SNTE SECC5                                                              0620000000000000000000000ISP0000000025416      
SRDMSNTE5AHORRO@OUTLOOK.COM                                                                             0000000000000000012180015938653587                                                                                                                                                                                                                                        
SRTB000000100000000002523357000000000000000000000000000000000000000000000000000000000000000000000000000000000000000000000000000000000000000000000000000000000000000000000000000000000000000000000000000000100000000002523357000000000000000000000000000                                                                                                                           
SRHB000000256021994360000006837000                                                                                                                                                                                                                                                                                                                                                
SRDR04000000000004637342022081503METH550607857       METH550607857MEDINA TORRES HILDA                     900000000000683700000000000007207800285257463200000                                        9 00000044072001PAGO FONDO DE AHORRO SNTE 5 2021-2022 SNTE SECC5                                                              0620000000000000000000000ISP0000000025805      
SRDMSNTE5AHORRO@OUTLOOK.COM                                                                             0000000000000000072078002852574632                                                                                                                                                                                                                                        
SRTB000000100000000000463734000000000000000000000000000000000000000000000000000000000000000000000000000000000000000000000000000000000000000000000000000000000000000000000000000000000000000000000000000000100000000000463734000000000000000000000000000                                                                                                                           
SRHB000000256021994360000007149000                                                                                                                                                                                                                                                                                                                                                
SRDR04000000000017929712022081503MOGH821029N29       MOGH821029N29MONTOYA GUILLERMO HILARIA LUCIA         900000000000714900000000000007207800260269379200000                                        9 00000044072001PAGO FONDO DE AHORRO SNTE 5 2021-2022 SNTE SECC5                                                              0620000000000000000000000ISP0000000026883      
SRDMSNTE5AHORRO@OUTLOOK.COM                                                                             0000000000000000072078002602693792                                                                                                                                                                                                                                        
SRTB000000100000000001792971000000000000000000000000000000000000000000000000000000000000000000000000000000000000000000000000000000000000000000000000000000000000000000000000000000000000000000000000000000100000000001792971000000000000000000000000000                                                                                                                           
SRHB000000256021994360000002935000                                                                                                                                                                                                                                                                                                                                                
SRDR04000000000012427572022081503PERD660329HR4       PERD660329HR4PECINA ROJAS DAMIAN                     900000000000293500000000000001207802872304716400000                                        9 00000044012001PAGO FONDO DE AHORRO SNTE 5 2021-2022 SNTE SECC5                                                              0620000000000000000000000ISP0000000027804      
SRDMSNTE5AHORRO@OUTLOOK.COM                                                                             0000000000000000012078028723047164                                                                                                                                                                                                                                        
SRTB000000100000000001242757000000000000000000000000000000000000000000000000000000000000000000000000000000000000000000000000000000000000000000000000000000000000000000000000000000000000000000000000000000100000000001242757000000000000000000000000000                                                                                                                           
SRHB000000256021994360000015666000                                                                                                                                                                                                                                                                                                                                                
SRDR04000000000002156172022081503QUHN9411143V4       QUHN9411143V4QUINTANILLA HERNANDEZ NATALIE LEBIRAM   900000000001566600000000000001206801535144779300000                                        9 00000044012001PAGO FONDO DE AHORRO SNTE 5 2021-2022 SNTE SECC5                                                              0620000000000000000000000ISP0000000027997      
SRDMSNTE5AHORRO@OUTLOOK.COM                                                                             0000000000000000012068015351447793                                                                                                                                                                                                                                        
SRTB000000100000000000215617000000000000000000000000000000000000000000000000000000000000000000000000000000000000000000000000000000000000000000000000000000000000000000000000000000000000000000000000000000100000000000215617000000000000000000000000000                                                                                                                           
SRHB000000256021994360000006251000                                                                                                                                                                                                                                                                                                                                                
SRDR04000000000003800572022081503QUVL6511108I6       QUVL6511108I6QUIJANO VALDES LUIS MIGUEL              900000000000625100000000000001407860584224560800000                                        9 00000044014001PAGO FONDO DE AHORRO SNTE 5 2021-2022 SNTE SECC5                                                              0620000000000000000000000ISP0000000028048      
SRDMSNTE5AHORRO@OUTLOOK.COM                                                                             0000000000000000014078605842245608                                                                                                                                                                                                                                        
SRTB000000100000000000380057000000000000000000000000000000000000000000000000000000000000000000000000000000000000000000000000000000000000000000000000000000000000000000000000000000000000000000000000000000100000000000380057000000000000000000000000000                                                                                                                           
SRHB000000256021994360000001734000                                                                                                                                                                                                                                                                                                                                                
SRDR04000000000001171872022081503RAQM630205AG4       RAQM630205AG4RANGEL QUIROZ MIGUEL                    900000000000173400000000000007207800340004710900000                                        9 00000044072001PAGO FONDO DE AHORRO SNTE 5 2021-2022 SNTE SECC5                                                              0620000000000000000000000ISP0000000028253      
SRDMSNTE5AHORRO@OUTLOOK.COM                                                                             0000000000000000072078003400047109                                                                                                                                                                                                                                        
SRTB000000100000000000117187000000000000000000000000000000000000000000000000000000000000000000000000000000000000000000000000000000000000000000000000000000000000000000000000000000000000000000000000000000100000000000117187000000000000000000000000000                                                                                                                           
SRHB000000256021994360000022936000                                                                                                                                                                                                                                                                                                                                                
SRDR04000000000001513982022081503RACS840902NJ9       RACS840902NJ9RAMOS CRUZ SAIRA LUCIA                  900000000002293600000000000002107806513876545400000                                        9 00000044021001PAGO FONDO DE AHORRO SNTE 5 2021-2022 SNTE SECC5                                                              0620000000000000000000000ISP0000000028537      
SRDMSNTE5AHORRO@OUTLOOK.COM                                                                             0000000000000000021078065138765454                                                                                                                                                                                                                                        
SRTB000000100000000000151398000000000000000000000000000000000000000000000000000000000000000000000000000000000000000000000000000000000000000000000000000000000000000000000000000000000000000000000000000000100000000000151398000000000000000000000000000                                                                                                                           
SRHB000000256021994360000001774000                                                                                                                                                                                                                                                                                                                                                
SRDR04000000000006401132022081503RARK900430HB3       RARK900430HB3RAMIREZ REYES KARLA MARIA               900000000000177400000000000001407560606112523900000                                        9 00000044014001PAGO FONDO DE AHORRO SNTE 5 2021-2022 SNTE SECC5                                                              0620000000000000000000000ISP0000000028669      
SRDMSNTE5AHORRO@OUTLOOK.COM                                                                             0000000000000000014075606061125239                                                                                                                                                                                                                                        
SRTB000000100000000000640113000000000000000000000000000000000000000000000000000000000000000000000000000000000000000000000000000000000000000000000000000000000000000000000000000000000000000000000000000000100000000000640113000000000000000000000000000                                                                                                                           
SRHB000000256021994360000001776000                                                                                                                                                                                                                                                                                                                                                
SRDR04000000000010943892022081503RARL8505121Q7       RARL8505121Q7RAMOS RODRIGUEZ LESLIE WENDOLIN         900000000000177600000000000007207800365337146000000                                        9 00000044072001PAGO FONDO DE AHORRO SNTE 5 2021-2022 SNTE SECC5                                                              0620000000000000000000000ISP0000000028670      
SRDMSNTE5AHORRO@OUTLOOK.COM                                                                             0000000000000000072078003653371460                                                                                                                                                                                                                                        
SRTB000000100000000001094389000000000000000000000000000000000000000000000000000000000000000000000000000000000000000000000000000000000000000000000000000000000000000000000000000000000000000000000000000000100000000001094389000000000000000000000000000                                                                                                                           
SRHB000000256021994360000010463000                                                                                                                                                                                                                                                                                                                                                
SRDR04000000000000648442022081503RAVN750421HC5       RAVN750421HC5RAMIREZ VILLARREAL NANCY ASTRID         900000000001046300000000000007207800186838585800000                                        9 00000044072001PAGO FONDO DE AHORRO SNTE 5 2021-2022 SNTE SECC5                                                              0620000000000000000000000ISP0000000028767      
SRDMSNTE5AHORRO@OUTLOOK.COM                                                                             0000000000000000072078001868385858                                                                                                                                                                                                                                        
SRTB000000100000000000064844000000000000000000000000000000000000000000000000000000000000000000000000000000000000000000000000000000000000000000000000000000000000000000000000000000000000000000000000000000100000000000064844000000000000000000000000000                                                                                                                           
SRHB000000256021994360000015524000                                                                                                                                                                                                                                                                                                                                                
SRDR04000000000014221352022081503POGC800707Q5A       POGC800707Q5APOSADA GUILLERMO CLAUDIA LUCINDA        900000000001552400000000000012707801391559375300000                                        9 00000044127001PAGO FONDO DE AHORRO SNTE 5 2021-2022 SNTE SECC5                                                              0620000000000000000000000ISP0000000028916      
SRDMSNTE5AHORRO@OUTLOOK.COM                                                                             0000000000000000127078013915593753                                                                                                                                                                                                                                        
SRTB000000100000000001422135000000000000000000000000000000000000000000000000000000000000000000000000000000000000000000000000000000000000000000000000000000000000000000000000000000000000000000000000000000100000000001422135000000000000000000000000000                                                                                                                           
SRHB000000256021994360000015259000                                                                                                                                                                                                                                                                                                                                                
SRDR04000000000017236942022081503ROAL760409N24       ROAL760409N24RODRIGUEZ ALEJANDRO LORENA AGRIPINA     900000000001525900000000000001207802725796997100000                                        9 00000044012001PAGO FONDO DE AHORRO SNTE 5 2021-2022 SNTE SECC5                                                              0620000000000000000000000ISP0000000029052      
SRDMSNTE5AHORRO@OUTLOOK.COM                                                                             0000000000000000012078027257969971                                                                                                                                                                                                                                        
SRTB000000100000000001723694000000000000000000000000000000000000000000000000000000000000000000000000000000000000000000000000000000000000000000000000000000000000000000000000000000000000000000000000000000100000000001723694000000000000000000000000000                                                                                                                           
SRHB000000256021994360000016478000                                                                                                                                                                                                                                                                                                                                                
SRDR04000000000012427572022081503ROGK8504086Q7       ROGK8504086Q7RODRIGUEZ GARCIA KARINA JANETH          900000000001647800000000000007207800586220119600000                                        9 00000044072001PAGO FONDO DE AHORRO SNTE 5 2021-2022 SNTE SECC5                                                              0620000000000000000000000ISP0000000029181      
SRDMSNTE5AHORRO@OUTLOOK.COM                                                                             0000000000000000072078005862201196                                                                                                                                                                                                                                        
SRTB000000100000000001242757000000000000000000000000000000000000000000000000000000000000000000000000000000000000000000000000000000000000000000000000000000000000000000000000000000000000000000000000000000100000000001242757000000000000000000000000000                                                                                                                           
SRHB000000256021994360000014997000                                                                                                                                                                                                                                                                                                                                                
SRDR04000000000037912452022081503RICS6404114V2       RICS6404114V2RIOS CARDOZA SOFIA ISABEL               900000000001499700000000000007207500522119864900000                                        9 00000044072001PAGO FONDO DE AHORRO SNTE 5 2021-2022 SNTE SECC5                                                              0620000000000000000000000ISP0000000029661      
SRDMSNTE5AHORRO@OUTLOOK.COM                                                                             0000000000000000072075005221198649                                                                                                                                                                                                                                        
SRTB000000100000000003791245000000000000000000000000000000000000000000000000000000000000000000000000000000000000000000000000000000000000000000000000000000000000000000000000000000000000000000000000000000100000000003791245000000000000000000000000000                                                                                                                           
SRHB000000256021994360000015297000                                                                                                                                                                                                                                                                                                                                                
SRDR04000000000014433342022081503ROBI650730H50       ROBI650730H50RODRIGUEZ BARRON MARIA ISABEL           900000000001529700000000000001206801111389599800000                                        9 00000044012001PAGO FONDO DE AHORRO SNTE 5 2021-2022 SNTE SECC5                                                              0620000000000000000000000ISP0000000029733      
SRDMSNTE5AHORRO@OUTLOOK.COM                                                                             0000000000000000012068011113895998                                                                                                                                                                                                                                        
SRTB000000100000000001443334000000000000000000000000000000000000000000000000000000000000000000000000000000000000000000000000000000000000000000000000000000000000000000000000000000000000000000000000000000100000000001443334000000000000000000000000000                                                                                                                           
SRHB000000256021994360000005043000                                                                                                                                                                                                                                                                                                                                                
SRDR04000000000028698622022081503RORR661105M93       RORR661105M93ROSALES RODRIGUEZ ROSEMBERG             900000000000504300000000000000207890240410817300000                                        9 00000044002001PAGO FONDO DE AHORRO SNTE 5 2021-2022 SNTE SECC5                                                              0620000000000000000000000ISP0000000030554      
SRDMSNTE5AHORRO@OUTLOOK.COM                                                                             0000000000000000002078902404108173                                                                                                                                                                                                                                        
SRTB000000100000000002869862000000000000000000000000000000000000000000000000000000000000000000000000000000000000000000000000000000000000000000000000000000000000000000000000000000000000000000000000000000100000000002869862000000000000000000000000000                                                                                                                           
SRHB000000256021994360000022423000                                                                                                                                                                                                                                                                                                                                                
SRDR04000000000009090032022081503ROMI951126HA6       ROMI951126HA6ROCHA MARTINEZ ISAAC                    900000000002242300000000000001407860623171120500000                                        9 00000044014001PAGO FONDO DE AHORRO SNTE 5 2021-2022 SNTE SECC5                                                              0620000000000000000000000ISP0000000030986      
SRDMSNTE5AHORRO@OUTLOOK.COM                                                                             0000000000000000014078606231711205                                                                                                                                                                                                                                        
SRTB000000100000000000909003000000000000000000000000000000000000000000000000000000000000000000000000000000000000000000000000000000000000000000000000000000000000000000000000000000000000000000000000000000100000000000909003000000000000000000000000000                                                                                                                           
SRHB000000256021994360000003288000                                                                                                                                                                                                                                                                                                                                                
SRDR04000000000022889962022081503ROMJ780602FY4       ROMJ780602FY4DE LA ROSA MENCHACA JUANITA GUADALUPE   900000000000328800000000000002106806512279089800000                                        9 00000044021001PAGO FONDO DE AHORRO SNTE 5 2021-2022 SNTE SECC5                                                              0620000000000000000000000ISP0000000030990      
SRDMSNTE5AHORRO@OUTLOOK.COM                                                                             0000000000000000021068065122790898                                                                                                                                                                                                                                        
SRTB000000100000000002288996000000000000000000000000000000000000000000000000000000000000000000000000000000000000000000000000000000000000000000000000000000000000000000000000000000000000000000000000000000100000000002288996000000000000000000000000000                                                                                                                           
SRHB000000256021994360000010297000                                                                                                                                                                                                                                                                                                                                                
SRDR04000000000000436572022081503SATJ850711TUA       SATJ850711TUASANCHEZ TENORIO JORGE ARMANDO           900000000001029700000000000007207801028994506200000                                        9 00000044072001PAGO FONDO DE AHORRO SNTE 5 2021-2022 SNTE SECC5                                                              0620000000000000000000000ISP0000000034458      
SRDMSNTE5AHORRO@OUTLOOK.COM                                                                             0000000000000000072078010289945062                                                                                                                                                                                                                                        
SRTB000000100000000000043657000000000000000000000000000000000000000000000000000000000000000000000000000000000000000000000000000000000000000000000000000000000000000000000000000000000000000000000000000000100000000000043657000000000000000000000000000                                                                                                                           
SRHB000000256021994360000016752000                                                                                                                                                                                                                                                                                                                                                
SRDR04000000000000699502022081503SIRD6112262K7       SIRD6112262K7SIMENTAL RIOS DELIA TERESA              900000000001675200000000000001407860545666707000000                                        9 00000044014001PAGO FONDO DE AHORRO SNTE 5 2021-2022 SNTE SECC5                                                              0620000000000000000000000ISP0000000034988      
SRDMSNTE5AHORRO@OUTLOOK.COM                                                                             0000000000000000014078605456667070                                                                                                                                                                                                                                        
SRTB000000100000000000069950000000000000000000000000000000000000000000000000000000000000000000000000000000000000000000000000000000000000000000000000000000000000000000000000000000000000000000000000000000100000000000069950000000000000000000000000000                                                                                                                           
SRHB000000256021994360000005170000                                                                                                                                                                                                                                                                                                                                                
SRDR04000000000000284802022081503TUCJ880309MC0       TUCJ880309MC0TRUJILLO CORDOVA JUANITA AGLAE          900000000000517000000000000007206801082686063300000                                        9 00000044072001PAGO FONDO DE AHORRO SNTE 5 2021-2022 SNTE SECC5                                                              0620000000000000000000000ISP0000000036023      
SRDMSNTE5AHORRO@OUTLOOK.COM                                                                             0000000000000000072068010826860633                                                                                                                                                                                                                                        
SRTB000000100000000000028480000000000000000000000000000000000000000000000000000000000000000000000000000000000000000000000000000000000000000000000000000000000000000000000000000000000000000000000000000000100000000000028480000000000000000000000000000                                                                                                                           
SRHB000000256021994360000021365000                                                                                                                                                                                                                                                                                                                                                
SRDR04000000000021371512022081503UESV9512222P4       UESV9512222P4VERONICA IRASEMA URENDA SANCHEZ         900000000002136500000000000001207801510219932900000                                        9 00000044012001PAGO FONDO DE AHORRO SNTE 5 2021-2022 SNTE SECC5                                                              0620000000000000000000000ISP0000000036063      
SRDMSNTE5AHORRO@OUTLOOK.COM                                                                             0000000000000000012078015102199329                                                                                                                                                                                                                                        
SRTB000000100000000002137151000000000000000000000000000000000000000000000000000000000000000000000000000000000000000000000000000000000000000000000000000000000000000000000000000000000000000000000000000000100000000002137151000000000000000000000000000                                                                                                                           
SRHB000000256021994360000008913000                                                                                                                                                                                                                                                                                                                                                
SRDR04000000000000949332022081503VAHJ761223LZA       VAHJ761223LZAVALDES HIDALGO JORGE LUIS               900000000000891300000000000007206800814160486100000                                        9 00000044072001PAGO FONDO DE AHORRO SNTE 5 2021-2022 SNTE SECC5                                                              0620000000000000000000000ISP0000000036152      
SRDMSNTE5AHORRO@OUTLOOK.COM                                                                             0000000000000000072068008141604861                                                                                                                                                                                                                                        
SRTB000000100000000000094933000000000000000000000000000000000000000000000000000000000000000000000000000000000000000000000000000000000000000000000000000000000000000000000000000000000000000000000000000000100000000000094933000000000000000000000000000                                                                                                                           
SRHB000000256021994360000012604000                                                                                                                                                                                                                                                                                                                                                
SRDR04000000000014159292022081503VITA580926UZ6       VITA580926UZ6VILLARREAL TREVI#O ABEL CARLOS          900000000001260400000000000001407856547735318600000                                        9 00000044014001PAGO FONDO DE AHORRO SNTE 5 2021-2022 SNTE SECC5                                                              0620000000000000000000000ISP0000000036465      
SRDMSNTE5AHORRO@OUTLOOK.COM                                                                             0000000000000000014078565477353186                                                                                                                                                                                                                                        
SRTB000000100000000001415929000000000000000000000000000000000000000000000000000000000000000000000000000000000000000000000000000000000000000000000000000000000000000000000000000000000000000000000000000000100000000001415929000000000000000000000000000                                                                                                                           
SRHB000000256021994360000009726000                                                                                                                                                                                                                                                                                                                                                
SRDR04000000000054159732022081503VIJA691124MB5       VIJA691124MB5VILLANUEVA JIMENEZ ADA GRICELDA         900000000000972600000000000001407060548083155300000                                        9 00000044014001PAGO FONDO DE AHORRO SNTE 5 2021-2022 SNTE SECC5                                                              0620000000000000000000000ISP0000000036993      
SRDMSNTE5AHORRO@OUTLOOK.COM                                                                             0000000000000000014070605480831553                                                                                                                                                                                                                                        
SRTB000000100000000005415973000000000000000000000000000000000000000000000000000000000000000000000000000000000000000000000000000000000000000000000000000000000000000000000000000000000000000000000000000000100000000005415973000000000000000000000000000                                                                                                                           
SRHB000000256021994360000009473000                                                                                                                                                                                                                                                                                                                                                
SRDR04000000000013304712022081503VELL960120368       VELL960120368VELOZ LARA LUIS FERNANDO                900000000000947300000000000001206202863190749600000                                        9 00000044012001PAGO FONDO DE AHORRO SNTE 5 2021-2022 SNTE SECC5                                                              0620000000000000000000000ISP0000000037243      
SRDMSNTE5AHORRO@OUTLOOK.COM                                                                             0000000000000000012062028631907496                                                                                                                                                                                                                                        
SRTB000000100000000001330471000000000000000000000000000000000000000000000000000000000000000000000000000000000000000000000000000000000000000000000000000000000000000000000000000000000000000000000000000000100000000001330471000000000000000000000000000                                                                                                                           
SRHB000000256021994360000003342000                                                                                                                                                                                                                                                                                                                                                
SRDR04000000000030823002022081503RAMS751210LW4       RAMS751210LW4RAMIREZ MENDOZA SERGIO ALFREDO          900000000000334200000000000001407256604650279000000                                        9 00000044014001PAGO FONDO DE AHORRO SNTE 5 2021-2022 SNTE SECC5                                                              0620000000000000000000000ISP0000000037327      
SRDMSNTE5AHORRO@OUTLOOK.COM                                                                             0000000000000000014072566046502790                                                                                                                                                                                                                                        
SRTB000000100000000003082300000000000000000000000000000000000000000000000000000000000000000000000000000000000000000000000000000000000000000000000000000000000000000000000000000000000000000000000000000000100000000003082300000000000000000000000000000                                                                                                                           
SRHB000000256021994360000018278000                                                                                                                                                                                                                                                                                                                                                
SRDR04000000000019882042022081503GAEA850311R68       GAEA850311R68GRANADOS ESQUIVEL ALEJANDRO EMMANUEL    900000000001827800000000000001207801165076382900000                                        9 00000044012001PAGO FONDO DE AHORRO SNTE 5 2021-2022 SNTE SECC5                                                              0620000000000000000000000ISP0000000099986      
SRDMSNTE5AHORRO@OUTLOOK.COM                                                                             0000000000000000012078011650763829                                                                                                                                                                                                                                        
SRTB000000100000000001988204000000000000000000000000000000000000000000000000000000000000000000000000000000000000000000000000000000000000000000000000000000000000000000000000000000000000000000000000000000100000000001988204000000000000000000000000000                                                                                                                           
SRTA000006500000000105423526000000000000000000000000000000000000000000000000000000000000000000000000000000000000000000000000000000000000000000000000000000000000000000000000000000000000000000000000000006500000000105423526000000000000000000000000000000                                                                                                                        
