SPHA0932601202308222023082220230822000                                                                                                                                                                                                                                                                                                                                            
SPHB000000256021994360000023766000                                                                                                                                                                                                                                                                                                                                                
SPDP04000000000009733982023082103AEFW9607087L8       AEFW9607087L8ARENAS FRAIRE WENDY PALOMA              900000000002376600000000000000206090436267354900000                                        9 00000044002001PAGO FONDO DE AHORRO SNTE 5 2022-2023 SNTE SECC5                                                              0000000000000000000000000ISP0000000009434      
SPDMSNTE5AHORRO@OUTLOOK.COM                                                                             00000000000000000020609043626735492023082140044DISP0000000009434                                                                                                                                                                                                          
SPTB000000100000000000973398000000000000000000000000000000000000000000000000000000000000000000000000000000000000000000000000000000000000000000000000000000100000000000973398000000000000000000000000000000000000000000000000000000000000000000000000000                                                                                                                           
SPHB000000256021994360000023762000                                                                                                                                                                                                                                                                                                                                                
SPDP04000000000010131272023082103TORC920722US4       TORC920722US4TORRES RAMOS CINTHIA YANETH             900000000002376200000000000001207801547455026900000                                        9 00000044012001PAGO FONDO DE AHORRO SNTE 5 2022-2023 SNTE SECC5                                                              0000000000000000000000000ISP0000000009436      
SPDMSNTE5AHORRO@OUTLOOK.COM                                                                             00000000000000000120780154745502692023082140044DISP0000000009436                                                                                                                                                                                                          
SPTB000000100000000001013127000000000000000000000000000000000000000000000000000000000000000000000000000000000000000000000000000000000000000000000000000000100000000001013127000000000000000000000000000000000000000000000000000000000000000000000000000                                                                                                                           
SPHB000000256021994360000023129000                                                                                                                                                                                                                                                                                                                                                
SPDP04000000000009329642023082103AUGL990307CR9       AUGL990307CR9AGUILAR GUARDADO LESLIE VANESSA         900000000002312900000000000001206001510964473300000                                        9 00000044012001PAGO FONDO DE AHORRO SNTE 5 2022-2023 SNTE SECC5                                                              0000000000000000000000000ISP0000000009437      
SPDMSNTE5AHORRO@OUTLOOK.COM                                                                             00000000000000000120600151096447332023082140044DISP0000000009437                                                                                                                                                                                                          
SPTB000000100000000000932964000000000000000000000000000000000000000000000000000000000000000000000000000000000000000000000000000000000000000000000000000000100000000000932964000000000000000000000000000000000000000000000000000000000000000000000000000                                                                                                                           
SPHB000000256021994360000024056000                                                                                                                                                                                                                                                                                                                                                
SPDP04000000000005756832023082103GAME890405UU3       GAME890405UU3GARCIA MUZA EDNA VERONICA               900000000002405600000000000001207801523963337600000                                        9 00000044012001PAGO FONDO DE AHORRO SNTE 5 2022-2023 SNTE SECC5                                                              0000000000000000000000000ISP0000000009440      
SPDMSNTE5AHORRO@OUTLOOK.COM                                                                             00000000000000000120780152396333762023082140044DISP0000000009440                                                                                                                                                                                                          
SPTB000000100000000000575683000000000000000000000000000000000000000000000000000000000000000000000000000000000000000000000000000000000000000000000000000000100000000000575683000000000000000000000000000000000000000000000000000000000000000000000000000                                                                                                                           
SPHB000000256021994360000001656000                                                                                                                                                                                                                                                                                                                                                
SPDP04000000000132509342023082103RAML610901FBA       RAML610901FBARAMIREZ MORALES JOSE LUIS               900000000000165600000000000002107806431502297900000                                        9 00000044021001PAGO FONDO DE AHORRO SNTE 5 2022-2023 SNTE SECC5                                                              0000000000000000000000000ISP0000000009441      
SPDMSNTE5AHORRO@OUTLOOK.COM                                                                             00000000000000000210780643150229792023082140044DISP0000000009441                                                                                                                                                                                                          
SPTB000000100000000013250934000000000000000000000000000000000000000000000000000000000000000000000000000000000000000000000000000000000000000000000000000000100000000013250934000000000000000000000000000000000000000000000000000000000000000000000000000                                                                                                                           
SPHB000000256021994360000023338000                                                                                                                                                                                                                                                                                                                                                
SPDP04000000000009404842023082103NOGC990504G29       NOGC990504G29NOLASCO GONZALEZ CRUZ ESMERALDA         900000000002333800000000000001207801529506548300000                                        9 00000044012001PAGO FONDO DE AHORRO SNTE 5 2022-2023 SNTE SECC5                                                              0000000000000000000000000ISP0000000009442      
SPDMSNTE5AHORRO@OUTLOOK.COM                                                                             00000000000000000120780152950654832023082140044DISP0000000009442                                                                                                                                                                                                          
SPTB000000100000000000940484000000000000000000000000000000000000000000000000000000000000000000000000000000000000000000000000000000000000000000000000000000100000000000940484000000000000000000000000000000000000000000000000000000000000000000000000000                                                                                                                           
SPHB000000256021994360000001927000                                                                                                                                                                                                                                                                                                                                                
SPDP04000000000036897722023082103SORL681004LN7       SORL681004LN7SOLIS RODRIGUEZ LAURA PATRICIA          900000000000192700000000000001407856605446799900000                                        9 00000044014001PAGO FONDO DE AHORRO SNTE 5 2022-2023 SNTE SECC5                                                              0000000000000000000000000ISP0000000009443      
SPDMSNTE5AHORRO@OUTLOOK.COM                                                                             00000000000000000140785660544679992023082140044DISP0000000009443                                                                                                                                                                                                          
SPTB000000100000000003689772000000000000000000000000000000000000000000000000000000000000000000000000000000000000000000000000000000000000000000000000000000100000000003689772000000000000000000000000000000000000000000000000000000000000000000000000000                                                                                                                           
SPHB000000256021994360000023075000                                                                                                                                                                                                                                                                                                                                                
SPDP04000000000027153862023082103VISC790801S83       VISC790801S83VILLALOBOS SANDOVAL CRUZ ELISA          900000000002307500000000000013707010461189585600000                                        9 00000044137001PAGO FONDO DE AHORRO SNTE 5 2022-2023 SNTE SECC5                                                              0000000000000000000000000ISP0000000009444      
SPDMSNTE5AHORRO@OUTLOOK.COM                                                                             00000000000000001370701046118958562023082140044DISP0000000009444                                                                                                                                                                                                          
SPTB000000100000000002715386000000000000000000000000000000000000000000000000000000000000000000000000000000000000000000000000000000000000000000000000000000100000000002715386000000000000000000000000000000000000000000000000000000000000000000000000000                                                                                                                           
SPHB000000256021994360000014500000                                                                                                                                                                                                                                                                                                                                                
SPDP04000000000002057632023082103COMJ860907IQ1       COMJ860907IQ1CORDOVA MARTINEZ JESUS ANTONIO          900000000001450000000000000001406856638876025900000                                        9 00000044014001PAGO FONDO DE AHORRO SNTE 5 2022-2023 SNTE SECC5                                                              0000000000000000000000000ISP0000000009445      
SPDMSNTE5AHORRO@OUTLOOK.COM                                                                             00000000000000000140685663887602592023082140044DISP0000000009445                                                                                                                                                                                                          
SPTB000000100000000000205763000000000000000000000000000000000000000000000000000000000000000000000000000000000000000000000000000000000000000000000000000000100000000000205763000000000000000000000000000000000000000000000000000000000000000000000000000                                                                                                                           
SPHB000000256021994360000023877000                                                                                                                                                                                                                                                                                                                                                
SPDP04000000000011021302023082103TOGM851228BZ0       TOGM851228BZ0TORRES GUERRERO MERY ANN                900000000002387700000000000007207800210650981600000                                        9 00000044072001PAGO FONDO DE AHORRO SNTE 5 2022-2023 SNTE SECC5                                                              0000000000000000000000000ISP0000000009446      
SPDMSNTE5AHORRO@OUTLOOK.COM                                                                             00000000000000000720780021065098162023082140044DISP0000000009446                                                                                                                                                                                                          
SPTB000000100000000001102130000000000000000000000000000000000000000000000000000000000000000000000000000000000000000000000000000000000000000000000000000000100000000001102130000000000000000000000000000000000000000000000000000000000000000000000000000                                                                                                                           
SPHB000000256021994360000023601000                                                                                                                                                                                                                                                                                                                                                
SPDP04000000000024126522023082103ZARS000208BF5       ZARS000208BF5ZAMORA RODRIGUEZ SALVADOR ALEJANDRO     900000000002360100000000000001407856845383320300000                                        9 00000044014001PAGO FONDO DE AHORRO SNTE 5 2022-2023 SNTE SECC5                                                              0000000000000000000000000ISP0000000009447      
SPDMSNTE5AHORRO@OUTLOOK.COM                                                                             00000000000000000140785684538332032023082140044DISP0000000009447                                                                                                                                                                                                          
SPTB000000100000000002412652000000000000000000000000000000000000000000000000000000000000000000000000000000000000000000000000000000000000000000000000000000100000000002412652000000000000000000000000000000000000000000000000000000000000000000000000000                                                                                                                           
SPHB000000256021994360000023187000                                                                                                                                                                                                                                                                                                                                                
SPDP04000000000010846072023082103DARC9807077E9       DARC9807077E9DAVILA RAMOS CLAUDIA YAZMIN             900000000002318700000000000001407856724435114400000                                        9 00000044014001PAGO FONDO DE AHORRO SNTE 5 2022-2023 SNTE SECC5                                                              0000000000000000000000000ISP0000000009448      
SPDMSNTE5AHORRO@OUTLOOK.COM                                                                             00000000000000000140785672443511442023082140044DISP0000000009448                                                                                                                                                                                                          
SPTB000000100000000001084607000000000000000000000000000000000000000000000000000000000000000000000000000000000000000000000000000000000000000000000000000000100000000001084607000000000000000000000000000000000000000000000000000000000000000000000000000                                                                                                                           
SPHB000000256021994360000023792000                                                                                                                                                                                                                                                                                                                                                
SPDP04000000000011172682023082103DEMR001115G36       DEMR001115G36DELGADO MORENO ROCIO                    900000000002379200000000000002107806541466715300000                                        9 00000044021001PAGO FONDO DE AHORRO SNTE 5 2022-2023 SNTE SECC5                                                              0000000000000000000000000ISP0000000009449      
SPDMSNTE5AHORRO@OUTLOOK.COM                                                                             00000000000000000210780654146671532023082140044DISP0000000009449                                                                                                                                                                                                          
SPTB000000100000000001117268000000000000000000000000000000000000000000000000000000000000000000000000000000000000000000000000000000000000000000000000000000100000000001117268000000000000000000000000000000000000000000000000000000000000000000000000000                                                                                                                           
SPHB000000256021994360000023545000                                                                                                                                                                                                                                                                                                                                                
SPDP04000000000015685132023082103MALM730110FK5       MALM730110FK5MARTINEZ LUEVANOS MA. CONCEPCION        900000000002354500000000000001207801437678487500000                                        9 00000044012001PAGO FONDO DE AHORRO SNTE 5 2022-2023 SNTE SECC5                                                              0000000000000000000000000ISP0000000009450      
SPDMSNTE5AHORRO@OUTLOOK.COM                                                                             00000000000000000120780143767848752023082140044DISP0000000009450                                                                                                                                                                                                          
SPTB000000100000000001568513000000000000000000000000000000000000000000000000000000000000000000000000000000000000000000000000000000000000000000000000000000100000000001568513000000000000000000000000000000000000000000000000000000000000000000000000000                                                                                                                           
SPHB000000256021994360000005914000                                                                                                                                                                                                                                                                                                                                                
SPDP04000000000006551872023082103MOME921002319       MOME921002319MONTENEGRO MEDINA EUGENIA TAMARA        900000000000591400000000000001407856718237691900000                                        9 00000044014001PAGO FONDO DE AHORRO SNTE 5 2022-2023 SNTE SECC5                                                              0000000000000000000000000ISP0000000009451      
SPDMSNTE5AHORRO@OUTLOOK.COM                                                                             00000000000000000140785671823769192023082140044DISP0000000009451                                                                                                                                                                                                          
SPTB000000100000000000655187000000000000000000000000000000000000000000000000000000000000000000000000000000000000000000000000000000000000000000000000000000100000000000655187000000000000000000000000000000000000000000000000000000000000000000000000000                                                                                                                           
SPTA000001500000000032237868000000000000000000000000000000000000000000000000000000000000000000000000000000000000000000000000000000000000000000000000000001500000000032237868000000000000000000000000000000000000000000000000000000000000000000000000000000                                                                                                                        
