SPHA0932601202308212023082120230821000                                                                                                                                                                                                                                                                                                                                            
SPHB000000256021994360000024089000                                                                                                                                                                                                                                                                                                                                                
SPDP04000000000005498542023081803AECB890820NU7       AECB890820NU7ARELLANO CASTRO BEATRIZ                 900000000002408900000000000001407556845077861000000                                        9 00000044014001PAGO FONDO DE AHORRO SNTE 5 2022-2023 SNTE SECC5                                                              0000000000000000000000000ISP0000000057623      
SPDMSNTE5AHORRO@OUTLOOK.COM                                                                             00000000000000000140755684507786102023081840044DISP0000000057623                                                                                                                                                                                                          
SPTB000000100000000000549854000000000000000000000000000000000000000000000000000000000000000000000000000000000000000000000000000000000000000000000000000000100000000000549854000000000000000000000000000000000000000000000000000000000000000000000000000                                                                                                                           
SPHB000000256021994360000005607000                                                                                                                                                                                                                                                                                                                                                
SPDP04000000000001790892023081803BEGJ800719NA3       BEGJ800719NA3BERNAL GUTIERREZ JESUS BALDOMERO        900000000000560700000000000007207800190658799000000                                        9 00000044072001PAGO FONDO DE AHORRO SNTE 5 2022-2023 SNTE SECC5                                                              0000000000000000000000000ISP0000000057624      
SPDMSNTE5AHORRO@OUTLOOK.COM                                                                             00000000000000000720780019065879902023081840044DISP0000000057624                                                                                                                                                                                                          
SPTB000000100000000000179089000000000000000000000000000000000000000000000000000000000000000000000000000000000000000000000000000000000000000000000000000000100000000000179089000000000000000000000000000000000000000000000000000000000000000000000000000                                                                                                                           
SPHB000000256021994360000023726000                                                                                                                                                                                                                                                                                                                                                
SPDP04000000000010996462023081803IAEE880823HX6       IAEE880823HX6IBARRA ESQUIVEL EUGENIA FERNANDA        900000000002372600000000000001207801542521552400000                                        9 00000044012001PAGO FONDO DE AHORRO SNTE 5 2022-2023 SNTE SECC5                                                              0000000000000000000000000ISP0000000057625      
SPDMSNTE5AHORRO@OUTLOOK.COM                                                                             00000000000000000120780154252155242023081840044DISP0000000057625                                                                                                                                                                                                          
SPTB000000100000000001099646000000000000000000000000000000000000000000000000000000000000000000000000000000000000000000000000000000000000000000000000000000100000000001099646000000000000000000000000000000000000000000000000000000000000000000000000000                                                                                                                           
SPHB000000256021994360000022935000                                                                                                                                                                                                                                                                                                                                                
SPDP04000000000015934802023081803PEDL790308JBA       PEDL790308JBAPE#A DONIAS LUIS ALBERTO                900000000002293500000000000007258001185557103000000                                        9 00000044072001PAGO FONDO DE AHORRO SNTE 5 2022-2023 SNTE SECC5                                                              0000000000000000000000000ISP0000000057626      
SPDMSNTE5AHORRO@OUTLOOK.COM                                                                             00000000000000000725800118555710302023081840044DISP0000000057626                                                                                                                                                                                                          
SPTB000000100000000001593480000000000000000000000000000000000000000000000000000000000000000000000000000000000000000000000000000000000000000000000000000000100000000001593480000000000000000000000000000000000000000000000000000000000000000000000000000                                                                                                                           
SPHB000000256021994360000023706000                                                                                                                                                                                                                                                                                                                                                
SPDP04000000000009300372023081803RILM911206J1A       RILM911206J1ADE LOS RIOS LEIJA MARIA MAGDALENA GUADAL900000000002370600000000000001407060626359469200000                                        9 00000044014001PAGO FONDO DE AHORRO SNTE 5 2022-2023 SNTE SECC5                                                              0000000000000000000000000ISP0000000057627      
SPDMSNTE5AHORRO@OUTLOOK.COM                                                                             00000000000000000140706062635946922023081840044DISP0000000057627                                                                                                                                                                                                          
SPTB000000100000000000930037000000000000000000000000000000000000000000000000000000000000000000000000000000000000000000000000000000000000000000000000000000100000000000930037000000000000000000000000000000000000000000000000000000000000000000000000000                                                                                                                           
SPHB000000256021994360000023656000                                                                                                                                                                                                                                                                                                                                                
SPDP04000000000006849652023081803UATL810924NZ0       UATL810924NZ0URANGA TORRES LAURA LIZETH              900000000002365600000000000001207701528622111400000                                        9 00000044012001PAGO FONDO DE AHORRO SNTE 5 2022-2023 SNTE SECC5                                                              0000000000000000000000000ISP0000000057628      
SPDMSNTE5AHORRO@OUTLOOK.COM                                                                             00000000000000000120770152862211142023081840044DISP0000000057628                                                                                                                                                                                                          
SPTB000000100000000000684965000000000000000000000000000000000000000000000000000000000000000000000000000000000000000000000000000000000000000000000000000000100000000000684965000000000000000000000000000000000000000000000000000000000000000000000000000                                                                                                                           
SPHB000000256021994360000023191000                                                                                                                                                                                                                                                                                                                                                
SPDP04000000000009476822023081803DIFK001013V50       DIFK001013V50DIAZ FLORES KAREN GABRIELA              900000000002319100000000000001206001527707678300000                                        9 00000044012001PAGO FONDO DE AHORRO SNTE 5 2022-2023 SNTE SECC5                                                              0000000000000000000000000ISP0000000057629      
SPDMSNTE5AHORRO@OUTLOOK.COM                                                                             00000000000000000120600152770767832023081840044DISP0000000057629                                                                                                                                                                                                          
SPTB000000100000000000947682000000000000000000000000000000000000000000000000000000000000000000000000000000000000000000000000000000000000000000000000000000100000000000947682000000000000000000000000000000000000000000000000000000000000000000000000000                                                                                                                           
SPHB000000256021994360000023192000                                                                                                                                                                                                                                                                                                                                                
SPDP04000000000009946632023081803DIMN000804J36       DIMN000804J36DIAZ MARRUFO NEPEESE                    900000000002319200000000000001218001529539578200000                                        9 00000044012001PAGO FONDO DE AHORRO SNTE 5 2022-2023 SNTE SECC5                                                              0000000000000000000000000ISP0000000057630      
SPDMSNTE5AHORRO@OUTLOOK.COM                                                                             00000000000000000121800152953957822023081840044DISP0000000057630                                                                                                                                                                                                          
SPTB000000100000000000994663000000000000000000000000000000000000000000000000000000000000000000000000000000000000000000000000000000000000000000000000000000100000000000994663000000000000000000000000000000000000000000000000000000000000000000000000000                                                                                                                           
SPHB000000256021994360000023547000                                                                                                                                                                                                                                                                                                                                                
SPDP04000000000017885842023081803MAMA980320SJA       MAMA980320SJAMARTINEZ MU#IZ ALAN OZIEL               900000000002354700000000000001207801532687628200000                                        9 00000044012001PAGO FONDO DE AHORRO SNTE 5 2022-2023 SNTE SECC5                                                              0000000000000000000000000ISP0000000057631      
SPDMSNTE5AHORRO@OUTLOOK.COM                                                                             00000000000000000120780153268762822023081840044DISP0000000057631                                                                                                                                                                                                          
SPTB000000100000000001788584000000000000000000000000000000000000000000000000000000000000000000000000000000000000000000000000000000000000000000000000000000100000000001788584000000000000000000000000000000000000000000000000000000000000000000000000000                                                                                                                           
SPHB000000256021994360000023017000                                                                                                                                                                                                                                                                                                                                                
SPDP04000000000016703132023081803MAMC970526239       MAMC970526239MARTINEZ MORALES CARLOS JESUS           900000000002301700000000000001207801557901069100000                                        9 00000044012001PAGO FONDO DE AHORRO SNTE 5 2022-2023 SNTE SECC5                                                              0000000000000000000000000ISP0000000057632      
SPDMSNTE5AHORRO@OUTLOOK.COM                                                                             00000000000000000120780155790106912023081840044DISP0000000057632                                                                                                                                                                                                          
SPTB000000100000000001670313000000000000000000000000000000000000000000000000000000000000000000000000000000000000000000000000000000000000000000000000000000100000000001670313000000000000000000000000000000000000000000000000000000000000000000000000000                                                                                                                           
SPHB000000256021994360000023611000                                                                                                                                                                                                                                                                                                                                                
SPDP04000000000015050732023081803CASD950529371       CASD950529371CAMPOS SANCHEZ DANIELA                  900000000002361100000000000007207201205877811800000                                        9 00000044072001PAGO FONDO DE AHORRO SNTE 5 2022-2023 SNTE SECC5                                                              0000000000000000000000000ISP0000000057633      
SPDMSNTE5AHORRO@OUTLOOK.COM                                                                             00000000000000000720720120587781182023081840044DISP0000000057633                                                                                                                                                                                                          
SPTB000000100000000001505073000000000000000000000000000000000000000000000000000000000000000000000000000000000000000000000000000000000000000000000000000000100000000001505073000000000000000000000000000000000000000000000000000000000000000000000000000                                                                                                                           
SPHB000000256021994360000023681000                                                                                                                                                                                                                                                                                                                                                
SPDP04000000000006984222023081803GUVL760415SM8       GUVL760415SM8GUZMAN VALDEZ JOSE LUIS                 900000000002368100000000000001207001534795517700000                                        9 00000044012001PAGO FONDO DE AHORRO SNTE 5 2022-2023 SNTE SECC5                                                              0000000000000000000000000ISP0000000057634      
SPDMSNTE5AHORRO@OUTLOOK.COM                                                                             00000000000000000120700153479551772023081840044DISP0000000057634                                                                                                                                                                                                          
SPTB000000100000000000698422000000000000000000000000000000000000000000000000000000000000000000000000000000000000000000000000000000000000000000000000000000100000000000698422000000000000000000000000000000000000000000000000000000000000000000000000000                                                                                                                           
SPHB000000256021994360000023916000                                                                                                                                                                                                                                                                                                                                                
SPDP04000000000008702932023081803AABG640406UH0       AABG640406UH0ALMAGUER BARRIOS GLORIA ALICIA          900000000002391600000000000002107806554326863000000                                        9 00000044021001PAGO FONDO DE AHORRO SNTE 5 2022-2023 SNTE SECC5                                                              0000000000000000000000000ISP0000000057636      
SPDMSNTE5AHORRO@OUTLOOK.COM                                                                             00000000000000000210780655432686302023081840044DISP0000000057636                                                                                                                                                                                                          
SPTB000000100000000000870293000000000000000000000000000000000000000000000000000000000000000000000000000000000000000000000000000000000000000000000000000000100000000000870293000000000000000000000000000000000000000000000000000000000000000000000000000                                                                                                                           
SPHB000000256021994360000023786000                                                                                                                                                                                                                                                                                                                                                
SPDP04000000000010134172023081803CEVM680805120       CEVM680805120CEPEDA VENEGAS MARCO ANTONIO            900000000002378600000000000007207801211997541400000                                        9 00000044072001PAGO FONDO DE AHORRO SNTE 5 2022-2023 SNTE SECC5                                                              0000000000000000000000000ISP0000000057637      
SPDMSNTE5AHORRO@OUTLOOK.COM                                                                             00000000000000000720780121199754142023081840044DISP0000000057637                                                                                                                                                                                                          
SPTB000000100000000001013417000000000000000000000000000000000000000000000000000000000000000000000000000000000000000000000000000000000000000000000000000000100000000001013417000000000000000000000000000000000000000000000000000000000000000000000000000                                                                                                                           
SPHB000000256021994360000023314000                                                                                                                                                                                                                                                                                                                                                
SPDP04000000000006902662023081803MERL720630L87       MERL720630L87MEDINA RAMIREZ LUCINA                   900000000002331400000000000001206001529838274400000                                        9 00000044012001PAGO FONDO DE AHORRO SNTE 5 2022-2023 SNTE SECC5                                                              0000000000000000000000000ISP0000000057640      
SPDMSNTE5AHORRO@OUTLOOK.COM                                                                             00000000000000000120600152983827442023081840044DISP0000000057640                                                                                                                                                                                                          
SPTB000000100000000000690266000000000000000000000000000000000000000000000000000000000000000000000000000000000000000000000000000000000000000000000000000000100000000000690266000000000000000000000000000000000000000000000000000000000000000000000000000                                                                                                                           
SPHB000000256021994360000023912000                                                                                                                                                                                                                                                                                                                                                
SPDP04000000000011466552023081803SATE950812PC3       SATE950812PC3SANCHEZ TREVI#O ELSA CAROLINA           900000000002391200000000000001207801516514467000000                                        9 00000044012001PAGO FONDO DE AHORRO SNTE 5 2022-2023 SNTE SECC5                                                              0000000000000000000000000ISP0000000057643      
SPDMSNTE5AHORRO@OUTLOOK.COM                                                                             00000000000000000120780151651446702023081840044DISP0000000057643                                                                                                                                                                                                          
SPTB000000100000000001146655000000000000000000000000000000000000000000000000000000000000000000000000000000000000000000000000000000000000000000000000000000100000000001146655000000000000000000000000000000000000000000000000000000000000000000000000000                                                                                                                           
SPHB000000256021994360000024084000                                                                                                                                                                                                                                                                                                                                                
SPDP04000000000005898052023081803SOPD870822CD4       SOPD870822CD4SOLIS PUENTE DANIEL ALEJANDRO           900000000002408400000000000007207801095473553600000                                        9 00000044072001PAGO FONDO DE AHORRO SNTE 5 2022-2023 SNTE SECC5                                                              0000000000000000000000000ISP0000000057646      
SPDMSNTE5AHORRO@OUTLOOK.COM                                                                             00000000000000000720780109547355362023081840044DISP0000000057646                                                                                                                                                                                                          
SPTB000000100000000000589805000000000000000000000000000000000000000000000000000000000000000000000000000000000000000000000000000000000000000000000000000000100000000000589805000000000000000000000000000000000000000000000000000000000000000000000000000                                                                                                                           
SPHB000000256021994360000023743000                                                                                                                                                                                                                                                                                                                                                
SPDP04000000000012133352023081803SOPL751129C8A       SOPL751129C8ASOTO PRECIADO LORENA                    900000000002374300000000000007207801084453399000000                                        9 00000044072001PAGO FONDO DE AHORRO SNTE 5 2022-2023 SNTE SECC5                                                              0000000000000000000000000ISP0000000057647      
SPDMSNTE5AHORRO@OUTLOOK.COM                                                                             00000000000000000720780108445339902023081840044DISP0000000057647                                                                                                                                                                                                          
SPTB000000100000000001213335000000000000000000000000000000000000000000000000000000000000000000000000000000000000000000000000000000000000000000000000000000100000000001213335000000000000000000000000000000000000000000000000000000000000000000000000000                                                                                                                           
SPHB000000256021994360000023445000                                                                                                                                                                                                                                                                                                                                                
SPDP04000000000003821962023081803SOPY8012177R4       SOPY8012177R4SOLIS PUENTE YOLANDA MICAELA            900000000002344500000000000001207802749152911900000                                        9 00000044012001PAGO FONDO DE AHORRO SNTE 5 2022-2023 SNTE SECC5                                                              0000000000000000000000000ISP0000000057649      
SPDMSNTE5AHORRO@OUTLOOK.COM                                                                             00000000000000000120780274915291192023081840044DISP0000000057649                                                                                                                                                                                                          
SPTB000000100000000000382196000000000000000000000000000000000000000000000000000000000000000000000000000000000000000000000000000000000000000000000000000000100000000000382196000000000000000000000000000000000000000000000000000000000000000000000000000                                                                                                                           
SPHB000000256021994360000024070000                                                                                                                                                                                                                                                                                                                                                
SPDP04000000000002932862023081803AAMM771227ITA       AAMM771227ITAALVAREZ MARTINEZ MIRIAM                 900000000002407000000000000001218001569413842700000                                        9 00000044012001PAGO FONDO DE AHORRO SNTE 5 2022-2023 SNTE SECC5                                                              0000000000000000000000000ISP0000000057653      
SPDMSNTE5AHORRO@OUTLOOK.COM                                                                             00000000000000000121800156941384272023081840044DISP0000000057653                                                                                                                                                                                                          
SPTB000000100000000000293286000000000000000000000000000000000000000000000000000000000000000000000000000000000000000000000000000000000000000000000000000000100000000000293286000000000000000000000000000000000000000000000000000000000000000000000000000                                                                                                                           
SPHB000000256021994360000021616000                                                                                                                                                                                                                                                                                                                                                
SPDP04000000000019114092023081803CAAE8407217D4       CAAE8407217D4CARRANZA ABREGO ELIA                    900000000002161600000000000001207801501985472800000                                        9 00000044012001PAGO FONDO DE AHORRO SNTE 5 2022-2023 SNTE SECC5                                                              0000000000000000000000000ISP0000000057654      
SPDMSNTE5AHORRO@OUTLOOK.COM                                                                             00000000000000000120780150198547282023081840044DISP0000000057654                                                                                                                                                                                                          
SPTB000000100000000001911409000000000000000000000000000000000000000000000000000000000000000000000000000000000000000000000000000000000000000000000000000000100000000001911409000000000000000000000000000000000000000000000000000000000000000000000000000                                                                                                                           
SPHB000000256021994360000023964000                                                                                                                                                                                                                                                                                                                                                
SPDP04000000000007927862023081803FONM9609165F7       FONM9609165F7FLORES NU#EZ MIGUEL ANGEL               900000000002396400000000000007216401190028184000000                                        9 00000044072001PAGO FONDO DE AHORRO SNTE 5 2022-2023 SNTE SECC5                                                              0000000000000000000000000ISP0000000057655      
SPDMSNTE5AHORRO@OUTLOOK.COM                                                                             00000000000000000721640119002818402023081840044DISP0000000057655                                                                                                                                                                                                          
SPTB000000100000000000792786000000000000000000000000000000000000000000000000000000000000000000000000000000000000000000000000000000000000000000000000000000100000000000792786000000000000000000000000000000000000000000000000000000000000000000000000000                                                                                                                           
SPHB000000256021994360000023856000                                                                                                                                                                                                                                                                                                                                                
SPDP04000000000011813622023081803RERK971130A24       RERK971130A24RESENDIZ ROCHA KARLA ELIZABETH          900000000002385600000000000007207801082704202600000                                        9 00000044072001PAGO FONDO DE AHORRO SNTE 5 2022-2023 SNTE SECC5                                                              0000000000000000000000000ISP0000000057656      
SPDMSNTE5AHORRO@OUTLOOK.COM                                                                             00000000000000000720780108270420262023081840044DISP0000000057656                                                                                                                                                                                                          
SPTB000000100000000001181362000000000000000000000000000000000000000000000000000000000000000000000000000000000000000000000000000000000000000000000000000000100000000001181362000000000000000000000000000000000000000000000000000000000000000000000000000                                                                                                                           
SPHB000000256021994360000023392000                                                                                                                                                                                                                                                                                                                                                
SPDP04000000000008933712023081803RESL990805QH0       RESL990805QH0REBOLLOSO SILVA LAYZA YANETH            900000000002339200000000000001218001529532638200000                                        9 00000044012001PAGO FONDO DE AHORRO SNTE 5 2022-2023 SNTE SECC5                                                              0000000000000000000000000ISP0000000057657      
SPDMSNTE5AHORRO@OUTLOOK.COM                                                                             00000000000000000121800152953263822023081840044DISP0000000057657                                                                                                                                                                                                          
SPTB000000100000000000893371000000000000000000000000000000000000000000000000000000000000000000000000000000000000000000000000000000000000000000000000000000100000000000893371000000000000000000000000000000000000000000000000000000000000000000000000000                                                                                                                           
SPHB000000256021994360000024073000                                                                                                                                                                                                                                                                                                                                                
SPDP04000000000003680402023081803DESA010618RX1       DESA010618RX1DELGADO SAUCEDO ANDRICK RUBEN           900000000002407300000000000004407825602531917800000                                        9 00187044044001PAGO FONDO DE AHORRO SNTE 5 2022-2023 SNTE SECC5                                                              00000000000000000000000001534000000057658      
SPDMSNTE5AHORRO@OUTLOOK.COM                                                                             0000000000000000044078256025319178000020230818151534000000057658                                                                                                                                                                                                          
SPTB000000100000000000368040000000000000000000000000000000000000000000000000000000000000000000000000000000000000000000000000000000000000000000000000000000100000000000368040000000000000000000000000000000000000000000000000000000000000000000000000000                                                                                                                           
SPHB000000256021994360000024143000                                                                                                                                                                                                                                                                                                                                                
SPDP04000000000001466992023081803MORE740319RX2       MORE740319RX2MORALES RODRIGUEZ EDNA VERONICA         900000000002414300000000000001407856621411826600000                                        9 00000044014001PAGO FONDO DE AHORRO SNTE 5 2022-2023 SNTE SECC5                                                              0000000000000000000000000ISP0000000057659      
SPDMSNTE5AHORRO@OUTLOOK.COM                                                                             00000000000000000140785662141182662023081840044DISP0000000057659                                                                                                                                                                                                          
SPTB000000100000000000146699000000000000000000000000000000000000000000000000000000000000000000000000000000000000000000000000000000000000000000000000000000100000000000146699000000000000000000000000000000000000000000000000000000000000000000000000000                                                                                                                           
SPHB000000256021994360000023455000                                                                                                                                                                                                                                                                                                                                                
SPDP04000000000022608882023081803VADJ931214I18       VADJ931214I18VAZQUEZ DELGADO JORGE DAVID             900000000002345500000000000001207802888373914700000                                        9 00000044012001PAGO FONDO DE AHORRO SNTE 5 2022-2023 SNTE SECC5                                                              0000000000000000000000000ISP0000000057660      
SPDMSNTE5AHORRO@OUTLOOK.COM                                                                             00000000000000000120780288837391472023081840044DISP0000000057660                                                                                                                                                                                                          
SPTB000000100000000002260888000000000000000000000000000000000000000000000000000000000000000000000000000000000000000000000000000000000000000000000000000000100000000002260888000000000000000000000000000000000000000000000000000000000000000000000000000                                                                                                                           
SPHB000000256021994360000023881000                                                                                                                                                                                                                                                                                                                                                
SPDP04000000000010550142023081803VAGJ0106138I0       VAGJ0106138I0VALDES GUERRA JULIETA ABIGAIL           900000000002388100000000000007207801200987788400000                                        9 00000044072001PAGO FONDO DE AHORRO SNTE 5 2022-2023 SNTE SECC5                                                              0000000000000000000000000ISP0000000057661      
SPDMSNTE5AHORRO@OUTLOOK.COM                                                                             00000000000000000720780120098778842023081840044DISP0000000057661                                                                                                                                                                                                          
SPTB000000100000000001055014000000000000000000000000000000000000000000000000000000000000000000000000000000000000000000000000000000000000000000000000000000100000000001055014000000000000000000000000000000000000000000000000000000000000000000000000000                                                                                                                           
SPTA000005200000000032440262000000000000000000000000000000000000000000000000000000000000000000000000000000000000000000000000000000000000000000000000000005200000000032440262000000000000000000000000000000000000000000000000000000000000000000000000000000                                                                                                                        
