SPHA0932601202308242023082420230824000                                                                                                                                                                                                                                                                                                                                            
SPHB000000256021994360000006815000                                                                                                                                                                                                                                                                                                                                                
SPDP04000000000010085972023082303MESM640524B84       MESM640524B84MENDOZA SANCHEZ MARTHA ELENA            900000000000681500000000000001218001573862041900000                                        9 00000044012001PAGO FONDO DE AHORRO SNTE 5 2022-2023 SNTE SECC5                                                              0000000000000000000000000ISP0000000016832      
SPDMSNTE5AHORRO@OUTLOOK.COM                                                                             00000000000000000121800157386204192023082340044DISP0000000016832                                                                                                                                                                                                          
SPTB000000100000000001008597000000000000000000000000000000000000000000000000000000000000000000000000000000000000000000000000000000000000000000000000000000100000000001008597000000000000000000000000000000000000000000000000000000000000000000000000000                                                                                                                           
SPHB000000256021994360000022991000                                                                                                                                                                                                                                                                                                                                                
SPDP04000000000013007012023082303GAHG820604883       GAHG820604883GARCIA HERNANDEZ GERARDO                900000000002299100000000000002107506555208961200000                                        9 00000044021001PAGO FONDO DE AHORRO SNTE 5 2022-2023 SNTE SECC5                                                              0000000000000000000000000ISP0000000016833      
SPDMSNTE5AHORRO@OUTLOOK.COM                                                                             00000000000000000210750655520896122023082340044DISP0000000016833                                                                                                                                                                                                          
SPTB000000100000000001300701000000000000000000000000000000000000000000000000000000000000000000000000000000000000000000000000000000000000000000000000000000100000000001300701000000000000000000000000000000000000000000000000000000000000000000000000000                                                                                                                           
SPHB000000256021994360000023418000                                                                                                                                                                                                                                                                                                                                                
SPDP04000000000014164312023082303ROTD9902174P0       ROTD9902174P0ROBLEDO TRIANA DANIELA                  900000000002341800000000000000206090486351542300000                                        9 00000044002001PAGO FONDO DE AHORRO SNTE 5 2022-2023 SNTE SECC5                                                              0000000000000000000000000ISP0000000016834      
SPDMSNTE5AHORRO@OUTLOOK.COM                                                                             00000000000000000020609048635154232023082340044DISP0000000016834                                                                                                                                                                                                          
SPTB000000100000000001416431000000000000000000000000000000000000000000000000000000000000000000000000000000000000000000000000000000000000000000000000000000100000000001416431000000000000000000000000000000000000000000000000000000000000000000000000000                                                                                                                           
SPHB000000256021994360000023479000                                                                                                                                                                                                                                                                                                                                                
SPDP04000000000015403042023082303ZUAA9505098F7       ZUAA9505098F7ZU#IGA ARREDONDO ANGEL ORLANDO          900000000002347900000000000001218001509195160500000                                        9 00000044012001PAGO FONDO DE AHORRO SNTE 5 2022-2023 SNTE SECC5                                                              0000000000000000000000000ISP0000000016835      
SPDMSNTE5AHORRO@OUTLOOK.COM                                                                             00000000000000000121800150919516052023082340044DISP0000000016835                                                                                                                                                                                                          
SPTB000000100000000001540304000000000000000000000000000000000000000000000000000000000000000000000000000000000000000000000000000000000000000000000000000000100000000001540304000000000000000000000000000000000000000000000000000000000000000000000000000                                                                                                                           
SPHB000000256021994360000023957000                                                                                                                                                                                                                                                                                                                                                
SPDP04000000000008715682023082303CAHL810903952       CAHL810903952CASTA#EDA HERNANDEZ LLUVIA CLARA        900000000002395700000000000007207800222708634400000                                        9 00000044072001PAGO FONDO DE AHORRO SNTE 5 2022-2023 SNTE SECC5                                                              0000000000000000000000000ISP0000000016836      
SPDMSNTE5AHORRO@OUTLOOK.COM                                                                             00000000000000000720780022270863442023082340044DISP0000000016836                                                                                                                                                                                                          
SPTB000000100000000000871568000000000000000000000000000000000000000000000000000000000000000000000000000000000000000000000000000000000000000000000000000000100000000000871568000000000000000000000000000000000000000000000000000000000000000000000000000                                                                                                                           
SPHB000000256021994360000002355000                                                                                                                                                                                                                                                                                                                                                
SPDP04000000000057587242023082303GACR750219GB2       GACR750219GB2GARCIA CASTILLO ROMMY                   900000000000235500000000000001207800151629344300000                                        9 00000044012001PAGO FONDO DE AHORRO SNTE 5 2022-2023 SNTE SECC5                                                              0000000000000000000000000ISP0000000016837      
SPDMSNTE5AHORRO@OUTLOOK.COM                                                                             00000000000000000120780015162934432023082340044DISP0000000016837                                                                                                                                                                                                          
SPTB000000100000000005758724000000000000000000000000000000000000000000000000000000000000000000000000000000000000000000000000000000000000000000000000000000100000000005758724000000000000000000000000000000000000000000000000000000000000000000000000000                                                                                                                           
SPHB000000256021994360000024134000                                                                                                                                                                                                                                                                                                                                                
SPDP04000000000002186422023082303GORE910905DF0       GORE910905DF0GONZALEZ RUIZ ELADIO                    900000000002413400000000000001407860617161293000000                                        9 00000044014001PAGO FONDO DE AHORRO SNTE 5 2022-2023 SNTE SECC5                                                              0000000000000000000000000ISP0000000016838      
SPDMSNTE5AHORRO@OUTLOOK.COM                                                                             00000000000000000140786061716129302023082340044DISP0000000016838                                                                                                                                                                                                          
SPTB000000100000000000218642000000000000000000000000000000000000000000000000000000000000000000000000000000000000000000000000000000000000000000000000000000100000000000218642000000000000000000000000000000000000000000000000000000000000000000000000000                                                                                                                           
