SPHA0932601202308182023081820230818000                                                                                                                                                                                                                                                                                                                                            
SPHB000000256021994360000023424000                                                                                                                                                                                                                                                                                                                                                
SPDP04000000000014461612023081703SAFE850102NR3       SAFE850102NR3SALAZAR FLORES EVA                      900000000002342400000000000001242001525939715600000                                        9 00000044012001PAGO FONDO DE AHORRO SNTE 5 2022-2023 SNTE SECC5                                                              0000000000000000000000000ISP0000000046845      
SPDMSNTE5AHORRO@OUTLOOK.COM                                                                             00000000000000000124200152593971562023081740044DISP0000000046845                                                                                                                                                                                                          
SPTB000000100000000001446161000000000000000000000000000000000000000000000000000000000000000000000000000000000000000000000000000000000000000000000000000000100000000001446161000000000000000000000000000000000000000000000000000000000000000000000000000                                                                                                                           
SPHB000000256021994360000015903000                                                                                                                                                                                                                                                                                                                                                
SPDP04000000000008622442023081703TOMJ7004302N0       TOMJ7004302N0TORRES MURO JOSE DE JESUS               900000000001590300000000000000207890408677474500000                                        9 00000044002001PAGO FONDO DE AHORRO SNTE 5 2022-2023 SNTE SECC5                                                              0000000000000000000000000ISP0000000046846      
SPDMSNTE5AHORRO@OUTLOOK.COM                                                                             00000000000000000020789040867747452023081740044DISP0000000046846                                                                                                                                                                                                          
SPTB000000100000000000862244000000000000000000000000000000000000000000000000000000000000000000000000000000000000000000000000000000000000000000000000000000100000000000862244000000000000000000000000000000000000000000000000000000000000000000000000000                                                                                                                           
SPHB000000256021994360010014295000                                                                                                                                                                                                                                                                                                                                                
SPDP04000000000012860372023081703IAHD931006EI6       IAHD931006EI6INFANTE HERRERA VANESA RUBI             900000001001429500000000000001207801524843782200000                                        9 00000044012001PAGO FONDO DE AHORRO SNTE 5 2022-2023 SNTE SECC5                                                              0000000000000000000000000ISP0000000046847      
SPDMSNTE5AHORRO@OUTLOOK.COM                                                                             00000000000000000120780152484378222023081740044DISP0000000046847                                                                                                                                                                                                          
SPTB000000100000000001286037000000000000000000000000000000000000000000000000000000000000000000000000000000000000000000000000000000000000000000000000000000100000000001286037000000000000000000000000000000000000000000000000000000000000000000000000000                                                                                                                           
SPHB000000256021994360020014295000                                                                                                                                                                                                                                                                                                                                                
SPDP04000000000005511592023081703IAHD931006EI6       IAHD931006EI6INFANTE EGUIA JOSE ANGEL                900000002001429500000000000007207801206797653600000                                        9 00000044072001PAGO FONDO DE AHORRO SNTE 5 2022-2023 SNTE SECC5                                                              0000000000000000000000000ISP0000000046848      
SPDMSNTE5AHORRO@OUTLOOK.COM                                                                             00000000000000000720780120679765362023081740044DISP0000000046848                                                                                                                                                                                                          
SPTB000000100000000000551159000000000000000000000000000000000000000000000000000000000000000000000000000000000000000000000000000000000000000000000000000000100000000000551159000000000000000000000000000000000000000000000000000000000000000000000000000                                                                                                                           
SPHB000000256021994360000023081000                                                                                                                                                                                                                                                                                                                                                
SPDP04000000000015403072023081703CAFJ7106109Q1       CAFJ7106109Q1CASTILLO FLORES JUAN ANTONIO            900000000002308100000000000004407818701436554500000                                        9 00187044044001PAGO FONDO DE AHORRO SNTE 5 2022-2023 SNTE SECC5                                                              00000000000000000000000000010000000046849      
SPDMSNTE5AHORRO@OUTLOOK.COM                                                                             0000000000000000044078187014365545000020230817160010000000046849                                                                                                                                                                                                          
SPTB000000100000000001540307000000000000000000000000000000000000000000000000000000000000000000000000000000000000000000000000000000000000000000000000000000100000000001540307000000000000000000000000000000000000000000000000000000000000000000000000000                                                                                                                           
SPHB000000256021994360000023521000                                                                                                                                                                                                                                                                                                                                                
SPDP04000000000018481662023081703FUGL010807DF5       FUGL010807DF5DE LA FUENTE GARCIA LUIS ALBERTO        900000000002352100000000000001407856845493142100000                                        9 00000044014001PAGO FONDO DE AHORRO SNTE 5 2022-2023 SNTE SECC5                                                              0000000000000000000000000ISP0000000046850      
SPDMSNTE5AHORRO@OUTLOOK.COM                                                                             00000000000000000140785684549314212023081740044DISP0000000046850                                                                                                                                                                                                          
SPTB000000100000000001848166000000000000000000000000000000000000000000000000000000000000000000000000000000000000000000000000000000000000000000000000000000100000000001848166000000000000000000000000000000000000000000000000000000000000000000000000000                                                                                                                           
SPHB000000256021994360000023291000                                                                                                                                                                                                                                                                                                                                                
SPDP04000000000008206312023081703MADA950125HD8       MADA950125HD8MARTINEZ DELGADO ANY LETICIA            900000000002329100000000000007207801199602233200000                                        9 00000044072001PAGO FONDO DE AHORRO SNTE 5 2022-2023 SNTE SECC5                                                              0000000000000000000000000ISP0000000046851      
SPDMSNTE5AHORRO@OUTLOOK.COM                                                                             00000000000000000720780119960223322023081740044DISP0000000046851                                                                                                                                                                                                          
SPTB000000100000000000820631000000000000000000000000000000000000000000000000000000000000000000000000000000000000000000000000000000000000000000000000000000100000000000820631000000000000000000000000000000000000000000000000000000000000000000000000000                                                                                                                           
SPHB000000256021994360000023557000                                                                                                                                                                                                                                                                                                                                                
SPDP04000000000020970092023081703MOIK941230IL5       MOIK941230IL5MOYA IBARRA KATIA                       900000000002355700000000000001206201582756250600000                                        9 00000044012001PAGO FONDO DE AHORRO SNTE 5 2022-2023 SNTE SECC5                                                              0000000000000000000000000ISP0000000046852      
SPDMSNTE5AHORRO@OUTLOOK.COM                                                                             00000000000000000120620158275625062023081740044DISP0000000046852                                                                                                                                                                                                          
SPTB000000100000000002097009000000000000000000000000000000000000000000000000000000000000000000000000000000000000000000000000000000000000000000000000000000100000000002097009000000000000000000000000000000000000000000000000000000000000000000000000000                                                                                                                           
SPHB000000256021994360000022750000                                                                                                                                                                                                                                                                                                                                                
SPDP04000000000016546392023081703RIHC930120JG3       RIHC930120JG3RIOJAS HERNANDEZ CARLA VANESSA          900000000002275000000000000004407025604187418700000                                        9 00191044044001PAGO FONDO DE AHORRO SNTE 5 2022-2023 SNTE SECC5                                                              00000000000000000000000000010000000046853      
SPDMSNTE5AHORRO@OUTLOOK.COM                                                                             0000000000000000044070256041874187000020230817160010000000046853                                                                                                                                                                                                          
SPTB000000100000000001654639000000000000000000000000000000000000000000000000000000000000000000000000000000000000000000000000000000000000000000000000000000100000000001654639000000000000000000000000000000000000000000000000000000000000000000000000000                                                                                                                           
SPHB000000256021994360000022921000                                                                                                                                                                                                                                                                                                                                                
SPDP04000000000003029832023081703RORR720609J11       RORR720609J11RODRIGUEZ DE LA ROSA RAUL               900000000002292100000000000001207801553743406000000                                        9 00000044012001PAGO FONDO DE AHORRO SNTE 5 2022-2023 SNTE SECC5                                                              0000000000000000000000000ISP0000000046854      
SPDMSNTE5AHORRO@OUTLOOK.COM                                                                             00000000000000000120780155374340602023081740044DISP0000000046854                                                                                                                                                                                                          
SPTB000000100000000000302983000000000000000000000000000000000000000000000000000000000000000000000000000000000000000000000000000000000000000000000000000000100000000000302983000000000000000000000000000000000000000000000000000000000000000000000000000                                                                                                                           
SPHB000000256021994360000005045000                                                                                                                                                                                                                                                                                                                                                
SPDP04000000000008746782023081703RORR720609J11       RORR720609J11RODRIGUEZ DE LA ROSA RAUL ALBERTO       900000000000504500000000000001207801553743406000000                                        9 00000044012001PAGO FONDO DE AHORRO SNTE 5 2022-2023 SNTE SECC5                                                              0000000000000000000000000ISP0000000046856      
SPDMSNTE5AHORRO@OUTLOOK.COM                                                                             00000000000000000120780155374340602023081740044DISP0000000046856                                                                                                                                                                                                          
SPTB000000100000000000874678000000000000000000000000000000000000000000000000000000000000000000000000000000000000000000000000000000000000000000000000000000100000000000874678000000000000000000000000000000000000000000000000000000000000000000000000000                                                                                                                           
SPHB000000256021994360000024160000                                                                                                                                                                                                                                                                                                                                                
SPDP04000000000001290222023081703RUSR8701195I1       RUSR8701195I1RUIZ SANTOS ROGELIO                     900000000002416000000000000007207800446170541800000                                        9 00000044072001PAGO FONDO DE AHORRO SNTE 5 2022-2023 SNTE SECC5                                                              0000000000000000000000000ISP0000000046858      
SPDMSNTE5AHORRO@OUTLOOK.COM                                                                             00000000000000000720780044617054182023081740044DISP0000000046858                                                                                                                                                                                                          
SPTB000000100000000000129022000000000000000000000000000000000000000000000000000000000000000000000000000000000000000000000000000000000000000000000000000000100000000000129022000000000000000000000000000000000000000000000000000000000000000000000000000                                                                                                                           
SPHB000000256021994360000011046000                                                                                                                                                                                                                                                                                                                                                
SPDP04000000000030730812023081703RUSR8701195I1       RUSR8701195I1RUIZ SANTOS ROGELIO                     900000000001104600000000000007207800446170541800000                                        9 00000044072001PAGO FONDO DE AHORRO SNTE 5 2022-2023 SNTE SECC5                                                              0000000000000000000000000ISP0000000046859      
SPDMSNTE5AHORRO@OUTLOOK.COM                                                                             00000000000000000720780044617054182023081740044DISP0000000046859                                                                                                                                                                                                          
SPTB000000100000000003073081000000000000000000000000000000000000000000000000000000000000000000000000000000000000000000000000000000000000000000000000000000100000000003073081000000000000000000000000000000000000000000000000000000000000000000000000000                                                                                                                           
SPHB000000256021994360000024156000                                                                                                                                                                                                                                                                                                                                                
SPDP04000000000001794682023081703SAAA870215LN9       SAAA870215LN9SANCHEZ AGUILAR ALVARO UL               900000000002415600000000000001207801517622204400000                                        9 00000044012001PAGO FONDO DE AHORRO SNTE 5 2022-2023 SNTE SECC5                                                              0000000000000000000000000ISP0000000046862      
SPDMSNTE5AHORRO@OUTLOOK.COM                                                                             00000000000000000120780151762220442023081740044DISP0000000046862                                                                                                                                                                                                          
SPTB000000100000000000179468000000000000000000000000000000000000000000000000000000000000000000000000000000000000000000000000000000000000000000000000000000100000000000179468000000000000000000000000000000000000000000000000000000000000000000000000000                                                                                                                           
SPHB000000256021994360000023056000                                                                                                                                                                                                                                                                                                                                                
SPDP04000000000003597952023081703SAAA870215LN9       SAAA870215LN9SANCHEZ AGUILAR ALVARO ULISES           900000000002305600000000000001207801517622204400000                                        9 00000044012001PAGO FONDO DE AHORRO SNTE 5 2022-2023 SNTE SECC5                                                              0000000000000000000000000ISP0000000046863      
SPDMSNTE5AHORRO@OUTLOOK.COM                                                                             00000000000000000120780151762220442023081740044DISP0000000046863                                                                                                                                                                                                          
SPTB000000100000000000359795000000000000000000000000000000000000000000000000000000000000000000000000000000000000000000000000000000000000000000000000000000100000000000359795000000000000000000000000000000000000000000000000000000000000000000000000000                                                                                                                           
SPHB000000256021994360000024157000                                                                                                                                                                                                                                                                                                                                                
SPDP04000000000000651352023081703SARC840613TH4       SARC840613TH4DE SANTIAGO RODRIGUEZ CEC               900000000002415700000000000000207890240395214200000                                        9 00000044002001PAGO FONDO DE AHORRO SNTE 5 2022-2023 SNTE SECC5                                                              0000000000000000000000000ISP0000000046864      
SPDMSNTE5AHORRO@OUTLOOK.COM                                                                             00000000000000000020789024039521422023081740044DISP0000000046864                                                                                                                                                                                                          
SPTB000000100000000000065135000000000000000000000000000000000000000000000000000000000000000000000000000000000000000000000000000000000000000000000000000000100000000000065135000000000000000000000000000000000000000000000000000000000000000000000000000                                                                                                                           
SPHB000000256021994360000011847000                                                                                                                                                                                                                                                                                                                                                
SPDP04000000000017108262023081703SARC840613TH4       SARC840613TH4DE SANTIAGO RODRIGUEZ CECILIA           900000000001184700000000000000207890240395214200000                                        9 00000044002001PAGO FONDO DE AHORRO SNTE 5 2022-2023 SNTE SECC5                                                              0000000000000000000000000ISP0000000046865      
SPDMSNTE5AHORRO@OUTLOOK.COM                                                                             00000000000000000020789024039521422023081740044DISP0000000046865                                                                                                                                                                                                          
SPTB000000100000000001710826000000000000000000000000000000000000000000000000000000000000000000000000000000000000000000000000000000000000000000000000000000100000000001710826000000000000000000000000000000000000000000000000000000000000000000000000000                                                                                                                           
SPHB000000256021994360000023124000                                                                                                                                                                                                                                                                                                                                                
SPDP04000000000018709792023081703AOGC001202NW3       AOGC001202NW3ARZOLA GARZA CYNTHIA BEATRIZ            900000000002312400000000000001206801529552086000000                                        9 00000044012001PAGO FONDO DE AHORRO SNTE 5 2022-2023 SNTE SECC5                                                              0000000000000000000000000ISP0000000046866      
SPDMSNTE5AHORRO@OUTLOOK.COM                                                                             00000000000000000120680152955208602023081740044DISP0000000046866                                                                                                                                                                                                          
SPTB000000100000000001870979000000000000000000000000000000000000000000000000000000000000000000000000000000000000000000000000000000000000000000000000000000100000000001870979000000000000000000000000000000000000000000000000000000000000000000000000000                                                                                                                           
SPHB000000256021994360000023125000                                                                                                                                                                                                                                                                                                                                                
SPDP04000000000017666172023081703AOMJ9601157A4       AOMJ9601157A4ALFONSO MAZABA JHOSELIN VIRIDIANA       900000000002312500000000000001206201577562337700000                                        9 00000044012001PAGO FONDO DE AHORRO SNTE 5 2022-2023 SNTE SECC5                                                              0000000000000000000000000ISP0000000046867      
SPDMSNTE5AHORRO@OUTLOOK.COM                                                                             00000000000000000120620157756233772023081740044DISP0000000046867                                                                                                                                                                                                          
SPTB000000100000000001766617000000000000000000000000000000000000000000000000000000000000000000000000000000000000000000000000000000000000000000000000000000100000000001766617000000000000000000000000000000000000000000000000000000000000000000000000000                                                                                                                           
SPHB000000256021994360000018298000                                                                                                                                                                                                                                                                                                                                                
SPDP04000000000019803942023081703GAEY890613420       GAEY890613420GARCIA ESTRADA YESICA YANETH            900000000001829800000000000001407556660329890700000                                        9 00000044014001PAGO FONDO DE AHORRO SNTE 5 2022-2023 SNTE SECC5                                                              0000000000000000000000000ISP0000000046869      
SPDMSNTE5AHORRO@OUTLOOK.COM                                                                             00000000000000000140755666032989072023081740044DISP0000000046869                                                                                                                                                                                                          
SPTB000000100000000001980394000000000000000000000000000000000000000000000000000000000000000000000000000000000000000000000000000000000000000000000000000000100000000001980394000000000000000000000000000000000000000000000000000000000000000000000000000                                                                                                                           
SPHB000000256021994360000008800000                                                                                                                                                                                                                                                                                                                                                
SPDP04000000000019803942023081703MAMX900527CW4       MAMX900527CW4MARTINEZ MALO EMARIA                    900000000000880000000000000000207890487491267000000                                        9 00000044002001PAGO FONDO DE AHORRO SNTE 5 2022-2023 SNTE SECC5                                                              0000000000000000000000000ISP0000000046873      
SPDMSNTE5AHORRO@OUTLOOK.COM                                                                             00000000000000000020789048749126702023081740044DISP0000000046873                                                                                                                                                                                                          
SPTB000000100000000001980394000000000000000000000000000000000000000000000000000000000000000000000000000000000000000000000000000000000000000000000000000000100000000001980394000000000000000000000000000000000000000000000000000000000000000000000000000                                                                                                                           
SPHB000000256021994360000024107000                                                                                                                                                                                                                                                                                                                                                
SPDP04000000000005498542023081703MURH910423SJ1       MURH910423SJ1MURO RODRIGUEZ HECTOR BENJAMIN          900000000002410700000000000001206201511154324400000                                        9 00000044012001PAGO FONDO DE AHORRO SNTE 5 2022-2023 SNTE SECC5                                                              0000000000000000000000000ISP0000000046875      
SPDMSNTE5AHORRO@OUTLOOK.COM                                                                             00000000000000000120620151115432442023081740044DISP0000000046875                                                                                                                                                                                                          
SPTB000000100000000000549854000000000000000000000000000000000000000000000000000000000000000000000000000000000000000000000000000000000000000000000000000000100000000000549854000000000000000000000000000000000000000000000000000000000000000000000000000                                                                                                                           
SPHB000000256021994360000023369000                                                                                                                                                                                                                                                                                                                                                
SPDP04000000000024219492023081703PUPC010318B92       PUPC010318B92PUENTE PEREZ CRISTINA                   900000000002336900000000000001218001550021438300000                                        9 00000044012001PAGO FONDO DE AHORRO SNTE 5 2022-2023 SNTE SECC5                                                              0000000000000000000000000ISP0000000046876      
SPDMSNTE5AHORRO@OUTLOOK.COM                                                                             00000000000000000121800155002143832023081740044DISP0000000046876                                                                                                                                                                                                          
SPTB000000100000000002421949000000000000000000000000000000000000000000000000000000000000000000000000000000000000000000000000000000000000000000000000000000100000000002421949000000000000000000000000000000000000000000000000000000000000000000000000000                                                                                                                           
SPHB000000256021994360000023703000                                                                                                                                                                                                                                                                                                                                                
SPDP04000000000012789342023081703QUGS770502A85       QUGS770502A85QUIROZ GARCIA SANDRA PATRICIA           900000000002370300000000000001207801598089718600000                                        9 00000044012001PAGO FONDO DE AHORRO SNTE 5 2022-2023 SNTE SECC5                                                              0000000000000000000000000ISP0000000046877      
SPDMSNTE5AHORRO@OUTLOOK.COM                                                                             00000000000000000120780159808971862023081740044DISP0000000046877                                                                                                                                                                                                          
SPTB000000100000000001278934000000000000000000000000000000000000000000000000000000000000000000000000000000000000000000000000000000000000000000000000000000100000000001278934000000000000000000000000000000000000000000000000000000000000000000000000000                                                                                                                           
SPHB000000256021994360000023862000                                                                                                                                                                                                                                                                                                                                                
SPDP04000000000011342852023081703RODM971213M77       RODM971213M77RODRIGUEZ DIAZ JOSE MANUEL              900000000002386200000000000001207401511795403200000                                        9 00000044012001PAGO FONDO DE AHORRO SNTE 5 2022-2023 SNTE SECC5                                                              0000000000000000000000000ISP0000000046878      
SPDMSNTE5AHORRO@OUTLOOK.COM                                                                             00000000000000000120740151179540322023081740044DISP0000000046878                                                                                                                                                                                                          
SPTB000000100000000001134285000000000000000000000000000000000000000000000000000000000000000000000000000000000000000000000000000000000000000000000000000000100000000001134285000000000000000000000000000000000000000000000000000000000000000000000000000                                                                                                                           
SPHB000000256021994360000023863000                                                                                                                                                                                                                                                                                                                                                
SPDP04000000000005407222023081703ROGG880616JFA       ROGG880616JFARODRIGUEZ GARCIA GABRIELA               900000000002386300000000000001406260591674176900000                                        9 00000044014001PAGO FONDO DE AHORRO SNTE 5 2022-2023 SNTE SECC5                                                              0000000000000000000000000ISP0000000046879      
SPDMSNTE5AHORRO@OUTLOOK.COM                                                                             00000000000000000140626059167417692023081740044DISP0000000046879                                                                                                                                                                                                          
SPTB000000100000000000540722000000000000000000000000000000000000000000000000000000000000000000000000000000000000000000000000000000000000000000000000000000100000000000540722000000000000000000000000000000000000000000000000000000000000000000000000000                                                                                                                           
SPHB000000256021994360000023594000                                                                                                                                                                                                                                                                                                                                                
SPDP04000000000017894852023081703VAMA000823K20       VAMA000823K20VALDES MARTINEZ ANDREA MICHELL          900000000002359400000000000001206801526095744200000                                        9 00000044012001PAGO FONDO DE AHORRO SNTE 5 2022-2023 SNTE SECC5                                                              0000000000000000000000000ISP0000000046880      
SPDMSNTE5AHORRO@OUTLOOK.COM                                                                             00000000000000000120680152609574422023081740044DISP0000000046880                                                                                                                                                                                                          
SPTB000000100000000001789485000000000000000000000000000000000000000000000000000000000000000000000000000000000000000000000000000000000000000000000000000000100000000001789485000000000000000000000000000000000000000000000000000000000000000000000000000                                                                                                                           
SPHB000000256021994360000023462000                                                                                                                                                                                                                                                                                                                                                
SPDP04000000000020744322023081703VARC9911277J5       VARC9911277J5VAZQUEZ RODRIGUEZ JOSE CARLOS           900000000002346200000000000001218001535425223200000                                        9 00000044012001PAGO FONDO DE AHORRO SNTE 5 2022-2023 SNTE SECC5                                                              0000000000000000000000000ISP0000000046881      
SPDMSNTE5AHORRO@OUTLOOK.COM                                                                             00000000000000000121800153542522322023081740044DISP0000000046881                                                                                                                                                                                                          
SPTB000000100000000002074432000000000000000000000000000000000000000000000000000000000000000000000000000000000000000000000000000000000000000000000000000000100000000002074432000000000000000000000000000000000000000000000000000000000000000000000000000                                                                                                                           
SPHB000000256021994360000023463000                                                                                                                                                                                                                                                                                                                                                
SPDP04000000000018709792023081703VARJ000223T67       VARJ000223T67VAZQUEZ RAMOS JAIME JAZHIEL             900000000002346300000000000000206890497956543700000                                        9 00000044002001PAGO FONDO DE AHORRO SNTE 5 2022-2023 SNTE SECC5                                                              0000000000000000000000000ISP0000000046882      
SPDMSNTE5AHORRO@OUTLOOK.COM                                                                             00000000000000000020689049795654372023081740044DISP0000000046882                                                                                                                                                                                                          
SPTB000000100000000001870979000000000000000000000000000000000000000000000000000000000000000000000000000000000000000000000000000000000000000000000000000000100000000001870979000000000000000000000000000000000000000000000000000000000000000000000000000                                                                                                                           
SPHB000000256021994360000005699000                                                                                                                                                                                                                                                                                                                                                
SPDP04000000000011807132023081703GUTL770712PJ9       GUTL770712PJ9GUTIERREZ TREVI O LIZA ANET             900000000000569900000000000001218001589928834700000                                        9 00000044012001PAGO FONDO DE AHORRO SNTE 5 2022-2023 SNTE SECC5                                                              0000000000000000000000000ISP0000000046883      
SPDMSNTE5AHORRO@OUTLOOK.COM                                                                             00000000000000000121800158992883472023081740044DISP0000000046883                                                                                                                                                                                                          
SPTB000000100000000001180713000000000000000000000000000000000000000000000000000000000000000000000000000000000000000000000000000000000000000000000000000000100000000001180713000000000000000000000000000000000000000000000000000000000000000000000000000                                                                                                                           
SPHB000000256021994360000004781000                                                                                                                                                                                                                                                                                                                                                
SPDP04000000000025521982023081703OEMK760419SB1       OEMK760419SB1ORTEGON MENCHACA KARLA ALEJANDRINA      900000000000478100000000000001206201106407811600000                                        9 00000044012001PAGO FONDO DE AHORRO SNTE 5 2022-2023 SNTE SECC5                                                              0000000000000000000000000ISP0000000046884      
SPDMSNTE5AHORRO@OUTLOOK.COM                                                                             00000000000000000120620110640781162023081740044DISP0000000046884                                                                                                                                                                                                          
SPTB000000100000000002552198000000000000000000000000000000000000000000000000000000000000000000000000000000000000000000000000000000000000000000000000000000100000000002552198000000000000000000000000000000000000000000000000000000000000000000000000000                                                                                                                           
SPHB000000256021994360000024112000                                                                                                                                                                                                                                                                                                                                                
SPDP04000000000005498542023081703RAHW9502231U0       RAHW9502231U0RAMOS HERNANDEZ WENDY ARIADNA           900000000002411200000000000001207802868061610400000                                        9 00000044012001PAGO FONDO DE AHORRO SNTE 5 2022-2023 SNTE SECC5                                                              0000000000000000000000000ISP0000000046885      
SPDMSNTE5AHORRO@OUTLOOK.COM                                                                             00000000000000000120780286806161042023081740044DISP0000000046885                                                                                                                                                                                                          
SPTB000000100000000000549854000000000000000000000000000000000000000000000000000000000000000000000000000000000000000000000000000000000000000000000000000000100000000000549854000000000000000000000000000000000000000000000000000000000000000000000000000                                                                                                                           
SPHB000000256021994360000023379000                                                                                                                                                                                                                                                                                                                                                
SPDP04000000000018712882023081703RALS951009SY5       RALS951009SY5RAMOS LOPEZ SARAI                       900000000002337900000000000001267001511182870400000                                        9 00000044012001PAGO FONDO DE AHORRO SNTE 5 2022-2023 SNTE SECC5                                                              0000000000000000000000000ISP0000000046886      
SPDMSNTE5AHORRO@OUTLOOK.COM                                                                             00000000000000000126700151118287042023081740044DISP0000000046886                                                                                                                                                                                                          
SPTB000000100000000001871288000000000000000000000000000000000000000000000000000000000000000000000000000000000000000000000000000000000000000000000000000000100000000001871288000000000000000000000000000000000000000000000000000000000000000000000000000                                                                                                                           
SPHB000000256021994360000023571000                                                                                                                                                                                                                                                                                                                                                
SPDP04000000000013779262023081703RAME9001143FA       RAME9001143FARAMOS MARTINEZ ELSA MARGARITA           900000000002357100000000000001207801567389619300000                                        9 00000044012001PAGO FONDO DE AHORRO SNTE 5 2022-2023 SNTE SECC5                                                              0000000000000000000000000ISP0000000046887      
SPDMSNTE5AHORRO@OUTLOOK.COM                                                                             00000000000000000120780156738961932023081740044DISP0000000046887                                                                                                                                                                                                          
SPTB000000100000000001377926000000000000000000000000000000000000000000000000000000000000000000000000000000000000000000000000000000000000000000000000000000100000000001377926000000000000000000000000000000000000000000000000000000000000000000000000000                                                                                                                           
SPHB000000256021994360000023943000                                                                                                                                                                                                                                                                                                                                                
SPDP04000000000009740912023081703ROMR730806HG2       ROMR730806HG2RODRIGUEZ MONSIVAIS ROCIO ELIZABETH     900000000002394300000000000007207700805152171100000                                        9 00000044072001PAGO FONDO DE AHORRO SNTE 5 2022-2023 SNTE SECC5                                                              0000000000000000000000000ISP0000000046888      
SPDMSNTE5AHORRO@OUTLOOK.COM                                                                             00000000000000000720770080515217112023081740044DISP0000000046888                                                                                                                                                                                                          
SPTB000000100000000000974091000000000000000000000000000000000000000000000000000000000000000000000000000000000000000000000000000000000000000000000000000000100000000000974091000000000000000000000000000000000000000000000000000000000000000000000000000                                                                                                                           
SPHB000000256021994360000004848000                                                                                                                                                                                                                                                                                                                                                
SPDP04000000000019321402023081703RONJ660410V75       RONJ660410V75RODRIGUEZ NU EZ JUAN MANUEL             900000000000484800000000000004407825604461422300000                                        9 00187044044001PAGO FONDO DE AHORRO SNTE 5 2022-2023 SNTE SECC5                                                              00000000000000000000000000010000000046889      
SPDMSNTE5AHORRO@OUTLOOK.COM                                                                             0000000000000000044078256044614223000020230817160010000000046889                                                                                                                                                                                                          
SPTB000000100000000001932140000000000000000000000000000000000000000000000000000000000000000000000000000000000000000000000000000000000000000000000000000000100000000001932140000000000000000000000000000000000000000000000000000000000000000000000000000                                                                                                                           
SPHB000000256021994360000023106000                                                                                                                                                                                                                                                                                                                                                
SPDP04000000000014595482023081703AACC810828EJ7       AACC810828EJ7AMAYA CAZARES MARIA DEL CONSUELO        900000000002310600000000000001207801552923838400000                                        9 00000044012001PAGO FONDO DE AHORRO SNTE 5 2022-2023 SNTE SECC5                                                              0000000000000000000000000ISP0000000046890      
SPDMSNTE5AHORRO@OUTLOOK.COM                                                                             00000000000000000120780155292383842023081740044DISP0000000046890                                                                                                                                                                                                          
SPTB000000100000000001459548000000000000000000000000000000000000000000000000000000000000000000000000000000000000000000000000000000000000000000000000000000100000000001459548000000000000000000000000000000000000000000000000000000000000000000000000000                                                                                                                           
SPHB000000256021994360000013075000                                                                                                                                                                                                                                                                                                                                                
SPDP04000000000046030852023081703FOAM701106DW4       FOAM701106DW4FLORES ALVAREZ MARIA MAGDALENA          900000000001307500000000000007207800556270685200000                                        9 00000044072001PAGO FONDO DE AHORRO SNTE 5 2022-2023 SNTE SECC5                                                              0000000000000000000000000ISP0000000046891      
SPDMSNTE5AHORRO@OUTLOOK.COM                                                                             00000000000000000720780055627068522023081740044DISP0000000046891                                                                                                                                                                                                          
SPTB000000100000000004603085000000000000000000000000000000000000000000000000000000000000000000000000000000000000000000000000000000000000000000000000000000100000000004603085000000000000000000000000000000000000000000000000000000000000000000000000000                                                                                                                           
SPHB000000256021994360000022329000                                                                                                                                                                                                                                                                                                                                                
SPDP04000000000019574402023081703GASI991110QU3       GASI991110QU3GARCIA SOLIS ISABEL ALEJANDRA           900000000002232900000000000001207801573628636500000                                        9 00000044012001PAGO FONDO DE AHORRO SNTE 5 2022-2023 SNTE SECC5                                                              0000000000000000000000000ISP0000000046892      
SPDMSNTE5AHORRO@OUTLOOK.COM                                                                             00000000000000000120780157362863652023081740044DISP0000000046892                                                                                                                                                                                                          
SPTB000000100000000001957440000000000000000000000000000000000000000000000000000000000000000000000000000000000000000000000000000000000000000000000000000000100000000001957440000000000000000000000000000000000000000000000000000000000000000000000000000                                                                                                                           
SPHB000000256021994360000012304000                                                                                                                                                                                                                                                                                                                                                
SPDP04000000000019098312023081703HELM641102IS8       HELM641102IS8HERRERA LOPEZ MARTA ALICIA              900000000001230400000000000001207801524843782200000                                        9 00000044012001PAGO FONDO DE AHORRO SNTE 5 2022-2023 SNTE SECC5                                                              0000000000000000000000000ISP0000000046893      
SPDMSNTE5AHORRO@OUTLOOK.COM                                                                             00000000000000000120780152484378222023081740044DISP0000000046893                                                                                                                                                                                                          
SPTB000000100000000001909831000000000000000000000000000000000000000000000000000000000000000000000000000000000000000000000000000000000000000000000000000000100000000001909831000000000000000000000000000000000000000000000000000000000000000000000000000                                                                                                                           
SPHB000000256021994360000023820000                                                                                                                                                                                                                                                                                                                                                
SPDP04000000000015285782023081703HEME880913222       HEME880913222HERNANDEZ MORENO EPIFANIA GUADALUPE     900000000002382000000000000001407260569287325500000                                        9 00000044014001PAGO FONDO DE AHORRO SNTE 5 2022-2023 SNTE SECC5                                                              0000000000000000000000000ISP0000000046894      
SPDMSNTE5AHORRO@OUTLOOK.COM                                                                             00000000000000000140726056928732552023081740044DISP0000000046894                                                                                                                                                                                                          
SPTB000000100000000001528578000000000000000000000000000000000000000000000000000000000000000000000000000000000000000000000000000000000000000000000000000000100000000001528578000000000000000000000000000000000000000000000000000000000000000000000000000                                                                                                                           
SPHB000000256021994360000022901000                                                                                                                                                                                                                                                                                                                                                
SPDP04000000000017425032023081703LUAS020827849       LUAS020827849LUNA ANTUNA SOFIA ALEXIA                900000000002290100000000000007258001162103033600000                                        9 00000044072001PAGO FONDO DE AHORRO SNTE 5 2022-2023 SNTE SECC5                                                              0000000000000000000000000ISP0000000046895      
SPDMSNTE5AHORRO@OUTLOOK.COM                                                                             00000000000000000725800116210303362023081740044DISP0000000046895                                                                                                                                                                                                          
SPTB000000100000000001742503000000000000000000000000000000000000000000000000000000000000000000000000000000000000000000000000000000000000000000000000000000100000000001742503000000000000000000000000000000000000000000000000000000000000000000000000000                                                                                                                           
SPHB000000256021994360000023983000                                                                                                                                                                                                                                                                                                                                                
SPDP04000000000007679552023081703MEMJ890502794       MEMJ890502794MEDRANO MACIAS JESUS DAVID              900000000002398300000000000001207801589865406800000                                        9 00000044012001PAGO FONDO DE AHORRO SNTE 5 2022-2023 SNTE SECC5                                                              0000000000000000000000000ISP0000000046896      
SPDMSNTE5AHORRO@OUTLOOK.COM                                                                             00000000000000000120780158986540682023081740044DISP0000000046896                                                                                                                                                                                                          
SPTB000000100000000000767955000000000000000000000000000000000000000000000000000000000000000000000000000000000000000000000000000000000000000000000000000000100000000000767955000000000000000000000000000000000000000000000000000000000000000000000000000                                                                                                                           
SPHB000000256021994360000023347000                                                                                                                                                                                                                                                                                                                                                
SPDP04000000000014890112023081703OITD891029GN6       OITD891029GN6OLIVARES TENORIO DULCE CONSUELO         900000000002334700000000000001407855505932920500000                                        9 00000044014001PAGO FONDO DE AHORRO SNTE 5 2022-2023 SNTE SECC5                                                              0000000000000000000000000ISP0000000046897      
SPDMSNTE5AHORRO@OUTLOOK.COM                                                                             00000000000000000140785550593292052023081740044DISP0000000046897                                                                                                                                                                                                          
SPTB000000100000000001489011000000000000000000000000000000000000000000000000000000000000000000000000000000000000000000000000000000000000000000000000000000100000000001489011000000000000000000000000000000000000000000000000000000000000000000000000000                                                                                                                           
SPHB000000256021994360000010174000                                                                                                                                                                                                                                                                                                                                                
SPDP04000000000019963232023081703PACA790528TS0       PACA790528TS0PRADO CASTRO ADOLFO                     900000000001017400000000000007207801231454501800000                                        9 00000044072001PAGO FONDO DE AHORRO SNTE 5 2022-2023 SNTE SECC5                                                              0000000000000000000000000ISP0000000046898      
SPDMSNTE5AHORRO@OUTLOOK.COM                                                                             00000000000000000720780123145450182023081740044DISP0000000046898                                                                                                                                                                                                          
SPTB000000100000000001996323000000000000000000000000000000000000000000000000000000000000000000000000000000000000000000000000000000000000000000000000000000100000000001996323000000000000000000000000000000000000000000000000000000000000000000000000000                                                                                                                           
SPHB000000256021994360000023572000                                                                                                                                                                                                                                                                                                                                                
SPDP04000000000014764382023081703REEJ0207228J9       REEJ0207228J9REYES ESPINOSA MARIA JOSE               900000000002357200000000000001207801518689606200000                                        9 00000044012001PAGO FONDO DE AHORRO SNTE 5 2022-2023 SNTE SECC5                                                              0000000000000000000000000ISP0000000046899      
SPDMSNTE5AHORRO@OUTLOOK.COM                                                                             00000000000000000120780151868960622023081740044DISP0000000046899                                                                                                                                                                                                          
SPTB000000100000000001476438000000000000000000000000000000000000000000000000000000000000000000000000000000000000000000000000000000000000000000000000000000100000000001476438000000000000000000000000000000000000000000000000000000000000000000000000000                                                                                                                           
SPHB000000256021994360000023384000                                                                                                                                                                                                                                                                                                                                                
SPDP04000000000014752072023081703REEL9707029R0       REEL9707029R0RENOVATO ESPINOSA LUIS HERIBERTO        900000000002338400000000000002107806541466830100000                                        9 00000044021001PAGO FONDO DE AHORRO SNTE 5 2022-2023 SNTE SECC5                                                              0000000000000000000000000ISP0000000046900      
SPDMSNTE5AHORRO@OUTLOOK.COM                                                                             00000000000000000210780654146683012023081740044DISP0000000046900                                                                                                                                                                                                          
SPTB000000100000000001475207000000000000000000000000000000000000000000000000000000000000000000000000000000000000000000000000000000000000000000000000000000100000000001475207000000000000000000000000000000000000000000000000000000000000000000000000000                                                                                                                           
SPHB000000256021994360000023855000                                                                                                                                                                                                                                                                                                                                                
SPDP04000000000015963102023081703REIV000606M60       REIV000606M60REYES ISAIAS VALERIA DEL CARMEN         900000000002385500000000000001218001534379716400000                                        9 00000044012001PAGO FONDO DE AHORRO SNTE 5 2022-2023 SNTE SECC5                                                              0000000000000000000000000ISP0000000046901      
SPDMSNTE5AHORRO@OUTLOOK.COM                                                                             00000000000000000121800153437971642023081740044DISP0000000046901                                                                                                                                                                                                          
SPTB000000100000000001596310000000000000000000000000000000000000000000000000000000000000000000000000000000000000000000000000000000000000000000000000000000100000000001596310000000000000000000000000000000000000000000000000000000000000000000000000000                                                                                                                           
SPHB000000256021994360000024021000                                                                                                                                                                                                                                                                                                                                                
SPDP04000000000007251542023081703RUMJ010419PE6       RUMJ010419PE6RUIZ MATA JARED ABDI                    900000000002402100000000000001218001556778041000000                                        9 00000044012001PAGO FONDO DE AHORRO SNTE 5 2022-2023 SNTE SECC5                                                              0000000000000000000000000ISP0000000046902      
SPDMSNTE5AHORRO@OUTLOOK.COM                                                                             00000000000000000121800155677804102023081740044DISP0000000046902                                                                                                                                                                                                          
SPTB000000100000000000725154000000000000000000000000000000000000000000000000000000000000000000000000000000000000000000000000000000000000000000000000000000100000000000725154000000000000000000000000000000000000000000000000000000000000000000000000000                                                                                                                           
SPHB000000256021994360000023055000                                                                                                                                                                                                                                                                                                                                                
SPDP04000000000020036382023081703RURA960702TS3       RURA960702TS3RUELAS ROMERO ALFONSO                   900000000002305500000000000001207201547049253400000                                        9 00000044012001PAGO FONDO DE AHORRO SNTE 5 2022-2023 SNTE SECC5                                                              0000000000000000000000000ISP0000000046903      
SPDMSNTE5AHORRO@OUTLOOK.COM                                                                             00000000000000000120720154704925342023081740044DISP0000000046903                                                                                                                                                                                                          
SPTB000000100000000002003638000000000000000000000000000000000000000000000000000000000000000000000000000000000000000000000000000000000000000000000000000000100000000002003638000000000000000000000000000000000000000000000000000000000000000000000000000                                                                                                                           
SPHB000000256021994360000024029000                                                                                                                                                                                                                                                                                                                                                
SPDP04000000000005624652023081703ZABA910803TC6       ZABA910803TC6ZAMORA BROWN ALAN                       900000000002402900000000000007207701084131905300000                                        9 00000044072001PAGO FONDO DE AHORRO SNTE 5 2022-2023 SNTE SECC5                                                              0000000000000000000000000ISP0000000046904      
SPDMSNTE5AHORRO@OUTLOOK.COM                                                                             00000000000000000720770108413190532023081740044DISP0000000046904                                                                                                                                                                                                          
SPTB000000100000000000562465000000000000000000000000000000000000000000000000000000000000000000000000000000000000000000000000000000000000000000000000000000100000000000562465000000000000000000000000000000000000000000000000000000000000000000000000000                                                                                                                           
SPHB000000256021994360000023132000                                                                                                                                                                                                                                                                                                                                                
SPDP04000000000008933712023081703AUMJ000203HR2       AUMJ000203HR2AGUIRRE MEDINA JOHANA MICHELLE          900000000002313200000000000001218001529573628600000                                        9 00000044012001PAGO FONDO DE AHORRO SNTE 5 2022-2023 SNTE SECC5                                                              0000000000000000000000000ISP0000000046906      
SPDMSNTE5AHORRO@OUTLOOK.COM                                                                             00000000000000000121800152957362862023081740044DISP0000000046906                                                                                                                                                                                                          
SPTB000000100000000000893371000000000000000000000000000000000000000000000000000000000000000000000000000000000000000000000000000000000000000000000000000000100000000000893371000000000000000000000000000000000000000000000000000000000000000000000000000                                                                                                                           
SPHB000000256021994360000023977000                                                                                                                                                                                                                                                                                                                                                
SPDP04000000000006526632023081703LECL970102TF2       LECL970102TF2LEDEZMA CORONADO LUCIA GUADALUPE        900000000002397700000000000007207801221560494800000                                        9 00000044072001PAGO FONDO DE AHORRO SNTE 5 2022-2023 SNTE SECC5                                                              0000000000000000000000000ISP0000000046907      
SPDMSNTE5AHORRO@OUTLOOK.COM                                                                             00000000000000000720780122156049482023081740044DISP0000000046907                                                                                                                                                                                                          
SPTB000000100000000000652663000000000000000000000000000000000000000000000000000000000000000000000000000000000000000000000000000000000000000000000000000000100000000000652663000000000000000000000000000000000000000000000000000000000000000000000000000                                                                                                                           
SPHB000000256021994360000023691000                                                                                                                                                                                                                                                                                                                                                
SPDP04000000000010017792023081703MARR990123JD7       MARR990123JD7MARTINEZ RAMIREZ ROBERTO CARLOS         900000000002369100000000000001206801577850872300000                                        9 00000044012001PAGO FONDO DE AHORRO SNTE 5 2022-2023 SNTE SECC5                                                              0000000000000000000000000ISP0000000046908      
SPDMSNTE5AHORRO@OUTLOOK.COM                                                                             00000000000000000120680157785087232023081740044DISP0000000046908                                                                                                                                                                                                          
SPTB000000100000000001001779000000000000000000000000000000000000000000000000000000000000000000000000000000000000000000000000000000000000000000000000000000100000000001001779000000000000000000000000000000000000000000000000000000000000000000000000000                                                                                                                           
SPHB000000256021994360000024035000                                                                                                                                                                                                                                                                                                                                                
SPDP04000000000006333682023081703MUVO810618SQ8       MUVO810618SQ8MU IZ VALDES OSCAR                      900000000002403500000000000004407825604149832900000                                        9 00187044044001PAGO FONDO DE AHORRO SNTE 5 2022-2023 SNTE SECC5                                                              00000000000000000000000000011000000046909      
SPDMSNTE5AHORRO@OUTLOOK.COM                                                                             0000000000000000044078256041498329000020230817160011000000046909                                                                                                                                                                                                          
SPTB000000100000000000633368000000000000000000000000000000000000000000000000000000000000000000000000000000000000000000000000000000000000000000000000000000100000000000633368000000000000000000000000000000000000000000000000000000000000000000000000000                                                                                                                           
SPHB000000256021994360000024045000                                                                                                                                                                                                                                                                                                                                                
SPDP04000000000005992922023081703RAAY890215AY7       RAAY890215AY7RANGEL ALEJANDRO YARETH ANAHIB          900000000002404500000000000001407856725223891600000                                        9 00000044014001PAGO FONDO DE AHORRO SNTE 5 2022-2023 SNTE SECC5                                                              0000000000000000000000000ISP0000000046910      
SPDMSNTE5AHORRO@OUTLOOK.COM                                                                             00000000000000000140785672522389162023081740044DISP0000000046910                                                                                                                                                                                                          
SPTB000000100000000000599292000000000000000000000000000000000000000000000000000000000000000000000000000000000000000000000000000000000000000000000000000000100000000000599292000000000000000000000000000000000000000000000000000000000000000000000000000                                                                                                                           
SPHB000000256021994360000023046000                                                                                                                                                                                                                                                                                                                                                
SPDP04000000000018629302023081703ROHW810130U78       ROHW810130U78RODRIGUEZ HERNANDEZ WENDOLIN YUVISELA   900000000002304600000000000001242002702743469500000                                        9 00000044012001PAGO FONDO DE AHORRO SNTE 5 2022-2023 SNTE SECC5                                                              0000000000000000000000000ISP0000000046913      
SPDMSNTE5AHORRO@OUTLOOK.COM                                                                             00000000000000000124200270274346952023081740044DISP0000000046913                                                                                                                                                                                                          
SPTB000000100000000001862930000000000000000000000000000000000000000000000000000000000000000000000000000000000000000000000000000000000000000000000000000000100000000001862930000000000000000000000000000000000000000000000000000000000000000000000000000                                                                                                                           
SPHB000000256021994360000023759000                                                                                                                                                                                                                                                                                                                                                
SPDP04000000000011493342023081703ROMB830424MU8       ROMB830424MU8RODRIGUEZ MATA BALDEMAR                 900000000002375900000000000001206802655483034500000                                        9 00000044012001PAGO FONDO DE AHORRO SNTE 5 2022-2023 SNTE SECC5                                                              0000000000000000000000000ISP0000000046915      
SPDMSNTE5AHORRO@OUTLOOK.COM                                                                             00000000000000000120680265548303452023081740044DISP0000000046915                                                                                                                                                                                                          
SPTB000000100000000001149334000000000000000000000000000000000000000000000000000000000000000000000000000000000000000000000000000000000000000000000000000000100000000001149334000000000000000000000000000000000000000000000000000000000000000000000000000                                                                                                                           
SPHB000000256021994360000016645000                                                                                                                                                                                                                                                                                                                                                
SPDP04000000000006133592023081703SIAK810606169       SIAK810606169SIFUENTES AGUILAR KARLA AURORA          900000000001664500000000000002107806507437312000000                                        9 00000044021001PAGO FONDO DE AHORRO SNTE 5 2022-2023 SNTE SECC5                                                              0000000000000000000000000ISP0000000046919      
SPDMSNTE5AHORRO@OUTLOOK.COM                                                                             00000000000000000210780650743731202023081740044DISP0000000046919                                                                                                                                                                                                          
SPTB000000100000000000613359000000000000000000000000000000000000000000000000000000000000000000000000000000000000000000000000000000000000000000000000000000100000000000613359000000000000000000000000000000000000000000000000000000000000000000000000000                                                                                                                           
SPHB000000256021994360000023172000                                                                                                                                                                                                                                                                                                                                                
SPDP04000000000024219492023081703CEOL9811238WA       CEOL9811238WACELESTINO OVALLE LIZBETH REGINA         900000000002317200000000000001218001574833055300000                                        9 00000044012001PAGO FONDO DE AHORRO SNTE 5 2022-2023 SNTE SECC5                                                              0000000000000000000000000ISP0000000046923      
SPDMSNTE5AHORRO@OUTLOOK.COM                                                                             00000000000000000121800157483305532023081740044DISP0000000046923                                                                                                                                                                                                          
SPTB000000100000000002421949000000000000000000000000000000000000000000000000000000000000000000000000000000000000000000000000000000000000000000000000000000100000000002421949000000000000000000000000000000000000000000000000000000000000000000000000000                                                                                                                           
SPHB000000256021994360000024097000                                                                                                                                                                                                                                                                                                                                                
SPDP04000000000005498542023081703GAPH980221UD4       GAPH980221UD4GARCIA PALACIOS HECTOR GONZALO          900000000002409700000000000001206201530167431800000                                        9 00000044012001PAGO FONDO DE AHORRO SNTE 5 2022-2023 SNTE SECC5                                                              0000000000000000000000000ISP0000000046926      
SPDMSNTE5AHORRO@OUTLOOK.COM                                                                             00000000000000000120620153016743182023081740044DISP0000000046926                                                                                                                                                                                                          
SPTB000000100000000000549854000000000000000000000000000000000000000000000000000000000000000000000000000000000000000000000000000000000000000000000000000000100000000000549854000000000000000000000000000000000000000000000000000000000000000000000000000                                                                                                                           
SPHB000000256021994360000023240000                                                                                                                                                                                                                                                                                                                                                
SPDP04000000000006902662023081703GASA9802287Q2       GASA9802287Q2GAYTAN SERRANO ALEJANDRA DEL ROCIO      900000000002324000000000000001207401551246596400000                                        9 00000044012001PAGO FONDO DE AHORRO SNTE 5 2022-2023 SNTE SECC5                                                              0000000000000000000000000ISP0000000046928      
SPDMSNTE5AHORRO@OUTLOOK.COM                                                                             00000000000000000120740155124659642023081740044DISP0000000046928                                                                                                                                                                                                          
SPTB000000100000000000690266000000000000000000000000000000000000000000000000000000000000000000000000000000000000000000000000000000000000000000000000000000100000000000690266000000000000000000000000000000000000000000000000000000000000000000000000000                                                                                                                           
SPHB000000256021994360000005804000                                                                                                                                                                                                                                                                                                                                                
SPDP04000000000029418852023081703HEAS760424L18       HEAS760424L18HERNANDEZ ALCALA SANJUANA ALEJANDRINA   900000000000580400000000000002107806579241766900000                                        9 00000044021001PAGO FONDO DE AHORRO SNTE 5 2022-2023 SNTE SECC5                                                              0000000000000000000000000ISP0000000046931      
SPDMSNTE5AHORRO@OUTLOOK.COM                                                                             00000000000000000210780657924176692023081740044DISP0000000046931                                                                                                                                                                                                          
SPTB000000100000000002941885000000000000000000000000000000000000000000000000000000000000000000000000000000000000000000000000000000000000000000000000000000100000000002941885000000000000000000000000000000000000000000000000000000000000000000000000000                                                                                                                           
SPHB000000256021994360000023381000                                                                                                                                                                                                                                                                                                                                                
SPDP04000000000008933712023081703RASE001029NM2       RASE001029NM2RAMIREZ SERRANO ELISEVA SEMARIAS        900000000002338100000000000001206001529341434500000                                        9 00000044012001PAGO FONDO DE AHORRO SNTE 5 2022-2023 SNTE SECC5                                                              0000000000000000000000000ISP0000000046934      
SPDMSNTE5AHORRO@OUTLOOK.COM                                                                             00000000000000000120600152934143452023081740044DISP0000000046934                                                                                                                                                                                                          
SPTB000000100000000000893371000000000000000000000000000000000000000000000000000000000000000000000000000000000000000000000000000000000000000000000000000000100000000000893371000000000000000000000000000000000000000000000000000000000000000000000000000                                                                                                                           
SPHB000000256021994360000023588000                                                                                                                                                                                                                                                                                                                                                
SPDP04000000000012390362023081703SOLL000417UD4       SOLL000417UD4SOTO LOPEZ LITTZY DARIELA               900000000002358800000000000001218001586241783100000                                        9 00000044012001PAGO FONDO DE AHORRO SNTE 5 2022-2023 SNTE SECC5                                                              0000000000000000000000000ISP0000000046942      
SPDMSNTE5AHORRO@OUTLOOK.COM                                                                             00000000000000000121800158624178312023081740044DISP0000000046942                                                                                                                                                                                                          
SPTB000000100000000001239036000000000000000000000000000000000000000000000000000000000000000000000000000000000000000000000000000000000000000000000000000000100000000001239036000000000000000000000000000000000000000000000000000000000000000000000000000                                                                                                                           
SPHB000000256021994360000023470000                                                                                                                                                                                                                                                                                                                                                
SPDP04000000000014752062023081703VIHL680808VC6       VIHL680808VC6VILLASE OR HERNANDEZ LOURDES            900000000002347000000000000007207800513743191800000                                        9 00000044072001PAGO FONDO DE AHORRO SNTE 5 2022-2023 SNTE SECC5                                                              0000000000000000000000000ISP0000000046945      
SPDMSNTE5AHORRO@OUTLOOK.COM                                                                             00000000000000000720780051374319182023081740044DISP0000000046945                                                                                                                                                                                                          
SPTB000000100000000001475206000000000000000000000000000000000000000000000000000000000000000000000000000000000000000000000000000000000000000000000000000000100000000001475206000000000000000000000000000000000000000000000000000000000000000000000000000                                                                                                                           
SPHB000000256021994360000024028000                                                                                                                                                                                                                                                                                                                                                
SPDP04000000000006549302023081703VILJ840709US0       VILJ840709US0VILLEGAS LOPEZ JUANA                    900000000002402800000000000002107806572150402200000                                        9 00000044021001PAGO FONDO DE AHORRO SNTE 5 2022-2023 SNTE SECC5                                                              0000000000000000000000000ISP0000000046951      
SPDMSNTE5AHORRO@OUTLOOK.COM                                                                             00000000000000000210780657215040222023081740044DISP0000000046951                                                                                                                                                                                                          
SPTB000000100000000000654930000000000000000000000000000000000000000000000000000000000000000000000000000000000000000000000000000000000000000000000000000000100000000000654930000000000000000000000000000000000000000000000000000000000000000000000000000                                                                                                                           
