SPHA0932601202308232023082320230823000                                                                                                                                                                                                                                                                                                                                            
SPHB000000256021994360000023498000                                                                                                                                                                                                                                                                                                                                                
SPDP04000000000015787152023082203CACV930531HE7       CACV930531HE7CALAMACO CARRION VICENTE                900000000002349800000000000001206302751082698600000                                        9 00000044012001PAGO FONDO DE AHORRO SNTE 5 2022-2023 SNTE SECC5                                                              0000000000000000000000000ISP0000000014458      
SPDMSNTE5AHORRO@OUTLOOK.COM                                                                             00000000000000000120630275108269862023082240044DISP0000000014458                                                                                                                                                                                                          
SPTB000000100000000001578715000000000000000000000000000000000000000000000000000000000000000000000000000000000000000000000000000000000000000000000000000000100000000001578715000000000000000000000000000000000000000000000000000000000000000000000000000                                                                                                                           
SPHB000000256021994360000024144000                                                                                                                                                                                                                                                                                                                                                
SPDP04000000000002186422023082203MUJJ000518JW7       MUJJ000518JW7MU#IZ JIMENES JORGE EDUARDO             900000000002414400000000000001207801531304171600000                                        9 00000044012001PAGO FONDO DE AHORRO SNTE 5 2022-2023 SNTE SECC5                                                              0000000000000000000000000ISP0000000014459      
SPDMSNTE5AHORRO@OUTLOOK.COM                                                                             00000000000000000120780153130417162023082240044DISP0000000014459                                                                                                                                                                                                          
SPTB000000100000000000218642000000000000000000000000000000000000000000000000000000000000000000000000000000000000000000000000000000000000000000000000000000100000000000218642000000000000000000000000000000000000000000000000000000000000000000000000000                                                                                                                           
SPHB000000256021994360000023658000                                                                                                                                                                                                                                                                                                                                                
SPDP04000000000004636072023082203BAMM860816444       BAMM860816444BRAVO MARTINEZ MARCO ANTONIO            900000000002365800000000000001207401510926477200000                                        9 00000044012001PAGO FONDO DE AHORRO SNTE 5 2022-2023 SNTE SECC5                                                              0000000000000000000000000ISP0000000014460      
SPDMSNTE5AHORRO@OUTLOOK.COM                                                                             00000000000000000120740151092647722023082240044DISP0000000014460                                                                                                                                                                                                          
SPTB000000100000000000463607000000000000000000000000000000000000000000000000000000000000000000000000000000000000000000000000000000000000000000000000000000100000000000463607000000000000000000000000000000000000000000000000000000000000000000000000000                                                                                                                           
SPHB000000256021994360000023794000                                                                                                                                                                                                                                                                                                                                                
SPDP04000000000009733982023082203EIGC84092116A       EIGC84092116AESPINOZA GARZA CLAUDIA                  900000000002379400000000000001207501563189620600000                                        9 00000044012001PAGO FONDO DE AHORRO SNTE 5 2022-2023 SNTE SECC5                                                              0000000000000000000000000ISP0000000014461      
SPDMSNTE5AHORRO@OUTLOOK.COM                                                                             00000000000000000120750156318962062023082240044DISP0000000014461                                                                                                                                                                                                          
SPTB000000100000000000973398000000000000000000000000000000000000000000000000000000000000000000000000000000000000000000000000000000000000000000000000000000100000000000973398000000000000000000000000000000000000000000000000000000000000000000000000000                                                                                                                           
SPHB000000256021994360000023923000                                                                                                                                                                                                                                                                                                                                                
SPDP04000000000008702932023082203EALR710615U82       EALR710615U82ESPARZA LOPEZ ROSA YOLANDA              900000000002392300000000000001207401459107274800000                                        9 00000044012001PAGO FONDO DE AHORRO SNTE 5 2022-2023 SNTE SECC5                                                              0000000000000000000000000ISP0000000014462      
SPDMSNTE5AHORRO@OUTLOOK.COM                                                                             00000000000000000120740145910727482023082240044DISP0000000014462                                                                                                                                                                                                          
SPTB000000100000000000870293000000000000000000000000000000000000000000000000000000000000000000000000000000000000000000000000000000000000000000000000000000100000000000870293000000000000000000000000000000000000000000000000000000000000000000000000000                                                                                                                           
SPHB000000256021994360000022420000                                                                                                                                                                                                                                                                                                                                                
SPDP04000000000009208702023082203RACP901215CVA       RACP901215CVARAMOS CRUZ PAOLA CAROLINA               900000000002242000000000000001206802823457451800000                                        9 00000044012001PAGO FONDO DE AHORRO SNTE 5 2022-2023 SNTE SECC5                                                              0000000000000000000000000ISP0000000014463      
SPDMSNTE5AHORRO@OUTLOOK.COM                                                                             00000000000000000120680282345745182023082240044DISP0000000014463                                                                                                                                                                                                          
SPTB000000100000000000920870000000000000000000000000000000000000000000000000000000000000000000000000000000000000000000000000000000000000000000000000000000100000000000920870000000000000000000000000000000000000000000000000000000000000000000000000000                                                                                                                           
SPHB000000256021994360000023411000                                                                                                                                                                                                                                                                                                                                                
SPDP04000000000012420892023082203ROLA930921GM5       ROLA930921GM5DE LA ROSA LUGO ALBA GUADALUPE          900000000002341100000000000001206001504059568200000                                        9 00000044012001PAGO FONDO DE AHORRO SNTE 5 2022-2023 SNTE SECC5                                                              0000000000000000000000000ISP0000000014464      
SPDMSNTE5AHORRO@OUTLOOK.COM                                                                             00000000000000000120600150405956822023082240044DISP0000000014464                                                                                                                                                                                                          
SPTB000000100000000001242089000000000000000000000000000000000000000000000000000000000000000000000000000000000000000000000000000000000000000000000000000000100000000001242089000000000000000000000000000000000000000000000000000000000000000000000000000                                                                                                                           
SPHB000000256021994360000024132000                                                                                                                                                                                                                                                                                                                                                
SPDP04000000000002186422023082203GARS860907EM7       GARS860907EM7GRANADOS RODRIGUEZ SERGIO ALBERTO       900000000002413200000000000001218001573848686000000                                        9 00000044012001PAGO FONDO DE AHORRO SNTE 5 2022-2023 SNTE SECC5                                                              0000000000000000000000000ISP0000000014466      
SPDMSNTE5AHORRO@OUTLOOK.COM                                                                             00000000000000000121800157384868602023082240044DISP0000000014466                                                                                                                                                                                                          
SPTB000000100000000000218642000000000000000000000000000000000000000000000000000000000000000000000000000000000000000000000000000000000000000000000000000000100000000000218642000000000000000000000000000000000000000000000000000000000000000000000000000                                                                                                                           
SPHB000000256021994360000001892000                                                                                                                                                                                                                                                                                                                                                
SPDP04000000000085764162023082203SOMY660907T24       SOMY660907T24SOTO MARTINEZ YOLANDA                   900000000000189200000000000007207800562036784500000                                        9 00000044072001PAGO FONDO DE AHORRO SNTE 5 2022-2023 SNTE SECC5                                                              0000000000000000000000000ISP0000000014467      
SPDMSNTE5AHORRO@OUTLOOK.COM                                                                             00000000000000000720780056203678452023082240044DISP0000000014467                                                                                                                                                                                                          
SPTB000000100000000008576416000000000000000000000000000000000000000000000000000000000000000000000000000000000000000000000000000000000000000000000000000000100000000008576416000000000000000000000000000000000000000000000000000000000000000000000000000                                                                                                                           
SPHB000000256021994360000022846000                                                                                                                                                                                                                                                                                                                                                
SPDP04000000000017309242023082203GOCJ9612247B9       GOCJ9612247B9GONZALEZ CASTILLO JULISSA               900000000002284600000000000001207801248124299000000                                        9 00000044012001PAGO FONDO DE AHORRO SNTE 5 2022-2023 SNTE SECC5                                                              0000000000000000000000000ISP0000000014468      
SPDMSNTE5AHORRO@OUTLOOK.COM                                                                             00000000000000000120780124812429902023082240044DISP0000000014468                                                                                                                                                                                                          
SPTB000000100000000001730924000000000000000000000000000000000000000000000000000000000000000000000000000000000000000000000000000000000000000000000000000000100000000001730924000000000000000000000000000000000000000000000000000000000000000000000000000                                                                                                                           
SPHB000000256021994360000023887000                                                                                                                                                                                                                                                                                                                                                
SPDP04000000000013445942023082203MEVR9408057S7       MEVR9408057S7MEMBRILLO VILLARREAL ROSA MARIA         900000000002388700000000000001207801542747025700000                                        9 00000044012001PAGO FONDO DE AHORRO SNTE 5 2022-2023 SNTE SECC5                                                              0000000000000000000000000ISP0000000014469      
SPDMSNTE5AHORRO@OUTLOOK.COM                                                                             00000000000000000120780154274702572023082240044DISP0000000014469                                                                                                                                                                                                          
SPTB000000100000000001344594000000000000000000000000000000000000000000000000000000000000000000000000000000000000000000000000000000000000000000000000000000100000000001344594000000000000000000000000000000000000000000000000000000000000000000000000000                                                                                                                           
SPHB000000256021994360000023211000                                                                                                                                                                                                                                                                                                                                                
SPDP04000000000018709792023082203GABC010617AV8       GABC010617AV8GALINDO BRIONES CLAUDIA ISABEL          900000000002321100000000000001218001566945302700000                                        9 00000044012001PAGO FONDO DE AHORRO SNTE 5 2022-2023 SNTE SECC5                                                              0000000000000000000000000ISP0000000014470      
SPDMSNTE5AHORRO@OUTLOOK.COM                                                                             00000000000000000121800156694530272023082240044DISP0000000014470                                                                                                                                                                                                          
SPTB000000100000000001870979000000000000000000000000000000000000000000000000000000000000000000000000000000000000000000000000000000000000000000000000000000100000000001870979000000000000000000000000000000000000000000000000000000000000000000000000000                                                                                                                           
SPHB000000256021994360000008423000                                                                                                                                                                                                                                                                                                                                                
SPDP04000000000004412082023082203GOPL950517MT6       GOPL950517MT6GONZALEZ PACHICANO LUZ ANAHI            900000000000842300000000000001207401599039239000000                                        9 00000044012001PAGO FONDO DE AHORRO SNTE 5 2022-2023 SNTE SECC5                                                              0000000000000000000000000ISP0000000014471      
SPDMSNTE5AHORRO@OUTLOOK.COM                                                                             00000000000000000120740159903923902023082240044DISP0000000014471                                                                                                                                                                                                          
SPTB000000100000000000441208000000000000000000000000000000000000000000000000000000000000000000000000000000000000000000000000000000000000000000000000000000100000000000441208000000000000000000000000000000000000000000000000000000000000000000000000000                                                                                                                           
SPTA000001300000000020450377000000000000000000000000000000000000000000000000000000000000000000000000000000000000000000000000000000000000000000000000000001300000000020450377000000000000000000000000000000000000000000000000000000000000000000000000000000                                                                                                                        
