SRHA0932601202308162023081620230816000                                                                                                                                                                                                                                                                                                                                            
SRHB000000256021994360000001284000                                                                                                                                                                                                                                                                                                                                                
SRDR04000000000007939822023081503CAZE611117NP4       CAZE611117NP4CASTRO ZAMORA ELSA                      900000000000128400000000000001407856548284302100000                                        9 00000044014001PAGO FONDO DE AHORRO SNTE 5 2022-2023 SNTE SECC5                                                              0620000000000000000000000ISP0000000011590      
SRDMSNTE5AHORRO@OUTLOOK.COM                                                                             0000000000000000014078565482843021                                                                                                                                                                                                                                        
SRTB000000100000000000793982000000000000000000000000000000000000000000000000000000000000000000000000000000000000000000000000000000000000000000000000000000000000000000000000000000000000000000000000000000100000000000793982000000000000000000000000000                                                                                                                           
SRHB000000256021994360000004501000                                                                                                                                                                                                                                                                                                                                                
SRDR04000000000046169382023081503EIRA630513RG9       EIRA630513RG9ENCINA RODRIGUEZ MARIA ANTONIETA        900000000000450100000000000001207802869534695100000                                        9 00000044012001PAGO FONDO DE AHORRO SNTE 5 2022-2023 SNTE SECC5                                                              0620000000000000000000000ISP0000000011738      
SRDMSNTE5AHORRO@OUTLOOK.COM                                                                             0000000000000000012078028695346951                                                                                                                                                                                                                                        
SRTB000000100000000004616938000000000000000000000000000000000000000000000000000000000000000000000000000000000000000000000000000000000000000000000000000000000000000000000000000000000000000000000000000000100000000004616938000000000000000000000000000                                                                                                                           
SRHB000000256021994360000004569000                                                                                                                                                                                                                                                                                                                                                
SRDR04000000000005849432023081503EOEC930523IP4       EOEC930523IP4ESCOBAR ESCARE#O CARLOS ALEJANDRO       900000000000456900000000000001407860558193732900000                                        9 00000044014001PAGO FONDO DE AHORRO SNTE 5 2022-2023 SNTE SECC5                                                              0620000000000000000000000ISP0000000011807      
SRDMSNTE5AHORRO@OUTLOOK.COM                                                                             0000000000000000014078605581937329                                                                                                                                                                                                                                        
SRTB000000100000000000584943000000000000000000000000000000000000000000000000000000000000000000000000000000000000000000000000000000000000000000000000000000000000000000000000000000000000000000000000000000100000000000584943000000000000000000000000000                                                                                                                           
SRHB000000256021994360000004149000                                                                                                                                                                                                                                                                                                                                                
SRDR04000000000003342202023081503AUTC740426MR5       AUTC740426MR5AGUILAR TREVI#O CLAUDIA MONSERRAT       900000000000414900000000000001407856515589340500000                                        9 00000044014001PAGO FONDO DE AHORRO SNTE 5 2022-2023 SNTE SECC5                                                              0620000000000000000000000ISP0000000012139      
SRDMSNTE5AHORRO@OUTLOOK.COM                                                                             0000000000000000014078565155893405                                                                                                                                                                                                                                        
SRTB000000100000000000334220000000000000000000000000000000000000000000000000000000000000000000000000000000000000000000000000000000000000000000000000000000000000000000000000000000000000000000000000000000100000000000334220000000000000000000000000000                                                                                                                           
SRHB000000256021994360000004164000                                                                                                                                                                                                                                                                                                                                                
SRDR04000000000006549302023081503AUVF980310KQ1       AUVF980310KQ1AGUILAR VIERA FRANCO ALEJANDRO          900000000000416400000000000002107306489744478200000                                        9 00000044021001PAGO FONDO DE AHORRO SNTE 5 2022-2023 SNTE SECC5                                                              0620000000000000000000000ISP0000000012153      
SRDMSNTE5AHORRO@OUTLOOK.COM                                                                             0000000000000000021073064897444782                                                                                                                                                                                                                                        
SRTB000000100000000000654930000000000000000000000000000000000000000000000000000000000000000000000000000000000000000000000000000000000000000000000000000000000000000000000000000000000000000000000000000000100000000000654930000000000000000000000000000                                                                                                                           
SRHB000000256021994360000006571000                                                                                                                                                                                                                                                                                                                                                
SRDR04000000000000160592023081503AAMJ610916MGA       AAMJ610916MGAALVAREZ MU#OZ JACINTO                   900000000000657100000000000007207800564878170400000                                        9 00000044072001PAGO FONDO DE AHORRO SNTE 5 2022-2023 SNTE SECC5                                                              0620000000000000000000000ISP0000000013379      
SRDMSNTE5AHORRO@OUTLOOK.COM                                                                             0000000000000000072078005648781704                                                                                                                                                                                                                                        
SRTB000000100000000000016059000000000000000000000000000000000000000000000000000000000000000000000000000000000000000000000000000000000000000000000000000000000000000000000000000000000000000000000000000000100000000000016059000000000000000000000000000                                                                                                                           
SRHB000000256021994360000022680000                                                                                                                                                                                                                                                                                                                                                
SRDR04000000000001260612023081503AASA950712RUA       AASA950712RUAAVALOS SOTO AMARANTA CITLALLI           900000000002268000000000000000248090475466534700000                                        9 00000044002001PAGO FONDO DE AHORRO SNTE 5 2022-2023 SNTE SECC5                                                              0620000000000000000000000ISP0000000015223      
SRDMSNTE5AHORRO@OUTLOOK.COM                                                                             0000000000000000002480904754665347                                                                                                                                                                                                                                        
SRTB000000100000000000126061000000000000000000000000000000000000000000000000000000000000000000000000000000000000000000000000000000000000000000000000000000000000000000000000000000000000000000000000000000100000000000126061000000000000000000000000000                                                                                                                           
SRHB000000256021994360000021035000                                                                                                                                                                                                                                                                                                                                                
SRDR04000000000000610522023081503AECP9210045I8       AECP9210045I8PATRICIA MAGDALENA ARELLANO DE LA CRUZ  900000000002103500000000000007206201124415631900000                                        9 00000044072001PAGO FONDO DE AHORRO SNTE 5 2022-2023 SNTE SECC5                                                              0620000000000000000000000ISP0000000015375      
SRDMSNTE5AHORRO@OUTLOOK.COM                                                                             0000000000000000072062011244156319                                                                                                                                                                                                                                        
SRTB000000100000000000061052000000000000000000000000000000000000000000000000000000000000000000000000000000000000000000000000000000000000000000000000000000000000000000000000000000000000000000000000000000100000000000061052000000000000000000000000000                                                                                                                           
SRHB000000256021994360000014500000                                                                                                                                                                                                                                                                                                                                                
SRDR04000000000002057632023081503COMJ860907IQ1       COMJ860907IQ1CORDOVA MARTINEZ JESUS ANTONIO          900000000001450000000000000001407956655749932400000                                        9 00000044014001PAGO FONDO DE AHORRO SNTE 5 2022-2023 SNTE SECC5                                                              0620000000000000000000000ISP0000000016114      
SRDMSNTE5AHORRO@OUTLOOK.COM                                                                             0000000000000000014079566557499324                                                                                                                                                                                                                                        
SRTB000000100000000000205763000000000000000000000000000000000000000000000000000000000000000000000000000000000000000000000000000000000000000000000000000000000000000000000000000000000000000000000000000000100000000000205763000000000000000000000000000                                                                                                                           
SRHB000000256021994360000006375000                                                                                                                                                                                                                                                                                                                                                
SRDR04000000000001340902023081503AACY9707151Q8       AACY9707151Q8ALVARADO DE LA CRUZ YESENIA             900000000000637500000000000001407220012348974600000                                        9 00000044014001PAGO FONDO DE AHORRO SNTE 5 2022-2023 SNTE SECC5                                                              0620000000000000000000000ISP0000000016965      
SRDMSNTE5AHORRO@OUTLOOK.COM                                                                             0000000000000000014072200123489746                                                                                                                                                                                                                                        
SRTB000000100000000000134090000000000000000000000000000000000000000000000000000000000000000000000000000000000000000000000000000000000000000000000000000000000000000000000000000000000000000000000000000000100000000000134090000000000000000000000000000                                                                                                                           
SRHB000000256021994360000005699000                                                                                                                                                                                                                                                                                                                                                
SRDR04000000000011807132023081503GUTL770712PJ9       GUTL770712PJ9GUTIERREZ TREVI O LIZA ANET             900000000000569900000000000001407856507928915300000                                        9 00000044014001PAGO FONDO DE AHORRO SNTE 5 2022-2023 SNTE SECC5                                                              0620000000000000000000000ISP0000000018005      
SRDMSNTE5AHORRO@OUTLOOK.COM                                                                             0000000000000000014078565079289153                                                                                                                                                                                                                                        
SRTB000000100000000001180713000000000000000000000000000000000000000000000000000000000000000000000000000000000000000000000000000000000000000000000000000000000000000000000000000000000000000000000000000000100000000001180713000000000000000000000000000                                                                                                                           
SRHB000000256021994360000002660000                                                                                                                                                                                                                                                                                                                                                
SRDR04000000000019803942023081503LOBL870303QL3       LOBL870303QL3LOPEZ BUSTOS LOURDES ALEJANDRA          900000000000266000000000000001218001581748855600000                                        9 00000044012001PAGO FONDO DE AHORRO SNTE 5 2022-2023 SNTE SECC5                                                              0620000000000000000000000ISP0000000018221      
SRDMSNTE5AHORRO@OUTLOOK.COM                                                                             0000000000000000012180015817488556                                                                                                                                                                                                                                        
SRTB000000100000000001980394000000000000000000000000000000000000000000000000000000000000000000000000000000000000000000000000000000000000000000000000000000000000000000000000000000000000000000000000000000100000000001980394000000000000000000000000000                                                                                                                           
SRHB000000256021994360000005804000                                                                                                                                                                                                                                                                                                                                                
SRDR04000000000029418852023081503HEAS760424L18       HEAS760424L18HERNANDEZ ALCALA SANJUANA ALEJANDRINA   900000000000580400000000000001407860578396727800000                                        9 00000044014001PAGO FONDO DE AHORRO SNTE 5 2022-2023 SNTE SECC5                                                              0620000000000000000000000ISP0000000018925      
SRDMSNTE5AHORRO@OUTLOOK.COM                                                                             0000000000000000014078605783967278                                                                                                                                                                                                                                        
SRTB000000100000000002941885000000000000000000000000000000000000000000000000000000000000000000000000000000000000000000000000000000000000000000000000000000000000000000000000000000000000000000000000000000100000000002941885000000000000000000000000000                                                                                                                           
SRHB000000256021994360000014224000                                                                                                                                                                                                                                                                                                                                                
SRDR04000000000002232062023081503IAAI7707229N6       IAAI7707229N6ICAZBALCETA ASCACIO ILEANA YADIRA       900000000001422400000000000001407556546687943800000                                        9 00000044014001PAGO FONDO DE AHORRO SNTE 5 2022-2023 SNTE SECC5                                                              0620000000000000000000000ISP0000000019392      
SRDMSNTE5AHORRO@OUTLOOK.COM                                                                             0000000000000000014075565466879438                                                                                                                                                                                                                                        
SRTB000000100000000000223206000000000000000000000000000000000000000000000000000000000000000000000000000000000000000000000000000000000000000000000000000000000000000000000000000000000000000000000000000000100000000000223206000000000000000000000000000                                                                                                                           
SRHB000000256021994360000021551000                                                                                                                                                                                                                                                                                                                                                
SRDR04000000000003386542023081503IAGJ890110TDA       IAGJ890110TDAIBARRA GALLEGOS JAVIER DOMINGO          900000000002155100000000000007258000497426893000000                                        9 00000044072001PAGO FONDO DE AHORRO SNTE 5 2022-2023 SNTE SECC5                                                              0620000000000000000000000ISP0000000019451      
SRDMSNTE5AHORRO@OUTLOOK.COM                                                                             0000000000000000072580004974268930                                                                                                                                                                                                                                        
SRTB000000100000000000338654000000000000000000000000000000000000000000000000000000000000000000000000000000000000000000000000000000000000000000000000000000000000000000000000000000000000000000000000000000100000000000338654000000000000000000000000000                                                                                                                           
SRHB000000256021994360000018298000                                                                                                                                                                                                                                                                                                                                                
SRDR04000000000019803942023081503GAEY890613420       GAEY890613420GARCIA ESTRADA YESICA YANETH            900000000001829800000000000001497113101407811900000                                        9 00000044014001PAGO FONDO DE AHORRO SNTE 5 2022-2023 SNTE SECC5                                                              0620000000000000000000000ISP0000000019560      
SRDMSNTE5AHORRO@OUTLOOK.COM                                                                             0000000000000000014971131014078119                                                                                                                                                                                                                                        
SRTB000000100000000001980394000000000000000000000000000000000000000000000000000000000000000000000000000000000000000000000000000000000000000000000000000000000000000000000000000000000000000000000000000000100000000001980394000000000000000000000000000                                                                                                                           
SRHB000000256021994360000008439000                                                                                                                                                                                                                                                                                                                                                
SRDR04000000000002169082023081503GORA690502KN2       GORA690502KN2GOMEZ REYES ADA KARINA                  900000000000843900000000000001206201241317318200000                                        9 00000044012001PAGO FONDO DE AHORRO SNTE 5 2022-2023 SNTE SECC5                                                              0620000000000000000000000ISP0000000020136      
SRDMSNTE5AHORRO@OUTLOOK.COM                                                                             0000000000000000012062012413173182                                                                                                                                                                                                                                        
SRTB000000100000000000216908000000000000000000000000000000000000000000000000000000000000000000000000000000000000000000000000000000000000000000000000000000000000000000000000000000000000000000000000000000100000000000216908000000000000000000000000000                                                                                                                           
SRHB000000256021994360000013075000                                                                                                                                                                                                                                                                                                                                                
SRDR04000000000046030852023081503FOAM701106DW4       FOAM701106DW4FLORES ALVAREZ MARIA MAGDALENA          900000000001307500000000000007207800801183195800000                                        9 00000044072001PAGO FONDO DE AHORRO SNTE 5 2022-2023 SNTE SECC5                                                              0620000000000000000000000ISP0000000020404      
SRDMSNTE5AHORRO@OUTLOOK.COM                                                                             0000000000000000072078008011831958                                                                                                                                                                                                                                        
SRTB000000100000000004603085000000000000000000000000000000000000000000000000000000000000000000000000000000000000000000000000000000000000000000000000000000000000000000000000000000000000000000000000000000100000000004603085000000000000000000000000000                                                                                                                           
SRHB000000256021994360000013087000                                                                                                                                                                                                                                                                                                                                                
SRDR04000000000027763102023081503FOBJ7312178H9       FOBJ7312178H9FLORES BALDERAS JUAN ROGELIO            900000000001308700000000000001207800462094347900000                                        9 00000044012001PAGO FONDO DE AHORRO SNTE 5 2022-2023 SNTE SECC5                                                              0620000000000000000000000ISP0000000020416      
SRDMSNTE5AHORRO@OUTLOOK.COM                                                                             0000000000000000012078004620943479                                                                                                                                                                                                                                        
SRTB000000100000000002776310000000000000000000000000000000000000000000000000000000000000000000000000000000000000000000000000000000000000000000000000000000000000000000000000000000000000000000000000000000100000000002776310000000000000000000000000000                                                                                                                           
SRHB000000256021994360000022231000                                                                                                                                                                                                                                                                                                                                                
SRDR04000000000003370242023081503FOSG980918272       FOSG980918272FLORES SANCHEZ GALA ZULEM               900000000002223100000000000001406860617821990600000                                        9 00000044014001PAGO FONDO DE AHORRO SNTE 5 2022-2023 SNTE SECC5                                                              0620000000000000000000000ISP0000000021327      
SRDMSNTE5AHORRO@OUTLOOK.COM                                                                             0000000000000000014068606178219906                                                                                                                                                                                                                                        
SRTB000000100000000000337024000000000000000000000000000000000000000000000000000000000000000000000000000000000000000000000000000000000000000000000000000000000000000000000000000000000000000000000000000000100000000000337024000000000000000000000000000                                                                                                                           
SRHB000000256021994360000000834000                                                                                                                                                                                                                                                                                                                                                
SRDR04000000000001682952023081503GOHJ770908379       GOHJ770908379GONZALEZ HERNANDEZ JORGE ALBERTO        900000000000083400000000000001407656591060687100000                                        9 00000044014001PAGO FONDO DE AHORRO SNTE 5 2022-2023 SNTE SECC5                                                              0620000000000000000000000ISP0000000021623      
SRDMSNTE5AHORRO@OUTLOOK.COM                                                                             0000000000000000014076565910606871                                                                                                                                                                                                                                        
SRTB000000100000000000168295000000000000000000000000000000000000000000000000000000000000000000000000000000000000000000000000000000000000000000000000000000000000000000000000000000000000000000000000000000100000000000168295000000000000000000000000000                                                                                                                           
SRHB000000256021994360000016142000                                                                                                                                                                                                                                                                                                                                                
SRDR04000000000036931122023081503MEHR700918BS0       MEHR700918BS0MEDINA HERRERA ROSA ISELA               900000000001614200000000000001218001563890996800000                                        9 00000044012001PAGO FONDO DE AHORRO SNTE 5 2022-2023 SNTE SECC5                                                              0620000000000000000000000ISP0000000022877      
SRDMSNTE5AHORRO@OUTLOOK.COM                                                                             0000000000000000012180015638909968                                                                                                                                                                                                                                        
SRTB000000100000000003693112000000000000000000000000000000000000000000000000000000000000000000000000000000000000000000000000000000000000000000000000000000000000000000000000000000000000000000000000000000100000000003693112000000000000000000000000000                                                                                                                           
SRHB000000256021994360000003337000                                                                                                                                                                                                                                                                                                                                                
SRDR04000000000052519072023081503OICC740928HK3       OICC740928HK3ORTIZ CRUZ CLAUDIA ELIZABETH            900000000000333700000000000001207801465018773200000                                        9 00000044012001PAGO FONDO DE AHORRO SNTE 5 2022-2023 SNTE SECC5                                                              0620000000000000000000000ISP0000000022957      
SRDMSNTE5AHORRO@OUTLOOK.COM                                                                             0000000000000000012078014650187732                                                                                                                                                                                                                                        
SRTB000000100000000005251907000000000000000000000000000000000000000000000000000000000000000000000000000000000000000000000000000000000000000000000000000000000000000000000000000000000000000000000000000000100000000005251907000000000000000000000000000                                                                                                                           
SRHB000000256021994360000008800000                                                                                                                                                                                                                                                                                                                                                
SRDR04000000000019803942023081503MAMX900527CW4       MAMX900527CW4MARTINEZ MALO EMARIA                    900000000000880000000000000007207800267180530400000                                        9 00000044072001PAGO FONDO DE AHORRO SNTE 5 2022-2023 SNTE SECC5                                                              0620000000000000000000000ISP0000000023631      
SRDMSNTE5AHORRO@OUTLOOK.COM                                                                             0000000000000000072078002671805304                                                                                                                                                                                                                                        
SRTB000000100000000001980394000000000000000000000000000000000000000000000000000000000000000000000000000000000000000000000000000000000000000000000000000000000000000000000000000000000000000000000000000000100000000001980394000000000000000000000000000                                                                                                                           
SRHB000000256021994360000021855000                                                                                                                                                                                                                                                                                                                                                
SRDR04000000000002589702023081503MOMI9702024HA       MOMI9702024HAMORENO MARQUEZ ITZAMAR ALEJANDRIA       900000000002185500000000000001270901518476783100000                                        9 00000044012001PAGO FONDO DE AHORRO SNTE 5 2022-2023 SNTE SECC5                                                              0620000000000000000000000ISP0000000024029      
SRDMSNTE5AHORRO@OUTLOOK.COM                                                                             0000000000000000012709015184767831                                                                                                                                                                                                                                        
SRTB000000100000000000258970000000000000000000000000000000000000000000000000000000000000000000000000000000000000000000000000000000000000000000000000000000000000000000000000000000000000000000000000000000100000000000258970000000000000000000000000000                                                                                                                           
SRHB000000256021994360000004781000                                                                                                                                                                                                                                                                                                                                                
SRDR04000000000025521982023081503OEMK760419SB1       OEMK760419SB1ORTEGON MENCHACA KARLA ALEJANDRINA      900000000000478100000000000007206201136573824700000                                        9 00000044072001PAGO FONDO DE AHORRO SNTE 5 2022-2023 SNTE SECC5                                                              0620000000000000000000000ISP0000000024519      
SRDMSNTE5AHORRO@OUTLOOK.COM                                                                             0000000000000000072062011365738247                                                                                                                                                                                                                                        
SRTB000000100000000002552198000000000000000000000000000000000000000000000000000000000000000000000000000000000000000000000000000000000000000000000000000000000000000000000000000000000000000000000000000000100000000002552198000000000000000000000000000                                                                                                                           
SRHB000000256021994360000010183000                                                                                                                                                                                                                                                                                                                                                
SRDR04000000000028320072023081503PACF8912047N4       PACF8912047N4PALACIO CHAIREZ FRANCISCO ISMAEL        900000000001018300000000000007207801211048827200000                                        9 00000044072001PAGO FONDO DE AHORRO SNTE 5 2022-2023 SNTE SECC5                                                              0620000000000000000000000ISP0000000024838      
SRDMSNTE5AHORRO@OUTLOOK.COM                                                                             0000000000000000072078012110488272                                                                                                                                                                                                                                        
SRTB000000100000000002832007000000000000000000000000000000000000000000000000000000000000000000000000000000000000000000000000000000000000000000000000000000000000000000000000000000000000000000000000000000100000000002832007000000000000000000000000000                                                                                                                           
SRHB000000256021994360000021000000                                                                                                                                                                                                                                                                                                                                                
SRDR04000000000001423972023081503RAAU950830KA9       RAAU950830KA9ULISES DANIEL RAMIREZ AVALOS            900000000002100000000000000007206001075584152700000                                        9 00000044072001PAGO FONDO DE AHORRO SNTE 5 2022-2023 SNTE SECC5                                                              0620000000000000000000000ISP0000000025368      
SRDMSNTE5AHORRO@OUTLOOK.COM                                                                             0000000000000000072060010755841527                                                                                                                                                                                                                                        
SRTB000000100000000000142397000000000000000000000000000000000000000000000000000000000000000000000000000000000000000000000000000000000000000000000000000000000000000000000000000000000000000000000000000000100000000000142397000000000000000000000000000                                                                                                                           
SRHB000000256021994360000017380000                                                                                                                                                                                                                                                                                                                                                
SRDR04000000000000187342023081503RABW6003282I9       RABW6003282I9RANGEL BARRIENTOS WILFRIDO              900000000001738000000000000000208090296759324200000                                        9 00000044002001PAGO FONDO DE AHORRO SNTE 5 2022-2023 SNTE SECC5                                                              0620000000000000000000000ISP0000000025391      
SRDMSNTE5AHORRO@OUTLOOK.COM                                                                             0000000000000000002080902967593242                                                                                                                                                                                                                                        
SRTB000000100000000000018734000000000000000000000000000000000000000000000000000000000000000000000000000000000000000000000000000000000000000000000000000000000000000000000000000000000000000000000000000000100000000000018734000000000000000000000000000                                                                                                                           
SRHB000000256021994360000022936000                                                                                                                                                                                                                                                                                                                                                
SRDR04000000000019877612023081503RACS840902NJ9       RACS840902NJ9RAMOS CRUZ SAIRA LUCIA                  900000000002293600000000000002107806513876545400000                                        9 00000044021001PAGO FONDO DE AHORRO SNTE 5 2022-2023 SNTE SECC5                                                              0620000000000000000000000ISP0000000025445      
SRDMSNTE5AHORRO@OUTLOOK.COM                                                                             0000000000000000021078065138765454                                                                                                                                                                                                                                        
SRTB000000100000000001987761000000000000000000000000000000000000000000000000000000000000000000000000000000000000000000000000000000000000000000000000000000000000000000000000000000000000000000000000000000100000000001987761000000000000000000000000000                                                                                                                           
SRHB000000256021994360000007621000                                                                                                                                                                                                                                                                                                                                                
SRDR04000000000028839072023081503MAGC680128KY3       MAGC680128KY3MARTINEZ GARZA CLAUDIA MARGARITA        900000000000762100000000000002158006463215271900000                                        9 00000044021001PAGO FONDO DE AHORRO SNTE 5 2022-2023 SNTE SECC5                                                              0620000000000000000000000ISP0000000026742      
SRDMSNTE5AHORRO@OUTLOOK.COM                                                                             0000000000000000021580064632152719                                                                                                                                                                                                                                        
SRTB000000100000000002883907000000000000000000000000000000000000000000000000000000000000000000000000000000000000000000000000000000000000000000000000000000000000000000000000000000000000000000000000000000100000000002883907000000000000000000000000000                                                                                                                           
SRHB000000256021994360000015666000                                                                                                                                                                                                                                                                                                                                                
SRDR04000000000000174722023081503QUHN9411143V4       QUHN9411143V4QUINTANILLA HERNANDEZ NATALIE LEBIRAM   900000000001566600000000000001206801535144779300000                                        9 00000044012001PAGO FONDO DE AHORRO SNTE 5 2022-2023 SNTE SECC5                                                              0620000000000000000000000ISP0000000027077      
SRDMSNTE5AHORRO@OUTLOOK.COM                                                                             0000000000000000012068015351447793                                                                                                                                                                                                                                        
SRTB000000100000000000017472000000000000000000000000000000000000000000000000000000000000000000000000000000000000000000000000000000000000000000000000000000000000000000000000000000000000000000000000000000100000000000017472000000000000000000000000000                                                                                                                           
SRHB000000256021994360000006815000                                                                                                                                                                                                                                                                                                                                                
SRDR04000000000010085972023081503MESM640524B84       MESM640524B84MENDOZA SANCHEZ MARTHA ELENA            900000000000681500000000000001407860574306087200000                                        9 00000044014001PAGO FONDO DE AHORRO SNTE 5 2022-2023 SNTE SECC5                                                              0620000000000000000000000ISP0000000027651      
SRDMSNTE5AHORRO@OUTLOOK.COM                                                                             0000000000000000014078605743060872                                                                                                                                                                                                                                        
SRTB000000100000000001008597000000000000000000000000000000000000000000000000000000000000000000000000000000000000000000000000000000000000000000000000000000000000000000000000000000000000000000000000000000100000000001008597000000000000000000000000000                                                                                                                           
SRHB000000256021994360000010174000                                                                                                                                                                                                                                                                                                                                                
SRDR04000000000019963232023081503PACA790528TS0       PACA790528TS0PRADO CASTRO ADOLFO                     900000000001017400000000000000207356015527089400000                                        9 00000044002001PAGO FONDO DE AHORRO SNTE 5 2022-2023 SNTE SECC5                                                              0620000000000000000000000ISP0000000027864      
SRDMSNTE5AHORRO@OUTLOOK.COM                                                                             0000000000000000002073560155270894                                                                                                                                                                                                                                        
SRTB000000100000000001996323000000000000000000000000000000000000000000000000000000000000000000000000000000000000000000000000000000000000000000000000000000000000000000000000000000000000000000000000000000100000000001996323000000000000000000000000000                                                                                                                           
SRHB000000256021994360000020875000                                                                                                                                                                                                                                                                                                                                                
SRDR04000000000000133832023081503SAGE990224DF5       SAGE990224DF5EMIGDIA LIZBETH SAUCEDO GARCIA          900000000002087500000000000001206800475487900500000                                        9 00000044012001PAGO FONDO DE AHORRO SNTE 5 2022-2023 SNTE SECC5                                                              0620000000000000000000000ISP0000000028160      
SRDMSNTE5AHORRO@OUTLOOK.COM                                                                             0000000000000000012068004754879005                                                                                                                                                                                                                                        
SRTB000000100000000000013383000000000000000000000000000000000000000000000000000000000000000000000000000000000000000000000000000000000000000000000000000000000000000000000000000000000000000000000000000000100000000000013383000000000000000000000000000                                                                                                                           
SRHB000000256021994360000001656000                                                                                                                                                                                                                                                                                                                                                
SRDR04000000000132509342023081503RAML610901FBA       RAML610901FBARAMIREZ MORALES JOSE LUIS               900000000000165600000000000002107806417902008100000                                        9 00000044021001PAGO FONDO DE AHORRO SNTE 5 2022-2023 SNTE SECC5                                                              0620000000000000000000000ISP0000000029162      
SRDMSNTE5AHORRO@OUTLOOK.COM                                                                             0000000000000000021078064179020081                                                                                                                                                                                                                                        
SRTB000000100000000013250934000000000000000000000000000000000000000000000000000000000000000000000000000000000000000000000000000000000000000000000000000000000000000000000000000000000000000000000000000000100000000013250934000000000000000000000000000                                                                                                                           
SRHB000000256021994360000004848000                                                                                                                                                                                                                                                                                                                                                
SRDR04000000000019321402023081503RONJ660410V75       RONJ660410V75RODRIGUEZ NU#EZ JUAN MANUEL             900000000000484800000000000001407860559153951300000                                        9 00000044014001PAGO FONDO DE AHORRO SNTE 5 2022-2023 SNTE SECC5                                                              0620000000000000000000000ISP0000000029299      
SRDMSNTE5AHORRO@OUTLOOK.COM                                                                             0000000000000000014078605591539513                                                                                                                                                                                                                                        
SRTB000000100000000001932140000000000000000000000000000000000000000000000000000000000000000000000000000000000000000000000000000000000000000000000000000000000000000000000000000000000000000000000000000000100000000001932140000000000000000000000000000                                                                                                                           
SRHB000000256021994360000008913000                                                                                                                                                                                                                                                                                                                                                
SRDR04000000000013266552023081503VAHJ761223LZA       VAHJ761223LZAVALDES HIDALGO JORGE LUIS               900000000000891300000000000007206800814160486100000                                        9 00000044072001PAGO FONDO DE AHORRO SNTE 5 2022-2023 SNTE SECC5                                                              0620000000000000000000000ISP0000000029445      
SRDMSNTE5AHORRO@OUTLOOK.COM                                                                             0000000000000000072068008141604861                                                                                                                                                                                                                                        
SRTB000000100000000001326655000000000000000000000000000000000000000000000000000000000000000000000000000000000000000000000000000000000000000000000000000000000000000000000000000000000000000000000000000000100000000001326655000000000000000000000000000                                                                                                                           
SRHB000000256021994360000012460000                                                                                                                                                                                                                                                                                                                                                
SRDR04000000000024930702023081503ROVM720504FM2       ROVM720504FM2RODRIGUEZ VAZQUEZ MARTHA ERNESTINA      900000000001246000000000000002107806431654502800000                                        9 00000044021001PAGO FONDO DE AHORRO SNTE 5 2022-2023 SNTE SECC5                                                              0620000000000000000000000ISP0000000029569      
SRDMSNTE5AHORRO@OUTLOOK.COM                                                                             0000000000000000021078064316545028                                                                                                                                                                                                                                        
SRTB000000100000000002493070000000000000000000000000000000000000000000000000000000000000000000000000000000000000000000000000000000000000000000000000000000000000000000000000000000000000000000000000000000100000000002493070000000000000000000000000000                                                                                                                           
SRHB000000256021994360000009202000                                                                                                                                                                                                                                                                                                                                                
SRDR04000000000006195852023081503VATL960805HQ8       VATL960805HQ8VAZQUEZ TOVAR LORENA BERENICE           900000000000920200000000000001207801255148219800000                                        9 00000044012001PAGO FONDO DE AHORRO SNTE 5 2022-2023 SNTE SECC5                                                              0620000000000000000000000ISP0000000029979      
SRDMSNTE5AHORRO@OUTLOOK.COM                                                                             0000000000000000012078012551482198                                                                                                                                                                                                                                        
SRTB000000100000000000619585000000000000000000000000000000000000000000000000000000000000000000000000000000000000000000000000000000000000000000000000000000000000000000000000000000000000000000000000000000100000000000619585000000000000000000000000000                                                                                                                           
SRHB000000256021994360000010446000                                                                                                                                                                                                                                                                                                                                                
SRDR04000000000000053522023081503RAVA760116PF9       RAVA760116PF9RAMON VALDEZ ANA LILIA                  900000000001044600000000000001407856659824673100000                                        9 00000044014001PAGO FONDO DE AHORRO SNTE 5 2022-2023 SNTE SECC5                                                              0620000000000000000000000ISP0000000030285      
SRDMSNTE5AHORRO@OUTLOOK.COM                                                                             0000000000000000014078566598246731                                                                                                                                                                                                                                        
SRTB000000100000000000005352000000000000000000000000000000000000000000000000000000000000000000000000000000000000000000000000000000000000000000000000000000000000000000000000000000000000000000000000000000100000000000005352000000000000000000000000000                                                                                                                           
SRHB000000256021994360000009545000                                                                                                                                                                                                                                                                                                                                                
SRDR04000000000000174762023081503VERL840929IE9       VERL840929IE9VENEGAS ROJAS MARIA LUISA               900000000000954500000000000001206801400688924100000                                        9 00000044012001PAGO FONDO DE AHORRO SNTE 5 2022-2023 SNTE SECC5                                                              0620000000000000000000000ISP0000000030815      
SRDMSNTE5AHORRO@OUTLOOK.COM                                                                             0000000000000000012068014006889241                                                                                                                                                                                                                                        
SRTB000000100000000000017476000000000000000000000000000000000000000000000000000000000000000000000000000000000000000000000000000000000000000000000000000000000000000000000000000000000000000000000000000000100000000000017476000000000000000000000000000                                                                                                                           
SRHB000000256021994360000003134000                                                                                                                                                                                                                                                                                                                                                
SRDR04000000000017600672023081503ROHJ711027NR5       ROHJ711027NR5DE LA ROSA HERRERA JUAN ANTONIO         900000000000313400000000000001218001539755826500000                                        9 00000044012001PAGO FONDO DE AHORRO SNTE 5 2022-2023 SNTE SECC5                                                              0620000000000000000000000ISP0000000031039      
SRDMSNTE5AHORRO@OUTLOOK.COM                                                                             0000000000000000012180015397558265                                                                                                                                                                                                                                        
SRTB000000100000000001760067000000000000000000000000000000000000000000000000000000000000000000000000000000000000000000000000000000000000000000000000000000000000000000000000000000000000000000000000000000100000000001760067000000000000000000000000000                                                                                                                           
SRHB000000256021994360000016542000                                                                                                                                                                                                                                                                                                                                                
SRDR04000000000003927102023081503SAZR7401133H8       SAZR7401133H8SANCHEZ ZU#IGA RAMIRO                   900000000001654200000000000007207801087293402400000                                        9 00000044072001PAGO FONDO DE AHORRO SNTE 5 2022-2023 SNTE SECC5                                                              0620000000000000000000000ISP0000000031265      
SRDMSNTE5AHORRO@OUTLOOK.COM                                                                             0000000000000000072078010872934024                                                                                                                                                                                                                                        
SRTB000000100000000000392710000000000000000000000000000000000000000000000000000000000000000000000000000000000000000000000000000000000000000000000000000000000000000000000000000000000000000000000000000000100000000000392710000000000000000000000000000                                                                                                                           
SRHB000000256021994360000001892000                                                                                                                                                                                                                                                                                                                                                
SRDR04000000000085764162023081503SOMY660907T24       SOMY660907T24SOTO MARTINEZ YOLANDA                   900000000000189200000000000007207801097177695000000                                        9 00000044072001PAGO FONDO DE AHORRO SNTE 5 2022-2023 SNTE SECC5                                                              0620000000000000000000000ISP0000000031578      
SRDMSNTE5AHORRO@OUTLOOK.COM                                                                             0000000000000000072078010971776950                                                                                                                                                                                                                                        
SRTB000000100000000008576416000000000000000000000000000000000000000000000000000000000000000000000000000000000000000000000000000000000000000000000000000000000000000000000000000000000000000000000000000000100000000008576416000000000000000000000000000                                                                                                                           
SRHB000000256021994360000001927000                                                                                                                                                                                                                                                                                                                                                
SRDR04000000000036897722023081503SORL681004LN7       SORL681004LN7SOLIS RODRIGUEZ LAURA PATRICIA          900000000000192700000000000001407860535492387400000                                        9 00000044014001PAGO FONDO DE AHORRO SNTE 5 2022-2023 SNTE SECC5                                                              0620000000000000000000000ISP0000000031614      
SRDMSNTE5AHORRO@OUTLOOK.COM                                                                             0000000000000000014078605354923874                                                                                                                                                                                                                                        
SRTB000000100000000003689772000000000000000000000000000000000000000000000000000000000000000000000000000000000000000000000000000000000000000000000000000000000000000000000000000000000000000000000000000000100000000003689772000000000000000000000000000                                                                                                                           
SRHB000000256021994360000021181000                                                                                                                                                                                                                                                                                                                                                
SRDR04000000000000863622023081503SOTK970207AL7       SOTK970207AL7KARINA SOTO TORRES                      900000000002118100000000000001242001510943728900000                                        9 00000044012001PAGO FONDO DE AHORRO SNTE 5 2022-2023 SNTE SECC5                                                              0620000000000000000000000ISP0000000031634      
SRDMSNTE5AHORRO@OUTLOOK.COM                                                                             0000000000000000012420015109437289                                                                                                                                                                                                                                        
SRTB000000100000000000086362000000000000000000000000000000000000000000000000000000000000000000000000000000000000000000000000000000000000000000000000000000000000000000000000000000000000000000000000000000100000000000086362000000000000000000000000000                                                                                                                           
SRHB000000256021994360000010711000                                                                                                                                                                                                                                                                                                                                                
SRDR04000000000018632022023081503REMY801109R53       REMY801109R53REYES MORENO YAJAIRA TERESA             900000000001071100000000000001207201556224833700000                                        9 00000044012001PAGO FONDO DE AHORRO SNTE 5 2022-2023 SNTE SECC5                                                              0620000000000000000000000ISP0000000031756      
SRDMSNTE5AHORRO@OUTLOOK.COM                                                                             0000000000000000012072015562248337                                                                                                                                                                                                                                        
SRTB000000100000000001863202000000000000000000000000000000000000000000000000000000000000000000000000000000000000000000000000000000000000000000000000000000000000000000000000000000000000000000000000000000100000000001863202000000000000000000000000000                                                                                                                           
SRHB000000256021994360000012821000                                                                                                                                                                                                                                                                                                                                                
SRDR04000000000018402752023081503ZAQM7402288P1       ZAQM7402288P1ZAMORA QUIROGA MARIELA                  900000000001282100000000000001207801564602331700000                                        9 00000044012001PAGO FONDO DE AHORRO SNTE 5 2022-2023 SNTE SECC5                                                              0620000000000000000000000ISP0000000034942      
SRDMSNTE5AHORRO@OUTLOOK.COM                                                                             0000000000000000012078015646023317                                                                                                                                                                                                                                        
SRTB000000100000000001840275000000000000000000000000000000000000000000000000000000000000000000000000000000000000000000000000000000000000000000000000000000000000000000000000000000000000000000000000000000100000000001840275000000000000000000000000000                                                                                                                           
SRHB000000256021994368888883337000                                                                                                                                                                                                                                                                                                                                                
SRDR04000000000009939002023081503OICC740928HK3       OICC740928HK3ORTIZ CRUZ CLAUDIA ELIZABETH            988888888888333700000000000001207801465018773200000                                        9 00000044012001PAGO FONDO DE AHORRO SNTE 5 2022-2023 SNTE SECC5                                                              0620000000000000000000000ISP0000000060912      
SRDMSNTE5AHORRO@OUTLOOK.COM                                                                             0000000000000000012078014650187732                                                                                                                                                                                                                                        
SRTB000000100000000000993900000000000000000000000000000000000000000000000000000000000000000000000000000000000000000000000000000000000000000000000000000000000000000000000000000000000000000000000000000000100000000000993900000000000000000000000000000                                                                                                                           
SRTA000005000000000087759984000000000000000000000000000000000000000000000000000000000000000000000000000000000000000000000000000000000000000000000000000000000000000000000000000000000000000000000000000005000000000087759984000000000000000000000000000000                                                                                                                        
