SPHA0932601202308172023081720230817000                                                                                                                                                                                                                                                                                                                                            
SPHB000000256021994360000023183000                                                                                                                                                                                                                                                                                                                                                
SPDP04000000000018709792023081603CUCE9906301T0       CUCE9906301T0CUELLAR CORONA ELENA ALEJANDRA          900000000002318300000000000001206801567185522700000                                        9 00000044012001PAGO FONDO DE AHORRO SNTE 5 2022-2023 SNTE SECC5                                                              0000000000000000000000000ISP0000000016750      
SPDMSNTE5AHORRO@OUTLOOK.COM                                                                             00000000000000000120680156718552272023081640044DISP0000000016750                                                                                                                                                                                                          
SPTB000000100000000001870979000000000000000000000000000000000000000000000000000000000000000000000000000000000000000000000000000000000000000000000000000000100000000001870979000000000000000000000000000000000000000000000000000000000000000000000000000                                                                                                                           
SPHB000000256021994360000023184000                                                                                                                                                                                                                                                                                                                                                
SPDP04000000000024166232023081603CUGE960603JF3       CUGE960603JF3CUELLAR GARCIA EMAOLIVIA                900000000002318400000000000001206801530033044000000                                        9 00000044012001PAGO FONDO DE AHORRO SNTE 5 2022-2023 SNTE SECC5                                                              0000000000000000000000000ISP0000000016788      
SPDMSNTE5AHORRO@OUTLOOK.COM                                                                             00000000000000000120680153003304402023081640044DISP0000000016788                                                                                                                                                                                                          
SPTB000000100000000002416623000000000000000000000000000000000000000000000000000000000000000000000000000000000000000000000000000000000000000000000000000000100000000002416623000000000000000000000000000000000000000000000000000000000000000000000000000                                                                                                                           
SPHB000000256021994360000018052000                                                                                                                                                                                                                                                                                                                                                
SPDP04000000000034846292023081603FUGE700705B98       FUGE700705B98DE LA FUENTE GLORIA ELISA MARIA         900000000001805200000000000001407856554010103200000                                        9 00000044014001PAGO FONDO DE AHORRO SNTE 5 2022-2023 SNTE SECC5                                                              0000000000000000000000000ISP0000000016797      
SPDMSNTE5AHORRO@OUTLOOK.COM                                                                             00000000000000000140785655401010322023081640044DISP0000000016797                                                                                                                                                                                                          
SPTB000000100000000003484629000000000000000000000000000000000000000000000000000000000000000000000000000000000000000000000000000000000000000000000000000000100000000003484629000000000000000000000000000000000000000000000000000000000000000000000000000                                                                                                                           
SPHB000000256021994360000023972000                                                                                                                                                                                                                                                                                                                                                
SPDP04000000000007017072023081603HEZA6409038Q7       HEZA6409038Q7HERVERT ZEQUERA ARTURO                  900000000002397200000000000004407818702260646100000                                        9 00187044044001PAGO FONDO DE AHORRO SNTE 5 2022-2023 SNTE SECC5                                                              00000000000000000000000001505000000016804      
SPDMSNTE5AHORRO@OUTLOOK.COM                                                                             0000000000000000044078187022606461000020230816151505000000016804                                                                                                                                                                                                          
SPTB000000100000000000701707000000000000000000000000000000000000000000000000000000000000000000000000000000000000000000000000000000000000000000000000000000100000000000701707000000000000000000000000000000000000000000000000000000000000000000000000000                                                                                                                           
SPHB000000256021994360000024067000                                                                                                                                                                                                                                                                                                                                                
SPDP04000000000004646112023081603HEZA640903CY1       HEZA640903CY1HERVERT ZEQUERA ARTURO                  900000000002406700000000000004407818702260646100000                                        9 00187044044001PAGO FONDO DE AHORRO SNTE 5 2022-2023 SNTE SECC5                                                              00000000000000000000000001505000000016813      
SPDMSNTE5AHORRO@OUTLOOK.COM                                                                             0000000000000000044078187022606461000020230816151505000000016813                                                                                                                                                                                                          
SPTB000000100000000000464611000000000000000000000000000000000000000000000000000000000000000000000000000000000000000000000000000000000000000000000000000000100000000000464611000000000000000000000000000000000000000000000000000000000000000000000000000                                                                                                                           
SPHB000000256021994360000023264000                                                                                                                                                                                                                                                                                                                                                
SPDP04000000000018713272023081603HOAG000113FK3       HOAG000113FK3HORTA ALMAGUER GUADALUPE LIZBETH        900000000002326400000000000001207801531283019300000                                        9 00000044012001PAGO FONDO DE AHORRO SNTE 5 2022-2023 SNTE SECC5                                                              0000000000000000000000000ISP0000000016817      
SPDMSNTE5AHORRO@OUTLOOK.COM                                                                             00000000000000000120780153128301932023081640044DISP0000000016817                                                                                                                                                                                                          
SPTB000000100000000001871327000000000000000000000000000000000000000000000000000000000000000000000000000000000000000000000000000000000000000000000000000000100000000001871327000000000000000000000000000000000000000000000000000000000000000000000000000                                                                                                                           
SPHB000000256021994360000014210000                                                                                                                                                                                                                                                                                                                                                
SPDP04000000000020222342023081603HUSJ740527N40       HUSJ740527N40HURTADO SALAS JUAN GERARDO              900000000001421000000000000002107806417923996600000                                        9 00000044021001PAGO FONDO DE AHORRO SNTE 5 2022-2023 SNTE SECC5                                                              0000000000000000000000000ISP0000000016820      
SPDMSNTE5AHORRO@OUTLOOK.COM                                                                             00000000000000000210780641792399662023081640044DISP0000000016820                                                                                                                                                                                                          
SPTB000000100000000002022234000000000000000000000000000000000000000000000000000000000000000000000000000000000000000000000000000000000000000000000000000000100000000002022234000000000000000000000000000000000000000000000000000000000000000000000000000                                                                                                                           
SPHB000000256021994360000007412000                                                                                                                                                                                                                                                                                                                                                
SPDP04000000000020222342023081603MABT840107J36       MABT840107J36MACIAS BANDA TOULOUSE                   900000000000741200000000000001407856613214331300000                                        9 00000044014001PAGO FONDO DE AHORRO SNTE 5 2022-2023 SNTE SECC5                                                              0000000000000000000000000ISP0000000016830      
SPDMSNTE5AHORRO@OUTLOOK.COM                                                                             00000000000000000140785661321433132023081640044DISP0000000016830                                                                                                                                                                                                          
SPTB000000100000000002022234000000000000000000000000000000000000000000000000000000000000000000000000000000000000000000000000000000000000000000000000000000100000000002022234000000000000000000000000000000000000000000000000000000000000000000000000000                                                                                                                           
SPHB000000256021994360000007459000                                                                                                                                                                                                                                                                                                                                                
SPDP04000000000014476382023081603MACJ690501LD2       MACJ690501LD2MARTINEZ CHAVEZ JUAN EDUARDO            900000000000745900000000000001407856648148570600000                                        9 00000044014001PAGO FONDO DE AHORRO SNTE 5 2022-2023 SNTE SECC5                                                              0000000000000000000000000ISP0000000016836      
SPDMSNTE5AHORRO@OUTLOOK.COM                                                                             00000000000000000140785664814857062023081640044DISP0000000016836                                                                                                                                                                                                          
SPTB000000100000000001447638000000000000000000000000000000000000000000000000000000000000000000000000000000000000000000000000000000000000000000000000000000100000000001447638000000000000000000000000000000000000000000000000000000000000000000000000000                                                                                                                           
SPHB000000256021994360000003962000                                                                                                                                                                                                                                                                                                                                                
SPDP04000000000037924512023081603PEAR741213E33       PEAR741213E33PEREZ ARAUZA RAMIRO ALONZO              900000000000396200000000000001206201586798586800000                                        9 00000044012001PAGO FONDO DE AHORRO SNTE 5 2022-2023 SNTE SECC5                                                              0000000000000000000000000ISP0000000016843      
SPDMSNTE5AHORRO@OUTLOOK.COM                                                                             00000000000000000120620158679858682023081640044DISP0000000016843                                                                                                                                                                                                          
SPTB000000100000000003792451000000000000000000000000000000000000000000000000000000000000000000000000000000000000000000000000000000000000000000000000000000100000000003792451000000000000000000000000000000000000000000000000000000000000000000000000000                                                                                                                           
SPHB000000256021994360000023353000                                                                                                                                                                                                                                                                                                                                                
SPDP04000000000025288042023081603PECO980912HD0       PECO980912HD0PEREZ CASTILLO ORPA PILAR               900000000002335300000000000001207801572231215900000                                        9 00000044012001PAGO FONDO DE AHORRO SNTE 5 2022-2023 SNTE SECC5                                                              0000000000000000000000000ISP0000000016851      
SPDMSNTE5AHORRO@OUTLOOK.COM                                                                             00000000000000000120780157223121592023081640044DISP0000000016851                                                                                                                                                                                                          
SPTB000000100000000002528804000000000000000000000000000000000000000000000000000000000000000000000000000000000000000000000000000000000000000000000000000000100000000002528804000000000000000000000000000000000000000000000000000000000000000000000000000                                                                                                                           
SPHB000000256021994360000023859000                                                                                                                                                                                                                                                                                                                                                
SPDP04000000000011342852023081603RIMS840616UV3       RIMS840616UV3RIVERA MORENO SANTA CAROLINA            900000000002385900000000000000206270182126169300000                                        9 00000044002001PAGO FONDO DE AHORRO SNTE 5 2022-2023 SNTE SECC5                                                              0000000000000000000000000ISP0000000016860      
SPDMSNTE5AHORRO@OUTLOOK.COM                                                                             00000000000000000020627018212616932023081640044DISP0000000016860                                                                                                                                                                                                          
SPTB000000100000000001134285000000000000000000000000000000000000000000000000000000000000000000000000000000000000000000000000000000000000000000000000000000100000000001134285000000000000000000000000000000000000000000000000000000000000000000000000000                                                                                                                           
SPHB000000256021994360000023425000                                                                                                                                                                                                                                                                                                                                                
SPDP04000000000020063872023081603SAGV0103073W0       SAGV0103073W0SANCHEZ GALLEGOS VANESSA ELIZABETH      900000000002342500000000000001207801558896298900000                                        9 00000044012001PAGO FONDO DE AHORRO SNTE 5 2022-2023 SNTE SECC5                                                              0000000000000000000000000ISP0000000016864      
SPDMSNTE5AHORRO@OUTLOOK.COM                                                                             00000000000000000120780155889629892023081640044DISP0000000016864                                                                                                                                                                                                          
SPTB000000100000000002006387000000000000000000000000000000000000000000000000000000000000000000000000000000000000000000000000000000000000000000000000000000100000000002006387000000000000000000000000000000000000000000000000000000000000000000000000000                                                                                                                           
SPHB000000256021994360000023947000                                                                                                                                                                                                                                                                                                                                                
SPDP04000000000008171002023081603TUAA990520GVA       TUAA990520GVATURRUBIATE AGUILAR ALEXA MISHELLE       900000000002394700000000000007207501175209168100000                                        9 00000044072001PAGO FONDO DE AHORRO SNTE 5 2022-2023 SNTE SECC5                                                              0000000000000000000000000ISP0000000016868      
SPDMSNTE5AHORRO@OUTLOOK.COM                                                                             00000000000000000720750117520916812023081640044DISP0000000016868                                                                                                                                                                                                          
SPTB000000100000000000817100000000000000000000000000000000000000000000000000000000000000000000000000000000000000000000000000000000000000000000000000000000100000000000817100000000000000000000000000000000000000000000000000000000000000000000000000000                                                                                                                           
SPHB000000256021994360000023489000                                                                                                                                                                                                                                                                                                                                                
SPDP04000000000016441662023081603AUFA000526J62       AUFA000526J62AGUILAR FRAIRE AIRAM CITLALI            900000000002348900000000000001206001539068004300000                                        9 00000044012001PAGO FONDO DE AHORRO SNTE 5 2022-2023 SNTE SECC5                                                              0000000000000000000000000ISP0000000016869      
SPDMSNTE5AHORRO@OUTLOOK.COM                                                                             00000000000000000120600153906800432023081640044DISP0000000016869                                                                                                                                                                                                          
SPTB000000100000000001644166000000000000000000000000000000000000000000000000000000000000000000000000000000000000000000000000000000000000000000000000000000100000000001644166000000000000000000000000000000000000000000000000000000000000000000000000000                                                                                                                           
SPHB000000256021994360000023958000                                                                                                                                                                                                                                                                                                                                                
SPDP04000000000013146212023081603CAME8705292NA       CAME8705292NACABANA MORALES MARIA ELENA              900000000002395800000000000007258001165219832800000                                        9 00000044072001PAGO FONDO DE AHORRO SNTE 5 2022-2023 SNTE SECC5                                                              0000000000000000000000000ISP0000000016875      
SPDMSNTE5AHORRO@OUTLOOK.COM                                                                             00000000000000000725800116521983282023081640044DISP0000000016875                                                                                                                                                                                                          
SPTB000000100000000001314621000000000000000000000000000000000000000000000000000000000000000000000000000000000000000000000000000000000000000000000000000000100000000001314621000000000000000000000000000000000000000000000000000000000000000000000000000                                                                                                                           
SPHB000000256021994360000023927000                                                                                                                                                                                                                                                                                                                                                
SPDP04000000000009740912023081603GAGH900423E71       GAGH900423E71GAONA GARCIA HUMBERTO                   900000000002392700000000000001407556859681271500000                                        9 00000044014001PAGO FONDO DE AHORRO SNTE 5 2022-2023 SNTE SECC5                                                              0000000000000000000000000ISP0000000016879      
SPDMSNTE5AHORRO@OUTLOOK.COM                                                                             00000000000000000140755685968127152023081640044DISP0000000016879                                                                                                                                                                                                          
SPTB000000100000000000974091000000000000000000000000000000000000000000000000000000000000000000000000000000000000000000000000000000000000000000000000000000100000000000974091000000000000000000000000000000000000000000000000000000000000000000000000000                                                                                                                           
SPHB000000256021994360000023971000                                                                                                                                                                                                                                                                                                                                                
SPDP04000000000007271432023081603GOSA030409HY1       GOSA030409HY1GONZALEZ SOSA ANDERSON ERNESTO          900000000002397100000000000007258001210145448600000                                        9 00000044072001PAGO FONDO DE AHORRO SNTE 5 2022-2023 SNTE SECC5                                                              0000000000000000000000000ISP0000000016882      
SPDMSNTE5AHORRO@OUTLOOK.COM                                                                             00000000000000000725800121014544862023081640044DISP0000000016882                                                                                                                                                                                                          
SPTB000000100000000000727143000000000000000000000000000000000000000000000000000000000000000000000000000000000000000000000000000000000000000000000000000000100000000000727143000000000000000000000000000000000000000000000000000000000000000000000000000                                                                                                                           
SPHB000000256021994360000023838000                                                                                                                                                                                                                                                                                                                                                
SPDP04000000000015285782023081603MAMC970406V90       MAMC970406V90MARTINEZ MEDRANO CARMEN DANIELA         900000000002383800000000000001206001561307234100000                                        9 00000044012001PAGO FONDO DE AHORRO SNTE 5 2022-2023 SNTE SECC5                                                              0000000000000000000000000ISP0000000016884      
SPDMSNTE5AHORRO@OUTLOOK.COM                                                                             00000000000000000120600156130723412023081640044DISP0000000016884                                                                                                                                                                                                          
SPTB000000100000000001528578000000000000000000000000000000000000000000000000000000000000000000000000000000000000000000000000000000000000000000000000000000100000000001528578000000000000000000000000000000000000000000000000000000000000000000000000000                                                                                                                           
SPHB000000256021994360000023697000                                                                                                                                                                                                                                                                                                                                                
SPDP04000000000014651912023081603MOVK0005149M5       MOVK0005149M5MORALES VERASTEGUI KAREN GUADALUPE      900000000002369700000000000001218001558721988000000                                        9 00000044012001PAGO FONDO DE AHORRO SNTE 5 2022-2023 SNTE SECC5                                                              0000000000000000000000000ISP0000000016889      
SPDMSNTE5AHORRO@OUTLOOK.COM                                                                             00000000000000000121800155872198802023081640044DISP0000000016889                                                                                                                                                                                                          
SPTB000000100000000001465191000000000000000000000000000000000000000000000000000000000000000000000000000000000000000000000000000000000000000000000000000000100000000001465191000000000000000000000000000000000000000000000000000000000000000000000000000                                                                                                                           
SPHB000000256021994360000010982000                                                                                                                                                                                                                                                                                                                                                
SPDP04000000000010091052023081603MULJ851115ER4       MULJ851115ER4MU#OZ LIMON JESUS ANTONIO               900000000001098200000000000001206801172843005200000                                        9 00000044012001PAGO FONDO DE AHORRO SNTE 5 2022-2023 SNTE SECC5                                                              0000000000000000000000000ISP0000000016892      
SPDMSNTE5AHORRO@OUTLOOK.COM                                                                             00000000000000000120680117284300522023081640044DISP0000000016892                                                                                                                                                                                                          
SPTB000000100000000001009105000000000000000000000000000000000000000000000000000000000000000000000000000000000000000000000000000000000000000000000000000000100000000001009105000000000000000000000000000000000000000000000000000000000000000000000000000                                                                                                                           
SPHB000000256021994360000009061000                                                                                                                                                                                                                                                                                                                                                
SPDP04000000000018071002023081603VAPA790326V21       VAPA790326V21VAZQUEZ PECINA ARACELI                  900000000000906100000000000001207802725720362400000                                        9 00000044012001PAGO FONDO DE AHORRO SNTE 5 2022-2023 SNTE SECC5                                                              0000000000000000000000000ISP0000000016897      
SPDMSNTE5AHORRO@OUTLOOK.COM                                                                             00000000000000000120780272572036242023081640044DISP0000000016897                                                                                                                                                                                                          
SPTB000000100000000001807100000000000000000000000000000000000000000000000000000000000000000000000000000000000000000000000000000000000000000000000000000000100000000001807100000000000000000000000000000000000000000000000000000000000000000000000000000                                                                                                                           
SPHB000000256021994360000024005000                                                                                                                                                                                                                                                                                                                                                
SPDP04000000000007330432023081603AAAA890924M84       AAAA890924M84ALVARADO ARREOLA ALMA CHRISTIAN         900000000002400500000000000001218001557898334500000                                        9 00000044012001PAGO FONDO DE AHORRO SNTE 5 2022-2023 SNTE SECC5                                                              0000000000000000000000000ISP0000000016900      
SPDMSNTE5AHORRO@OUTLOOK.COM                                                                             00000000000000000121800155789833452023081640044DISP0000000016900                                                                                                                                                                                                          
SPTB000000100000000000733043000000000000000000000000000000000000000000000000000000000000000000000000000000000000000000000000000000000000000000000000000000100000000000733043000000000000000000000000000000000000000000000000000000000000000000000000000                                                                                                                           
SPHB000000256021994360000004294000                                                                                                                                                                                                                                                                                                                                                
SPDP04000000000019803942023081603BAJD8901204E1       BAJD8901204E1BLAS JUAREZ DORIS ZAYRA                 900000000000429400000000000001407856655918915400000                                        9 00000044014001PAGO FONDO DE AHORRO SNTE 5 2022-2023 SNTE SECC5                                                              0000000000000000000000000ISP0000000016904      
SPDMSNTE5AHORRO@OUTLOOK.COM                                                                             00000000000000000140785665591891542023081640044DISP0000000016904                                                                                                                                                                                                          
SPTB000000100000000001980394000000000000000000000000000000000000000000000000000000000000000000000000000000000000000000000000000000000000000000000000000000100000000001980394000000000000000000000000000000000000000000000000000000000000000000000000000                                                                                                                           
SPHB000000256021994360000023166000                                                                                                                                                                                                                                                                                                                                                
SPDP04000000000023233052023081603CAVR930130MHA       CAVR930130MHACASTILLO VERA MARIA DEL REFUGIO         900000000002316600000000000001232001118271828100000                                        9 00000044012001PAGO FONDO DE AHORRO SNTE 5 2022-2023 SNTE SECC5                                                              0000000000000000000000000ISP0000000016912      
SPDMSNTE5AHORRO@OUTLOOK.COM                                                                             00000000000000000123200111827182812023081640044DISP0000000016912                                                                                                                                                                                                          
SPTB000000100000000002323305000000000000000000000000000000000000000000000000000000000000000000000000000000000000000000000000000000000000000000000000000000100000000002323305000000000000000000000000000000000000000000000000000000000000000000000000000                                                                                                                           
SPHB000000256021994360000001284000                                                                                                                                                                                                                                                                                                                                                
SPDP04000000000007939822023081603CAZE611117NP4       CAZE611117NP4CASTRO ZAMORA ELSA                      900000000000128400000000000001207801535784870000000                                        9 00000044012001PAGO FONDO DE AHORRO SNTE 5 2022-2023 SNTE SECC5                                                              0000000000000000000000000ISP0000000016916      
SPDMSNTE5AHORRO@OUTLOOK.COM                                                                             00000000000000000120780153578487002023081640044DISP0000000016916                                                                                                                                                                                                          
SPTB000000100000000000793982000000000000000000000000000000000000000000000000000000000000000000000000000000000000000000000000000000000000000000000000000000100000000000793982000000000000000000000000000000000000000000000000000000000000000000000000000                                                                                                                           
SPHB000000256021994360000023513000                                                                                                                                                                                                                                                                                                                                                
SPDP04000000000014131492023081603EIAS670719CH6       EIAS670719CH6ESPINOZA AGUILAR SILVIA                 900000000002351300000000000007207801205372165600000                                        9 00000044072001PAGO FONDO DE AHORRO SNTE 5 2022-2023 SNTE SECC5                                                              0000000000000000000000000ISP0000000016918      
SPDMSNTE5AHORRO@OUTLOOK.COM                                                                             00000000000000000720780120537216562023081640044DISP0000000016918                                                                                                                                                                                                          
SPTB000000100000000001413149000000000000000000000000000000000000000000000000000000000000000000000000000000000000000000000000000000000000000000000000000000100000000001413149000000000000000000000000000000000000000000000000000000000000000000000000000                                                                                                                           
SPHB000000256021994360000023795000                                                                                                                                                                                                                                                                                                                                                
SPDP04000000000015858182023081603EIPO8910049P8       EIPO8910049P8ESPINOZA PEREZ OFELIA                   900000000002379500000000000001206001527975826100000                                        9 00000044012001PAGO FONDO DE AHORRO SNTE 5 2022-2023 SNTE SECC5                                                              0000000000000000000000000ISP0000000016919      
SPDMSNTE5AHORRO@OUTLOOK.COM                                                                             00000000000000000120600152797582612023081640044DISP0000000016919                                                                                                                                                                                                          
SPTB000000100000000001585818000000000000000000000000000000000000000000000000000000000000000000000000000000000000000000000000000000000000000000000000000000100000000001585818000000000000000000000000000000000000000000000000000000000000000000000000000                                                                                                                           
SPHB000000256021994360000004501000                                                                                                                                                                                                                                                                                                                                                
SPDP04000000000046169382023081603EIRA630513RG9       EIRA630513RG9ENCINA RODRIGUEZ MARIA ANTONIETA        900000000000450100000000000002107806417920414000000                                        9 00000044021001PAGO FONDO DE AHORRO SNTE 5 2022-2023 SNTE SECC5                                                              0000000000000000000000000ISP0000000016920      
SPDMSNTE5AHORRO@OUTLOOK.COM                                                                             00000000000000000210780641792041402023081640044DISP0000000016920                                                                                                                                                                                                          
SPTB000000100000000004616938000000000000000000000000000000000000000000000000000000000000000000000000000000000000000000000000000000000000000000000000000000100000000004616938000000000000000000000000000000000000000000000000000000000000000000000000000                                                                                                                           
SPHB000000256021994360000004527000                                                                                                                                                                                                                                                                                                                                                
SPDP04000000000028807252023081603EISE760328731       EISE760328731ELIZONDO SALAZAR EDUARDO                900000000000452700000000000001407856845399776700000                                        9 00000044014001PAGO FONDO DE AHORRO SNTE 5 2022-2023 SNTE SECC5                                                              0000000000000000000000000ISP0000000016922      
SPDMSNTE5AHORRO@OUTLOOK.COM                                                                             00000000000000000140785684539977672023081640044DISP0000000016922                                                                                                                                                                                                          
SPTB000000100000000002880725000000000000000000000000000000000000000000000000000000000000000000000000000000000000000000000000000000000000000000000000000000100000000002880725000000000000000000000000000000000000000000000000000000000000000000000000000                                                                                                                           
SPHB000000256021994360000024096000                                                                                                                                                                                                                                                                                                                                                
SPDP04000000000005498542023081603GAMJ981008711       GAMJ981008711GARCIA MATA JESUS ALBERTO               900000000002409600000000000001407956845191397500000                                        9 00000044014001PAGO FONDO DE AHORRO SNTE 5 2022-2023 SNTE SECC5                                                              0000000000000000000000000ISP0000000016928      
SPDMSNTE5AHORRO@OUTLOOK.COM                                                                             00000000000000000140795684519139752023081640044DISP0000000016928                                                                                                                                                                                                          
SPTB000000100000000000549854000000000000000000000000000000000000000000000000000000000000000000000000000000000000000000000000000000000000000000000000000000100000000000549854000000000000000000000000000000000000000000000000000000000000000000000000000                                                                                                                           
SPHB000000256021994360000023818000                                                                                                                                                                                                                                                                                                                                                
SPDP04000000000015285782023081603GURD980916F31       GURD980916F31GUEVARA RAMOS DIEGO ALBERTO             900000000002381800000000000001218001517991433100000                                        9 00000044012001PAGO FONDO DE AHORRO SNTE 5 2022-2023 SNTE SECC5                                                              0000000000000000000000000ISP0000000016932      
SPDMSNTE5AHORRO@OUTLOOK.COM                                                                             00000000000000000121800151799143312023081640044DISP0000000016932                                                                                                                                                                                                          
SPTB000000100000000001528578000000000000000000000000000000000000000000000000000000000000000000000000000000000000000000000000000000000000000000000000000000100000000001528578000000000000000000000000000000000000000000000000000000000000000000000000000                                                                                                                           
SPHB000000256021994360000002660000                                                                                                                                                                                                                                                                                                                                                
SPDP04000000000019803942023081603LOBL870303QL3       LOBL870303QL3LOPEZ BUSTOS LOURDES ALEJANDRA          900000000000266000000000000000207890242864912600000                                        9 00000044002001PAGO FONDO DE AHORRO SNTE 5 2022-2023 SNTE SECC5                                                              0000000000000000000000000ISP0000000016942      
SPDMSNTE5AHORRO@OUTLOOK.COM                                                                             00000000000000000020789024286491262023081640044DISP0000000016942                                                                                                                                                                                                          
SPTB000000100000000001980394000000000000000000000000000000000000000000000000000000000000000000000000000000000000000000000000000000000000000000000000000000100000000001980394000000000000000000000000000000000000000000000000000000000000000000000000000                                                                                                                           
SPHB000000256021994360000020839000                                                                                                                                                                                                                                                                                                                                                
SPDP04000000000015324632023081603MATA920119LQ3       MATA920119LQ3ASTRID MARIELA MALTOS TREVI#O           900000000002083900000000000001207501578543839000000                                        9 00000044012001PAGO FONDO DE AHORRO SNTE 5 2022-2023 SNTE SECC5                                                              0000000000000000000000000ISP0000000016947      
SPDMSNTE5AHORRO@OUTLOOK.COM                                                                             00000000000000000120750157854383902023081640044DISP0000000016947                                                                                                                                                                                                          
SPTB000000100000000001532463000000000000000000000000000000000000000000000000000000000000000000000000000000000000000000000000000000000000000000000000000000100000000001532463000000000000000000000000000000000000000000000000000000000000000000000000000                                                                                                                           
SPHB000000256021994360000023553000                                                                                                                                                                                                                                                                                                                                                
SPDP04000000000016721622023081603MAVI940316MF5       MAVI940316MF5MARTINEZ VARGAS INDIRY MARIANA          900000000002355300000000000001418056796087916000000                                        9 00000044014001PAGO FONDO DE AHORRO SNTE 5 2022-2023 SNTE SECC5                                                              0000000000000000000000000ISP0000000016952      
SPDMSNTE5AHORRO@OUTLOOK.COM                                                                             00000000000000000141805679608791602023081640044DISP0000000016952                                                                                                                                                                                                          
SPTB000000100000000001672162000000000000000000000000000000000000000000000000000000000000000000000000000000000000000000000000000000000000000000000000000000100000000001672162000000000000000000000000000000000000000000000000000000000000000000000000000                                                                                                                           
SPHB000000256021994360000024118000                                                                                                                                                                                                                                                                                                                                                
SPDP04000000000005498542023081603RORA910518HP0       RORA910518HP0ROBLES RAMOS ANED ALEJANDRA             900000000002411800000000000001407256845368018000000                                        9 00000044014001PAGO FONDO DE AHORRO SNTE 5 2022-2023 SNTE SECC5                                                              0000000000000000000000000ISP0000000016959      
SPDMSNTE5AHORRO@OUTLOOK.COM                                                                             00000000000000000140725684536801802023081640044DISP0000000016959                                                                                                                                                                                                          
SPTB000000100000000000549854000000000000000000000000000000000000000000000000000000000000000000000000000000000000000000000000000000000000000000000000000000100000000000549854000000000000000000000000000000000000000000000000000000000000000000000000000                                                                                                                           
SPHB000000256021994360000016781000                                                                                                                                                                                                                                                                                                                                                
SPDP04000000000020222342023081603SITR760805K50       SITR760805K50SILLER TORRES ROCIO AYDEE               900000000001678100000000000001207801251045121200000                                        9 00000044012001PAGO FONDO DE AHORRO SNTE 5 2022-2023 SNTE SECC5                                                              0000000000000000000000000ISP0000000016964      
SPDMSNTE5AHORRO@OUTLOOK.COM                                                                             00000000000000000120780125104512122023081640044DISP0000000016964                                                                                                                                                                                                          
SPTB000000100000000002022234000000000000000000000000000000000000000000000000000000000000000000000000000000000000000000000000000000000000000000000000000000100000000002022234000000000000000000000000000000000000000000000000000000000000000000000000000                                                                                                                           
SPHB000000256021994360000023464000                                                                                                                                                                                                                                                                                                                                                
SPDP04000000000009946632023081603VEGV000211GW6       VEGV000211GW6VEGA GONZALEZ VANESSA MICHELL           900000000002346400000000000001206001586852030500000                                        9 00000044012001PAGO FONDO DE AHORRO SNTE 5 2022-2023 SNTE SECC5                                                              0000000000000000000000000ISP0000000016973      
SPDMSNTE5AHORRO@OUTLOOK.COM                                                                             00000000000000000120600158685203052023081640044DISP0000000016973                                                                                                                                                                                                          
SPTB000000100000000000994663000000000000000000000000000000000000000000000000000000000000000000000000000000000000000000000000000000000000000000000000000000100000000000994663000000000000000000000000000000000000000000000000000000000000000000000000000                                                                                                                           
SPHB000000256021994360000009517000                                                                                                                                                                                                                                                                                                                                                
SPDP04000000000010131192023081603VEPK890506EC8       VEPK890506EC8VELAZQUEZ PERALES KAREN ARACELY         900000000000951700000000000007207801206377943600000                                        9 00000044072001PAGO FONDO DE AHORRO SNTE 5 2022-2023 SNTE SECC5                                                              0000000000000000000000000ISP0000000016977      
SPDMSNTE5AHORRO@OUTLOOK.COM                                                                             00000000000000000720780120637794362023081640044DISP0000000016977                                                                                                                                                                                                          
SPTB000000100000000001013119000000000000000000000000000000000000000000000000000000000000000000000000000000000000000000000000000000000000000000000000000000100000000001013119000000000000000000000000000000000000000000000000000000000000000000000000000                                                                                                                           
SPHB000000256021994360000022300000                                                                                                                                                                                                                                                                                                                                                
SPDP04000000000006567532023081603VIAJ900914GS5       VIAJ900914GS5VIVAR ANASTACIO JOSUE LEONARDO          900000000002230000000000000004407825600860129800000                                        9 00187044044001PAGO FONDO DE AHORRO SNTE 5 2022-2023 SNTE SECC5                                                              00000000000000000000000001505000000016985      
SPDMSNTE5AHORRO@OUTLOOK.COM                                                                             0000000000000000044078256008601298000020230816151505000000016985                                                                                                                                                                                                          
SPTB000000100000000000656753000000000000000000000000000000000000000000000000000000000000000000000000000000000000000000000000000000000000000000000000000000100000000000656753000000000000000000000000000000000000000000000000000000000000000000000000000                                                                                                                           
SPHB000000256021994360000023108000                                                                                                                                                                                                                                                                                                                                                
SPDP04000000000024219492023081603AAEA010310LX5       AAEA010310LX5ALVAREZ ESTRADA ALAN                    900000000002310800000000000001207001562189367000000                                        9 00000044012001PAGO FONDO DE AHORRO SNTE 5 2022-2023 SNTE SECC5                                                              0000000000000000000000000ISP0000000016991      
SPDMSNTE5AHORRO@OUTLOOK.COM                                                                             00000000000000000120700156218936702023081640044DISP0000000016991                                                                                                                                                                                                          
SPTB000000100000000002421949000000000000000000000000000000000000000000000000000000000000000000000000000000000000000000000000000000000000000000000000000000100000000002421949000000000000000000000000000000000000000000000000000000000000000000000000000                                                                                                                           
SPHB000000256021994360000023109000                                                                                                                                                                                                                                                                                                                                                
SPDP04000000000024214982023081603AAEI000515E79       AAEI000515E79ADAN ESQUIVEL ILSE VALERIA GUADALUPE    900000000002310900000000000001218001514668428300000                                        9 00000044012001PAGO FONDO DE AHORRO SNTE 5 2022-2023 SNTE SECC5                                                              0000000000000000000000000ISP0000000017002      
SPDMSNTE5AHORRO@OUTLOOK.COM                                                                             00000000000000000121800151466842832023081640044DISP0000000017002                                                                                                                                                                                                          
SPTB000000100000000002421498000000000000000000000000000000000000000000000000000000000000000000000000000000000000000000000000000000000000000000000000000000100000000002421498000000000000000000000000000000000000000000000000000000000000000000000000000                                                                                                                           
SPHB000000256021994360000023140000                                                                                                                                                                                                                                                                                                                                                
SPDP04000000000018709792023081603BUAJ990709Q49       BUAJ990709Q49BUSTOS AVILA JUANITA DARIANA            900000000002314000000000000001407856844910586400000                                        9 00000044014001PAGO FONDO DE AHORRO SNTE 5 2022-2023 SNTE SECC5                                                              0000000000000000000000000ISP0000000017006      
SPDMSNTE5AHORRO@OUTLOOK.COM                                                                             00000000000000000140785684491058642023081640044DISP0000000017006                                                                                                                                                                                                          
SPTB000000100000000001870979000000000000000000000000000000000000000000000000000000000000000000000000000000000000000000000000000000000000000000000000000000100000000001870979000000000000000000000000000000000000000000000000000000000000000000000000000                                                                                                                           
SPHB000000256021994360000021690000                                                                                                                                                                                                                                                                                                                                                
SPDP04000000000018071002023081603BUPG860621BJ8       BUPG860621BJ8BUSTAMANTE DE LA PE#A GABRIELA          900000000002169000000000000000207890240394781400000                                        9 00000044002001PAGO FONDO DE AHORRO SNTE 5 2022-2023 SNTE SECC5                                                              0000000000000000000000000ISP0000000017011      
SPDMSNTE5AHORRO@OUTLOOK.COM                                                                             00000000000000000020789024039478142023081640044DISP0000000017011                                                                                                                                                                                                          
SPTB000000100000000001807100000000000000000000000000000000000000000000000000000000000000000000000000000000000000000000000000000000000000000000000000000000100000000001807100000000000000000000000000000000000000000000000000000000000000000000000000000                                                                                                                           
SPHB000000256021994360000017578000                                                                                                                                                                                                                                                                                                                                                
SPDP04000000000026464902023081603CAAC840705N90       CAAC840705N90CARRIZALES ALDACO CHABELY               900000000001757800000000000001207801459295585700000                                        9 00000044012001PAGO FONDO DE AHORRO SNTE 5 2022-2023 SNTE SECC5                                                              0000000000000000000000000ISP0000000017016      
SPDMSNTE5AHORRO@OUTLOOK.COM                                                                             00000000000000000120780145929558572023081640044DISP0000000017016                                                                                                                                                                                                          
SPTB000000100000000002646490000000000000000000000000000000000000000000000000000000000000000000000000000000000000000000000000000000000000000000000000000000100000000002646490000000000000000000000000000000000000000000000000000000000000000000000000000                                                                                                                           
SPHB000000256021994360000013087000                                                                                                                                                                                                                                                                                                                                                
SPDP04000000000027763102023081603FOBJ7312178H9       FOBJ7312178H9FLORES BALDERAS JUAN ROGELIO            900000000001308700000000000001207801520216426700000                                        9 00000044012001PAGO FONDO DE AHORRO SNTE 5 2022-2023 SNTE SECC5                                                              0000000000000000000000000ISP0000000017040      
SPDMSNTE5AHORRO@OUTLOOK.COM                                                                             00000000000000000120780152021642672023081640044DISP0000000017040                                                                                                                                                                                                          
SPTB000000100000000002776310000000000000000000000000000000000000000000000000000000000000000000000000000000000000000000000000000000000000000000000000000000100000000002776310000000000000000000000000000000000000000000000000000000000000000000000000000                                                                                                                           
SPHB000000256021994360000013876000                                                                                                                                                                                                                                                                                                                                                
SPDP04000000000009346242023081603GAVD881005LGA       GAVD881005LGAGAMEZ VAZQUEZ DAVID                     900000000001387600000000000001407656670807670600000                                        9 00000044014001PAGO FONDO DE AHORRO SNTE 5 2022-2023 SNTE SECC5                                                              0000000000000000000000000ISP0000000017045      
SPDMSNTE5AHORRO@OUTLOOK.COM                                                                             00000000000000000140765667080767062023081640044DISP0000000017045                                                                                                                                                                                                          
SPTB000000100000000000934624000000000000000000000000000000000000000000000000000000000000000000000000000000000000000000000000000000000000000000000000000000100000000000934624000000000000000000000000000000000000000000000000000000000000000000000000000                                                                                                                           
SPHB000000256021994360000013920000                                                                                                                                                                                                                                                                                                                                                
SPDP04000000000029723802023081603GAVP690208I96       GAVP690208I96GARCIA VILLAFUERTE PATRICIA             900000000001392000000000000001207801215500419200000                                        9 00000044012001PAGO FONDO DE AHORRO SNTE 5 2022-2023 SNTE SECC5                                                              0000000000000000000000000ISP0000000017046      
SPDMSNTE5AHORRO@OUTLOOK.COM                                                                             00000000000000000120780121550041922023081640044DISP0000000017046                                                                                                                                                                                                          
SPTB000000100000000002972380000000000000000000000000000000000000000000000000000000000000000000000000000000000000000000000000000000000000000000000000000000100000000002972380000000000000000000000000000000000000000000000000000000000000000000000000000                                                                                                                           
SPHB000000256021994360000024057000                                                                                                                                                                                                                                                                                                                                                
SPDP04000000000009322922023081603GAVV9908025F0       GAVV9908025F0GAYTAN VARGAS VALERIA ABIGAIL           900000000002405700000000000007207801170062180600000                                        9 00000044072001PAGO FONDO DE AHORRO SNTE 5 2022-2023 SNTE SECC5                                                              0000000000000000000000000ISP0000000017049      
SPDMSNTE5AHORRO@OUTLOOK.COM                                                                             00000000000000000720780117006218062023081640044DISP0000000017049                                                                                                                                                                                                          
SPTB000000100000000000932292000000000000000000000000000000000000000000000000000000000000000000000000000000000000000000000000000000000000000000000000000000100000000000932292000000000000000000000000000000000000000000000000000000000000000000000000000                                                                                                                           
SPHB000000256021994360000022466000                                                                                                                                                                                                                                                                                                                                                
SPDP04000000000010357712023081603HEJE910731C51       HEJE910731C51HERNANDEZ JIMENEZ EDNA MIRTHALA         900000000002246600000000000001207201568425051700000                                        9 00000044012001PAGO FONDO DE AHORRO SNTE 5 2022-2023 SNTE SECC5                                                              0000000000000000000000000ISP0000000017055      
SPDMSNTE5AHORRO@OUTLOOK.COM                                                                             00000000000000000120720156842505172023081640044DISP0000000017055                                                                                                                                                                                                          
SPTB000000100000000001035771000000000000000000000000000000000000000000000000000000000000000000000000000000000000000000000000000000000000000000000000000000100000000001035771000000000000000000000000000000000000000000000000000000000000000000000000000                                                                                                                           
SPHB000000256021994360000012295000                                                                                                                                                                                                                                                                                                                                                
SPDP04000000000003349052023081603HELI8404027V2       HELI8404027V2HERNANDEZ LUNA JOSE ISRAEL              900000000001229500000000000001207802866086365000000                                        9 00000044012001PAGO FONDO DE AHORRO SNTE 5 2022-2023 SNTE SECC5                                                              0000000000000000000000000ISP0000000017059      
SPDMSNTE5AHORRO@OUTLOOK.COM                                                                             00000000000000000120780286608636502023081640044DISP0000000017059                                                                                                                                                                                                          
SPTB000000100000000000334905000000000000000000000000000000000000000000000000000000000000000000000000000000000000000000000000000000000000000000000000000000100000000000334905000000000000000000000000000000000000000000000000000000000000000000000000000                                                                                                                           
SPHB000000256021994360000023089000                                                                                                                                                                                                                                                                                                                                                
SPDP04000000000015403072023081603HEMA790122DKA       HEMA790122DKAHERNANDEZ MENDOZA ANA ISABEL            900000000002308900000000000001218001535204059800000                                        9 00000044012001PAGO FONDO DE AHORRO SNTE 5 2022-2023 SNTE SECC5                                                              0000000000000000000000000ISP0000000017066      
SPDMSNTE5AHORRO@OUTLOOK.COM                                                                             00000000000000000121800153520405982023081640044DISP0000000017066                                                                                                                                                                                                          
SPTB000000100000000001540307000000000000000000000000000000000000000000000000000000000000000000000000000000000000000000000000000000000000000000000000000000100000000001540307000000000000000000000000000000000000000000000000000000000000000000000000000                                                                                                                           
SPHB000000256021994360000019495000                                                                                                                                                                                                                                                                                                                                                
SPDP04000000000008229732023081603LUAN6502097V9       LUAN6502097V9LUMBRERAS ACOSTA NORMA LUZ              900000000001949500000000000004406825604181642900000                                        9 00188044044001PAGO FONDO DE AHORRO SNTE 5 2022-2023 SNTE SECC5                                                              00000000000000000000000001505000000017072      
SPDMSNTE5AHORRO@OUTLOOK.COM                                                                             0000000000000000044068256041816429000020230816151505000000017072                                                                                                                                                                                                          
SPTB000000100000000000822973000000000000000000000000000000000000000000000000000000000000000000000000000000000000000000000000000000000000000000000000000000100000000000822973000000000000000000000000000000000000000000000000000000000000000000000000000                                                                                                                           
SPHB000000256021994360000022947000                                                                                                                                                                                                                                                                                                                                                
SPDP04000000000008031872023081603MERG970705EU7       MERG970705EU7MELENDEZ RINCON JOSE GUILLERMO          900000000002294700000000000001207701572352106300000                                        9 00000044012001PAGO FONDO DE AHORRO SNTE 5 2022-2023 SNTE SECC5                                                              0000000000000000000000000ISP0000000017083      
SPDMSNTE5AHORRO@OUTLOOK.COM                                                                             00000000000000000120770157235210632023081640044DISP0000000017083                                                                                                                                                                                                          
SPTB000000100000000000803187000000000000000000000000000000000000000000000000000000000000000000000000000000000000000000000000000000000000000000000000000000100000000000803187000000000000000000000000000000000000000000000000000000000000000000000000000                                                                                                                           
SPHB000000256021994360000023903000                                                                                                                                                                                                                                                                                                                                                
SPDP04000000000010136632023081603MERK9209174D4       MERK9209174D4MEDINA ROSAS KARLOZ IVAN                900000000002390300000000000001218001551553213100000                                        9 00000044012001PAGO FONDO DE AHORRO SNTE 5 2022-2023 SNTE SECC5                                                              0000000000000000000000000ISP0000000017087      
SPDMSNTE5AHORRO@OUTLOOK.COM                                                                             00000000000000000121800155155321312023081640044DISP0000000017087                                                                                                                                                                                                          
SPTB000000100000000001013663000000000000000000000000000000000000000000000000000000000000000000000000000000000000000000000000000000000000000000000000000000100000000001013663000000000000000000000000000000000000000000000000000000000000000000000000000                                                                                                                           
SPHB000000256021994360000010183000                                                                                                                                                                                                                                                                                                                                                
SPDP04000000000028320072023081603PACF8912047N4       PACF8912047N4PALACIO CHAIREZ FRANCISCO ISMAEL        900000000001018300000000000001207802872303043000000                                        9 00000044012001PAGO FONDO DE AHORRO SNTE 5 2022-2023 SNTE SECC5                                                              0000000000000000000000000ISP0000000017095      
SPDMSNTE5AHORRO@OUTLOOK.COM                                                                             00000000000000000120780287230304302023081640044DISP0000000017095                                                                                                                                                                                                          
SPTB000000100000000002832007000000000000000000000000000000000000000000000000000000000000000000000000000000000000000000000000000000000000000000000000000000100000000002832007000000000000000000000000000000000000000000000000000000000000000000000000000                                                                                                                           
SPHB000000256021994360000010533000                                                                                                                                                                                                                                                                                                                                                
SPDP04000000000019321402023081603REDR710402432       REDR710402432REYES DIAZ RUBEN                        900000000001053300000000000013706110414493705400000                                        9 00000044137001PAGO FONDO DE AHORRO SNTE 5 2022-2023 SNTE SECC5                                                              0000000000000000000000000ISP0000000017108      
SPDMSNTE5AHORRO@OUTLOOK.COM                                                                             00000000000000001370611041449370542023081640044DISP0000000017108                                                                                                                                                                                                          
SPTB000000100000000001932140000000000000000000000000000000000000000000000000000000000000000000000000000000000000000000000000000000000000000000000000000000100000000001932140000000000000000000000000000000000000000000000000000000000000000000000000000                                                                                                                           
SPHB000000256021994360000023385000                                                                                                                                                                                                                                                                                                                                                
SPDP04000000000023142492023081603REGK000919246       REGK000919246REYNA GONZALEZ KATIA LISSETH            900000000002338500000000000001207901529286034700000                                        9 00000044012001PAGO FONDO DE AHORRO SNTE 5 2022-2023 SNTE SECC5                                                              0000000000000000000000000ISP0000000017116      
SPDMSNTE5AHORRO@OUTLOOK.COM                                                                             00000000000000000120790152928603472023081640044DISP0000000017116                                                                                                                                                                                                          
SPTB000000100000000002314249000000000000000000000000000000000000000000000000000000000000000000000000000000000000000000000000000000000000000000000000000000100000000002314249000000000000000000000000000000000000000000000000000000000000000000000000000                                                                                                                           
SPHB000000256021994360000022372000                                                                                                                                                                                                                                                                                                                                                
SPDP04000000000019793102023081603RUZB830809M91       RUZB830809M91RUIZ ZARATE BLANCA ELENA                900000000002237200000000000001218001575773618000000                                        9 00000044012001PAGO FONDO DE AHORRO SNTE 5 2022-2023 SNTE SECC5                                                              0000000000000000000000000ISP0000000017121      
SPDMSNTE5AHORRO@OUTLOOK.COM                                                                             00000000000000000121800157577361802023081640044DISP0000000017121                                                                                                                                                                                                          
SPTB000000100000000001979310000000000000000000000000000000000000000000000000000000000000000000000000000000000000000000000000000000000000000000000000000000100000000001979310000000000000000000000000000000000000000000000000000000000000000000000000000                                                                                                                           
SPHB000000256021994360000024030000                                                                                                                                                                                                                                                                                                                                                
SPDP04000000000007251542023081603ZALD0409258RA       ZALD0409258RAZAMORA LARA DULCE MARIA                 900000000002403000000000000001218001541920809500000                                        9 00000044012001PAGO FONDO DE AHORRO SNTE 5 2022-2023 SNTE SECC5                                                              0000000000000000000000000ISP0000000017124      
SPDMSNTE5AHORRO@OUTLOOK.COM                                                                             00000000000000000121800154192080952023081640044DISP0000000017124                                                                                                                                                                                                          
SPTB000000100000000000725154000000000000000000000000000000000000000000000000000000000000000000000000000000000000000000000000000000000000000000000000000000100000000000725154000000000000000000000000000000000000000000000000000000000000000000000000000                                                                                                                           
SPHB000000256021994360000004164000                                                                                                                                                                                                                                                                                                                                                
SPDP04000000000006549302023081603AUVF980310KQ1       AUVF980310KQ1AGUILAR VIERA FRANCO ALEJANDRO          900000000000416400000000000002107306552506821900000                                        9 00000044021001PAGO FONDO DE AHORRO SNTE 5 2022-2023 SNTE SECC5                                                              0000000000000000000000000ISP0000000017128      
SPDMSNTE5AHORRO@OUTLOOK.COM                                                                             00000000000000000210730655250682192023081640044DISP0000000017128                                                                                                                                                                                                          
SPTB000000100000000000654930000000000000000000000000000000000000000000000000000000000000000000000000000000000000000000000000000000000000000000000000000000100000000000654930000000000000000000000000000000000000000000000000000000000000000000000000000                                                                                                                           
SPHB000000256021994360000023160000                                                                                                                                                                                                                                                                                                                                                
SPDP04000000000015072752023081603CARA751115AX1       CARA751115AX1CASTA#EDA RODRIGUEZ ARACELY             900000000002316000000000000001207702702746506200000                                        9 00000044012001PAGO FONDO DE AHORRO SNTE 5 2022-2023 SNTE SECC5                                                              0000000000000000000000000ISP0000000017129      
SPDMSNTE5AHORRO@OUTLOOK.COM                                                                             00000000000000000120770270274650622023081640044DISP0000000017129                                                                                                                                                                                                          
SPTB000000100000000001507275000000000000000000000000000000000000000000000000000000000000000000000000000000000000000000000000000000000000000000000000000000100000000001507275000000000000000000000000000000000000000000000000000000000000000000000000000                                                                                                                           
SPHB000000256021994360000008203000                                                                                                                                                                                                                                                                                                                                                
SPDP04000000000014685352023081603DUMA911016MY0       DUMA911016MY0DUE#EZ MALDONADO ABEL                   900000000000820300000000000001207901535219795000000                                        9 00000044012001PAGO FONDO DE AHORRO SNTE 5 2022-2023 SNTE SECC5                                                              0000000000000000000000000ISP0000000017132      
SPDMSNTE5AHORRO@OUTLOOK.COM                                                                             00000000000000000120790153521979502023081640044DISP0000000017132                                                                                                                                                                                                          
SPTB000000100000000001468535000000000000000000000000000000000000000000000000000000000000000000000000000000000000000000000000000000000000000000000000000000100000000001468535000000000000000000000000000000000000000000000000000000000000000000000000000                                                                                                                           
SPHB000000256021994360000024043000                                                                                                                                                                                                                                                                                                                                                
SPDP04000000000004827962023081603EASV8205142DA       EASV8205142DAESTRADA DE LOS SANTOS VICTOR HUGO       900000000002404300000000000004406825600757256100000                                        9 00188044044001PAGO FONDO DE AHORRO SNTE 5 2022-2023 SNTE SECC5                                                              00000000000000000000000001506000000017134      
SPDMSNTE5AHORRO@OUTLOOK.COM                                                                             0000000000000000044068256007572561000020230816151506000000017134                                                                                                                                                                                                          
SPTB000000100000000000482796000000000000000000000000000000000000000000000000000000000000000000000000000000000000000000000000000000000000000000000000000000100000000000482796000000000000000000000000000000000000000000000000000000000000000000000000000                                                                                                                           
SPHB000000256021994360000023224000                                                                                                                                                                                                                                                                                                                                                
SPDP04000000000018712882023081603GAGM000719DK5       GAGM000719DK5GARZA GAMEZ MARIANA SANJUANITA ISABEL   900000000002322400000000000001207801527799165600000                                        9 00000044012001PAGO FONDO DE AHORRO SNTE 5 2022-2023 SNTE SECC5                                                              0000000000000000000000000ISP0000000017136      
SPDMSNTE5AHORRO@OUTLOOK.COM                                                                             00000000000000000120780152779916562023081640044DISP0000000017136                                                                                                                                                                                                          
SPTB000000100000000001871288000000000000000000000000000000000000000000000000000000000000000000000000000000000000000000000000000000000000000000000000000000100000000001871288000000000000000000000000000000000000000000000000000000000000000000000000000                                                                                                                           
SPHB000000256021994360000024014000                                                                                                                                                                                                                                                                                                                                                
SPDP04000000000015662492023081603LERE800914N30       LERE800914N30LEYVA RIVERA ESPERANZA DAYANARA         900000000002401400000000000001406056618356933600000                                        9 00000044014001PAGO FONDO DE AHORRO SNTE 5 2022-2023 SNTE SECC5                                                              0000000000000000000000000ISP0000000017137      
SPDMSNTE5AHORRO@OUTLOOK.COM                                                                             00000000000000000140605661835693362023081640044DISP0000000017137                                                                                                                                                                                                          
SPTB000000100000000001566249000000000000000000000000000000000000000000000000000000000000000000000000000000000000000000000000000000000000000000000000000000100000000001566249000000000000000000000000000000000000000000000000000000000000000000000000000                                                                                                                           
SPHB000000256021994360000013353000                                                                                                                                                                                                                                                                                                                                                
SPDP04000000000015813392023081603LERF8609139N3       LERF8609139N3LEOS RIOJAS FERNANDO                    900000000001335300000000000001406220006915539300000                                        9 00000044014001PAGO FONDO DE AHORRO SNTE 5 2022-2023 SNTE SECC5                                                              0000000000000000000000000ISP0000000017139      
SPDMSNTE5AHORRO@OUTLOOK.COM                                                                             00000000000000000140622000691553932023081640044DISP0000000017139                                                                                                                                                                                                          
SPTB000000100000000001581339000000000000000000000000000000000000000000000000000000000000000000000000000000000000000000000000000000000000000000000000000000100000000001581339000000000000000000000000000000000000000000000000000000000000000000000000000                                                                                                                           
