SPHA0932601202408162024081620240816000                                                                                                                                                                                                                                                                                                                                            
SPHB000000256021994360000024637000                                                                                                                                                                                                                                                                                                                                                
SPDP04000000000020006552024081503RORB020622J79       RORB020622J79DE LA ROSA RIVERA BRENDA SAIDALY        900000000002463700000000000001218001573908213700000                                        9 00000044012001PAGO FONDO DE AHORRO SNTE 5 2023-2024 SNTE SECC5                                                              0000000000000000000000000ISP0000000113821      
SPDMSNTE5AHORRO@OUTLOOK.COM                                                                             00000000000000000121800157390821372024081540044DISP0000000113821                                                                                                                                                                                                          
SPTB000000100000000002000655000000000000000000000000000000000000000000000000000000000000000000000000000000000000000000000000000000000000000000000000000000100000000002000655000000000000000000000000000000000000000000000000000000000000000000000000000                                                                                                                           
SPHB000000256021994360000000698000                                                                                                                                                                                                                                                                                                                                                
SPDP04000000000007787142024081503GOCR921020R20       GOCR921020R20GONZALEZ CARRILLO RIGOBERTO             900000000000069800000000000007207201217176384800000                                        9 00000044072001PAGO FONDO DE AHORRO SNTE 5 2023-2024 SNTE SECC5                                                              0000000000000000000000000ISP0000000113822      
SPDMSNTE5AHORRO@OUTLOOK.COM                                                                             00000000000000000720720121717638482024081540044DISP0000000113822                                                                                                                                                                                                          
SPTB000000100000000000778714000000000000000000000000000000000000000000000000000000000000000000000000000000000000000000000000000000000000000000000000000000100000000000778714000000000000000000000000000000000000000000000000000000000000000000000000000                                                                                                                           
SPHB000000256021994360000024389000                                                                                                                                                                                                                                                                                                                                                
SPDP04000000000007459012024081503GOGJ9909146Y9       GOGJ9909146Y9GOMEZ GONZALEZ JORGE                    900000000002438900000000000001218001573110687500000                                        9 00000044012001PAGO FONDO DE AHORRO SNTE 5 2023-2024 SNTE SECC5                                                              0000000000000000000000000ISP0000000113823      
SPDMSNTE5AHORRO@OUTLOOK.COM                                                                             00000000000000000121800157311068752024081540044DISP0000000113823                                                                                                                                                                                                          
SPTB000000100000000000745901000000000000000000000000000000000000000000000000000000000000000000000000000000000000000000000000000000000000000000000000000000100000000000745901000000000000000000000000000000000000000000000000000000000000000000000000000                                                                                                                           
SPHB000000256021994360000025268000                                                                                                                                                                                                                                                                                                                                                
SPDP04000000000009075662024081503ROVA781006CX8       ROVA781006CX8ROMERO VIDAL ALEJANDRA                  900000000002526800000000000007207801172145386200000                                        9 00000044072001PAGO FONDO DE AHORRO SNTE 5 2023-2024 SNTE SECC5                                                              0000000000000000000000000ISP0000000113824      
SPDMSNTE5AHORRO@OUTLOOK.COM                                                                             00000000000000000720780117214538622024081540044DISP0000000113824                                                                                                                                                                                                          
SPTB000000100000000000907566000000000000000000000000000000000000000000000000000000000000000000000000000000000000000000000000000000000000000000000000000000100000000000907566000000000000000000000000000000000000000000000000000000000000000000000000000                                                                                                                           
SPHB000000256021994360000024606000                                                                                                                                                                                                                                                                                                                                                
SPDP04000000000022233732024081503GORL970316K73       GORL970316K73GONZALEZ REYNA JOSE LUIS                900000000002460600000000000001207802892422859100000                                        9 00000044012001PAGO FONDO DE AHORRO SNTE 5 2023-2024 SNTE SECC5                                                              0000000000000000000000000ISP0000000113825      
SPDMSNTE5AHORRO@OUTLOOK.COM                                                                             00000000000000000120780289242285912024081540044DISP0000000113825                                                                                                                                                                                                          
SPTB000000100000000002223373000000000000000000000000000000000000000000000000000000000000000000000000000000000000000000000000000000000000000000000000000000100000000002223373000000000000000000000000000000000000000000000000000000000000000000000000000                                                                                                                           
SPHB000000256021994360000024987000                                                                                                                                                                                                                                                                                                                                                
SPDP04000000000017169802024081503GOSL010114TY0       GOSL010114TY0GONZALEZ SANCHEZ LUCIA MARIBEL          900000000002498700000000000001218001589654262000000                                        9 00000044012001PAGO FONDO DE AHORRO SNTE 5 2023-2024 SNTE SECC5                                                              0000000000000000000000000ISP0000000113826      
SPDMSNTE5AHORRO@OUTLOOK.COM                                                                             00000000000000000121800158965426202024081540044DISP0000000113826                                                                                                                                                                                                          
SPTB000000100000000001716980000000000000000000000000000000000000000000000000000000000000000000000000000000000000000000000000000000000000000000000000000000100000000001716980000000000000000000000000000000000000000000000000000000000000000000000000000                                                                                                                           
SPHB000000256021994360000025172000                                                                                                                                                                                                                                                                                                                                                
SPDP04000000000015960142024081503SAFK911105448       SAFK911105448SALAS FIERRO KARLA AIDE                 900000000002517200000000000001207902712074052700000                                        9 00000044012001PAGO FONDO DE AHORRO SNTE 5 2023-2024 SNTE SECC5                                                              0000000000000000000000000ISP0000000113827      
SPDMSNTE5AHORRO@OUTLOOK.COM                                                                             00000000000000000120790271207405272024081540044DISP0000000113827                                                                                                                                                                                                          
SPTB000000100000000001596014000000000000000000000000000000000000000000000000000000000000000000000000000000000000000000000000000000000000000000000000000000100000000001596014000000000000000000000000000000000000000000000000000000000000000000000000000                                                                                                                           
SPHB000000256021994360000025391000                                                                                                                                                                                                                                                                                                                                                
SPDP04000000000009644092024081503HECV980409MA1       HECV980409MA1HERNANDEZ CHAVEZ VALERIA CAROLINA       900000000002539100000000000001218001517233030700000                                        9 00000044012001PAGO FONDO DE AHORRO SNTE 5 2023-2024 SNTE SECC5                                                              0000000000000000000000000ISP0000000113828      
SPDMSNTE5AHORRO@OUTLOOK.COM                                                                             00000000000000000121800151723303072024081540044DISP0000000113828                                                                                                                                                                                                          
SPTB000000100000000000964409000000000000000000000000000000000000000000000000000000000000000000000000000000000000000000000000000000000000000000000000000000100000000000964409000000000000000000000000000000000000000000000000000000000000000000000000000                                                                                                                           
SPHB000000256021994360000025451000                                                                                                                                                                                                                                                                                                                                                
SPDP04000000000001578352024081503HEGA740427D16       HEGA740427D16HERNANDEZ GONZALEZ MARIA DE LOS ANGELES 900000000002545100000000000001218001517520688100000                                        9 00000044012001PAGO FONDO DE AHORRO SNTE 5 2023-2024 SNTE SECC5                                                              0000000000000000000000000ISP0000000113829      
SPDMSNTE5AHORRO@OUTLOOK.COM                                                                             00000000000000000121800151752068812024081540044DISP0000000113829                                                                                                                                                                                                          
SPTB000000100000000000157835000000000000000000000000000000000000000000000000000000000000000000000000000000000000000000000000000000000000000000000000000000100000000000157835000000000000000000000000000000000000000000000000000000000000000000000000000                                                                                                                           
SPHB000000256021994360000025283000                                                                                                                                                                                                                                                                                                                                                
SPDP04000000000007575332024081503HEGT9403294Q3       HEGT9403294Q3HERRERA GARCIA TANIA YAQUELIN           900000000002528300000000000007207801189085994400000                                        9 00000044072001PAGO FONDO DE AHORRO SNTE 5 2023-2024 SNTE SECC5                                                              0000000000000000000000000ISP0000000113830      
SPDMSNTE5AHORRO@OUTLOOK.COM                                                                             00000000000000000720780118908599442024081540044DISP0000000113830                                                                                                                                                                                                          
SPTB000000100000000000757533000000000000000000000000000000000000000000000000000000000000000000000000000000000000000000000000000000000000000000000000000000100000000000757533000000000000000000000000000000000000000000000000000000000000000000000000000                                                                                                                           
SPHB000000256021994360000024921000                                                                                                                                                                                                                                                                                                                                                
SPDP04000000000010554322024081503SIPJ841209N60       SIPJ841209N60SILVA PACHICANO JESUS HUMBERTO          900000000002492100000000000001207802972159651900000                                        9 00000044012001PAGO FONDO DE AHORRO SNTE 5 2023-2024 SNTE SECC5                                                              0000000000000000000000000ISP0000000113831      
SPDMSNTE5AHORRO@OUTLOOK.COM                                                                             00000000000000000120780297215965192024081540044DISP0000000113831                                                                                                                                                                                                          
SPTB000000100000000001055432000000000000000000000000000000000000000000000000000000000000000000000000000000000000000000000000000000000000000000000000000000100000000001055432000000000000000000000000000000000000000000000000000000000000000000000000000                                                                                                                           
SPHB000000256021994360000024558000                                                                                                                                                                                                                                                                                                                                                
SPDP04000000000020825682024081503TEFY0002233J1       TEFY0002233J1TELLEZ FUENTES YAZMIN                   900000000002455800000000000007219001198800582100000                                        9 00000044072001PAGO FONDO DE AHORRO SNTE 5 2023-2024 SNTE SECC5                                                              0000000000000000000000000ISP0000000113832      
SPDMSNTE5AHORRO@OUTLOOK.COM                                                                             00000000000000000721900119880058212024081540044DISP0000000113832                                                                                                                                                                                                          
SPTB000000100000000002082568000000000000000000000000000000000000000000000000000000000000000000000000000000000000000000000000000000000000000000000000000000100000000002082568000000000000000000000000000000000000000000000000000000000000000000000000000                                                                                                                           
SPHB000000256021994360000025344000                                                                                                                                                                                                                                                                                                                                                
SPDP04000000000004567012024081503JIBA7906191T9       JIBA7906191T9JIMENEZ BOONE ACTZIRI                   900000000002534400000000000001207801572022451100000                                        9 00000044012001PAGO FONDO DE AHORRO SNTE 5 2023-2024 SNTE SECC5                                                              0000000000000000000000000ISP0000000113833      
SPDMSNTE5AHORRO@OUTLOOK.COM                                                                             00000000000000000120780157202245112024081540044DISP0000000113833                                                                                                                                                                                                          
SPTB000000100000000000456701000000000000000000000000000000000000000000000000000000000000000000000000000000000000000000000000000000000000000000000000000000100000000000456701000000000000000000000000000000000000000000000000000000000000000000000000000                                                                                                                           
SPHB000000256021994360000023450000                                                                                                                                                                                                                                                                                                                                                
SPDP04000000000022980142024081503TOGL980717G41       TOGL980717G41TOBIAS GARZA LAURA ELIZABETH            900000000002345000000000000001206801529303566100000                                        9 00000044012001PAGO FONDO DE AHORRO SNTE 5 2023-2024 SNTE SECC5                                                              0000000000000000000000000ISP0000000113834      
SPDMSNTE5AHORRO@OUTLOOK.COM                                                                             00000000000000000120680152930356612024081540044DISP0000000113834                                                                                                                                                                                                          
SPTB000000100000000002298014000000000000000000000000000000000000000000000000000000000000000000000000000000000000000000000000000000000000000000000000000000100000000002298014000000000000000000000000000000000000000000000000000000000000000000000000000                                                                                                                           
SPHB000000256021994360000024207000                                                                                                                                                                                                                                                                                                                                                
SPDP04000000000014254802024081503TOMG970831ES1       TOMG970831ES1TORRES MONTES GUSTAVO GUADALUPE         900000000002420700000000000001218001530415428300000                                        9 00000044012001PAGO FONDO DE AHORRO SNTE 5 2023-2024 SNTE SECC5                                                              0000000000000000000000000ISP0000000113835      
SPDMSNTE5AHORRO@OUTLOOK.COM                                                                             00000000000000000121800153041542832024081540044DISP0000000113835                                                                                                                                                                                                          
SPTB000000100000000001425480000000000000000000000000000000000000000000000000000000000000000000000000000000000000000000000000000000000000000000000000000000100000000001425480000000000000000000000000000000000000000000000000000000000000000000000000000                                                                                                                           
SPHB000000256021994360000024737000                                                                                                                                                                                                                                                                                                                                                
SPDP04000000000012618062024081503TOOG9801286B6       TOOG9801286B6TORRES ORTEGA GUSTAVO                   900000000002473700000000000001207801521022453900000                                        9 00000044012001PAGO FONDO DE AHORRO SNTE 5 2023-2024 SNTE SECC5                                                              0000000000000000000000000ISP0000000113837      
SPDMSNTE5AHORRO@OUTLOOK.COM                                                                             00000000000000000120780152102245392024081540044DISP0000000113837                                                                                                                                                                                                          
SPTB000000100000000001261806000000000000000000000000000000000000000000000000000000000000000000000000000000000000000000000000000000000000000000000000000000100000000001261806000000000000000000000000000000000000000000000000000000000000000000000000000                                                                                                                           
SPHB000000256021994360000025320000                                                                                                                                                                                                                                                                                                                                                
SPDP04000000000006057642024081503TOQJ760309841       TOQJ760309841TORRES QUINTANA JUAN FRANCISCO          900000000002532000000000000004407825605188110400000                                        9 00187044044001PAGO FONDO DE AHORRO SNTE 5 2023-2024 SNTE SECC5                                                              00000000000000000000000005017000000113843      
SPDMSNTE5AHORRO@OUTLOOK.COM                                                                             0000000000000000044078256051881104000020240815155017000000113843                                                                                                                                                                                                          
SPTB000000100000000000605764000000000000000000000000000000000000000000000000000000000000000000000000000000000000000000000000000000000000000000000000000000100000000000605764000000000000000000000000000000000000000000000000000000000000000000000000000                                                                                                                           
SPHB000000256021994360000025235000                                                                                                                                                                                                                                                                                                                                                
SPDP04000000000024727302024081503VAGV010318IT1       VAGV010318IT1VALDEZ GARCIA VERONICA GISEL            900000000002523500000000000001206301590330170300000                                        9 00000044012001PAGO FONDO DE AHORRO SNTE 5 2023-2024 SNTE SECC5                                                              0000000000000000000000000ISP0000000113844      
SPDMSNTE5AHORRO@OUTLOOK.COM                                                                             00000000000000000120630159033017032024081540044DISP0000000113844                                                                                                                                                                                                          
SPTB000000100000000002472730000000000000000000000000000000000000000000000000000000000000000000000000000000000000000000000000000000000000000000000000000000100000000002472730000000000000000000000000000000000000000000000000000000000000000000000000000                                                                                                                           
SPHB000000256021994360000025103000                                                                                                                                                                                                                                                                                                                                                
SPDP04000000000017175842024081503AAAK9803011E1       AAAK9803011E1DE ANDA ADAME KAREN GUADALUPE           900000000002510300000000000004406225604909342800000                                        9 00194044044001PAGO FONDO DE AHORRO SNTE 5 2023-2024 SNTE SECC5                                                              00000000000000000000000005017000000113845      
SPDMSNTE5AHORRO@OUTLOOK.COM                                                                             0000000000000000044062256049093428000020240815155017000000113845                                                                                                                                                                                                          
SPTB000000100000000001717584000000000000000000000000000000000000000000000000000000000000000000000000000000000000000000000000000000000000000000000000000000100000000001717584000000000000000000000000000000000000000000000000000000000000000000000000000                                                                                                                           
SPHB000000256021994360000024311000                                                                                                                                                                                                                                                                                                                                                
SPDP04000000000026790782024081503AADH010128741       AADH010128741AMAYA DAVALOS HEIDI JANETH              900000000002431100000000000001218001561227848200000                                        9 00000044012001PAGO FONDO DE AHORRO SNTE 5 2023-2024 SNTE SECC5                                                              0000000000000000000000000ISP0000000113846      
SPDMSNTE5AHORRO@OUTLOOK.COM                                                                             00000000000000000121800156122784822024081540044DISP0000000113846                                                                                                                                                                                                          
SPTB000000100000000002679078000000000000000000000000000000000000000000000000000000000000000000000000000000000000000000000000000000000000000000000000000000100000000002679078000000000000000000000000000000000000000000000000000000000000000000000000000                                                                                                                           
SPHB000000256021994360000024615000                                                                                                                                                                                                                                                                                                                                                
SPDP04000000000019501432024081503LOGA010502PX4       LOGA010502PX4LOPEZ GUZMAN ANETTH XIMENA              900000000002461500000000000001218001589647592000000                                        9 00000044012001PAGO FONDO DE AHORRO SNTE 5 2023-2024 SNTE SECC5                                                              0000000000000000000000000ISP0000000113847      
SPDMSNTE5AHORRO@OUTLOOK.COM                                                                             00000000000000000121800158964759202024081540044DISP0000000113847                                                                                                                                                                                                          
SPTB000000100000000001950143000000000000000000000000000000000000000000000000000000000000000000000000000000000000000000000000000000000000000000000000000000100000000001950143000000000000000000000000000000000000000000000000000000000000000000000000000                                                                                                                           
SPHB000000256021994360000025411000                                                                                                                                                                                                                                                                                                                                                
SPDP04000000000004288902024081503VAVB870502MK6       VAVB870502MK6VAZQUEZ VITELA BRENDA MARCELA MARIA     900000000002541100000000000002107306531382591000000                                        9 00000044021001PAGO FONDO DE AHORRO SNTE 5 2023-2024 SNTE SECC5                                                              0000000000000000000000000ISP0000000113848      
SPDMSNTE5AHORRO@OUTLOOK.COM                                                                             00000000000000000210730653138259102024081540044DISP0000000113848                                                                                                                                                                                                          
SPTB000000100000000000428890000000000000000000000000000000000000000000000000000000000000000000000000000000000000000000000000000000000000000000000000000000100000000000428890000000000000000000000000000000000000000000000000000000000000000000000000000                                                                                                                           
SPHB000000256021994360000025076000                                                                                                                                                                                                                                                                                                                                                
SPDP04000000000013366672024081503VAVO980805A99       VAVO980805A99VARGAS VELAZCO OLGA BEATRIZ             900000000002507600000000000001206001538962649000000                                        9 00000044012001PAGO FONDO DE AHORRO SNTE 5 2023-2024 SNTE SECC5                                                              0000000000000000000000000ISP0000000113849      
SPDMSNTE5AHORRO@OUTLOOK.COM                                                                             00000000000000000120600153896264902024081540044DISP0000000113849                                                                                                                                                                                                          
SPTB000000100000000001336667000000000000000000000000000000000000000000000000000000000000000000000000000000000000000000000000000000000000000000000000000000100000000001336667000000000000000000000000000000000000000000000000000000000000000000000000000                                                                                                                           
SPHB000000256021994360000025015000                                                                                                                                                                                                                                                                                                                                                
SPDP04000000000013366672024081503LOVS970706T85       LOVS970706T85LOPEZ VALDEZ SUGEY GLORETI              900000000002501500000000000001206001530031849900000                                        9 00000044012001PAGO FONDO DE AHORRO SNTE 5 2023-2024 SNTE SECC5                                                              0000000000000000000000000ISP0000000113850      
SPDMSNTE5AHORRO@OUTLOOK.COM                                                                             00000000000000000120600153003184992024081540044DISP0000000113850                                                                                                                                                                                                          
SPTB000000100000000001336667000000000000000000000000000000000000000000000000000000000000000000000000000000000000000000000000000000000000000000000000000000100000000001336667000000000000000000000000000000000000000000000000000000000000000000000000000                                                                                                                           
SPHB000000256021994360000024437000                                                                                                                                                                                                                                                                                                                                                
SPDP04000000000020825682024081503LOZA010607IA6       LOZA010607IA6LOPEZ ZU#IGA ANETT MIRANDA              900000000002443700000000000001207401567171628200000                                        9 00000044012001PAGO FONDO DE AHORRO SNTE 5 2023-2024 SNTE SECC5                                                              0000000000000000000000000ISP0000000113851      
SPDMSNTE5AHORRO@OUTLOOK.COM                                                                             00000000000000000120740156717162822024081540044DISP0000000113851                                                                                                                                                                                                          
SPTB000000100000000002082568000000000000000000000000000000000000000000000000000000000000000000000000000000000000000000000000000000000000000000000000000000100000000002082568000000000000000000000000000000000000000000000000000000000000000000000000000                                                                                                                           
SPHB000000256021994360000025288000                                                                                                                                                                                                                                                                                                                                                
SPDP04000000000007629532024081503VISR9309035Q3       VISR9309035Q3VILLASE#OR SANCHEZ RIGOBERTO            900000000002528800000000000007206200666031196300000                                        9 00000044072001PAGO FONDO DE AHORRO SNTE 5 2023-2024 SNTE SECC5                                                              0000000000000000000000000ISP0000000113852      
SPDMSNTE5AHORRO@OUTLOOK.COM                                                                             00000000000000000720620066603119632024081540044DISP0000000113852                                                                                                                                                                                                          
SPTB000000100000000000762953000000000000000000000000000000000000000000000000000000000000000000000000000000000000000000000000000000000000000000000000000000100000000000762953000000000000000000000000000000000000000000000000000000000000000000000000000                                                                                                                           
SPHB000000256021994360000024935000                                                                                                                                                                                                                                                                                                                                                
SPDP04000000000013366672024081503AOAD9912091S7       AOAD9912091S7ACOSTA AGUILAR DANIELA ARACELY          900000000002493500000000000001207401590168713300000                                        9 00000044012001PAGO FONDO DE AHORRO SNTE 5 2023-2024 SNTE SECC5                                                              0000000000000000000000000ISP0000000113853      
SPDMSNTE5AHORRO@OUTLOOK.COM                                                                             00000000000000000120740159016871332024081540044DISP0000000113853                                                                                                                                                                                                          
SPTB000000100000000001336667000000000000000000000000000000000000000000000000000000000000000000000000000000000000000000000000000000000000000000000000000000100000000001336667000000000000000000000000000000000000000000000000000000000000000000000000000                                                                                                                           
SPHB000000256021994360000025109000                                                                                                                                                                                                                                                                                                                                                
SPDP04000000000020486012024081503AUAA951219JD3       AUAA951219JD3ANGUIANO AGUIRRE ANTONIO                900000000002510900000000000007258001225807683000000                                        9 00000044072001PAGO FONDO DE AHORRO SNTE 5 2023-2024 SNTE SECC5                                                              0000000000000000000000000ISP0000000113854      
SPDMSNTE5AHORRO@OUTLOOK.COM                                                                             00000000000000000725800122580768302024081540044DISP0000000113854                                                                                                                                                                                                          
SPTB000000100000000002048601000000000000000000000000000000000000000000000000000000000000000000000000000000000000000000000000000000000000000000000000000000100000000002048601000000000000000000000000000000000000000000000000000000000000000000000000000                                                                                                                           
SPHB000000256021994360000024884000                                                                                                                                                                                                                                                                                                                                                
SPDP04000000000002997872024081503AUBS851219EM6       AUBS851219EM6AGUIRRE BARRERA SILVIA NOHEMI           900000000002488400000000000007207801084288630600000                                        9 00000044072001PAGO FONDO DE AHORRO SNTE 5 2023-2024 SNTE SECC5                                                              0000000000000000000000000ISP0000000113856      
SPDMSNTE5AHORRO@OUTLOOK.COM                                                                             00000000000000000720780108428863062024081540044DISP0000000113856                                                                                                                                                                                                          
SPTB000000100000000000299787000000000000000000000000000000000000000000000000000000000000000000000000000000000000000000000000000000000000000000000000000000100000000000299787000000000000000000000000000000000000000000000000000000000000000000000000000                                                                                                                           
SPHB000000256021994360000024443000                                                                                                                                                                                                                                                                                                                                                
SPDP04000000000009635732024081503MAGA021015HL2       MAGA021015HL2MARTINEZ GIL ANA SOFIA                  900000000002444300000000000001218001587814906700000                                        9 00000044012001PAGO FONDO DE AHORRO SNTE 5 2023-2024 SNTE SECC5                                                              0000000000000000000000000ISP0000000113858      
SPDMSNTE5AHORRO@OUTLOOK.COM                                                                             00000000000000000121800158781490672024081540044DISP0000000113858                                                                                                                                                                                                          
SPTB000000100000000000963573000000000000000000000000000000000000000000000000000000000000000000000000000000000000000000000000000000000000000000000000000000100000000000963573000000000000000000000000000000000000000000000000000000000000000000000000000                                                                                                                           
SPHB000000256021994360000004245000                                                                                                                                                                                                                                                                                                                                                
SPDP04000000000012615552024081503BAFO840509HU7       BAFO840509HU7BALDERAS FLORES OSVALDO SALVADOR        900000000000424500000000000004407818701828878300000                                        9 00187044044001PAGO FONDO DE AHORRO SNTE 5 2023-2024 SNTE SECC5                                                              00000000000000000000000005017000000113860      
SPDMSNTE5AHORRO@OUTLOOK.COM                                                                             0000000000000000044078187018288783000020240815155017000000113860                                                                                                                                                                                                          
SPTB000000100000000001261555000000000000000000000000000000000000000000000000000000000000000000000000000000000000000000000000000000000000000000000000000000100000000001261555000000000000000000000000000000000000000000000000000000000000000000000000000                                                                                                                           
SPHB000000256021994360000024213000                                                                                                                                                                                                                                                                                                                                                
SPDP04000000000020821612024081503BAMA020730GA2       BAMA020730GA2BARROZO MATA AMERICA MONSERRATH         900000000002421300000000000001218001522626832500000                                        9 00000044012001PAGO FONDO DE AHORRO SNTE 5 2023-2024 SNTE SECC5                                                              0000000000000000000000000ISP0000000113864      
SPDMSNTE5AHORRO@OUTLOOK.COM                                                                             00000000000000000121800152262683252024081540044DISP0000000113864                                                                                                                                                                                                          
SPTB000000100000000002082161000000000000000000000000000000000000000000000000000000000000000000000000000000000000000000000000000000000000000000000000000000100000000002082161000000000000000000000000000000000000000000000000000000000000000000000000000                                                                                                                           
SPHB000000256021994360000024450000                                                                                                                                                                                                                                                                                                                                                
SPDP04000000000020826992024081503MAMI010312D82       MAMI010312D82MACIAS MATAMOROS IVAN ALEJANDRO         900000000002445000000000000001218001567147875700000                                        9 00000044012001PAGO FONDO DE AHORRO SNTE 5 2023-2024 SNTE SECC5                                                              0000000000000000000000000ISP0000000113866      
SPDMSNTE5AHORRO@OUTLOOK.COM                                                                             00000000000000000121800156714787572024081540044DISP0000000113866                                                                                                                                                                                                          
SPTB000000100000000002082699000000000000000000000000000000000000000000000000000000000000000000000000000000000000000000000000000000000000000000000000000000100000000002082699000000000000000000000000000000000000000000000000000000000000000000000000000                                                                                                                           
SPHB000000256021994360000024460000                                                                                                                                                                                                                                                                                                                                                
SPDP04000000000025701062024081503MATP0204161R9       MATP0204161R9MARTINEZ TOBIAS PERLA ESMERALDA         900000000002446000000000000001218001590638395700000                                        9 00000044012001PAGO FONDO DE AHORRO SNTE 5 2023-2024 SNTE SECC5                                                              0000000000000000000000000ISP0000000113867      
SPDMSNTE5AHORRO@OUTLOOK.COM                                                                             00000000000000000121800159063839572024081540044DISP0000000113867                                                                                                                                                                                                          
SPTB000000100000000002570106000000000000000000000000000000000000000000000000000000000000000000000000000000000000000000000000000000000000000000000000000000100000000002570106000000000000000000000000000000000000000000000000000000000000000000000000000                                                                                                                           
SPHB000000256021994360000024265000                                                                                                                                                                                                                                                                                                                                                
SPDP04000000000026785522024081503MELA001028SB3       MELA001028SB3MEJIA LOPEZ ALFA VICTORIA               900000000002426500000000000001218001514634311300000                                        9 00000044012001PAGO FONDO DE AHORRO SNTE 5 2023-2024 SNTE SECC5                                                              0000000000000000000000000ISP0000000113868      
SPDMSNTE5AHORRO@OUTLOOK.COM                                                                             00000000000000000121800151463431132024081540044DISP0000000113868                                                                                                                                                                                                          
SPTB000000100000000002678552000000000000000000000000000000000000000000000000000000000000000000000000000000000000000000000000000000000000000000000000000000100000000002678552000000000000000000000000000000000000000000000000000000000000000000000000000                                                                                                                           
SPHB000000256021994360000025259000                                                                                                                                                                                                                                                                                                                                                
SPDP04000000000009315292024081503MERA970331U12       MERA970331U12MENDOZA RODRIGUEZ ALBERTO JOSUE         900000000002525900000000000002107806495208203900000                                        9 00000044021001PAGO FONDO DE AHORRO SNTE 5 2023-2024 SNTE SECC5                                                              0000000000000000000000000ISP0000000113869      
SPDMSNTE5AHORRO@OUTLOOK.COM                                                                             00000000000000000210780649520820392024081540044DISP0000000113869                                                                                                                                                                                                          
SPTB000000100000000000931529000000000000000000000000000000000000000000000000000000000000000000000000000000000000000000000000000000000000000000000000000000100000000000931529000000000000000000000000000000000000000000000000000000000000000000000000000                                                                                                                           
SPHB000000256021994360000024589000                                                                                                                                                                                                                                                                                                                                                
SPDP04000000000017250292024081503CAHK951221I17       CAHK951221I17CHAVEZ HERNANDEZ KARINA LIZETH          900000000002458900000000000001242001590991958300000                                        9 00000044012001PAGO FONDO DE AHORRO SNTE 5 2023-2024 SNTE SECC5                                                              0000000000000000000000000ISP0000000113870      
SPDMSNTE5AHORRO@OUTLOOK.COM                                                                             00000000000000000124200159099195832024081540044DISP0000000113870                                                                                                                                                                                                          
SPTB000000100000000001725029000000000000000000000000000000000000000000000000000000000000000000000000000000000000000000000000000000000000000000000000000000100000000001725029000000000000000000000000000000000000000000000000000000000000000000000000000                                                                                                                           
SPHB000000256021994360000025294000                                                                                                                                                                                                                                                                                                                                                
SPDP04000000000013430892024081503CAIA990830M37       CAIA990830M37CASILLAS IBARRA ANA PATRICIA            900000000002529400000000000001218001580229250800000                                        9 00000044012001PAGO FONDO DE AHORRO SNTE 5 2023-2024 SNTE SECC5                                                              0000000000000000000000000ISP0000000113871      
SPDMSNTE5AHORRO@OUTLOOK.COM                                                                             00000000000000000121800158022925082024081540044DISP0000000113871                                                                                                                                                                                                          
SPTB000000100000000001343089000000000000000000000000000000000000000000000000000000000000000000000000000000000000000000000000000000000000000000000000000000100000000001343089000000000000000000000000000000000000000000000000000000000000000000000000000                                                                                                                           
SPHB000000256021994360000024342000                                                                                                                                                                                                                                                                                                                                                
SPDP04000000000007459012024081503CAJC020114MCA       CAJC020114MCACANO JUAREZ CITLALI ANAHY               900000000002434200000000000001207401590151330400000                                        9 00000044012001PAGO FONDO DE AHORRO SNTE 5 2023-2024 SNTE SECC5                                                              0000000000000000000000000ISP0000000113872      
SPDMSNTE5AHORRO@OUTLOOK.COM                                                                             00000000000000000120740159015133042024081540044DISP0000000113872                                                                                                                                                                                                          
SPTB000000100000000000745901000000000000000000000000000000000000000000000000000000000000000000000000000000000000000000000000000000000000000000000000000000100000000000745901000000000000000000000000000000000000000000000000000000000000000000000000000                                                                                                                           
SPHB000000256021994360000024887000                                                                                                                                                                                                                                                                                                                                                
SPDP04000000000010554342024081503CAMA771219KK5       CAMA771219KK5CHARLES MONTA#EZ ANA LAURA              900000000002488700000000000001407856817115697400000                                        9 00000044014001PAGO FONDO DE AHORRO SNTE 5 2023-2024 SNTE SECC5                                                              0000000000000000000000000ISP0000000113873      
SPDMSNTE5AHORRO@OUTLOOK.COM                                                                             00000000000000000140785681711569742024081540044DISP0000000113873                                                                                                                                                                                                          
SPTB000000100000000001055434000000000000000000000000000000000000000000000000000000000000000000000000000000000000000000000000000000000000000000000000000000100000000001055434000000000000000000000000000000000000000000000000000000000000000000000000000                                                                                                                           
SPHB000000256021994360000024903000                                                                                                                                                                                                                                                                                                                                                
SPDP04000000000008259602024081503MOEF840324N63       MOEF840324N63MOLINA ESPINOZA FRANCISCO JAVIER        900000000002490300000000000001406856880172419400000                                        9 00000044014001PAGO FONDO DE AHORRO SNTE 5 2023-2024 SNTE SECC5                                                              0000000000000000000000000ISP0000000113874      
SPDMSNTE5AHORRO@OUTLOOK.COM                                                                             00000000000000000140685688017241942024081540044DISP0000000113874                                                                                                                                                                                                          
SPTB000000100000000000825960000000000000000000000000000000000000000000000000000000000000000000000000000000000000000000000000000000000000000000000000000000100000000000825960000000000000000000000000000000000000000000000000000000000000000000000000000                                                                                                                           
SPHB000000256021994360000024274000                                                                                                                                                                                                                                                                                                                                                
SPDP04000000000018098372024081503MORK980717VE3       MORK980717VE3MONTEJO RIOS KAREN DANIELA              900000000002427400000000000001207801517089007400000                                        9 00000044012001PAGO FONDO DE AHORRO SNTE 5 2023-2024 SNTE SECC5                                                              0000000000000000000000000ISP0000000113875      
SPDMSNTE5AHORRO@OUTLOOK.COM                                                                             00000000000000000120780151708900742024081540044DISP0000000113875                                                                                                                                                                                                          
SPTB000000100000000001809837000000000000000000000000000000000000000000000000000000000000000000000000000000000000000000000000000000000000000000000000000000100000000001809837000000000000000000000000000000000000000000000000000000000000000000000000000                                                                                                                           
SPHB000000256021994360000024348000                                                                                                                                                                                                                                                                                                                                                
SPDP04000000000018401762024081503CEAL000610F4A       CEAL000610F4ACERVANTES DE AVILA LUZ MARIANA          900000000002434800000000000001207401590878949000000                                        9 00000044012001PAGO FONDO DE AHORRO SNTE 5 2023-2024 SNTE SECC5                                                              0000000000000000000000000ISP0000000113876      
SPDMSNTE5AHORRO@OUTLOOK.COM                                                                             00000000000000000120740159087894902024081540044DISP0000000113876                                                                                                                                                                                                          
SPTB000000100000000001840176000000000000000000000000000000000000000000000000000000000000000000000000000000000000000000000000000000000000000000000000000000100000000001840176000000000000000000000000000000000000000000000000000000000000000000000000000                                                                                                                           
SPHB000000256021994360000024594000                                                                                                                                                                                                                                                                                                                                                
SPDP04000000000019184912024081503CEGK010103QV9       CEGK010103QV9CLEMENTE GOMEZ KARINA GUADALUPE         900000000002459400000000000001218001590057279300000                                        9 00000044012001PAGO FONDO DE AHORRO SNTE 5 2023-2024 SNTE SECC5                                                              0000000000000000000000000ISP0000000113877      
SPDMSNTE5AHORRO@OUTLOOK.COM                                                                             00000000000000000121800159005727932024081540044DISP0000000113877                                                                                                                                                                                                          
SPTB000000100000000001918491000000000000000000000000000000000000000000000000000000000000000000000000000000000000000000000000000000000000000000000000000000100000000001918491000000000000000000000000000000000000000000000000000000000000000000000000000                                                                                                                           
SPHB000000256021994360000024277000                                                                                                                                                                                                                                                                                                                                                
SPDP04000000000026785522024081503NATN010613LN6       NATN010613LN6NAVARRO TAPIA NAYELI GUADALUPE          900000000002427700000000000002107706590242850400000                                        9 00000044021001PAGO FONDO DE AHORRO SNTE 5 2023-2024 SNTE SECC5                                                              0000000000000000000000000ISP0000000113878      
SPDMSNTE5AHORRO@OUTLOOK.COM                                                                             00000000000000000210770659024285042024081540044DISP0000000113878                                                                                                                                                                                                          
SPTB000000100000000002678552000000000000000000000000000000000000000000000000000000000000000000000000000000000000000000000000000000000000000000000000000000100000000002678552000000000000000000000000000000000000000000000000000000000000000000000000000                                                                                                                           
SPHB000000256021994360000025311000                                                                                                                                                                                                                                                                                                                                                
SPDP04000000000006057642024081503NIGN991025K30       NIGN991025K30NIETO GARCIA NANCY SARAHI               900000000002531100000000000001218001515491873400000                                        9 00000044012001PAGO FONDO DE AHORRO SNTE 5 2023-2024 SNTE SECC5                                                              0000000000000000000000000ISP0000000113879      
SPDMSNTE5AHORRO@OUTLOOK.COM                                                                             00000000000000000121800151549187342024081540044DISP0000000113879                                                                                                                                                                                                          
SPTB000000100000000000605764000000000000000000000000000000000000000000000000000000000000000000000000000000000000000000000000000000000000000000000000000000100000000000605764000000000000000000000000000000000000000000000000000000000000000000000000000                                                                                                                           
SPHB000000256021994360000025156000                                                                                                                                                                                                                                                                                                                                                
SPDP04000000000009065372024081503OACG8603288I2       OACG8603288I2OTAMENDI CISNEROS GLORIA ANDREA         900000000002515600000000000007258001002970788000000                                        9 00000044072001PAGO FONDO DE AHORRO SNTE 5 2023-2024 SNTE SECC5                                                              0000000000000000000000000ISP0000000113880      
SPDMSNTE5AHORRO@OUTLOOK.COM                                                                             00000000000000000725800100297078802024081540044DISP0000000113880                                                                                                                                                                                                          
SPTB000000100000000000906537000000000000000000000000000000000000000000000000000000000000000000000000000000000000000000000000000000000000000000000000000000100000000000906537000000000000000000000000000000000000000000000000000000000000000000000000000                                                                                                                           
SPHB000000256021994360000024905000                                                                                                                                                                                                                                                                                                                                                
SPDP04000000000010554322024081503OIMM870502865       OIMM870502865ORTIZ MARTINEZ MAYRA LIZETH             900000000002490500000000000001407856842200977000000                                        9 00000044014001PAGO FONDO DE AHORRO SNTE 5 2023-2024 SNTE SECC5                                                              0000000000000000000000000ISP0000000113881      
SPDMSNTE5AHORRO@OUTLOOK.COM                                                                             00000000000000000140785684220097702024081540044DISP0000000113881                                                                                                                                                                                                          
SPTB000000100000000001055432000000000000000000000000000000000000000000000000000000000000000000000000000000000000000000000000000000000000000000000000000000100000000001055432000000000000000000000000000000000000000000000000000000000000000000000000000                                                                                                                           
SPHB000000256021994360000024490000                                                                                                                                                                                                                                                                                                                                                
SPDP04000000000016149142024081503OIRG901203T26       OIRG901203T26OLIVARES RAMOS MARIA GUADALUPE          900000000002449000000000000004407818702611546600000                                        9 00187044044001PAGO FONDO DE AHORRO SNTE 5 2023-2024 SNTE SECC5                                                              00000000000000000000000005017000000113882      
SPDMSNTE5AHORRO@OUTLOOK.COM                                                                             0000000000000000044078187026115466000020240815155017000000113882                                                                                                                                                                                                          
SPTB000000100000000001614914000000000000000000000000000000000000000000000000000000000000000000000000000000000000000000000000000000000000000000000000000000100000000001614914000000000000000000000000000000000000000000000000000000000000000000000000000                                                                                                                           
SPHB000000256021994360000025417000                                                                                                                                                                                                                                                                                                                                                
SPDP04000000000003065812024081503CULJ031209V76       CULJ031209V76DE LA CRUZ LOPEZ JESUS ANTONIO          900000000002541700000000000001407856884595056100000                                        9 00000044014001PAGO FONDO DE AHORRO SNTE 5 2023-2024 SNTE SECC5                                                              0000000000000000000000000ISP0000000113883      
SPDMSNTE5AHORRO@OUTLOOK.COM                                                                             00000000000000000140785688459505612024081540044DISP0000000113883                                                                                                                                                                                                          
SPTB000000100000000000306581000000000000000000000000000000000000000000000000000000000000000000000000000000000000000000000000000000000000000000000000000000100000000000306581000000000000000000000000000000000000000000000000000000000000000000000000000                                                                                                                           
SPHB000000256021994360000022032000                                                                                                                                                                                                                                                                                                                                                
SPDP04000000000019616472024081503CUMG8803258UA       CUMG8803258UADE LA CRUZ MONITA GLORIA GABRIELA       900000000002203200000000000001218001567238248600000                                        9 00000044012001PAGO FONDO DE AHORRO SNTE 5 2023-2024 SNTE SECC5                                                              0000000000000000000000000ISP0000000113884      
SPDMSNTE5AHORRO@OUTLOOK.COM                                                                             00000000000000000121800156723824862024081540044DISP0000000113884                                                                                                                                                                                                          
SPTB000000100000000001961647000000000000000000000000000000000000000000000000000000000000000000000000000000000000000000000000000000000000000000000000000000100000000001961647000000000000000000000000000000000000000000000000000000000000000000000000000                                                                                                                           
SPHB000000256021994360000024709000                                                                                                                                                                                                                                                                                                                                                
SPDP04000000000018375822024081503CUSJ0111248T9       CUSJ0111248T9DE LA CRUZ SANCHEZ JAZMIN AZUCENA       900000000002470900000000000001207801562256980800000                                        9 00000044012001PAGO FONDO DE AHORRO SNTE 5 2023-2024 SNTE SECC5                                                              0000000000000000000000000ISP0000000113885      
SPDMSNTE5AHORRO@OUTLOOK.COM                                                                             00000000000000000120780156225698082024081540044DISP0000000113885                                                                                                                                                                                                          
SPTB000000100000000001837582000000000000000000000000000000000000000000000000000000000000000000000000000000000000000000000000000000000000000000000000000000100000000001837582000000000000000000000000000000000000000000000000000000000000000000000000000                                                                                                                           
SPHB000000256021994360000024760000                                                                                                                                                                                                                                                                                                                                                
SPDP04000000000015577552024081503CUUA930622AAA       CUUA930622AAADE LA CRUZ URBINA AARON JEHU            900000000002476000000000000001207801545359368700000                                        9 00000044012001PAGO FONDO DE AHORRO SNTE 5 2023-2024 SNTE SECC5                                                              0000000000000000000000000ISP0000000113886      
SPDMSNTE5AHORRO@OUTLOOK.COM                                                                             00000000000000000120780154535936872024081540044DISP0000000113886                                                                                                                                                                                                          
SPTB000000100000000001557755000000000000000000000000000000000000000000000000000000000000000000000000000000000000000000000000000000000000000000000000000000100000000001557755000000000000000000000000000000000000000000000000000000000000000000000000000                                                                                                                           
SPHB000000256021994360000024196000                                                                                                                                                                                                                                                                                                                                                
SPDP04000000000006282802024081503PAHE7906292A6       PAHE7906292A6PADILLA HERNANDEZ EVELYN ALICIA         900000000002419600000000000001207801551884926300000                                        9 00000044012001PAGO FONDO DE AHORRO SNTE 5 2023-2024 SNTE SECC5                                                              0000000000000000000000000ISP0000000113887      
SPDMSNTE5AHORRO@OUTLOOK.COM                                                                             00000000000000000120780155188492632024081540044DISP0000000113887                                                                                                                                                                                                          
SPTB000000100000000000628280000000000000000000000000000000000000000000000000000000000000000000000000000000000000000000000000000000000000000000000000000000100000000000628280000000000000000000000000000000000000000000000000000000000000000000000000000                                                                                                                           
SPHB000000256021994360000024873000                                                                                                                                                                                                                                                                                                                                                
SPDP04000000000016825552024081503PEAG951007N78       PEAG951007N78PEREZ ALDERETE GUSTAVO DANIEL           900000000002487300000000000001207701555815236400000                                        9 00000044012001PAGO FONDO DE AHORRO SNTE 5 2023-2024 SNTE SECC5                                                              0000000000000000000000000ISP0000000113888      
SPDMSNTE5AHORRO@OUTLOOK.COM                                                                             00000000000000000120770155581523642024081540044DISP0000000113888                                                                                                                                                                                                          
SPTB000000100000000001682555000000000000000000000000000000000000000000000000000000000000000000000000000000000000000000000000000000000000000000000000000000100000000001682555000000000000000000000000000000000000000000000000000000000000000000000000000                                                                                                                           
SPHB000000256021994360000024229000                                                                                                                                                                                                                                                                                                                                                
SPDP04000000000026785522024081503DOMT0012025I0       DOMT0012025I0DOMINGUEZ MIRANDA TANIA VALERIA         900000000002422900000000000001218001514504719300000                                        9 00000044012001PAGO FONDO DE AHORRO SNTE 5 2023-2024 SNTE SECC5                                                              0000000000000000000000000ISP0000000113890      
SPDMSNTE5AHORRO@OUTLOOK.COM                                                                             00000000000000000121800151450471932024081540044DISP0000000113890                                                                                                                                                                                                          
SPTB000000100000000002678552000000000000000000000000000000000000000000000000000000000000000000000000000000000000000000000000000000000000000000000000000000100000000002678552000000000000000000000000000000000000000000000000000000000000000000000000000                                                                                                                           
SPHB000000256021994360000024358000                                                                                                                                                                                                                                                                                                                                                
SPDP04000000000007459012024081503DURS0210155W8       DURS0210155W8DURAN RUIZ SAMANTA                      900000000002435800000000000001242001590390262200000                                        9 00000044012001PAGO FONDO DE AHORRO SNTE 5 2023-2024 SNTE SECC5                                                              0000000000000000000000000ISP0000000113891      
SPDMSNTE5AHORRO@OUTLOOK.COM                                                                             00000000000000000124200159039026222024081540044DISP0000000113891                                                                                                                                                                                                          
SPTB000000100000000000745901000000000000000000000000000000000000000000000000000000000000000000000000000000000000000000000000000000000000000000000000000000100000000000745901000000000000000000000000000000000000000000000000000000000000000000000000000                                                                                                                           
SPHB000000256021994360000025380000                                                                                                                                                                                                                                                                                                                                                
SPDP04000000000006227062024081503EOPY000924RV7       EOPY000924RV7ESCOBEDO PALACIOS YOSELIN ISABEL        900000000002538000000000000001206201516797761500000                                        9 00000044012001PAGO FONDO DE AHORRO SNTE 5 2023-2024 SNTE SECC5                                                              0000000000000000000000000ISP0000000113893      
SPDMSNTE5AHORRO@OUTLOOK.COM                                                                             00000000000000000120620151679776152024081540044DISP0000000113893                                                                                                                                                                                                          
SPTB000000100000000000622706000000000000000000000000000000000000000000000000000000000000000000000000000000000000000000000000000000000000000000000000000000100000000000622706000000000000000000000000000000000000000000000000000000000000000000000000000                                                                                                                           
SPHB000000256021994360000024283000                                                                                                                                                                                                                                                                                                                                                
SPDP04000000000012702442024081503QUOD001112IW2       QUOD001112IW2QUEZADA OBREGON DULCE JUDITH            900000000002428300000000000000207890502082034000000                                        9 00000044002001PAGO FONDO DE AHORRO SNTE 5 2023-2024 SNTE SECC5                                                              0000000000000000000000000ISP0000000113894      
SPDMSNTE5AHORRO@OUTLOOK.COM                                                                             00000000000000000020789050208203402024081540044DISP0000000113894                                                                                                                                                                                                          
SPTB000000100000000001270244000000000000000000000000000000000000000000000000000000000000000000000000000000000000000000000000000000000000000000000000000000100000000001270244000000000000000000000000000000000000000000000000000000000000000000000000000                                                                                                                           
SPHB000000256021994360000024634000                                                                                                                                                                                                                                                                                                                                                
SPDP04000000000011830742024081503RAAC920112U44       RAAC920112U44RAMIREZ AREVALO CLAUDIA NOHEMI          900000000002463400000000000001258001536500706300000                                        9 00000044012001PAGO FONDO DE AHORRO SNTE 5 2023-2024 SNTE SECC5                                                              0000000000000000000000000ISP0000000113897      
SPDMSNTE5AHORRO@OUTLOOK.COM                                                                             00000000000000000125800153650070632024081540044DISP0000000113897                                                                                                                                                                                                          
SPTB000000100000000001183074000000000000000000000000000000000000000000000000000000000000000000000000000000000000000000000000000000000000000000000000000000100000000001183074000000000000000000000000000000000000000000000000000000000000000000000000000                                                                                                                           
SPHB000000256021994360000025313000                                                                                                                                                                                                                                                                                                                                                
SPDP04000000000013377992024081503RAAL860419A47       RAAL860419A47RAMOS ALVAREZ LUIS HIRAM                900000000002531300000000000001218001511665415900000                                        9 00000044012001PAGO FONDO DE AHORRO SNTE 5 2023-2024 SNTE SECC5                                                              0000000000000000000000000ISP0000000113901      
SPDMSNTE5AHORRO@OUTLOOK.COM                                                                             00000000000000000121800151166541592024081540044DISP0000000113901                                                                                                                                                                                                          
SPTB000000100000000001337799000000000000000000000000000000000000000000000000000000000000000000000000000000000000000000000000000000000000000000000000000000100000000001337799000000000000000000000000000000000000000000000000000000000000000000000000000                                                                                                                           
SPHB000000256021994360000023885000                                                                                                                                                                                                                                                                                                                                                
SPDP04000000000028721002024081503FOCD831216S29       FOCD831216S29FLORES CORTES DICKLA ISMARY             900000000002388500000000000001207802954040961200000                                        9 00000044012001PAGO FONDO DE AHORRO SNTE 5 2023-2024 SNTE SECC5                                                              0000000000000000000000000ISP0000000113904      
SPDMSNTE5AHORRO@OUTLOOK.COM                                                                             00000000000000000120780295404096122024081540044DISP0000000113904                                                                                                                                                                                                          
SPTB000000100000000002872100000000000000000000000000000000000000000000000000000000000000000000000000000000000000000000000000000000000000000000000000000000100000000002872100000000000000000000000000000000000000000000000000000000000000000000000000000                                                                                                                           
SPHB000000256021994360000025048000                                                                                                                                                                                                                                                                                                                                                
SPDP04000000000013366672024081503RALN0211139R4       RALN0211139R4RAMOS LARA NAYELY LIZBETH               900000000002504800000000000001218001515935339400000                                        9 00000044012001PAGO FONDO DE AHORRO SNTE 5 2023-2024 SNTE SECC5                                                              0000000000000000000000000ISP0000000113908      
SPDMSNTE5AHORRO@OUTLOOK.COM                                                                             00000000000000000121800151593533942024081540044DISP0000000113908                                                                                                                                                                                                          
SPTB000000100000000001336667000000000000000000000000000000000000000000000000000000000000000000000000000000000000000000000000000000000000000000000000000000100000000001336667000000000000000000000000000000000000000000000000000000000000000000000000000                                                                                                                           
SPHB000000256021994360000025419000                                                                                                                                                                                                                                                                                                                                                
SPDP04000000000011591312024081503GADA990612SY5       GADA990612SY5GARCIA DUE#AS ADAL ANDRES               900000000002541900000000000001206801568382029500000                                        9 00000044012001PAGO FONDO DE AHORRO SNTE 5 2023-2024 SNTE SECC5                                                              0000000000000000000000000ISP0000000113919      
SPDMSNTE5AHORRO@OUTLOOK.COM                                                                             00000000000000000120680156838202952024081540044DISP0000000113919                                                                                                                                                                                                          
SPTB000000100000000001159131000000000000000000000000000000000000000000000000000000000000000000000000000000000000000000000000000000000000000000000000000000100000000001159131000000000000000000000000000000000000000000000000000000000000000000000000000                                                                                                                           
SPHB000000256021994360000024915000                                                                                                                                                                                                                                                                                                                                                
SPDP04000000000004228192024081503RIGV960103P16       RIGV960103P16RIVERA GONZALEZ VERONICA YUDITH         900000000002491500000000000001218001589330168600000                                        9 00000044012001PAGO FONDO DE AHORRO SNTE 5 2023-2024 SNTE SECC5                                                              0000000000000000000000000ISP0000000113924      
SPDMSNTE5AHORRO@OUTLOOK.COM                                                                             00000000000000000121800158933016862024081540044DISP0000000113924                                                                                                                                                                                                          
SPTB000000100000000000422819000000000000000000000000000000000000000000000000000000000000000000000000000000000000000000000000000000000000000000000000000000100000000000422819000000000000000000000000000000000000000000000000000000000000000000000000000                                                                                                                           
SPHB000000256021994360000024289000                                                                                                                                                                                                                                                                                                                                                
SPDP04000000000009630462024081503RIRV0107228Z3       RIRV0107228Z3RIOS RIOS VIVIAN DE LOS ANGELES         900000000002428900000000000001206501589523850000000                                        9 00000044012001PAGO FONDO DE AHORRO SNTE 5 2023-2024 SNTE SECC5                                                              0000000000000000000000000ISP0000000113933      
SPDMSNTE5AHORRO@OUTLOOK.COM                                                                             00000000000000000120650158952385002024081540044DISP0000000113933                                                                                                                                                                                                          
SPTB000000100000000000963046000000000000000000000000000000000000000000000000000000000000000000000000000000000000000000000000000000000000000000000000000000100000000000963046000000000000000000000000000000000000000000000000000000000000000000000000000                                                                                                                           
SPHB000000256021994360000024712000                                                                                                                                                                                                                                                                                                                                                
SPDP04000000000010661002024081503GAMD9209121W2       GAMD9209121W2GALLEGOS MORENO DEYANIRA ELIZABETH      900000000002471200000000000001407214000482904800000                                        9 00000044014001PAGO FONDO DE AHORRO SNTE 5 2023-2024 SNTE SECC5                                                              0000000000000000000000000ISP0000000113935      
SPDMSNTE5AHORRO@OUTLOOK.COM                                                                             00000000000000000140721400048290482024081540044DISP0000000113935                                                                                                                                                                                                          
SPTB000000100000000001066100000000000000000000000000000000000000000000000000000000000000000000000000000000000000000000000000000000000000000000000000000000100000000001066100000000000000000000000000000000000000000000000000000000000000000000000000000                                                                                                                           
