SPHA0932601202408212024082120240821000                                                                                                                                                                                                                                                                                                                                            
SPHB000000256021994360000000035000                                                                                                                                                                                                                                                                                                                                                
SPDP04000000000001871272024082003VAME740728E56       VAME740728E56ALVAREZ AGUILAR DIANA MARICELA          900000000000003500000000000007207801052285357800000                                        9 00000044072001PAGO PENSION ALIMENTICIA SNTE 5 2020-2021 SECC5                                                               0000000000000000000000000ISP0000000014444      
SPDMSNTE5AHORRO@OUTLOOK.COM                                                                             00000000000000000720780105228535782024082040044DISP0000000014444                                                                                                                                                                                                          
SPTB000000100000000000187127000000000000000000000000000000000000000000000000000000000000000000000000000000000000000000000000000000000000000000000000000000100000000000187127000000000000000000000000000000000000000000000000000000000000000000000000000                                                                                                                           
SPHB000000256021994360000000219000                                                                                                                                                                                                                                                                                                                                                
SPDP04000000000009837792024082003VAGM840225E88       VAGM840225E88AGUIRRE HERNANDEZ SUSANA                900000000000021900000000000001207902719467017300000                                        9 00000044012001PAGO PENSION ALIMENTICIA SNTE 5 2023-2024 SECC5                                                               0000000000000000000000000ISP0000000014690      
SPDMSNTE5AHORRO@OUTLOOK.COM                                                                             00000000000000000120790271946701732024082040044DISP0000000014690                                                                                                                                                                                                          
SPTB000000100000000000983779000000000000000000000000000000000000000000000000000000000000000000000000000000000000000000000000000000000000000000000000000000100000000000983779000000000000000000000000000000000000000000000000000000000000000000000000000                                                                                                                           
SPHB000000256021994360000022805000                                                                                                                                                                                                                                                                                                                                                
SPDP04000000000031262172024082003VEBJ720503LBA       VEBJ720503LBAVELIZ BARRERA JOSE JUAN                 900000000002280500000000000007207501199645593100000                                        9 00000044072001PAGO FONDO DE AHORRO SNTE 5 2023-2024 SNTE SECC5                                                              0000000000000000000000000ISP0000000014731      
SPDMSNTE5AHORRO@OUTLOOK.COM                                                                             00000000000000000720750119964559312024082040044DISP0000000014731                                                                                                                                                                                                          
SPTB000000100000000003126217000000000000000000000000000000000000000000000000000000000000000000000000000000000000000000000000000000000000000000000000000000100000000003126217000000000000000000000000000000000000000000000000000000000000000000000000000                                                                                                                           
SPHB000000256021994360000025060000                                                                                                                                                                                                                                                                                                                                                
SPDP04000000000023725752024082003SAGJ9803057Q1       SAGJ9803057Q1SAUCEDO GARCIA JUAN CARLOS              900000000002506000000000000007219001201294018100000                                        9 00000044072001PAGO FONDO DE AHORRO SNTE 5 2023-2024 SNTE SECC5                                                              0000000000000000000000000ISP0000000014732      
SPDMSNTE5AHORRO@OUTLOOK.COM                                                                             00000000000000000721900120129401812024082040044DISP0000000014732                                                                                                                                                                                                          
SPTB000000100000000002372575000000000000000000000000000000000000000000000000000000000000000000000000000000000000000000000000000000000000000000000000000000100000000002372575000000000000000000000000000000000000000000000000000000000000000000000000000                                                                                                                           
SPHB000000256021994360000025254000                                                                                                                                                                                                                                                                                                                                                
SPDP04000000000013513002024082003HEDZ940522FN0       HEDZ940522FN0HERNANDEZ DAVALOS ZAIDA VIRIDIANA       900000000002525400000000000001206801121299069700000                                        9 00000044012001PAGO FONDO DE AHORRO SNTE 5 2023-2024 SNTE SECC5                                                              0000000000000000000000000ISP0000000014733      
SPDMSNTE5AHORRO@OUTLOOK.COM                                                                             00000000000000000120680112129906972024082040044DISP0000000014733                                                                                                                                                                                                          
SPTB000000100000000001351300000000000000000000000000000000000000000000000000000000000000000000000000000000000000000000000000000000000000000000000000000000100000000001351300000000000000000000000000000000000000000000000000000000000000000000000000000                                                                                                                           
SPHB000000256021994360000024699000                                                                                                                                                                                                                                                                                                                                                
SPDP04000000000007502402024082003TOLB000504S61       TOLB000504S61TORRES LOPEZ BERIA MERARI               900000000002469900000000000001207801533490366800000                                        9 00000044012001PAGO FONDO DE AHORRO SNTE 5 2023-2024 SNTE SECC5                                                              0000000000000000000000000ISP0000000014734      
SPDMSNTE5AHORRO@OUTLOOK.COM                                                                             00000000000000000120780153349036682024082040044DISP0000000014734                                                                                                                                                                                                          
SPTB000000100000000000750240000000000000000000000000000000000000000000000000000000000000000000000000000000000000000000000000000000000000000000000000000000100000000000750240000000000000000000000000000000000000000000000000000000000000000000000000000                                                                                                                           
SPHB000000256021994360000024310000                                                                                                                                                                                                                                                                                                                                                
SPDP04000000000017050452024082003AACV010215MR0       AACV010215MR0ALVARADO CARDONA VANESSA ANAHI          900000000002431000000000000001207801570745941900000                                        9 00000044012001PAGO FONDO DE AHORRO SNTE 5 2023-2024 SNTE SECC5                                                              0000000000000000000000000ISP0000000014735      
SPDMSNTE5AHORRO@OUTLOOK.COM                                                                             00000000000000000120780157074594192024082040044DISP0000000014735                                                                                                                                                                                                          
SPTB000000100000000001705045000000000000000000000000000000000000000000000000000000000000000000000000000000000000000000000000000000000000000000000000000000100000000001705045000000000000000000000000000000000000000000000000000000000000000000000000000                                                                                                                           
SPHB000000256021994360000022653000                                                                                                                                                                                                                                                                                                                                                
SPDP04000000000007444852024082003NAMK981228EB2       NAMK981228EB2NARVAEZ MONCADA KAREN STEFHANIA         900000000002265300000000000000206890496705954400000                                        9 00000044002001PAGO FONDO DE AHORRO SNTE 5 2023-2024 SNTE SECC5                                                              0000000000000000000000000ISP0000000014736      
SPDMSNTE5AHORRO@OUTLOOK.COM                                                                             00000000000000000020689049670595442024082040044DISP0000000014736                                                                                                                                                                                                          
SPTB000000100000000000744485000000000000000000000000000000000000000000000000000000000000000000000000000000000000000000000000000000000000000000000000000000100000000000744485000000000000000000000000000000000000000000000000000000000000000000000000000                                                                                                                           
SPHB000000256021994360000024282000                                                                                                                                                                                                                                                                                                                                                
SPDP04000000000027010462024082003PURA970617BM7       PURA970617BM7PUENTES RAMIREZ ALEJANDRA               900000000002428200000000000001206001594684543600000                                        9 00000044012001PAGO FONDO DE AHORRO SNTE 5 2023-2024 SNTE SECC5                                                              0000000000000000000000000ISP0000000014737      
SPDMSNTE5AHORRO@OUTLOOK.COM                                                                             00000000000000000120600159468454362024082040044DISP0000000014737                                                                                                                                                                                                          
SPTB000000100000000002701046000000000000000000000000000000000000000000000000000000000000000000000000000000000000000000000000000000000000000000000000000000100000000002701046000000000000000000000000000000000000000000000000000000000000000000000000000                                                                                                                           
SPHB000000256021994360000024027000                                                                                                                                                                                                                                                                                                                                                
SPDP04000000000004496692024082003VARM990813IR5       VARM990813IR5VALDES RAMIREZ MARTIN DAVID             900000000002402700000000000001407856857736554700000                                        9 00000044014001PAGO FONDO DE AHORRO SNTE 5 2023-2024 SNTE SECC5                                                              0000000000000000000000000ISP0000000014738      
SPDMSNTE5AHORRO@OUTLOOK.COM                                                                             00000000000000000140785685773655472024082040044DISP0000000014738                                                                                                                                                                                                          
SPTB000000100000000000449669000000000000000000000000000000000000000000000000000000000000000000000000000000000000000000000000000000000000000000000000000000100000000000449669000000000000000000000000000000000000000000000000000000000000000000000000000                                                                                                                           
SPHB000000256021994360000025292000                                                                                                                                                                                                                                                                                                                                                
SPDP04000000000000730452024082003AUON740129MJ7       AUON740129MJ7AGUIRRE ORDAZ NANCY                     900000000002529200000000000001207801572787908200000                                        9 00000044012001PAGO FONDO DE AHORRO SNTE 5 2023-2024 SNTE SECC5                                                              0000000000000000000000000ISP0000000014739      
SPDMSNTE5AHORRO@OUTLOOK.COM                                                                             00000000000000000120780157278790822024082040044DISP0000000014739                                                                                                                                                                                                          
SPTB000000100000000000073045000000000000000000000000000000000000000000000000000000000000000000000000000000000000000000000000000000000000000000000000000000100000000000073045000000000000000000000000000000000000000000000000000000000000000000000000000                                                                                                                           
SPHB000000256021994360000023887000                                                                                                                                                                                                                                                                                                                                                
SPDP04000000000017525922024082003MEVR9408057S7       MEVR9408057S7MEMBRILLO VILLARREAL ROSA MARIA         900000000002388700000000000001207801542747025700000                                        9 00000044012001PAGO FONDO DE AHORRO SNTE 5 2023-2024 SNTE SECC5                                                              0000000000000000000000000ISP0000000014740      
SPDMSNTE5AHORRO@OUTLOOK.COM                                                                             00000000000000000120780154274702572024082040044DISP0000000014740                                                                                                                                                                                                          
SPTB000000100000000001752592000000000000000000000000000000000000000000000000000000000000000000000000000000000000000000000000000000000000000000000000000000100000000001752592000000000000000000000000000000000000000000000000000000000000000000000000000                                                                                                                           
SPHB000000256021994360000024690000                                                                                                                                                                                                                                                                                                                                                
SPDP04000000000022777282024082003RECM981111HK2       RECM981111HK2REYES CASTRO MICHELL ADAMARIS           900000000002469000000000000001218001594063478500000                                        9 00000044012001PAGO FONDO DE AHORRO SNTE 5 2023-2024 SNTE SECC5                                                              0000000000000000000000000ISP0000000014741      
SPDMSNTE5AHORRO@OUTLOOK.COM                                                                             00000000000000000121800159406347852024082040044DISP0000000014741                                                                                                                                                                                                          
SPTB000000100000000002277728000000000000000000000000000000000000000000000000000000000000000000000000000000000000000000000000000000000000000000000000000000100000000002277728000000000000000000000000000000000000000000000000000000000000000000000000000                                                                                                                           
SPHB000000256021994360000024099000                                                                                                                                                                                                                                                                                                                                                
SPDP04000000000004850172024082003GOHY870813BY1       GOHY870813BY1GOMEZ HERNANDEZ YESSICA KARINA          900000000002409900000000000001218001542836622900000                                        9 00000044012001PAGO FONDO DE AHORRO SNTE 5 2023-2024 SNTE SECC5                                                              0000000000000000000000000ISP0000000014742      
SPDMSNTE5AHORRO@OUTLOOK.COM                                                                             00000000000000000121800154283662292024082040044DISP0000000014742                                                                                                                                                                                                          
SPTB000000100000000000485017000000000000000000000000000000000000000000000000000000000000000000000000000000000000000000000000000000000000000000000000000000100000000000485017000000000000000000000000000000000000000000000000000000000000000000000000000                                                                                                                           
SPTA000001400000000018959865000000000000000000000000000000000000000000000000000000000000000000000000000000000000000000000000000000000000000000000000000001400000000018959865000000000000000000000000000000000000000000000000000000000000000000000000000000                                                                                                                        
